{
	"my_token.sol": {
		"MyToken": {
			"abi": [
				{
					"inputs": [
						{
							"internalType": "string",
							"name": "_name",
							"type": "string"
						},
						{
							"internalType": "string",
							"name": "_symbol",
							"type": "string"
						},
						{
							"internalType": "uint8",
							"name": "_decimals",
							"type": "uint8"
						},
						{
							"internalType": "uint256",
							"name": "_initialSupply",
							"type": "uint256"
						}
					],
					"stateMutability": "nonpayable",
					"type": "constructor"
				},
				{
					"anonymous": false,
					"inputs": [
						{
							"indexed": true,
							"internalType": "address",
							"name": "owner",
							"type": "address"
						},
						{
							"indexed": true,
							"internalType": "address",
							"name": "spender",
							"type": "address"
						},
						{
							"indexed": false,
							"internalType": "uint256",
							"name": "value",
							"type": "uint256"
						}
					],
					"name": "Approval",
					"type": "event"
				},
				{
					"anonymous": false,
					"inputs": [
						{
							"indexed": true,
							"internalType": "address",
							"name": "from",
							"type": "address"
						},
						{
							"indexed": true,
							"internalType": "address",
							"name": "to",
							"type": "address"
						},
						{
							"indexed": false,
							"internalType": "uint256",
							"name": "value",
							"type": "uint256"
						}
					],
					"name": "Transfer",
					"type": "event"
				},
				{
					"inputs": [
						{
							"internalType": "address",
							"name": "",
							"type": "address"
						},
						{
							"internalType": "address",
							"name": "",
							"type": "address"
						}
					],
					"name": "allowance",
					"outputs": [
						{
							"internalType": "uint256",
							"name": "",
							"type": "uint256"
						}
					],
					"stateMutability": "view",
					"type": "function"
				},
				{
					"inputs": [
						{
							"internalType": "address",
							"name": "_spender",
							"type": "address"
						},
						{
							"internalType": "uint256",
							"name": "_value",
							"type": "uint256"
						}
					],
					"name": "approve",
					"outputs": [
						{
							"internalType": "bool",
							"name": "success",
							"type": "bool"
						}
					],
					"stateMutability": "nonpayable",
					"type": "function"
				},
				{
					"inputs": [
						{
							"internalType": "address",
							"name": "",
							"type": "address"
						}
					],
					"name": "balanceOf",
					"outputs": [
						{
							"internalType": "uint256",
							"name": "",
							"type": "uint256"
						}
					],
					"stateMutability": "view",
					"type": "function"
				},
				{
					"inputs": [
						{
							"internalType": "address[]",
							"name": "_recipients",
							"type": "address[]"
						},
						{
							"internalType": "uint256[]",
							"name": "_amounts",
							"type": "uint256[]"
						}
					],
					"name": "batchTransfer",
					"outputs": [],
					"stateMutability": "nonpayable",
					"type": "function"
				},
				{
					"inputs": [],
					"name": "decimals",
					"outputs": [
						{
							"internalType": "uint8",
							"name": "",
							"type": "uint8"
						}
					],
					"stateMutability": "view",
					"type": "function"
				},
				{
					"inputs": [],
					"name": "name",
					"outputs": [
						{
							"internalType": "string",
							"name": "",
							"type": "string"
						}
					],
					"stateMutability": "view",
					"type": "function"
				},
				{
					"inputs": [],
					"name": "symbol",
					"outputs": [
						{
							"internalType": "string",
							"name": "",
							"type": "string"
						}
					],
					"stateMutability": "view",
					"type": "function"
				},
				{
					"inputs": [],
					"name": "totalSupply",
					"outputs": [
						{
							"internalType": "uint256",
							"name": "",
							"type": "uint256"
						}
					],
					"stateMutability": "view",
					"type": "function"
				},
				{
					"inputs": [
						{
							"internalType": "address",
							"name": "_to",
							"type": "address"
						},
						{
							"internalType": "uint256",
							"name": "_value",
							"type": "uint256"
						}
					],
					"name": "transfer",
					"outputs": [
						{
							"internalType": "bool",
							"name": "success",
							"type": "bool"
						}
					],
					"stateMutability": "nonpayable",
					"type": "function"
				},
				{
					"inputs": [
						{
							"internalType": "address",
							"name": "_from",
							"type": "address"
						},
						{
							"internalType": "address",
							"name": "_to",
							"type": "address"
						},
						{
							"internalType": "uint256",
							"name": "_value",
							"type": "uint256"
						}
					],
					"name": "transferFrom",
					"outputs": [
						{
							"internalType": "bool",
							"name": "success",
							"type": "bool"
						}
					],
					"stateMutability": "nonpayable",
					"type": "function"
				}
			],
			"devdoc": {
				"kind": "dev",
				"methods": {},
				"version": 1
			},
			"evm": {
				"assembly": "    /* \"my_token.sol\":232:3680  contract MyToken {... */\n  mstore(0x40, 0x80)\n    /* \"my_token.sol\":929:1329  constructor(string memory _name, string memory _symbol, uint8 _decimals, uint256 _initialSupply) {... */\n  callvalue\n  dup1\n  iszero\n  tag_1\n  jumpi\n  0x00\n  dup1\n  revert\ntag_1:\n  pop\n  mload(0x40)\n  sub(codesize, bytecodeSize)\n  dup1\n  bytecodeSize\n  dup4\n  codecopy\n  dup2\n  dup2\n  add\n  0x40\n  mstore\n  dup2\n  add\n  swap1\n  tag_2\n  swap2\n  swap1\n  tag_3\n  jump\t// in\ntag_2:\n    /* \"my_token.sol\":1044:1049  _name */\n  dup4\n    /* \"my_token.sol\":1037:1041  name */\n  0x00\n    /* \"my_token.sol\":1037:1049  name = _name */\n  swap1\n  dup2\n  tag_6\n  swap2\n  swap1\n  tag_7\n  jump\t// in\ntag_6:\n  pop\n    /* \"my_token.sol\":1069:1076  _symbol */\n  dup3\n    /* \"my_token.sol\":1060:1066  symbol */\n  0x01\n    /* \"my_token.sol\":1060:1076  symbol = _symbol */\n  swap1\n  dup2\n  tag_8\n  swap2\n  swap1\n  tag_7\n  jump\t// in\ntag_8:\n  pop\n    /* \"my_token.sol\":1098:1107  _decimals */\n  dup2\n    /* \"my_token.sol\":1087:1095  decimals */\n  0x02\n  0x00\n    /* \"my_token.sol\":1087:1107  decimals = _decimals */\n  0x0100\n  exp\n  dup2\n  sload\n  dup2\n  0xff\n  mul\n  not\n  and\n  swap1\n  dup4\n  0xff\n  and\n  mul\n  or\n  swap1\n  sstore\n  pop\n    /* \"my_token.sol\":1163:1171  decimals */\n  0x02\n  0x00\n  swap1\n  sload\n  swap1\n  0x0100\n  exp\n  swap1\n  div\n  0xff\n  and\n    /* \"my_token.sol\":1155:1172  uint256(decimals) */\n  0xff\n  and\n    /* \"my_token.sol\":1149:1151  10 */\n  0x0a\n    /* \"my_token.sol\":1149:1172  10 ** uint256(decimals) */\n  tag_9\n  swap2\n  swap1\n  tag_10\n  jump\t// in\ntag_9:\n    /* \"my_token.sol\":1132:1146  _initialSupply */\n  dup2\n    /* \"my_token.sol\":1132:1172  _initialSupply * 10 ** uint256(decimals) */\n  tag_11\n  swap2\n  swap1\n  tag_12\n  jump\t// in\ntag_11:\n    /* \"my_token.sol\":1118:1129  totalSupply */\n  0x03\n    /* \"my_token.sol\":1118:1172  totalSupply = _initialSupply * 10 ** uint256(decimals) */\n  dup2\n  swap1\n  sstore\n  pop\n    /* \"my_token.sol\":1266:1277  totalSupply */\n  sload(0x03)\n    /* \"my_token.sol\":1242:1251  balanceOf */\n  0x04\n    /* \"my_token.sol\":1242:1263  balanceOf[msg.sender] */\n  0x00\n    /* \"my_token.sol\":1252:1262  msg.sender */\n  caller\n    /* \"my_token.sol\":1242:1263  balanceOf[msg.sender] */\n  0xffffffffffffffffffffffffffffffffffffffff\n  and\n  0xffffffffffffffffffffffffffffffffffffffff\n  and\n  dup2\n  mstore\n  0x20\n  add\n  swap1\n  dup2\n  mstore\n  0x20\n  add\n  0x00\n  keccak256\n    /* \"my_token.sol\":1242:1277  balanceOf[msg.sender] = totalSupply */\n  dup2\n  swap1\n  sstore\n  pop\n    /* \"my_token.sol\":929:1329  constructor(string memory _name, string memory _symbol, uint8 _decimals, uint256 _initialSupply) {... */\n  pop\n  pop\n  pop\n  pop\n    /* \"my_token.sol\":232:3680  contract MyToken {... */\n  jump(tag_13)\n    /* \"#utility.yul\":7:82   */\ntag_14:\n    /* \"#utility.yul\":40:46   */\n  0x00\n    /* \"#utility.yul\":73:75   */\n  0x40\n    /* \"#utility.yul\":67:76   */\n  mload\n    /* \"#utility.yul\":57:76   */\n  swap1\n  pop\n    /* \"#utility.yul\":7:82   */\n  swap1\n  jump\t// out\n    /* \"#utility.yul\":88:205   */\ntag_15:\n    /* \"#utility.yul\":197:198   */\n  0x00\n    /* \"#utility.yul\":194:195   */\n  dup1\n    /* \"#utility.yul\":187:199   */\n  revert\n    /* \"#utility.yul\":211:328   */\ntag_16:\n    /* \"#utility.yul\":320:321   */\n  0x00\n    /* \"#utility.yul\":317:318   */\n  dup1\n    /* \"#utility.yul\":310:322   */\n  revert\n    /* \"#utility.yul\":334:451   */\ntag_17:\n    /* \"#utility.yul\":443:444   */\n  0x00\n    /* \"#utility.yul\":440:441   */\n  dup1\n    /* \"#utility.yul\":433:445   */\n  revert\n    /* \"#utility.yul\":457:574   */\ntag_18:\n    /* \"#utility.yul\":566:567   */\n  0x00\n    /* \"#utility.yul\":563:564   */\n  dup1\n    /* \"#utility.yul\":556:568   */\n  revert\n    /* \"#utility.yul\":580:682   */\ntag_19:\n    /* \"#utility.yul\":621:627   */\n  0x00\n    /* \"#utility.yul\":672:674   */\n  0x1f\n    /* \"#utility.yul\":668:675   */\n  not\n    /* \"#utility.yul\":663:665   */\n  0x1f\n    /* \"#utility.yul\":656:661   */\n  dup4\n    /* \"#utility.yul\":652:666   */\n  add\n    /* \"#utility.yul\":648:676   */\n  and\n    /* \"#utility.yul\":638:676   */\n  swap1\n  pop\n    /* \"#utility.yul\":580:682   */\n  swap2\n  swap1\n  pop\n  jump\t// out\n    /* \"#utility.yul\":688:868   */\ntag_20:\n    /* \"#utility.yul\":736:813   */\n  0x4e487b7100000000000000000000000000000000000000000000000000000000\n    /* \"#utility.yul\":733:734   */\n  0x00\n    /* \"#utility.yul\":726:814   */\n  mstore\n    /* \"#utility.yul\":833:837   */\n  0x41\n    /* \"#utility.yul\":830:831   */\n  0x04\n    /* \"#utility.yul\":823:838   */\n  mstore\n    /* \"#utility.yul\":857:861   */\n  0x24\n    /* \"#utility.yul\":854:855   */\n  0x00\n    /* \"#utility.yul\":847:862   */\n  revert\n    /* \"#utility.yul\":874:1155   */\ntag_21:\n    /* \"#utility.yul\":957:984   */\n  tag_64\n    /* \"#utility.yul\":979:983   */\n  dup3\n    /* \"#utility.yul\":957:984   */\n  tag_19\n  jump\t// in\ntag_64:\n    /* \"#utility.yul\":949:955   */\n  dup2\n    /* \"#utility.yul\":945:985   */\n  add\n    /* \"#utility.yul\":1087:1093   */\n  dup2\n    /* \"#utility.yul\":1075:1085   */\n  dup2\n    /* \"#utility.yul\":1072:1094   */\n  lt\n    /* \"#utility.yul\":1051:1069   */\n  0xffffffffffffffff\n    /* \"#utility.yul\":1039:1049   */\n  dup3\n    /* \"#utility.yul\":1036:1070   */\n  gt\n    /* \"#utility.yul\":1033:1095   */\n  or\n    /* \"#utility.yul\":1030:1118   */\n  iszero\n  tag_65\n  jumpi\n    /* \"#utility.yul\":1098:1116   */\n  tag_66\n  tag_20\n  jump\t// in\ntag_66:\n    /* \"#utility.yul\":1030:1118   */\ntag_65:\n    /* \"#utility.yul\":1138:1148   */\n  dup1\n    /* \"#utility.yul\":1134:1136   */\n  0x40\n    /* \"#utility.yul\":1127:1149   */\n  mstore\n    /* \"#utility.yul\":917:1155   */\n  pop\n    /* \"#utility.yul\":874:1155   */\n  pop\n  pop\n  jump\t// out\n    /* \"#utility.yul\":1161:1290   */\ntag_22:\n    /* \"#utility.yul\":1195:1201   */\n  0x00\n    /* \"#utility.yul\":1222:1242   */\n  tag_68\n  tag_14\n  jump\t// in\ntag_68:\n    /* \"#utility.yul\":1212:1242   */\n  swap1\n  pop\n    /* \"#utility.yul\":1251:1284   */\n  tag_69\n    /* \"#utility.yul\":1279:1283   */\n  dup3\n    /* \"#utility.yul\":1271:1277   */\n  dup3\n    /* \"#utility.yul\":1251:1284   */\n  tag_21\n  jump\t// in\ntag_69:\n    /* \"#utility.yul\":1161:1290   */\n  swap2\n  swap1\n  pop\n  jump\t// out\n    /* \"#utility.yul\":1296:1604   */\ntag_23:\n    /* \"#utility.yul\":1358:1362   */\n  0x00\n    /* \"#utility.yul\":1448:1466   */\n  0xffffffffffffffff\n    /* \"#utility.yul\":1440:1446   */\n  dup3\n    /* \"#utility.yul\":1437:1467   */\n  gt\n    /* \"#utility.yul\":1434:1490   */\n  iszero\n  tag_71\n  jumpi\n    /* \"#utility.yul\":1470:1488   */\n  tag_72\n  tag_20\n  jump\t// in\ntag_72:\n    /* \"#utility.yul\":1434:1490   */\ntag_71:\n    /* \"#utility.yul\":1508:1537   */\n  tag_73\n    /* \"#utility.yul\":1530:1536   */\n  dup3\n    /* \"#utility.yul\":1508:1537   */\n  tag_19\n  jump\t// in\ntag_73:\n    /* \"#utility.yul\":1500:1537   */\n  swap1\n  pop\n    /* \"#utility.yul\":1592:1596   */\n  0x20\n    /* \"#utility.yul\":1586:1590   */\n  dup2\n    /* \"#utility.yul\":1582:1597   */\n  add\n    /* \"#utility.yul\":1574:1597   */\n  swap1\n  pop\n    /* \"#utility.yul\":1296:1604   */\n  swap2\n  swap1\n  pop\n  jump\t// out\n    /* \"#utility.yul\":1610:1856   */\ntag_24:\n    /* \"#utility.yul\":1691:1692   */\n  0x00\n    /* \"#utility.yul\":1701:1814   */\ntag_75:\n    /* \"#utility.yul\":1715:1721   */\n  dup4\n    /* \"#utility.yul\":1712:1713   */\n  dup2\n    /* \"#utility.yul\":1709:1722   */\n  lt\n    /* \"#utility.yul\":1701:1814   */\n  iszero\n  tag_77\n  jumpi\n    /* \"#utility.yul\":1800:1801   */\n  dup1\n    /* \"#utility.yul\":1795:1798   */\n  dup3\n    /* \"#utility.yul\":1791:1802   */\n  add\n    /* \"#utility.yul\":1785:1803   */\n  mload\n    /* \"#utility.yul\":1781:1782   */\n  dup2\n    /* \"#utility.yul\":1776:1779   */\n  dup5\n    /* \"#utility.yul\":1772:1783   */\n  add\n    /* \"#utility.yul\":1765:1804   */\n  mstore\n    /* \"#utility.yul\":1737:1739   */\n  0x20\n    /* \"#utility.yul\":1734:1735   */\n  dup2\n    /* \"#utility.yul\":1730:1740   */\n  add\n    /* \"#utility.yul\":1725:1740   */\n  swap1\n  pop\n    /* \"#utility.yul\":1701:1814   */\n  jump(tag_75)\ntag_77:\n    /* \"#utility.yul\":1848:1849   */\n  0x00\n    /* \"#utility.yul\":1839:1845   */\n  dup5\n    /* \"#utility.yul\":1834:1837   */\n  dup5\n    /* \"#utility.yul\":1830:1846   */\n  add\n    /* \"#utility.yul\":1823:1850   */\n  mstore\n    /* \"#utility.yul\":1672:1856   */\n  pop\n    /* \"#utility.yul\":1610:1856   */\n  pop\n  pop\n  pop\n  jump\t// out\n    /* \"#utility.yul\":1862:2296   */\ntag_25:\n    /* \"#utility.yul\":1951:1956   */\n  0x00\n    /* \"#utility.yul\":1976:2042   */\n  tag_79\n    /* \"#utility.yul\":1992:2041   */\n  tag_80\n    /* \"#utility.yul\":2034:2040   */\n  dup5\n    /* \"#utility.yul\":1992:2041   */\n  tag_23\n  jump\t// in\ntag_80:\n    /* \"#utility.yul\":1976:2042   */\n  tag_22\n  jump\t// in\ntag_79:\n    /* \"#utility.yul\":1967:2042   */\n  swap1\n  pop\n    /* \"#utility.yul\":2065:2071   */\n  dup3\n    /* \"#utility.yul\":2058:2063   */\n  dup2\n    /* \"#utility.yul\":2051:2072   */\n  mstore\n    /* \"#utility.yul\":2103:2107   */\n  0x20\n    /* \"#utility.yul\":2096:2101   */\n  dup2\n    /* \"#utility.yul\":2092:2108   */\n  add\n    /* \"#utility.yul\":2141:2144   */\n  dup5\n    /* \"#utility.yul\":2132:2138   */\n  dup5\n    /* \"#utility.yul\":2127:2130   */\n  dup5\n    /* \"#utility.yul\":2123:2139   */\n  add\n    /* \"#utility.yul\":2120:2145   */\n  gt\n    /* \"#utility.yul\":2117:2229   */\n  iszero\n  tag_81\n  jumpi\n    /* \"#utility.yul\":2148:2227   */\n  tag_82\n  tag_18\n  jump\t// in\ntag_82:\n    /* \"#utility.yul\":2117:2229   */\ntag_81:\n    /* \"#utility.yul\":2238:2290   */\n  tag_83\n    /* \"#utility.yul\":2283:2289   */\n  dup5\n    /* \"#utility.yul\":2278:2281   */\n  dup3\n    /* \"#utility.yul\":2273:2276   */\n  dup6\n    /* \"#utility.yul\":2238:2290   */\n  tag_24\n  jump\t// in\ntag_83:\n    /* \"#utility.yul\":1957:2296   */\n  pop\n    /* \"#utility.yul\":1862:2296   */\n  swap4\n  swap3\n  pop\n  pop\n  pop\n  jump\t// out\n    /* \"#utility.yul\":2316:2671   */\ntag_26:\n    /* \"#utility.yul\":2383:2388   */\n  0x00\n    /* \"#utility.yul\":2432:2435   */\n  dup3\n    /* \"#utility.yul\":2425:2429   */\n  0x1f\n    /* \"#utility.yul\":2417:2423   */\n  dup4\n    /* \"#utility.yul\":2413:2430   */\n  add\n    /* \"#utility.yul\":2409:2436   */\n  slt\n    /* \"#utility.yul\":2399:2521   */\n  tag_85\n  jumpi\n    /* \"#utility.yul\":2440:2519   */\n  tag_86\n  tag_17\n  jump\t// in\ntag_86:\n    /* \"#utility.yul\":2399:2521   */\ntag_85:\n    /* \"#utility.yul\":2550:2556   */\n  dup2\n    /* \"#utility.yul\":2544:2557   */\n  mload\n    /* \"#utility.yul\":2575:2665   */\n  tag_87\n    /* \"#utility.yul\":2661:2664   */\n  dup5\n    /* \"#utility.yul\":2653:2659   */\n  dup3\n    /* \"#utility.yul\":2646:2650   */\n  0x20\n    /* \"#utility.yul\":2638:2644   */\n  dup7\n    /* \"#utility.yul\":2634:2651   */\n  add\n    /* \"#utility.yul\":2575:2665   */\n  tag_25\n  jump\t// in\ntag_87:\n    /* \"#utility.yul\":2566:2665   */\n  swap2\n  pop\n    /* \"#utility.yul\":2389:2671   */\n  pop\n    /* \"#utility.yul\":2316:2671   */\n  swap3\n  swap2\n  pop\n  pop\n  jump\t// out\n    /* \"#utility.yul\":2677:2763   */\ntag_27:\n    /* \"#utility.yul\":2712:2719   */\n  0x00\n    /* \"#utility.yul\":2752:2756   */\n  0xff\n    /* \"#utility.yul\":2745:2750   */\n  dup3\n    /* \"#utility.yul\":2741:2757   */\n  and\n    /* \"#utility.yul\":2730:2757   */\n  swap1\n  pop\n    /* \"#utility.yul\":2677:2763   */\n  swap2\n  swap1\n  pop\n  jump\t// out\n    /* \"#utility.yul\":2769:2887   */\ntag_28:\n    /* \"#utility.yul\":2840:2862   */\n  tag_90\n    /* \"#utility.yul\":2856:2861   */\n  dup2\n    /* \"#utility.yul\":2840:2862   */\n  tag_27\n  jump\t// in\ntag_90:\n    /* \"#utility.yul\":2833:2838   */\n  dup2\n    /* \"#utility.yul\":2830:2863   */\n  eq\n    /* \"#utility.yul\":2820:2881   */\n  tag_91\n  jumpi\n    /* \"#utility.yul\":2877:2878   */\n  0x00\n    /* \"#utility.yul\":2874:2875   */\n  dup1\n    /* \"#utility.yul\":2867:2879   */\n  revert\n    /* \"#utility.yul\":2820:2881   */\ntag_91:\n    /* \"#utility.yul\":2769:2887   */\n  pop\n  jump\t// out\n    /* \"#utility.yul\":2893:3032   */\ntag_29:\n    /* \"#utility.yul\":2948:2953   */\n  0x00\n    /* \"#utility.yul\":2979:2985   */\n  dup2\n    /* \"#utility.yul\":2973:2986   */\n  mload\n    /* \"#utility.yul\":2964:2986   */\n  swap1\n  pop\n    /* \"#utility.yul\":2995:3026   */\n  tag_93\n    /* \"#utility.yul\":3020:3025   */\n  dup2\n    /* \"#utility.yul\":2995:3026   */\n  tag_28\n  jump\t// in\ntag_93:\n    /* \"#utility.yul\":2893:3032   */\n  swap3\n  swap2\n  pop\n  pop\n  jump\t// out\n    /* \"#utility.yul\":3038:3115   */\ntag_30:\n    /* \"#utility.yul\":3075:3082   */\n  0x00\n    /* \"#utility.yul\":3104:3109   */\n  dup2\n    /* \"#utility.yul\":3093:3109   */\n  swap1\n  pop\n    /* \"#utility.yul\":3038:3115   */\n  swap2\n  swap1\n  pop\n  jump\t// out\n    /* \"#utility.yul\":3121:3243   */\ntag_31:\n    /* \"#utility.yul\":3194:3218   */\n  tag_96\n    /* \"#utility.yul\":3212:3217   */\n  dup2\n    /* \"#utility.yul\":3194:3218   */\n  tag_30\n  jump\t// in\ntag_96:\n    /* \"#utility.yul\":3187:3192   */\n  dup2\n    /* \"#utility.yul\":3184:3219   */\n  eq\n    /* \"#utility.yul\":3174:3237   */\n  tag_97\n  jumpi\n    /* \"#utility.yul\":3233:3234   */\n  0x00\n    /* \"#utility.yul\":3230:3231   */\n  dup1\n    /* \"#utility.yul\":3223:3235   */\n  revert\n    /* \"#utility.yul\":3174:3237   */\ntag_97:\n    /* \"#utility.yul\":3121:3243   */\n  pop\n  jump\t// out\n    /* \"#utility.yul\":3249:3392   */\ntag_32:\n    /* \"#utility.yul\":3306:3311   */\n  0x00\n    /* \"#utility.yul\":3337:3343   */\n  dup2\n    /* \"#utility.yul\":3331:3344   */\n  mload\n    /* \"#utility.yul\":3322:3344   */\n  swap1\n  pop\n    /* \"#utility.yul\":3353:3386   */\n  tag_99\n    /* \"#utility.yul\":3380:3385   */\n  dup2\n    /* \"#utility.yul\":3353:3386   */\n  tag_31\n  jump\t// in\ntag_99:\n    /* \"#utility.yul\":3249:3392   */\n  swap3\n  swap2\n  pop\n  pop\n  jump\t// out\n    /* \"#utility.yul\":3398:4560   */\ntag_3:\n    /* \"#utility.yul\":3513:3519   */\n  0x00\n    /* \"#utility.yul\":3521:3527   */\n  dup1\n    /* \"#utility.yul\":3529:3535   */\n  0x00\n    /* \"#utility.yul\":3537:3543   */\n  dup1\n    /* \"#utility.yul\":3586:3589   */\n  0x80\n    /* \"#utility.yul\":3574:3583   */\n  dup6\n    /* \"#utility.yul\":3565:3572   */\n  dup8\n    /* \"#utility.yul\":3561:3584   */\n  sub\n    /* \"#utility.yul\":3557:3590   */\n  slt\n    /* \"#utility.yul\":3554:3674   */\n  iszero\n  tag_101\n  jumpi\n    /* \"#utility.yul\":3593:3672   */\n  tag_102\n  tag_15\n  jump\t// in\ntag_102:\n    /* \"#utility.yul\":3554:3674   */\ntag_101:\n    /* \"#utility.yul\":3734:3735   */\n  0x00\n    /* \"#utility.yul\":3723:3732   */\n  dup6\n    /* \"#utility.yul\":3719:3736   */\n  add\n    /* \"#utility.yul\":3713:3737   */\n  mload\n    /* \"#utility.yul\":3764:3782   */\n  0xffffffffffffffff\n    /* \"#utility.yul\":3756:3762   */\n  dup2\n    /* \"#utility.yul\":3753:3783   */\n  gt\n    /* \"#utility.yul\":3750:3867   */\n  iszero\n  tag_103\n  jumpi\n    /* \"#utility.yul\":3786:3865   */\n  tag_104\n  tag_16\n  jump\t// in\ntag_104:\n    /* \"#utility.yul\":3750:3867   */\ntag_103:\n    /* \"#utility.yul\":3891:3965   */\n  tag_105\n    /* \"#utility.yul\":3957:3964   */\n  dup8\n    /* \"#utility.yul\":3948:3954   */\n  dup3\n    /* \"#utility.yul\":3937:3946   */\n  dup9\n    /* \"#utility.yul\":3933:3955   */\n  add\n    /* \"#utility.yul\":3891:3965   */\n  tag_26\n  jump\t// in\ntag_105:\n    /* \"#utility.yul\":3881:3965   */\n  swap5\n  pop\n    /* \"#utility.yul\":3684:3975   */\n  pop\n    /* \"#utility.yul\":4035:4037   */\n  0x20\n    /* \"#utility.yul\":4024:4033   */\n  dup6\n    /* \"#utility.yul\":4020:4038   */\n  add\n    /* \"#utility.yul\":4014:4039   */\n  mload\n    /* \"#utility.yul\":4066:4084   */\n  0xffffffffffffffff\n    /* \"#utility.yul\":4058:4064   */\n  dup2\n    /* \"#utility.yul\":4055:4085   */\n  gt\n    /* \"#utility.yul\":4052:4169   */\n  iszero\n  tag_106\n  jumpi\n    /* \"#utility.yul\":4088:4167   */\n  tag_107\n  tag_16\n  jump\t// in\ntag_107:\n    /* \"#utility.yul\":4052:4169   */\ntag_106:\n    /* \"#utility.yul\":4193:4267   */\n  tag_108\n    /* \"#utility.yul\":4259:4266   */\n  dup8\n    /* \"#utility.yul\":4250:4256   */\n  dup3\n    /* \"#utility.yul\":4239:4248   */\n  dup9\n    /* \"#utility.yul\":4235:4257   */\n  add\n    /* \"#utility.yul\":4193:4267   */\n  tag_26\n  jump\t// in\ntag_108:\n    /* \"#utility.yul\":4183:4267   */\n  swap4\n  pop\n    /* \"#utility.yul\":3985:4277   */\n  pop\n    /* \"#utility.yul\":4316:4318   */\n  0x40\n    /* \"#utility.yul\":4342:4404   */\n  tag_109\n    /* \"#utility.yul\":4396:4403   */\n  dup8\n    /* \"#utility.yul\":4387:4393   */\n  dup3\n    /* \"#utility.yul\":4376:4385   */\n  dup9\n    /* \"#utility.yul\":4372:4394   */\n  add\n    /* \"#utility.yul\":4342:4404   */\n  tag_29\n  jump\t// in\ntag_109:\n    /* \"#utility.yul\":4332:4404   */\n  swap3\n  pop\n    /* \"#utility.yul\":4287:4414   */\n  pop\n    /* \"#utility.yul\":4453:4455   */\n  0x60\n    /* \"#utility.yul\":4479:4543   */\n  tag_110\n    /* \"#utility.yul\":4535:4542   */\n  dup8\n    /* \"#utility.yul\":4526:4532   */\n  dup3\n    /* \"#utility.yul\":4515:4524   */\n  dup9\n    /* \"#utility.yul\":4511:4533   */\n  add\n    /* \"#utility.yul\":4479:4543   */\n  tag_32\n  jump\t// in\ntag_110:\n    /* \"#utility.yul\":4469:4543   */\n  swap2\n  pop\n    /* \"#utility.yul\":4424:4553   */\n  pop\n    /* \"#utility.yul\":3398:4560   */\n  swap3\n  swap6\n  swap2\n  swap5\n  pop\n  swap3\n  pop\n  jump\t// out\n    /* \"#utility.yul\":4566:4665   */\ntag_33:\n    /* \"#utility.yul\":4618:4624   */\n  0x00\n    /* \"#utility.yul\":4652:4657   */\n  dup2\n    /* \"#utility.yul\":4646:4658   */\n  mload\n    /* \"#utility.yul\":4636:4658   */\n  swap1\n  pop\n    /* \"#utility.yul\":4566:4665   */\n  swap2\n  swap1\n  pop\n  jump\t// out\n    /* \"#utility.yul\":4671:4851   */\ntag_34:\n    /* \"#utility.yul\":4719:4796   */\n  0x4e487b7100000000000000000000000000000000000000000000000000000000\n    /* \"#utility.yul\":4716:4717   */\n  0x00\n    /* \"#utility.yul\":4709:4797   */\n  mstore\n    /* \"#utility.yul\":4816:4820   */\n  0x22\n    /* \"#utility.yul\":4813:4814   */\n  0x04\n    /* \"#utility.yul\":4806:4821   */\n  mstore\n    /* \"#utility.yul\":4840:4844   */\n  0x24\n    /* \"#utility.yul\":4837:4838   */\n  0x00\n    /* \"#utility.yul\":4830:4845   */\n  revert\n    /* \"#utility.yul\":4857:5177   */\ntag_35:\n    /* \"#utility.yul\":4901:4907   */\n  0x00\n    /* \"#utility.yul\":4938:4939   */\n  0x02\n    /* \"#utility.yul\":4932:4936   */\n  dup3\n    /* \"#utility.yul\":4928:4940   */\n  div\n    /* \"#utility.yul\":4918:4940   */\n  swap1\n  pop\n    /* \"#utility.yul\":4985:4986   */\n  0x01\n    /* \"#utility.yul\":4979:4983   */\n  dup3\n    /* \"#utility.yul\":4975:4987   */\n  and\n    /* \"#utility.yul\":5006:5024   */\n  dup1\n    /* \"#utility.yul\":4996:5077   */\n  tag_114\n  jumpi\n    /* \"#utility.yul\":5062:5066   */\n  0x7f\n    /* \"#utility.yul\":5054:5060   */\n  dup3\n    /* \"#utility.yul\":5050:5067   */\n  and\n    /* \"#utility.yul\":5040:5067   */\n  swap2\n  pop\n    /* \"#utility.yul\":4996:5077   */\ntag_114:\n    /* \"#utility.yul\":5124:5126   */\n  0x20\n    /* \"#utility.yul\":5116:5122   */\n  dup3\n    /* \"#utility.yul\":5113:5127   */\n  lt\n    /* \"#utility.yul\":5093:5111   */\n  dup2\n    /* \"#utility.yul\":5090:5128   */\n  sub\n    /* \"#utility.yul\":5087:5171   */\n  tag_115\n  jumpi\n    /* \"#utility.yul\":5143:5161   */\n  tag_116\n  tag_34\n  jump\t// in\ntag_116:\n    /* \"#utility.yul\":5087:5171   */\ntag_115:\n    /* \"#utility.yul\":4908:5177   */\n  pop\n    /* \"#utility.yul\":4857:5177   */\n  swap2\n  swap1\n  pop\n  jump\t// out\n    /* \"#utility.yul\":5183:5324   */\ntag_36:\n    /* \"#utility.yul\":5232:5236   */\n  0x00\n    /* \"#utility.yul\":5255:5258   */\n  dup2\n    /* \"#utility.yul\":5247:5258   */\n  swap1\n  pop\n    /* \"#utility.yul\":5278:5281   */\n  dup2\n    /* \"#utility.yul\":5275:5276   */\n  0x00\n    /* \"#utility.yul\":5268:5282   */\n  mstore\n    /* \"#utility.yul\":5312:5316   */\n  0x20\n    /* \"#utility.yul\":5309:5310   */\n  0x00\n    /* \"#utility.yul\":5299:5317   */\n  keccak256\n    /* \"#utility.yul\":5291:5317   */\n  swap1\n  pop\n    /* \"#utility.yul\":5183:5324   */\n  swap2\n  swap1\n  pop\n  jump\t// out\n    /* \"#utility.yul\":5330:5423   */\ntag_37:\n    /* \"#utility.yul\":5367:5373   */\n  0x00\n    /* \"#utility.yul\":5414:5416   */\n  0x20\n    /* \"#utility.yul\":5409:5411   */\n  0x1f\n    /* \"#utility.yul\":5402:5407   */\n  dup4\n    /* \"#utility.yul\":5398:5412   */\n  add\n    /* \"#utility.yul\":5394:5417   */\n  div\n    /* \"#utility.yul\":5384:5417   */\n  swap1\n  pop\n    /* \"#utility.yul\":5330:5423   */\n  swap2\n  swap1\n  pop\n  jump\t// out\n    /* \"#utility.yul\":5429:5536   */\ntag_38:\n    /* \"#utility.yul\":5473:5481   */\n  0x00\n    /* \"#utility.yul\":5523:5528   */\n  dup3\n    /* \"#utility.yul\":5517:5521   */\n  dup3\n    /* \"#utility.yul\":5513:5529   */\n  shl\n    /* \"#utility.yul\":5492:5529   */\n  swap1\n  pop\n    /* \"#utility.yul\":5429:5536   */\n  swap3\n  swap2\n  pop\n  pop\n  jump\t// out\n    /* \"#utility.yul\":5542:5935   */\ntag_39:\n    /* \"#utility.yul\":5611:5617   */\n  0x00\n    /* \"#utility.yul\":5661:5662   */\n  0x08\n    /* \"#utility.yul\":5649:5659   */\n  dup4\n    /* \"#utility.yul\":5645:5663   */\n  mul\n    /* \"#utility.yul\":5684:5781   */\n  tag_121\n    /* \"#utility.yul\":5714:5780   */\n  0xffffffffffffffffffffffffffffffffffffffffffffffffffffffffffffffff\n    /* \"#utility.yul\":5703:5712   */\n  dup3\n    /* \"#utility.yul\":5684:5781   */\n  tag_38\n  jump\t// in\ntag_121:\n    /* \"#utility.yul\":5802:5841   */\n  tag_122\n    /* \"#utility.yul\":5832:5840   */\n  dup7\n    /* \"#utility.yul\":5821:5830   */\n  dup4\n    /* \"#utility.yul\":5802:5841   */\n  tag_38\n  jump\t// in\ntag_122:\n    /* \"#utility.yul\":5790:5841   */\n  swap6\n  pop\n    /* \"#utility.yul\":5874:5878   */\n  dup1\n    /* \"#utility.yul\":5870:5879   */\n  not\n    /* \"#utility.yul\":5863:5868   */\n  dup5\n    /* \"#utility.yul\":5859:5880   */\n  and\n    /* \"#utility.yul\":5850:5880   */\n  swap4\n  pop\n    /* \"#utility.yul\":5923:5927   */\n  dup1\n    /* \"#utility.yul\":5913:5921   */\n  dup7\n    /* \"#utility.yul\":5909:5928   */\n  and\n    /* \"#utility.yul\":5902:5907   */\n  dup5\n    /* \"#utility.yul\":5899:5929   */\n  or\n    /* \"#utility.yul\":5889:5929   */\n  swap3\n  pop\n    /* \"#utility.yul\":5618:5935   */\n  pop\n  pop\n    /* \"#utility.yul\":5542:5935   */\n  swap4\n  swap3\n  pop\n  pop\n  pop\n  jump\t// out\n    /* \"#utility.yul\":5941:6001   */\ntag_40:\n    /* \"#utility.yul\":5969:5972   */\n  0x00\n    /* \"#utility.yul\":5990:5995   */\n  dup2\n    /* \"#utility.yul\":5983:5995   */\n  swap1\n  pop\n    /* \"#utility.yul\":5941:6001   */\n  swap2\n  swap1\n  pop\n  jump\t// out\n    /* \"#utility.yul\":6007:6149   */\ntag_41:\n    /* \"#utility.yul\":6057:6066   */\n  0x00\n    /* \"#utility.yul\":6090:6143   */\n  tag_125\n    /* \"#utility.yul\":6108:6142   */\n  tag_126\n    /* \"#utility.yul\":6117:6141   */\n  tag_127\n    /* \"#utility.yul\":6135:6140   */\n  dup5\n    /* \"#utility.yul\":6117:6141   */\n  tag_30\n  jump\t// in\ntag_127:\n    /* \"#utility.yul\":6108:6142   */\n  tag_40\n  jump\t// in\ntag_126:\n    /* \"#utility.yul\":6090:6143   */\n  tag_30\n  jump\t// in\ntag_125:\n    /* \"#utility.yul\":6077:6143   */\n  swap1\n  pop\n    /* \"#utility.yul\":6007:6149   */\n  swap2\n  swap1\n  pop\n  jump\t// out\n    /* \"#utility.yul\":6155:6230   */\ntag_42:\n    /* \"#utility.yul\":6198:6201   */\n  0x00\n    /* \"#utility.yul\":6219:6224   */\n  dup2\n    /* \"#utility.yul\":6212:6224   */\n  swap1\n  pop\n    /* \"#utility.yul\":6155:6230   */\n  swap2\n  swap1\n  pop\n  jump\t// out\n    /* \"#utility.yul\":6236:6505   */\ntag_43:\n    /* \"#utility.yul\":6346:6385   */\n  tag_130\n    /* \"#utility.yul\":6377:6384   */\n  dup4\n    /* \"#utility.yul\":6346:6385   */\n  tag_41\n  jump\t// in\ntag_130:\n    /* \"#utility.yul\":6407:6498   */\n  tag_131\n    /* \"#utility.yul\":6456:6497   */\n  tag_132\n    /* \"#utility.yul\":6480:6496   */\n  dup3\n    /* \"#utility.yul\":6456:6497   */\n  tag_42\n  jump\t// in\ntag_132:\n    /* \"#utility.yul\":6448:6454   */\n  dup5\n    /* \"#utility.yul\":6441:6445   */\n  dup5\n    /* \"#utility.yul\":6435:6446   */\n  sload\n    /* \"#utility.yul\":6407:6498   */\n  tag_39\n  jump\t// in\ntag_131:\n    /* \"#utility.yul\":6401:6405   */\n  dup3\n    /* \"#utility.yul\":6394:6499   */\n  sstore\n    /* \"#utility.yul\":6312:6505   */\n  pop\n    /* \"#utility.yul\":6236:6505   */\n  pop\n  pop\n  pop\n  jump\t// out\n    /* \"#utility.yul\":6511:6584   */\ntag_44:\n    /* \"#utility.yul\":6556:6559   */\n  0x00\n    /* \"#utility.yul\":6511:6584   */\n  swap1\n  jump\t// out\n    /* \"#utility.yul\":6590:6779   */\ntag_45:\n    /* \"#utility.yul\":6667:6699   */\n  tag_135\n  tag_44\n  jump\t// in\ntag_135:\n    /* \"#utility.yul\":6708:6773   */\n  tag_136\n    /* \"#utility.yul\":6766:6772   */\n  dup2\n    /* \"#utility.yul\":6758:6764   */\n  dup5\n    /* \"#utility.yul\":6752:6756   */\n  dup5\n    /* \"#utility.yul\":6708:6773   */\n  tag_43\n  jump\t// in\ntag_136:\n    /* \"#utility.yul\":6643:6779   */\n  pop\n    /* \"#utility.yul\":6590:6779   */\n  pop\n  pop\n  jump\t// out\n    /* \"#utility.yul\":6785:6971   */\ntag_46:\n    /* \"#utility.yul\":6845:6965   */\ntag_138:\n    /* \"#utility.yul\":6862:6865   */\n  dup2\n    /* \"#utility.yul\":6855:6860   */\n  dup2\n    /* \"#utility.yul\":6852:6866   */\n  lt\n    /* \"#utility.yul\":6845:6965   */\n  iszero\n  tag_140\n  jumpi\n    /* \"#utility.yul\":6916:6955   */\n  tag_141\n    /* \"#utility.yul\":6953:6954   */\n  0x00\n    /* \"#utility.yul\":6946:6951   */\n  dup3\n    /* \"#utility.yul\":6916:6955   */\n  tag_45\n  jump\t// in\ntag_141:\n    /* \"#utility.yul\":6889:6890   */\n  0x01\n    /* \"#utility.yul\":6882:6887   */\n  dup2\n    /* \"#utility.yul\":6878:6891   */\n  add\n    /* \"#utility.yul\":6869:6891   */\n  swap1\n  pop\n    /* \"#utility.yul\":6845:6965   */\n  jump(tag_138)\ntag_140:\n    /* \"#utility.yul\":6785:6971   */\n  pop\n  pop\n  jump\t// out\n    /* \"#utility.yul\":6977:7520   */\ntag_47:\n    /* \"#utility.yul\":7078:7080   */\n  0x1f\n    /* \"#utility.yul\":7073:7076   */\n  dup3\n    /* \"#utility.yul\":7070:7081   */\n  gt\n    /* \"#utility.yul\":7067:7513   */\n  iszero\n  tag_143\n  jumpi\n    /* \"#utility.yul\":7112:7150   */\n  tag_144\n    /* \"#utility.yul\":7144:7149   */\n  dup2\n    /* \"#utility.yul\":7112:7150   */\n  tag_36\n  jump\t// in\ntag_144:\n    /* \"#utility.yul\":7196:7225   */\n  tag_145\n    /* \"#utility.yul\":7214:7224   */\n  dup5\n    /* \"#utility.yul\":7196:7225   */\n  tag_37\n  jump\t// in\ntag_145:\n    /* \"#utility.yul\":7186:7194   */\n  dup2\n    /* \"#utility.yul\":7182:7226   */\n  add\n    /* \"#utility.yul\":7379:7381   */\n  0x20\n    /* \"#utility.yul\":7367:7377   */\n  dup6\n    /* \"#utility.yul\":7364:7382   */\n  lt\n    /* \"#utility.yul\":7361:7410   */\n  iszero\n  tag_146\n  jumpi\n    /* \"#utility.yul\":7400:7408   */\n  dup2\n    /* \"#utility.yul\":7385:7408   */\n  swap1\n  pop\n    /* \"#utility.yul\":7361:7410   */\ntag_146:\n    /* \"#utility.yul\":7423:7503   */\n  tag_147\n    /* \"#utility.yul\":7479:7501   */\n  tag_148\n    /* \"#utility.yul\":7497:7500   */\n  dup6\n    /* \"#utility.yul\":7479:7501   */\n  tag_37\n  jump\t// in\ntag_148:\n    /* \"#utility.yul\":7469:7477   */\n  dup4\n    /* \"#utility.yul\":7465:7502   */\n  add\n    /* \"#utility.yul\":7452:7463   */\n  dup3\n    /* \"#utility.yul\":7423:7503   */\n  tag_46\n  jump\t// in\ntag_147:\n    /* \"#utility.yul\":7082:7513   */\n  pop\n  pop\n    /* \"#utility.yul\":7067:7513   */\ntag_143:\n    /* \"#utility.yul\":6977:7520   */\n  pop\n  pop\n  pop\n  jump\t// out\n    /* \"#utility.yul\":7526:7643   */\ntag_48:\n    /* \"#utility.yul\":7580:7588   */\n  0x00\n    /* \"#utility.yul\":7630:7635   */\n  dup3\n    /* \"#utility.yul\":7624:7628   */\n  dup3\n    /* \"#utility.yul\":7620:7636   */\n  shr\n    /* \"#utility.yul\":7599:7636   */\n  swap1\n  pop\n    /* \"#utility.yul\":7526:7643   */\n  swap3\n  swap2\n  pop\n  pop\n  jump\t// out\n    /* \"#utility.yul\":7649:7818   */\ntag_49:\n    /* \"#utility.yul\":7693:7699   */\n  0x00\n    /* \"#utility.yul\":7726:7777   */\n  tag_151\n    /* \"#utility.yul\":7774:7775   */\n  0x00\n    /* \"#utility.yul\":7770:7776   */\n  not\n    /* \"#utility.yul\":7762:7767   */\n  dup5\n    /* \"#utility.yul\":7759:7760   */\n  0x08\n    /* \"#utility.yul\":7755:7768   */\n  mul\n    /* \"#utility.yul\":7726:7777   */\n  tag_48\n  jump\t// in\ntag_151:\n    /* \"#utility.yul\":7722:7778   */\n  not\n    /* \"#utility.yul\":7807:7811   */\n  dup1\n    /* \"#utility.yul\":7801:7805   */\n  dup4\n    /* \"#utility.yul\":7797:7812   */\n  and\n    /* \"#utility.yul\":7787:7812   */\n  swap2\n  pop\n    /* \"#utility.yul\":7700:7818   */\n  pop\n    /* \"#utility.yul\":7649:7818   */\n  swap3\n  swap2\n  pop\n  pop\n  jump\t// out\n    /* \"#utility.yul\":7823:8118   */\ntag_50:\n    /* \"#utility.yul\":7899:7903   */\n  0x00\n    /* \"#utility.yul\":8045:8074   */\n  tag_153\n    /* \"#utility.yul\":8070:8073   */\n  dup4\n    /* \"#utility.yul\":8064:8068   */\n  dup4\n    /* \"#utility.yul\":8045:8074   */\n  tag_49\n  jump\t// in\ntag_153:\n    /* \"#utility.yul\":8037:8074   */\n  swap2\n  pop\n    /* \"#utility.yul\":8107:8110   */\n  dup3\n    /* \"#utility.yul\":8104:8105   */\n  0x02\n    /* \"#utility.yul\":8100:8111   */\n  mul\n    /* \"#utility.yul\":8094:8098   */\n  dup3\n    /* \"#utility.yul\":8091:8112   */\n  or\n    /* \"#utility.yul\":8083:8112   */\n  swap1\n  pop\n    /* \"#utility.yul\":7823:8118   */\n  swap3\n  swap2\n  pop\n  pop\n  jump\t// out\n    /* \"#utility.yul\":8123:9518   */\ntag_7:\n    /* \"#utility.yul\":8240:8277   */\n  tag_155\n    /* \"#utility.yul\":8273:8276   */\n  dup3\n    /* \"#utility.yul\":8240:8277   */\n  tag_33\n  jump\t// in\ntag_155:\n    /* \"#utility.yul\":8342:8360   */\n  0xffffffffffffffff\n    /* \"#utility.yul\":8334:8340   */\n  dup2\n    /* \"#utility.yul\":8331:8361   */\n  gt\n    /* \"#utility.yul\":8328:8384   */\n  iszero\n  tag_156\n  jumpi\n    /* \"#utility.yul\":8364:8382   */\n  tag_157\n  tag_20\n  jump\t// in\ntag_157:\n    /* \"#utility.yul\":8328:8384   */\ntag_156:\n    /* \"#utility.yul\":8408:8446   */\n  tag_158\n    /* \"#utility.yul\":8440:8444   */\n  dup3\n    /* \"#utility.yul\":8434:8445   */\n  sload\n    /* \"#utility.yul\":8408:8446   */\n  tag_35\n  jump\t// in\ntag_158:\n    /* \"#utility.yul\":8493:8560   */\n  tag_159\n    /* \"#utility.yul\":8553:8559   */\n  dup3\n    /* \"#utility.yul\":8545:8551   */\n  dup3\n    /* \"#utility.yul\":8539:8543   */\n  dup6\n    /* \"#utility.yul\":8493:8560   */\n  tag_47\n  jump\t// in\ntag_159:\n    /* \"#utility.yul\":8587:8588   */\n  0x00\n    /* \"#utility.yul\":8611:8615   */\n  0x20\n    /* \"#utility.yul\":8598:8615   */\n  swap1\n  pop\n    /* \"#utility.yul\":8643:8645   */\n  0x1f\n    /* \"#utility.yul\":8635:8641   */\n  dup4\n    /* \"#utility.yul\":8632:8646   */\n  gt\n    /* \"#utility.yul\":8660:8661   */\n  0x01\n    /* \"#utility.yul\":8655:9273   */\n  dup2\n  eq\n  tag_161\n  jumpi\n    /* \"#utility.yul\":9317:9318   */\n  0x00\n    /* \"#utility.yul\":9334:9340   */\n  dup5\n    /* \"#utility.yul\":9331:9408   */\n  iszero\n  tag_162\n  jumpi\n    /* \"#utility.yul\":9383:9392   */\n  dup3\n    /* \"#utility.yul\":9378:9381   */\n  dup8\n    /* \"#utility.yul\":9374:9393   */\n  add\n    /* \"#utility.yul\":9368:9394   */\n  mload\n    /* \"#utility.yul\":9359:9394   */\n  swap1\n  pop\n    /* \"#utility.yul\":9331:9408   */\ntag_162:\n    /* \"#utility.yul\":9434:9501   */\n  tag_163\n    /* \"#utility.yul\":9494:9500   */\n  dup6\n    /* \"#utility.yul\":9487:9492   */\n  dup3\n    /* \"#utility.yul\":9434:9501   */\n  tag_50\n  jump\t// in\ntag_163:\n    /* \"#utility.yul\":9428:9432   */\n  dup7\n    /* \"#utility.yul\":9421:9502   */\n  sstore\n    /* \"#utility.yul\":9290:9512   */\n  pop\n    /* \"#utility.yul\":8625:9512   */\n  jump(tag_160)\n    /* \"#utility.yul\":8655:9273   */\ntag_161:\n    /* \"#utility.yul\":8707:8711   */\n  0x1f\n    /* \"#utility.yul\":8703:8712   */\n  not\n    /* \"#utility.yul\":8695:8701   */\n  dup5\n    /* \"#utility.yul\":8691:8713   */\n  and\n    /* \"#utility.yul\":8741:8778   */\n  tag_164\n    /* \"#utility.yul\":8773:8777   */\n  dup7\n    /* \"#utility.yul\":8741:8778   */\n  tag_36\n  jump\t// in\ntag_164:\n    /* \"#utility.yul\":8800:8801   */\n  0x00\n    /* \"#utility.yul\":8814:9022   */\ntag_165:\n    /* \"#utility.yul\":8828:8835   */\n  dup3\n    /* \"#utility.yul\":8825:8826   */\n  dup2\n    /* \"#utility.yul\":8822:8836   */\n  lt\n    /* \"#utility.yul\":8814:9022   */\n  iszero\n  tag_167\n  jumpi\n    /* \"#utility.yul\":8907:8916   */\n  dup5\n    /* \"#utility.yul\":8902:8905   */\n  dup10\n    /* \"#utility.yul\":8898:8917   */\n  add\n    /* \"#utility.yul\":8892:8918   */\n  mload\n    /* \"#utility.yul\":8884:8890   */\n  dup3\n    /* \"#utility.yul\":8877:8919   */\n  sstore\n    /* \"#utility.yul\":8958:8959   */\n  0x01\n    /* \"#utility.yul\":8950:8956   */\n  dup3\n    /* \"#utility.yul\":8946:8960   */\n  add\n    /* \"#utility.yul\":8936:8960   */\n  swap2\n  pop\n    /* \"#utility.yul\":9005:9007   */\n  0x20\n    /* \"#utility.yul\":8994:9003   */\n  dup6\n    /* \"#utility.yul\":8990:9008   */\n  add\n    /* \"#utility.yul\":8977:9008   */\n  swap5\n  pop\n    /* \"#utility.yul\":8851:8855   */\n  0x20\n    /* \"#utility.yul\":8848:8849   */\n  dup2\n    /* \"#utility.yul\":8844:8856   */\n  add\n    /* \"#utility.yul\":8839:8856   */\n  swap1\n  pop\n    /* \"#utility.yul\":8814:9022   */\n  jump(tag_165)\ntag_167:\n    /* \"#utility.yul\":9050:9056   */\n  dup7\n    /* \"#utility.yul\":9041:9048   */\n  dup4\n    /* \"#utility.yul\":9038:9057   */\n  lt\n    /* \"#utility.yul\":9035:9214   */\n  iszero\n  tag_168\n  jumpi\n    /* \"#utility.yul\":9108:9117   */\n  dup5\n    /* \"#utility.yul\":9103:9106   */\n  dup10\n    /* \"#utility.yul\":9099:9118   */\n  add\n    /* \"#utility.yul\":9093:9119   */\n  mload\n    /* \"#utility.yul\":9151:9199   */\n  tag_169\n    /* \"#utility.yul\":9193:9197   */\n  0x1f\n    /* \"#utility.yul\":9185:9191   */\n  dup10\n    /* \"#utility.yul\":9181:9198   */\n  and\n    /* \"#utility.yul\":9170:9179   */\n  dup3\n    /* \"#utility.yul\":9151:9199   */\n  tag_49\n  jump\t// in\ntag_169:\n    /* \"#utility.yul\":9143:9149   */\n  dup4\n    /* \"#utility.yul\":9136:9200   */\n  sstore\n    /* \"#utility.yul\":9058:9214   */\n  pop\n    /* \"#utility.yul\":9035:9214   */\ntag_168:\n    /* \"#utility.yul\":9260:9261   */\n  0x01\n    /* \"#utility.yul\":9256:9257   */\n  0x02\n    /* \"#utility.yul\":9248:9254   */\n  dup9\n    /* \"#utility.yul\":9244:9258   */\n  mul\n    /* \"#utility.yul\":9240:9262   */\n  add\n    /* \"#utility.yul\":9234:9238   */\n  dup9\n    /* \"#utility.yul\":9227:9263   */\n  sstore\n    /* \"#utility.yul\":8662:9273   */\n  pop\n  pop\n  pop\n    /* \"#utility.yul\":8625:9512   */\ntag_160:\n  pop\n    /* \"#utility.yul\":8215:9518   */\n  pop\n  pop\n  pop\n    /* \"#utility.yul\":8123:9518   */\n  pop\n  pop\n  jump\t// out\n    /* \"#utility.yul\":9524:9704   */\ntag_51:\n    /* \"#utility.yul\":9572:9649   */\n  0x4e487b7100000000000000000000000000000000000000000000000000000000\n    /* \"#utility.yul\":9569:9570   */\n  0x00\n    /* \"#utility.yul\":9562:9650   */\n  mstore\n    /* \"#utility.yul\":9669:9673   */\n  0x11\n    /* \"#utility.yul\":9666:9667   */\n  0x04\n    /* \"#utility.yul\":9659:9674   */\n  mstore\n    /* \"#utility.yul\":9693:9697   */\n  0x24\n    /* \"#utility.yul\":9690:9691   */\n  0x00\n    /* \"#utility.yul\":9683:9698   */\n  revert\n    /* \"#utility.yul\":9710:9812   */\ntag_52:\n    /* \"#utility.yul\":9752:9760   */\n  0x00\n    /* \"#utility.yul\":9799:9804   */\n  dup2\n    /* \"#utility.yul\":9796:9797   */\n  0x01\n    /* \"#utility.yul\":9792:9805   */\n  shr\n    /* \"#utility.yul\":9771:9805   */\n  swap1\n  pop\n    /* \"#utility.yul\":9710:9812   */\n  swap2\n  swap1\n  pop\n  jump\t// out\n    /* \"#utility.yul\":9818:10666   */\ntag_53:\n    /* \"#utility.yul\":9879:9884   */\n  0x00\n    /* \"#utility.yul\":9886:9890   */\n  dup1\n    /* \"#utility.yul\":9910:9916   */\n  dup3\n    /* \"#utility.yul\":9901:9916   */\n  swap2\n  pop\n    /* \"#utility.yul\":9934:9939   */\n  dup4\n    /* \"#utility.yul\":9925:9939   */\n  swap1\n  pop\n    /* \"#utility.yul\":9948:10660   */\ntag_173:\n    /* \"#utility.yul\":9969:9970   */\n  0x01\n    /* \"#utility.yul\":9959:9967   */\n  dup6\n    /* \"#utility.yul\":9956:9971   */\n  gt\n    /* \"#utility.yul\":9948:10660   */\n  iszero\n  tag_175\n  jumpi\n    /* \"#utility.yul\":10064:10068   */\n  dup1\n    /* \"#utility.yul\":10059:10062   */\n  dup7\n    /* \"#utility.yul\":10055:10069   */\n  div\n    /* \"#utility.yul\":10049:10053   */\n  dup2\n    /* \"#utility.yul\":10046:10070   */\n  gt\n    /* \"#utility.yul\":10043:10093   */\n  iszero\n  tag_176\n  jumpi\n    /* \"#utility.yul\":10073:10091   */\n  tag_177\n  tag_51\n  jump\t// in\ntag_177:\n    /* \"#utility.yul\":10043:10093   */\ntag_176:\n    /* \"#utility.yul\":10123:10124   */\n  0x01\n    /* \"#utility.yul\":10113:10121   */\n  dup6\n    /* \"#utility.yul\":10109:10125   */\n  and\n    /* \"#utility.yul\":10106:10557   */\n  iszero\n  tag_178\n  jumpi\n    /* \"#utility.yul\":10538:10542   */\n  dup1\n    /* \"#utility.yul\":10531:10536   */\n  dup3\n    /* \"#utility.yul\":10527:10543   */\n  mul\n    /* \"#utility.yul\":10518:10543   */\n  swap2\n  pop\n    /* \"#utility.yul\":10106:10557   */\ntag_178:\n    /* \"#utility.yul\":10588:10592   */\n  dup1\n    /* \"#utility.yul\":10582:10586   */\n  dup2\n    /* \"#utility.yul\":10578:10593   */\n  mul\n    /* \"#utility.yul\":10570:10593   */\n  swap1\n  pop\n    /* \"#utility.yul\":10618:10650   */\n  tag_179\n    /* \"#utility.yul\":10641:10649   */\n  dup6\n    /* \"#utility.yul\":10618:10650   */\n  tag_52\n  jump\t// in\ntag_179:\n    /* \"#utility.yul\":10606:10650   */\n  swap5\n  pop\n    /* \"#utility.yul\":9948:10660   */\n  jump(tag_173)\ntag_175:\n    /* \"#utility.yul\":9818:10666   */\n  swap5\n  pop\n  swap5\n  swap3\n  pop\n  pop\n  pop\n  jump\t// out\n    /* \"#utility.yul\":10672:11745   */\ntag_54:\n    /* \"#utility.yul\":10726:10731   */\n  0x00\n    /* \"#utility.yul\":10917:10925   */\n  dup3\n    /* \"#utility.yul\":10907:10947   */\n  tag_181\n  jumpi\n    /* \"#utility.yul\":10938:10939   */\n  0x01\n    /* \"#utility.yul\":10929:10939   */\n  swap1\n  pop\n    /* \"#utility.yul\":10940:10945   */\n  jump(tag_180)\n    /* \"#utility.yul\":10907:10947   */\ntag_181:\n    /* \"#utility.yul\":10966:10970   */\n  dup2\n    /* \"#utility.yul\":10956:10992   */\n  tag_182\n  jumpi\n    /* \"#utility.yul\":10983:10984   */\n  0x00\n    /* \"#utility.yul\":10974:10984   */\n  swap1\n  pop\n    /* \"#utility.yul\":10985:10990   */\n  jump(tag_180)\n    /* \"#utility.yul\":10956:10992   */\ntag_182:\n    /* \"#utility.yul\":11052:11056   */\n  dup2\n    /* \"#utility.yul\":11100:11101   */\n  0x01\n    /* \"#utility.yul\":11095:11122   */\n  dup2\n  eq\n  tag_184\n  jumpi\n    /* \"#utility.yul\":11136:11137   */\n  0x02\n    /* \"#utility.yul\":11131:11322   */\n  dup2\n  eq\n  tag_185\n  jumpi\n    /* \"#utility.yul\":11045:11322   */\n  jump(tag_183)\n    /* \"#utility.yul\":11095:11122   */\ntag_184:\n    /* \"#utility.yul\":11113:11114   */\n  0x01\n    /* \"#utility.yul\":11104:11114   */\n  swap2\n  pop\n    /* \"#utility.yul\":11115:11120   */\n  pop\n  jump(tag_180)\n    /* \"#utility.yul\":11131:11322   */\ntag_185:\n    /* \"#utility.yul\":11176:11179   */\n  0xff\n    /* \"#utility.yul\":11166:11174   */\n  dup5\n    /* \"#utility.yul\":11163:11180   */\n  gt\n    /* \"#utility.yul\":11160:11203   */\n  iszero\n  tag_186\n  jumpi\n    /* \"#utility.yul\":11183:11201   */\n  tag_187\n  tag_51\n  jump\t// in\ntag_187:\n    /* \"#utility.yul\":11160:11203   */\ntag_186:\n    /* \"#utility.yul\":11232:11240   */\n  dup4\n    /* \"#utility.yul\":11229:11230   */\n  0x02\n    /* \"#utility.yul\":11225:11241   */\n  exp\n    /* \"#utility.yul\":11216:11241   */\n  swap2\n  pop\n    /* \"#utility.yul\":11267:11270   */\n  dup5\n    /* \"#utility.yul\":11260:11265   */\n  dup3\n    /* \"#utility.yul\":11257:11271   */\n  gt\n    /* \"#utility.yul\":11254:11294   */\n  iszero\n  tag_188\n  jumpi\n    /* \"#utility.yul\":11274:11292   */\n  tag_189\n  tag_51\n  jump\t// in\ntag_189:\n    /* \"#utility.yul\":11254:11294   */\ntag_188:\n    /* \"#utility.yul\":11307:11312   */\n  pop\n  jump(tag_180)\n    /* \"#utility.yul\":11045:11322   */\ntag_183:\n  pop\n    /* \"#utility.yul\":11431:11433   */\n  0x20\n    /* \"#utility.yul\":11421:11429   */\n  dup4\n    /* \"#utility.yul\":11418:11434   */\n  lt\n    /* \"#utility.yul\":11412:11415   */\n  0x0133\n    /* \"#utility.yul\":11406:11410   */\n  dup4\n    /* \"#utility.yul\":11403:11416   */\n  lt\n    /* \"#utility.yul\":11399:11435   */\n  and\n    /* \"#utility.yul\":11381:11383   */\n  0x4e\n    /* \"#utility.yul\":11371:11379   */\n  dup5\n    /* \"#utility.yul\":11368:11384   */\n  lt\n    /* \"#utility.yul\":11363:11365   */\n  0x0b\n    /* \"#utility.yul\":11357:11361   */\n  dup5\n    /* \"#utility.yul\":11354:11366   */\n  lt\n    /* \"#utility.yul\":11350:11385   */\n  and\n    /* \"#utility.yul\":11334:11445   */\n  or\n    /* \"#utility.yul\":11331:11577   */\n  iszero\n  tag_190\n  jumpi\n    /* \"#utility.yul\":11487:11495   */\n  dup3\n    /* \"#utility.yul\":11481:11485   */\n  dup3\n    /* \"#utility.yul\":11477:11496   */\n  exp\n    /* \"#utility.yul\":11468:11496   */\n  swap1\n  pop\n    /* \"#utility.yul\":11522:11525   */\n  dup4\n    /* \"#utility.yul\":11515:11520   */\n  dup2\n    /* \"#utility.yul\":11512:11526   */\n  gt\n    /* \"#utility.yul\":11509:11549   */\n  iszero\n  tag_191\n  jumpi\n    /* \"#utility.yul\":11529:11547   */\n  tag_192\n  tag_51\n  jump\t// in\ntag_192:\n    /* \"#utility.yul\":11509:11549   */\ntag_191:\n    /* \"#utility.yul\":11562:11567   */\n  jump(tag_180)\n    /* \"#utility.yul\":11331:11577   */\ntag_190:\n    /* \"#utility.yul\":11602:11644   */\n  tag_193\n    /* \"#utility.yul\":11640:11643   */\n  dup5\n    /* \"#utility.yul\":11630:11638   */\n  dup5\n    /* \"#utility.yul\":11624:11628   */\n  dup5\n    /* \"#utility.yul\":11621:11622   */\n  0x01\n    /* \"#utility.yul\":11602:11644   */\n  tag_53\n  jump\t// in\ntag_193:\n    /* \"#utility.yul\":11587:11644   */\n  swap3\n  pop\n  swap1\n  pop\n    /* \"#utility.yul\":11676:11680   */\n  dup2\n    /* \"#utility.yul\":11671:11674   */\n  dup5\n    /* \"#utility.yul\":11667:11681   */\n  div\n    /* \"#utility.yul\":11660:11665   */\n  dup2\n    /* \"#utility.yul\":11657:11682   */\n  gt\n    /* \"#utility.yul\":11654:11705   */\n  iszero\n  tag_194\n  jumpi\n    /* \"#utility.yul\":11685:11703   */\n  tag_195\n  tag_51\n  jump\t// in\ntag_195:\n    /* \"#utility.yul\":11654:11705   */\ntag_194:\n    /* \"#utility.yul\":11734:11738   */\n  dup2\n    /* \"#utility.yul\":11727:11732   */\n  dup2\n    /* \"#utility.yul\":11723:11739   */\n  mul\n    /* \"#utility.yul\":11714:11739   */\n  swap1\n  pop\n    /* \"#utility.yul\":10672:11745   */\ntag_180:\n  swap4\n  swap3\n  pop\n  pop\n  pop\n  jump\t// out\n    /* \"#utility.yul\":11751:12036   */\ntag_10:\n    /* \"#utility.yul\":11811:11816   */\n  0x00\n    /* \"#utility.yul\":11835:11858   */\n  tag_197\n    /* \"#utility.yul\":11853:11857   */\n  dup3\n    /* \"#utility.yul\":11835:11858   */\n  tag_30\n  jump\t// in\ntag_197:\n    /* \"#utility.yul\":11827:11858   */\n  swap2\n  pop\n    /* \"#utility.yul\":11879:11906   */\n  tag_198\n    /* \"#utility.yul\":11897:11905   */\n  dup4\n    /* \"#utility.yul\":11879:11906   */\n  tag_30\n  jump\t// in\ntag_198:\n    /* \"#utility.yul\":11867:11906   */\n  swap3\n  pop\n    /* \"#utility.yul\":11925:12029   */\n  tag_199\n    /* \"#utility.yul\":11962:12028   */\n  0xffffffffffffffffffffffffffffffffffffffffffffffffffffffffffffffff\n    /* \"#utility.yul\":11952:11960   */\n  dup5\n    /* \"#utility.yul\":11946:11950   */\n  dup5\n    /* \"#utility.yul\":11925:12029   */\n  tag_54\n  jump\t// in\ntag_199:\n    /* \"#utility.yul\":11916:12029   */\n  swap1\n  pop\n    /* \"#utility.yul\":11751:12036   */\n  swap3\n  swap2\n  pop\n  pop\n  jump\t// out\n    /* \"#utility.yul\":12042:12452   */\ntag_12:\n    /* \"#utility.yul\":12082:12089   */\n  0x00\n    /* \"#utility.yul\":12105:12125   */\n  tag_201\n    /* \"#utility.yul\":12123:12124   */\n  dup3\n    /* \"#utility.yul\":12105:12125   */\n  tag_30\n  jump\t// in\ntag_201:\n    /* \"#utility.yul\":12100:12125   */\n  swap2\n  pop\n    /* \"#utility.yul\":12139:12159   */\n  tag_202\n    /* \"#utility.yul\":12157:12158   */\n  dup4\n    /* \"#utility.yul\":12139:12159   */\n  tag_30\n  jump\t// in\ntag_202:\n    /* \"#utility.yul\":12134:12159   */\n  swap3\n  pop\n    /* \"#utility.yul\":12194:12195   */\n  dup3\n    /* \"#utility.yul\":12191:12192   */\n  dup3\n    /* \"#utility.yul\":12187:12196   */\n  mul\n    /* \"#utility.yul\":12216:12246   */\n  tag_203\n    /* \"#utility.yul\":12234:12245   */\n  dup2\n    /* \"#utility.yul\":12216:12246   */\n  tag_30\n  jump\t// in\ntag_203:\n    /* \"#utility.yul\":12205:12246   */\n  swap2\n  pop\n    /* \"#utility.yul\":12395:12396   */\n  dup3\n    /* \"#utility.yul\":12386:12393   */\n  dup3\n    /* \"#utility.yul\":12382:12397   */\n  div\n    /* \"#utility.yul\":12379:12380   */\n  dup5\n    /* \"#utility.yul\":12376:12398   */\n  eq\n    /* \"#utility.yul\":12356:12357   */\n  dup4\n    /* \"#utility.yul\":12349:12358   */\n  iszero\n    /* \"#utility.yul\":12329:12412   */\n  or\n    /* \"#utility.yul\":12306:12445   */\n  tag_204\n  jumpi\n    /* \"#utility.yul\":12425:12443   */\n  tag_205\n  tag_51\n  jump\t// in\ntag_205:\n    /* \"#utility.yul\":12306:12445   */\ntag_204:\n    /* \"#utility.yul\":12090:12452   */\n  pop\n    /* \"#utility.yul\":12042:12452   */\n  swap3\n  swap2\n  pop\n  pop\n  jump\t// out\n    /* \"my_token.sol\":232:3680  contract MyToken {... */\ntag_13:\n  dataSize(sub_0)\n  dup1\n  dataOffset(sub_0)\n  0x00\n  codecopy\n  0x00\n  return\nstop\n\nsub_0: assembly {\n        /* \"my_token.sol\":232:3680  contract MyToken {... */\n      mstore(0x40, 0x80)\n      callvalue\n      dup1\n      iszero\n      tag_1\n      jumpi\n      0x00\n      dup1\n      revert\n    tag_1:\n      pop\n      jumpi(tag_2, lt(calldatasize, 0x04))\n      shr(0xe0, calldataload(0x00))\n      dup1\n      0x70a08231\n      gt\n      tag_13\n      jumpi\n      dup1\n      0x70a08231\n      eq\n      tag_8\n      jumpi\n      dup1\n      0x88d695b2\n      eq\n      tag_9\n      jumpi\n      dup1\n      0x95d89b41\n      eq\n      tag_10\n      jumpi\n      dup1\n      0xa9059cbb\n      eq\n      tag_11\n      jumpi\n      dup1\n      0xdd62ed3e\n      eq\n      tag_12\n      jumpi\n      jump(tag_2)\n    tag_13:\n      dup1\n      0x06fdde03\n      eq\n      tag_3\n      jumpi\n      dup1\n      0x095ea7b3\n      eq\n      tag_4\n      jumpi\n      dup1\n      0x18160ddd\n      eq\n      tag_5\n      jumpi\n      dup1\n      0x23b872dd\n      eq\n      tag_6\n      jumpi\n      dup1\n      0x313ce567\n      eq\n      tag_7\n      jumpi\n    tag_2:\n      0x00\n      dup1\n      revert\n        /* \"my_token.sol\":256:274  string public name */\n    tag_3:\n      tag_14\n      tag_15\n      jump\t// in\n    tag_14:\n      mload(0x40)\n      tag_16\n      swap2\n      swap1\n      tag_17\n      jump\t// in\n    tag_16:\n      mload(0x40)\n      dup1\n      swap2\n      sub\n      swap1\n      return\n        /* \"my_token.sol\":1961:2286  function approve(address _spender, uint256 _value) public returns (bool success) {... */\n    tag_4:\n      tag_18\n      0x04\n      dup1\n      calldatasize\n      sub\n      dup2\n      add\n      swap1\n      tag_19\n      swap2\n      swap1\n      tag_20\n      jump\t// in\n    tag_19:\n      tag_21\n      jump\t// in\n    tag_18:\n      mload(0x40)\n      tag_22\n      swap2\n      swap1\n      tag_23\n      jump\t// in\n    tag_22:\n      mload(0x40)\n      dup1\n      swap2\n      sub\n      swap1\n      return\n        /* \"my_token.sol\":441:467  uint256 public totalSupply */\n    tag_5:\n      tag_24\n      tag_25\n      jump\t// in\n    tag_24:\n      mload(0x40)\n      tag_26\n      swap2\n      swap1\n      tag_27\n      jump\t// in\n    tag_26:\n      mload(0x40)\n      dup1\n      swap2\n      sub\n      swap1\n      return\n        /* \"my_token.sol\":2294:3071  function transferFrom(address _from, address _to, uint256 _value) public returns (bool success) {... */\n    tag_6:\n      tag_28\n      0x04\n      dup1\n      calldatasize\n      sub\n      dup2\n      add\n      swap1\n      tag_29\n      swap2\n      swap1\n      tag_30\n      jump\t// in\n    tag_29:\n      tag_31\n      jump\t// in\n    tag_28:\n      mload(0x40)\n      tag_32\n      swap2\n      swap1\n      tag_23\n      jump\t// in\n    tag_32:\n      mload(0x40)\n      dup1\n      swap2\n      sub\n      swap1\n      return\n        /* \"my_token.sol\":368:389  uint8 public decimals */\n    tag_7:\n      tag_33\n      tag_34\n      jump\t// in\n    tag_33:\n      mload(0x40)\n      tag_35\n      swap2\n      swap1\n      tag_36\n      jump\t// in\n    tag_35:\n      mload(0x40)\n      dup1\n      swap2\n      sub\n      swap1\n      return\n        /* \"my_token.sol\":512:556  mapping(address => uint256) public balanceOf */\n    tag_8:\n      tag_37\n      0x04\n      dup1\n      calldatasize\n      sub\n      dup2\n      add\n      swap1\n      tag_38\n      swap2\n      swap1\n      tag_39\n      jump\t// in\n    tag_38:\n      tag_40\n      jump\t// in\n    tag_37:\n      mload(0x40)\n      tag_41\n      swap2\n      swap1\n      tag_27\n      jump\t// in\n    tag_41:\n      mload(0x40)\n      dup1\n      swap2\n      sub\n      swap1\n      return\n        /* \"my_token.sol\":3170:3677  function batchTransfer(address[] memory _recipients, uint256[] memory _amounts) public {... */\n    tag_9:\n      tag_42\n      0x04\n      dup1\n      calldatasize\n      sub\n      dup2\n      add\n      swap1\n      tag_43\n      swap2\n      swap1\n      tag_44\n      jump\t// in\n    tag_43:\n      tag_45\n      jump\t// in\n    tag_42:\n      stop\n        /* \"my_token.sol\":305:325  string public symbol */\n    tag_10:\n      tag_46\n      tag_47\n      jump\t// in\n    tag_46:\n      mload(0x40)\n      tag_48\n      swap2\n      swap1\n      tag_17\n      jump\t// in\n    tag_48:\n      mload(0x40)\n      dup1\n      swap2\n      sub\n      swap1\n      return\n        /* \"my_token.sol\":1454:1953  function transfer(address _to, uint256 _value) public returns (bool success) {... */\n    tag_11:\n      tag_49\n      0x04\n      dup1\n      calldatasize\n      sub\n      dup2\n      add\n      swap1\n      tag_50\n      swap2\n      swap1\n      tag_20\n      jump\t// in\n    tag_50:\n      tag_51\n      jump\t// in\n    tag_49:\n      mload(0x40)\n      tag_52\n      swap2\n      swap1\n      tag_23\n      jump\t// in\n    tag_52:\n      mload(0x40)\n      dup1\n      swap2\n      sub\n      swap1\n      return\n        /* \"my_token.sol\":608:672  mapping(address => mapping(address => uint256)) public allowance */\n    tag_12:\n      tag_53\n      0x04\n      dup1\n      calldatasize\n      sub\n      dup2\n      add\n      swap1\n      tag_54\n      swap2\n      swap1\n      tag_55\n      jump\t// in\n    tag_54:\n      tag_56\n      jump\t// in\n    tag_53:\n      mload(0x40)\n      tag_57\n      swap2\n      swap1\n      tag_27\n      jump\t// in\n    tag_57:\n      mload(0x40)\n      dup1\n      swap2\n      sub\n      swap1\n      return\n        /* \"my_token.sol\":256:274  string public name */\n    tag_15:\n      0x00\n      dup1\n      sload\n      tag_58\n      swap1\n      tag_59\n      jump\t// in\n    tag_58:\n      dup1\n      0x1f\n      add\n      0x20\n      dup1\n      swap2\n      div\n      mul\n      0x20\n      add\n      mload(0x40)\n      swap1\n      dup2\n      add\n      0x40\n      mstore\n      dup1\n      swap3\n      swap2\n      swap1\n      dup2\n      dup2\n      mstore\n      0x20\n      add\n      dup3\n      dup1\n      sload\n      tag_60\n      swap1\n      tag_59\n      jump\t// in\n    tag_60:\n      dup1\n      iszero\n      tag_61\n      jumpi\n      dup1\n      0x1f\n      lt\n      tag_62\n      jumpi\n      0x0100\n      dup1\n      dup4\n      sload\n      div\n      mul\n      dup4\n      mstore\n      swap2\n      0x20\n      add\n      swap2\n      jump(tag_61)\n    tag_62:\n      dup3\n      add\n      swap2\n      swap1\n      0x00\n      mstore\n      keccak256(0x00, 0x20)\n      swap1\n    tag_63:\n      dup2\n      sload\n      dup2\n      mstore\n      swap1\n      0x01\n      add\n      swap1\n      0x20\n      add\n      dup1\n      dup4\n      gt\n      tag_63\n      jumpi\n      dup3\n      swap1\n      sub\n      0x1f\n      and\n      dup3\n      add\n      swap2\n    tag_61:\n      pop\n      pop\n      pop\n      pop\n      pop\n      dup2\n      jump\t// out\n        /* \"my_token.sol\":1961:2286  function approve(address _spender, uint256 _value) public returns (bool success) {... */\n    tag_21:\n        /* \"my_token.sol\":2028:2040  bool success */\n      0x00\n        /* \"my_token.sol\":2161:2167  _value */\n      dup2\n        /* \"my_token.sol\":2127:2136  allowance */\n      0x05\n        /* \"my_token.sol\":2127:2148  allowance[msg.sender] */\n      0x00\n        /* \"my_token.sol\":2137:2147  msg.sender */\n      caller\n        /* \"my_token.sol\":2127:2148  allowance[msg.sender] */\n      0xffffffffffffffffffffffffffffffffffffffff\n      and\n      0xffffffffffffffffffffffffffffffffffffffff\n      and\n      dup2\n      mstore\n      0x20\n      add\n      swap1\n      dup2\n      mstore\n      0x20\n      add\n      0x00\n      keccak256\n        /* \"my_token.sol\":2127:2158  allowance[msg.sender][_spender] */\n      0x00\n        /* \"my_token.sol\":2149:2157  _spender */\n      dup6\n        /* \"my_token.sol\":2127:2158  allowance[msg.sender][_spender] */\n      0xffffffffffffffffffffffffffffffffffffffff\n      and\n      0xffffffffffffffffffffffffffffffffffffffff\n      and\n      dup2\n      mstore\n      0x20\n      add\n      swap1\n      dup2\n      mstore\n      0x20\n      add\n      0x00\n      keccak256\n        /* \"my_token.sol\":2127:2167  allowance[msg.sender][_spender] = _value */\n      dup2\n      swap1\n      sstore\n      pop\n        /* \"my_token.sol\":2239:2247  _spender */\n      dup3\n        /* \"my_token.sol\":2218:2256  Approval(msg.sender, _spender, _value) */\n      0xffffffffffffffffffffffffffffffffffffffff\n      and\n        /* \"my_token.sol\":2227:2237  msg.sender */\n      caller\n        /* \"my_token.sol\":2218:2256  Approval(msg.sender, _spender, _value) */\n      0xffffffffffffffffffffffffffffffffffffffff\n      and\n      0x8c5be1e5ebec7d5bd14f71427d1e84f3dd0314c0f7b2291e5b200ac8c7c3b925\n        /* \"my_token.sol\":2249:2255  _value */\n      dup5\n        /* \"my_token.sol\":2218:2256  Approval(msg.sender, _spender, _value) */\n      mload(0x40)\n      tag_65\n      swap2\n      swap1\n      tag_27\n      jump\t// in\n    tag_65:\n      mload(0x40)\n      dup1\n      swap2\n      sub\n      swap1\n      log3\n        /* \"my_token.sol\":2274:2278  true */\n      0x01\n        /* \"my_token.sol\":2267:2278  return true */\n      swap1\n      pop\n        /* \"my_token.sol\":1961:2286  function approve(address _spender, uint256 _value) public returns (bool success) {... */\n      swap3\n      swap2\n      pop\n      pop\n      jump\t// out\n        /* \"my_token.sol\":441:467  uint256 public totalSupply */\n    tag_25:\n      sload(0x03)\n      dup2\n      jump\t// out\n        /* \"my_token.sol\":2294:3071  function transferFrom(address _from, address _to, uint256 _value) public returns (bool success) {... */\n    tag_31:\n        /* \"my_token.sol\":2376:2388  bool success */\n      0x00\n        /* \"my_token.sol\":2467:2473  _value */\n      dup2\n        /* \"my_token.sol\":2447:2456  balanceOf */\n      0x04\n        /* \"my_token.sol\":2447:2463  balanceOf[_from] */\n      0x00\n        /* \"my_token.sol\":2457:2462  _from */\n      dup7\n        /* \"my_token.sol\":2447:2463  balanceOf[_from] */\n      0xffffffffffffffffffffffffffffffffffffffff\n      and\n      0xffffffffffffffffffffffffffffffffffffffff\n      and\n      dup2\n      mstore\n      0x20\n      add\n      swap1\n      dup2\n      mstore\n      0x20\n      add\n      0x00\n      keccak256\n      sload\n        /* \"my_token.sol\":2447:2473  balanceOf[_from] >= _value */\n      lt\n      iszero\n        /* \"my_token.sol\":2439:2498  require(balanceOf[_from] >= _value, \"Insufficient balance\") */\n      tag_67\n      jumpi\n      mload(0x40)\n      0x08c379a000000000000000000000000000000000000000000000000000000000\n      dup2\n      mstore\n      0x04\n      add\n      tag_68\n      swap1\n      tag_69\n      jump\t// in\n    tag_68:\n      mload(0x40)\n      dup1\n      swap2\n      sub\n      swap1\n      revert\n    tag_67:\n        /* \"my_token.sol\":2603:2609  _value */\n      dup2\n        /* \"my_token.sol\":2571:2580  allowance */\n      0x05\n        /* \"my_token.sol\":2571:2587  allowance[_from] */\n      0x00\n        /* \"my_token.sol\":2581:2586  _from */\n      dup7\n        /* \"my_token.sol\":2571:2587  allowance[_from] */\n      0xffffffffffffffffffffffffffffffffffffffff\n      and\n      0xffffffffffffffffffffffffffffffffffffffff\n      and\n      dup2\n      mstore\n      0x20\n      add\n      swap1\n      dup2\n      mstore\n      0x20\n      add\n      0x00\n      keccak256\n        /* \"my_token.sol\":2571:2599  allowance[_from][msg.sender] */\n      0x00\n        /* \"my_token.sol\":2588:2598  msg.sender */\n      caller\n        /* \"my_token.sol\":2571:2599  allowance[_from][msg.sender] */\n      0xffffffffffffffffffffffffffffffffffffffff\n      and\n      0xffffffffffffffffffffffffffffffffffffffff\n      and\n      dup2\n      mstore\n      0x20\n      add\n      swap1\n      dup2\n      mstore\n      0x20\n      add\n      0x00\n      keccak256\n      sload\n        /* \"my_token.sol\":2571:2609  allowance[_from][msg.sender] >= _value */\n      lt\n      iszero\n        /* \"my_token.sol\":2563:2646  require(allowance[_from][msg.sender] >= _value, \"Not allowed to spend this amount\") */\n      tag_70\n      jumpi\n      mload(0x40)\n      0x08c379a000000000000000000000000000000000000000000000000000000000\n      dup2\n      mstore\n      0x04\n      add\n      tag_71\n      swap1\n      tag_72\n      jump\t// in\n    tag_71:\n      mload(0x40)\n      dup1\n      swap2\n      sub\n      swap1\n      revert\n    tag_70:\n        /* \"my_token.sol\":2719:2725  _value */\n      dup2\n        /* \"my_token.sol\":2699:2708  balanceOf */\n      0x04\n        /* \"my_token.sol\":2699:2715  balanceOf[_from] */\n      0x00\n        /* \"my_token.sol\":2709:2714  _from */\n      dup7\n        /* \"my_token.sol\":2699:2715  balanceOf[_from] */\n      0xffffffffffffffffffffffffffffffffffffffff\n      and\n      0xffffffffffffffffffffffffffffffffffffffff\n      and\n      dup2\n      mstore\n      0x20\n      add\n      swap1\n      dup2\n      mstore\n      0x20\n      add\n      0x00\n      keccak256\n      0x00\n        /* \"my_token.sol\":2699:2725  balanceOf[_from] -= _value */\n      dup3\n      dup3\n      sload\n      tag_73\n      swap2\n      swap1\n      tag_74\n      jump\t// in\n    tag_73:\n      swap3\n      pop\n      pop\n      dup2\n      swap1\n      sstore\n      pop\n        /* \"my_token.sol\":2793:2799  _value */\n      dup2\n        /* \"my_token.sol\":2775:2784  balanceOf */\n      0x04\n        /* \"my_token.sol\":2775:2789  balanceOf[_to] */\n      0x00\n        /* \"my_token.sol\":2785:2788  _to */\n      dup6\n        /* \"my_token.sol\":2775:2789  balanceOf[_to] */\n      0xffffffffffffffffffffffffffffffffffffffff\n      and\n      0xffffffffffffffffffffffffffffffffffffffff\n      and\n      dup2\n      mstore\n      0x20\n      add\n      swap1\n      dup2\n      mstore\n      0x20\n      add\n      0x00\n      keccak256\n      0x00\n        /* \"my_token.sol\":2775:2799  balanceOf[_to] += _value */\n      dup3\n      dup3\n      sload\n      tag_75\n      swap2\n      swap1\n      tag_76\n      jump\t// in\n    tag_75:\n      swap3\n      pop\n      pop\n      dup2\n      swap1\n      sstore\n      pop\n        /* \"my_token.sol\":2875:2881  _value */\n      dup2\n        /* \"my_token.sol\":2843:2852  allowance */\n      0x05\n        /* \"my_token.sol\":2843:2859  allowance[_from] */\n      0x00\n        /* \"my_token.sol\":2853:2858  _from */\n      dup7\n        /* \"my_token.sol\":2843:2859  allowance[_from] */\n      0xffffffffffffffffffffffffffffffffffffffff\n      and\n      0xffffffffffffffffffffffffffffffffffffffff\n      and\n      dup2\n      mstore\n      0x20\n      add\n      swap1\n      dup2\n      mstore\n      0x20\n      add\n      0x00\n      keccak256\n        /* \"my_token.sol\":2843:2871  allowance[_from][msg.sender] */\n      0x00\n        /* \"my_token.sol\":2860:2870  msg.sender */\n      caller\n        /* \"my_token.sol\":2843:2871  allowance[_from][msg.sender] */\n      0xffffffffffffffffffffffffffffffffffffffff\n      and\n      0xffffffffffffffffffffffffffffffffffffffff\n      and\n      dup2\n      mstore\n      0x20\n      add\n      swap1\n      dup2\n      mstore\n      0x20\n      add\n      0x00\n      keccak256\n      0x00\n        /* \"my_token.sol\":2843:2881  allowance[_from][msg.sender] -= _value */\n      dup3\n      dup3\n      sload\n      tag_77\n      swap2\n      swap1\n      tag_74\n      jump\t// in\n    tag_77:\n      swap3\n      pop\n      pop\n      dup2\n      swap1\n      sstore\n      pop\n        /* \"my_token.sol\":3029:3032  _to */\n      dup3\n        /* \"my_token.sol\":3013:3041  Transfer(_from, _to, _value) */\n      0xffffffffffffffffffffffffffffffffffffffff\n      and\n        /* \"my_token.sol\":3022:3027  _from */\n      dup5\n        /* \"my_token.sol\":3013:3041  Transfer(_from, _to, _value) */\n      0xffffffffffffffffffffffffffffffffffffffff\n      and\n      0xddf252ad1be2c89b69c2b068fc378daa952ba7f163c4a11628f55a4df523b3ef\n        /* \"my_token.sol\":3034:3040  _value */\n      dup5\n        /* \"my_token.sol\":3013:3041  Transfer(_from, _to, _value) */\n      mload(0x40)\n      tag_78\n      swap2\n      swap1\n      tag_27\n      jump\t// in\n    tag_78:\n      mload(0x40)\n      dup1\n      swap2\n      sub\n      swap1\n      log3\n        /* \"my_token.sol\":3059:3063  true */\n      0x01\n        /* \"my_token.sol\":3052:3063  return true */\n      swap1\n      pop\n        /* \"my_token.sol\":2294:3071  function transferFrom(address _from, address _to, uint256 _value) public returns (bool success) {... */\n      swap4\n      swap3\n      pop\n      pop\n      pop\n      jump\t// out\n        /* \"my_token.sol\":368:389  uint8 public decimals */\n    tag_34:\n      0x02\n      0x00\n      swap1\n      sload\n      swap1\n      0x0100\n      exp\n      swap1\n      div\n      0xff\n      and\n      dup2\n      jump\t// out\n        /* \"my_token.sol\":512:556  mapping(address => uint256) public balanceOf */\n    tag_40:\n      mstore(0x20, 0x04)\n      dup1\n      0x00\n      mstore\n      keccak256(0x00, 0x40)\n      0x00\n      swap2\n      pop\n      swap1\n      pop\n      sload\n      dup2\n      jump\t// out\n        /* \"my_token.sol\":3170:3677  function batchTransfer(address[] memory _recipients, uint256[] memory _amounts) public {... */\n    tag_45:\n        /* \"my_token.sol\":3298:3306  _amounts */\n      dup1\n        /* \"my_token.sol\":3298:3313  _amounts.length */\n      mload\n        /* \"my_token.sol\":3276:3287  _recipients */\n      dup3\n        /* \"my_token.sol\":3276:3294  _recipients.length */\n      mload\n        /* \"my_token.sol\":3276:3313  _recipients.length == _amounts.length */\n      eq\n        /* \"my_token.sol\":3268:3339  require(_recipients.length == _amounts.length, \"Invalid input lengths\") */\n      tag_80\n      jumpi\n      mload(0x40)\n      0x08c379a000000000000000000000000000000000000000000000000000000000\n      dup2\n      mstore\n      0x04\n      add\n      tag_81\n      swap1\n      tag_82\n      jump\t// in\n    tag_81:\n      mload(0x40)\n      dup1\n      swap2\n      sub\n      swap1\n      revert\n    tag_80:\n        /* \"my_token.sol\":3355:3364  uint256 i */\n      0x00\n        /* \"my_token.sol\":3350:3670  for (uint256 i = 0; i < _recipients.length; i++) {... */\n    tag_83:\n        /* \"my_token.sol\":3374:3385  _recipients */\n      dup3\n        /* \"my_token.sol\":3374:3392  _recipients.length */\n      mload\n        /* \"my_token.sol\":3370:3371  i */\n      dup2\n        /* \"my_token.sol\":3370:3392  i < _recipients.length */\n      lt\n        /* \"my_token.sol\":3350:3670  for (uint256 i = 0; i < _recipients.length; i++) {... */\n      iszero\n      tag_84\n      jumpi\n        /* \"my_token.sol\":3447:3455  _amounts */\n      dup2\n        /* \"my_token.sol\":3456:3457  i */\n      dup2\n        /* \"my_token.sol\":3447:3458  _amounts[i] */\n      dup2\n      mload\n      dup2\n      lt\n      tag_86\n      jumpi\n      tag_87\n      tag_88\n      jump\t// in\n    tag_87:\n    tag_86:\n      0x20\n      mul\n      0x20\n      add\n      add\n      mload\n        /* \"my_token.sol\":3422:3431  balanceOf */\n      0x04\n        /* \"my_token.sol\":3422:3443  balanceOf[msg.sender] */\n      0x00\n        /* \"my_token.sol\":3432:3442  msg.sender */\n      caller\n        /* \"my_token.sol\":3422:3443  balanceOf[msg.sender] */\n      0xffffffffffffffffffffffffffffffffffffffff\n      and\n      0xffffffffffffffffffffffffffffffffffffffff\n      and\n      dup2\n      mstore\n      0x20\n      add\n      swap1\n      dup2\n      mstore\n      0x20\n      add\n      0x00\n      keccak256\n      sload\n        /* \"my_token.sol\":3422:3458  balanceOf[msg.sender] >= _amounts[i] */\n      lt\n      iszero\n        /* \"my_token.sol\":3414:3483  require(balanceOf[msg.sender] >= _amounts[i], \"Insufficient balance\") */\n      tag_89\n      jumpi\n      mload(0x40)\n      0x08c379a000000000000000000000000000000000000000000000000000000000\n      dup2\n      mstore\n      0x04\n      add\n      tag_90\n      swap1\n      tag_69\n      jump\t// in\n    tag_90:\n      mload(0x40)\n      dup1\n      swap2\n      sub\n      swap1\n      revert\n    tag_89:\n        /* \"my_token.sol\":3523:3531  _amounts */\n      dup2\n        /* \"my_token.sol\":3532:3533  i */\n      dup2\n        /* \"my_token.sol\":3523:3534  _amounts[i] */\n      dup2\n      mload\n      dup2\n      lt\n      tag_91\n      jumpi\n      tag_92\n      tag_88\n      jump\t// in\n    tag_92:\n    tag_91:\n      0x20\n      mul\n      0x20\n      add\n      add\n      mload\n        /* \"my_token.sol\":3498:3507  balanceOf */\n      0x04\n        /* \"my_token.sol\":3498:3519  balanceOf[msg.sender] */\n      0x00\n        /* \"my_token.sol\":3508:3518  msg.sender */\n      caller\n        /* \"my_token.sol\":3498:3519  balanceOf[msg.sender] */\n      0xffffffffffffffffffffffffffffffffffffffff\n      and\n      0xffffffffffffffffffffffffffffffffffffffff\n      and\n      dup2\n      mstore\n      0x20\n      add\n      swap1\n      dup2\n      mstore\n      0x20\n      add\n      0x00\n      keccak256\n      0x00\n        /* \"my_token.sol\":3498:3534  balanceOf[msg.sender] -= _amounts[i] */\n      dup3\n      dup3\n      sload\n      tag_93\n      swap2\n      swap1\n      tag_74\n      jump\t// in\n    tag_93:\n      swap3\n      pop\n      pop\n      dup2\n      swap1\n      sstore\n      pop\n        /* \"my_token.sol\":3578:3586  _amounts */\n      dup2\n        /* \"my_token.sol\":3587:3588  i */\n      dup2\n        /* \"my_token.sol\":3578:3589  _amounts[i] */\n      dup2\n      mload\n      dup2\n      lt\n      tag_94\n      jumpi\n      tag_95\n      tag_88\n      jump\t// in\n    tag_95:\n    tag_94:\n      0x20\n      mul\n      0x20\n      add\n      add\n      mload\n        /* \"my_token.sol\":3549:3558  balanceOf */\n      0x04\n        /* \"my_token.sol\":3549:3574  balanceOf[_recipients[i]] */\n      0x00\n        /* \"my_token.sol\":3559:3570  _recipients */\n      dup6\n        /* \"my_token.sol\":3571:3572  i */\n      dup5\n        /* \"my_token.sol\":3559:3573  _recipients[i] */\n      dup2\n      mload\n      dup2\n      lt\n      tag_96\n      jumpi\n      tag_97\n      tag_88\n      jump\t// in\n    tag_97:\n    tag_96:\n      0x20\n      mul\n      0x20\n      add\n      add\n      mload\n        /* \"my_token.sol\":3549:3574  balanceOf[_recipients[i]] */\n      0xffffffffffffffffffffffffffffffffffffffff\n      and\n      0xffffffffffffffffffffffffffffffffffffffff\n      and\n      dup2\n      mstore\n      0x20\n      add\n      swap1\n      dup2\n      mstore\n      0x20\n      add\n      0x00\n      keccak256\n      0x00\n        /* \"my_token.sol\":3549:3589  balanceOf[_recipients[i]] += _amounts[i] */\n      dup3\n      dup3\n      sload\n      tag_98\n      swap2\n      swap1\n      tag_76\n      jump\t// in\n    tag_98:\n      swap3\n      pop\n      pop\n      dup2\n      swap1\n      sstore\n      pop\n        /* \"my_token.sol\":3630:3641  _recipients */\n      dup3\n        /* \"my_token.sol\":3642:3643  i */\n      dup2\n        /* \"my_token.sol\":3630:3644  _recipients[i] */\n      dup2\n      mload\n      dup2\n      lt\n      tag_99\n      jumpi\n      tag_100\n      tag_88\n      jump\t// in\n    tag_100:\n    tag_99:\n      0x20\n      mul\n      0x20\n      add\n      add\n      mload\n        /* \"my_token.sol\":3609:3658  Transfer(msg.sender, _recipients[i], _amounts[i]) */\n      0xffffffffffffffffffffffffffffffffffffffff\n      and\n        /* \"my_token.sol\":3618:3628  msg.sender */\n      caller\n        /* \"my_token.sol\":3609:3658  Transfer(msg.sender, _recipients[i], _amounts[i]) */\n      0xffffffffffffffffffffffffffffffffffffffff\n      and\n      0xddf252ad1be2c89b69c2b068fc378daa952ba7f163c4a11628f55a4df523b3ef\n        /* \"my_token.sol\":3646:3654  _amounts */\n      dup5\n        /* \"my_token.sol\":3655:3656  i */\n      dup5\n        /* \"my_token.sol\":3646:3657  _amounts[i] */\n      dup2\n      mload\n      dup2\n      lt\n      tag_101\n      jumpi\n      tag_102\n      tag_88\n      jump\t// in\n    tag_102:\n    tag_101:\n      0x20\n      mul\n      0x20\n      add\n      add\n      mload\n        /* \"my_token.sol\":3609:3658  Transfer(msg.sender, _recipients[i], _amounts[i]) */\n      mload(0x40)\n      tag_103\n      swap2\n      swap1\n      tag_27\n      jump\t// in\n    tag_103:\n      mload(0x40)\n      dup1\n      swap2\n      sub\n      swap1\n      log3\n        /* \"my_token.sol\":3394:3397  i++ */\n      dup1\n      dup1\n      tag_104\n      swap1\n      tag_105\n      jump\t// in\n    tag_104:\n      swap2\n      pop\n      pop\n        /* \"my_token.sol\":3350:3670  for (uint256 i = 0; i < _recipients.length; i++) {... */\n      jump(tag_83)\n    tag_84:\n      pop\n        /* \"my_token.sol\":3170:3677  function batchTransfer(address[] memory _recipients, uint256[] memory _amounts) public {... */\n      pop\n      pop\n      jump\t// out\n        /* \"my_token.sol\":305:325  string public symbol */\n    tag_47:\n      0x01\n      dup1\n      sload\n      tag_106\n      swap1\n      tag_59\n      jump\t// in\n    tag_106:\n      dup1\n      0x1f\n      add\n      0x20\n      dup1\n      swap2\n      div\n      mul\n      0x20\n      add\n      mload(0x40)\n      swap1\n      dup2\n      add\n      0x40\n      mstore\n      dup1\n      swap3\n      swap2\n      swap1\n      dup2\n      dup2\n      mstore\n      0x20\n      add\n      dup3\n      dup1\n      sload\n      tag_107\n      swap1\n      tag_59\n      jump\t// in\n    tag_107:\n      dup1\n      iszero\n      tag_108\n      jumpi\n      dup1\n      0x1f\n      lt\n      tag_109\n      jumpi\n      0x0100\n      dup1\n      dup4\n      sload\n      div\n      mul\n      dup4\n      mstore\n      swap2\n      0x20\n      add\n      swap2\n      jump(tag_108)\n    tag_109:\n      dup3\n      add\n      swap2\n      swap1\n      0x00\n      mstore\n      keccak256(0x00, 0x20)\n      swap1\n    tag_110:\n      dup2\n      sload\n      dup2\n      mstore\n      swap1\n      0x01\n      add\n      swap1\n      0x20\n      add\n      dup1\n      dup4\n      gt\n      tag_110\n      jumpi\n      dup3\n      swap1\n      sub\n      0x1f\n      and\n      dup3\n      add\n      swap2\n    tag_108:\n      pop\n      pop\n      pop\n      pop\n      pop\n      dup2\n      jump\t// out\n        /* \"my_token.sol\":1454:1953  function transfer(address _to, uint256 _value) public returns (bool success) {... */\n    tag_51:\n        /* \"my_token.sol\":1517:1529  bool success */\n      0x00\n        /* \"my_token.sol\":1642:1648  _value */\n      dup2\n        /* \"my_token.sol\":1617:1626  balanceOf */\n      0x04\n        /* \"my_token.sol\":1617:1638  balanceOf[msg.sender] */\n      0x00\n        /* \"my_token.sol\":1627:1637  msg.sender */\n      caller\n        /* \"my_token.sol\":1617:1638  balanceOf[msg.sender] */\n      0xffffffffffffffffffffffffffffffffffffffff\n      and\n      0xffffffffffffffffffffffffffffffffffffffff\n      and\n      dup2\n      mstore\n      0x20\n      add\n      swap1\n      dup2\n      mstore\n      0x20\n      add\n      0x00\n      keccak256\n      sload\n        /* \"my_token.sol\":1617:1648  balanceOf[msg.sender] >= _value */\n      lt\n      iszero\n        /* \"my_token.sol\":1609:1673  require(balanceOf[msg.sender] >= _value, \"Insufficient balance\") */\n      tag_112\n      jumpi\n      mload(0x40)\n      0x08c379a000000000000000000000000000000000000000000000000000000000\n      dup2\n      mstore\n      0x04\n      add\n      tag_113\n      swap1\n      tag_69\n      jump\t// in\n    tag_113:\n      mload(0x40)\n      dup1\n      swap2\n      sub\n      swap1\n      revert\n    tag_112:\n        /* \"my_token.sol\":1759:1765  _value */\n      dup2\n        /* \"my_token.sol\":1734:1743  balanceOf */\n      0x04\n        /* \"my_token.sol\":1734:1755  balanceOf[msg.sender] */\n      0x00\n        /* \"my_token.sol\":1744:1754  msg.sender */\n      caller\n        /* \"my_token.sol\":1734:1755  balanceOf[msg.sender] */\n      0xffffffffffffffffffffffffffffffffffffffff\n      and\n      0xffffffffffffffffffffffffffffffffffffffff\n      and\n      dup2\n      mstore\n      0x20\n      add\n      swap1\n      dup2\n      mstore\n      0x20\n      add\n      0x00\n      keccak256\n      0x00\n        /* \"my_token.sol\":1734:1765  balanceOf[msg.sender] -= _value */\n      dup3\n      dup3\n      sload\n      tag_114\n      swap2\n      swap1\n      tag_74\n      jump\t// in\n    tag_114:\n      swap3\n      pop\n      pop\n      dup2\n      swap1\n      sstore\n      pop\n        /* \"my_token.sol\":1841:1847  _value */\n      dup2\n        /* \"my_token.sol\":1823:1832  balanceOf */\n      0x04\n        /* \"my_token.sol\":1823:1837  balanceOf[_to] */\n      0x00\n        /* \"my_token.sol\":1833:1836  _to */\n      dup6\n        /* \"my_token.sol\":1823:1837  balanceOf[_to] */\n      0xffffffffffffffffffffffffffffffffffffffff\n      and\n      0xffffffffffffffffffffffffffffffffffffffff\n      and\n      dup2\n      mstore\n      0x20\n      add\n      swap1\n      dup2\n      mstore\n      0x20\n      add\n      0x00\n      keccak256\n      0x00\n        /* \"my_token.sol\":1823:1847  balanceOf[_to] += _value */\n      dup3\n      dup3\n      sload\n      tag_115\n      swap2\n      swap1\n      tag_76\n      jump\t// in\n    tag_115:\n      swap3\n      pop\n      pop\n      dup2\n      swap1\n      sstore\n      pop\n        /* \"my_token.sol\":1911:1914  _to */\n      dup3\n        /* \"my_token.sol\":1890:1923  Transfer(msg.sender, _to, _value) */\n      0xffffffffffffffffffffffffffffffffffffffff\n      and\n        /* \"my_token.sol\":1899:1909  msg.sender */\n      caller\n        /* \"my_token.sol\":1890:1923  Transfer(msg.sender, _to, _value) */\n      0xffffffffffffffffffffffffffffffffffffffff\n      and\n      0xddf252ad1be2c89b69c2b068fc378daa952ba7f163c4a11628f55a4df523b3ef\n        /* \"my_token.sol\":1916:1922  _value */\n      dup5\n        /* \"my_token.sol\":1890:1923  Transfer(msg.sender, _to, _value) */\n      mload(0x40)\n      tag_116\n      swap2\n      swap1\n      tag_27\n      jump\t// in\n    tag_116:\n      mload(0x40)\n      dup1\n      swap2\n      sub\n      swap1\n      log3\n        /* \"my_token.sol\":1941:1945  true */\n      0x01\n        /* \"my_token.sol\":1934:1945  return true */\n      swap1\n      pop\n        /* \"my_token.sol\":1454:1953  function transfer(address _to, uint256 _value) public returns (bool success) {... */\n      swap3\n      swap2\n      pop\n      pop\n      jump\t// out\n        /* \"my_token.sol\":608:672  mapping(address => mapping(address => uint256)) public allowance */\n    tag_56:\n      mstore(0x20, 0x05)\n      dup2\n      0x00\n      mstore\n      mstore(0x20, keccak256(0x00, 0x40))\n      dup1\n      0x00\n      mstore\n      keccak256(0x00, 0x40)\n      0x00\n      swap2\n      pop\n      swap2\n      pop\n      pop\n      sload\n      dup2\n      jump\t// out\n        /* \"#utility.yul\":7:106   */\n    tag_117:\n        /* \"#utility.yul\":59:65   */\n      0x00\n        /* \"#utility.yul\":93:98   */\n      dup2\n        /* \"#utility.yul\":87:99   */\n      mload\n        /* \"#utility.yul\":77:99   */\n      swap1\n      pop\n        /* \"#utility.yul\":7:106   */\n      swap2\n      swap1\n      pop\n      jump\t// out\n        /* \"#utility.yul\":112:281   */\n    tag_118:\n        /* \"#utility.yul\":196:207   */\n      0x00\n        /* \"#utility.yul\":230:236   */\n      dup3\n        /* \"#utility.yul\":225:228   */\n      dup3\n        /* \"#utility.yul\":218:237   */\n      mstore\n        /* \"#utility.yul\":270:274   */\n      0x20\n        /* \"#utility.yul\":265:268   */\n      dup3\n        /* \"#utility.yul\":261:275   */\n      add\n        /* \"#utility.yul\":246:275   */\n      swap1\n      pop\n        /* \"#utility.yul\":112:281   */\n      swap3\n      swap2\n      pop\n      pop\n      jump\t// out\n        /* \"#utility.yul\":287:533   */\n    tag_119:\n        /* \"#utility.yul\":368:369   */\n      0x00\n        /* \"#utility.yul\":378:491   */\n    tag_160:\n        /* \"#utility.yul\":392:398   */\n      dup4\n        /* \"#utility.yul\":389:390   */\n      dup2\n        /* \"#utility.yul\":386:399   */\n      lt\n        /* \"#utility.yul\":378:491   */\n      iszero\n      tag_162\n      jumpi\n        /* \"#utility.yul\":477:478   */\n      dup1\n        /* \"#utility.yul\":472:475   */\n      dup3\n        /* \"#utility.yul\":468:479   */\n      add\n        /* \"#utility.yul\":462:480   */\n      mload\n        /* \"#utility.yul\":458:459   */\n      dup2\n        /* \"#utility.yul\":453:456   */\n      dup5\n        /* \"#utility.yul\":449:460   */\n      add\n        /* \"#utility.yul\":442:481   */\n      mstore\n        /* \"#utility.yul\":414:416   */\n      0x20\n        /* \"#utility.yul\":411:412   */\n      dup2\n        /* \"#utility.yul\":407:417   */\n      add\n        /* \"#utility.yul\":402:417   */\n      swap1\n      pop\n        /* \"#utility.yul\":378:491   */\n      jump(tag_160)\n    tag_162:\n        /* \"#utility.yul\":525:526   */\n      0x00\n        /* \"#utility.yul\":516:522   */\n      dup5\n        /* \"#utility.yul\":511:514   */\n      dup5\n        /* \"#utility.yul\":507:523   */\n      add\n        /* \"#utility.yul\":500:527   */\n      mstore\n        /* \"#utility.yul\":349:533   */\n      pop\n        /* \"#utility.yul\":287:533   */\n      pop\n      pop\n      pop\n      jump\t// out\n        /* \"#utility.yul\":539:641   */\n    tag_120:\n        /* \"#utility.yul\":580:586   */\n      0x00\n        /* \"#utility.yul\":631:633   */\n      0x1f\n        /* \"#utility.yul\":627:634   */\n      not\n        /* \"#utility.yul\":622:624   */\n      0x1f\n        /* \"#utility.yul\":615:620   */\n      dup4\n        /* \"#utility.yul\":611:625   */\n      add\n        /* \"#utility.yul\":607:635   */\n      and\n        /* \"#utility.yul\":597:635   */\n      swap1\n      pop\n        /* \"#utility.yul\":539:641   */\n      swap2\n      swap1\n      pop\n      jump\t// out\n        /* \"#utility.yul\":647:1024   */\n    tag_121:\n        /* \"#utility.yul\":735:738   */\n      0x00\n        /* \"#utility.yul\":763:802   */\n      tag_165\n        /* \"#utility.yul\":796:801   */\n      dup3\n        /* \"#utility.yul\":763:802   */\n      tag_117\n      jump\t// in\n    tag_165:\n        /* \"#utility.yul\":818:889   */\n      tag_166\n        /* \"#utility.yul\":882:888   */\n      dup2\n        /* \"#utility.yul\":877:880   */\n      dup6\n        /* \"#utility.yul\":818:889   */\n      tag_118\n      jump\t// in\n    tag_166:\n        /* \"#utility.yul\":811:889   */\n      swap4\n      pop\n        /* \"#utility.yul\":898:963   */\n      tag_167\n        /* \"#utility.yul\":956:962   */\n      dup2\n        /* \"#utility.yul\":951:954   */\n      dup6\n        /* \"#utility.yul\":944:948   */\n      0x20\n        /* \"#utility.yul\":937:942   */\n      dup7\n        /* \"#utility.yul\":933:949   */\n      add\n        /* \"#utility.yul\":898:963   */\n      tag_119\n      jump\t// in\n    tag_167:\n        /* \"#utility.yul\":988:1017   */\n      tag_168\n        /* \"#utility.yul\":1010:1016   */\n      dup2\n        /* \"#utility.yul\":988:1017   */\n      tag_120\n      jump\t// in\n    tag_168:\n        /* \"#utility.yul\":983:986   */\n      dup5\n        /* \"#utility.yul\":979:1018   */\n      add\n        /* \"#utility.yul\":972:1018   */\n      swap2\n      pop\n        /* \"#utility.yul\":739:1024   */\n      pop\n        /* \"#utility.yul\":647:1024   */\n      swap3\n      swap2\n      pop\n      pop\n      jump\t// out\n        /* \"#utility.yul\":1030:1343   */\n    tag_17:\n        /* \"#utility.yul\":1143:1147   */\n      0x00\n        /* \"#utility.yul\":1181:1183   */\n      0x20\n        /* \"#utility.yul\":1170:1179   */\n      dup3\n        /* \"#utility.yul\":1166:1184   */\n      add\n        /* \"#utility.yul\":1158:1184   */\n      swap1\n      pop\n        /* \"#utility.yul\":1230:1239   */\n      dup2\n        /* \"#utility.yul\":1224:1228   */\n      dup2\n        /* \"#utility.yul\":1220:1240   */\n      sub\n        /* \"#utility.yul\":1216:1217   */\n      0x00\n        /* \"#utility.yul\":1205:1214   */\n      dup4\n        /* \"#utility.yul\":1201:1218   */\n      add\n        /* \"#utility.yul\":1194:1241   */\n      mstore\n        /* \"#utility.yul\":1258:1336   */\n      tag_170\n        /* \"#utility.yul\":1331:1335   */\n      dup2\n        /* \"#utility.yul\":1322:1328   */\n      dup5\n        /* \"#utility.yul\":1258:1336   */\n      tag_121\n      jump\t// in\n    tag_170:\n        /* \"#utility.yul\":1250:1336   */\n      swap1\n      pop\n        /* \"#utility.yul\":1030:1343   */\n      swap3\n      swap2\n      pop\n      pop\n      jump\t// out\n        /* \"#utility.yul\":1349:1424   */\n    tag_122:\n        /* \"#utility.yul\":1382:1388   */\n      0x00\n        /* \"#utility.yul\":1415:1417   */\n      0x40\n        /* \"#utility.yul\":1409:1418   */\n      mload\n        /* \"#utility.yul\":1399:1418   */\n      swap1\n      pop\n        /* \"#utility.yul\":1349:1424   */\n      swap1\n      jump\t// out\n        /* \"#utility.yul\":1430:1547   */\n    tag_123:\n        /* \"#utility.yul\":1539:1540   */\n      0x00\n        /* \"#utility.yul\":1536:1537   */\n      dup1\n        /* \"#utility.yul\":1529:1541   */\n      revert\n        /* \"#utility.yul\":1553:1670   */\n    tag_124:\n        /* \"#utility.yul\":1662:1663   */\n      0x00\n        /* \"#utility.yul\":1659:1660   */\n      dup1\n        /* \"#utility.yul\":1652:1664   */\n      revert\n        /* \"#utility.yul\":1676:1802   */\n    tag_125:\n        /* \"#utility.yul\":1713:1720   */\n      0x00\n        /* \"#utility.yul\":1753:1795   */\n      0xffffffffffffffffffffffffffffffffffffffff\n        /* \"#utility.yul\":1746:1751   */\n      dup3\n        /* \"#utility.yul\":1742:1796   */\n      and\n        /* \"#utility.yul\":1731:1796   */\n      swap1\n      pop\n        /* \"#utility.yul\":1676:1802   */\n      swap2\n      swap1\n      pop\n      jump\t// out\n        /* \"#utility.yul\":1808:1904   */\n    tag_126:\n        /* \"#utility.yul\":1845:1852   */\n      0x00\n        /* \"#utility.yul\":1874:1898   */\n      tag_176\n        /* \"#utility.yul\":1892:1897   */\n      dup3\n        /* \"#utility.yul\":1874:1898   */\n      tag_125\n      jump\t// in\n    tag_176:\n        /* \"#utility.yul\":1863:1898   */\n      swap1\n      pop\n        /* \"#utility.yul\":1808:1904   */\n      swap2\n      swap1\n      pop\n      jump\t// out\n        /* \"#utility.yul\":1910:2032   */\n    tag_127:\n        /* \"#utility.yul\":1983:2007   */\n      tag_178\n        /* \"#utility.yul\":2001:2006   */\n      dup2\n        /* \"#utility.yul\":1983:2007   */\n      tag_126\n      jump\t// in\n    tag_178:\n        /* \"#utility.yul\":1976:1981   */\n      dup2\n        /* \"#utility.yul\":1973:2008   */\n      eq\n        /* \"#utility.yul\":1963:2026   */\n      tag_179\n      jumpi\n        /* \"#utility.yul\":2022:2023   */\n      0x00\n        /* \"#utility.yul\":2019:2020   */\n      dup1\n        /* \"#utility.yul\":2012:2024   */\n      revert\n        /* \"#utility.yul\":1963:2026   */\n    tag_179:\n        /* \"#utility.yul\":1910:2032   */\n      pop\n      jump\t// out\n        /* \"#utility.yul\":2038:2177   */\n    tag_128:\n        /* \"#utility.yul\":2084:2089   */\n      0x00\n        /* \"#utility.yul\":2122:2128   */\n      dup2\n        /* \"#utility.yul\":2109:2129   */\n      calldataload\n        /* \"#utility.yul\":2100:2129   */\n      swap1\n      pop\n        /* \"#utility.yul\":2138:2171   */\n      tag_181\n        /* \"#utility.yul\":2165:2170   */\n      dup2\n        /* \"#utility.yul\":2138:2171   */\n      tag_127\n      jump\t// in\n    tag_181:\n        /* \"#utility.yul\":2038:2177   */\n      swap3\n      swap2\n      pop\n      pop\n      jump\t// out\n        /* \"#utility.yul\":2183:2260   */\n    tag_129:\n        /* \"#utility.yul\":2220:2227   */\n      0x00\n        /* \"#utility.yul\":2249:2254   */\n      dup2\n        /* \"#utility.yul\":2238:2254   */\n      swap1\n      pop\n        /* \"#utility.yul\":2183:2260   */\n      swap2\n      swap1\n      pop\n      jump\t// out\n        /* \"#utility.yul\":2266:2388   */\n    tag_130:\n        /* \"#utility.yul\":2339:2363   */\n      tag_184\n        /* \"#utility.yul\":2357:2362   */\n      dup2\n        /* \"#utility.yul\":2339:2363   */\n      tag_129\n      jump\t// in\n    tag_184:\n        /* \"#utility.yul\":2332:2337   */\n      dup2\n        /* \"#utility.yul\":2329:2364   */\n      eq\n        /* \"#utility.yul\":2319:2382   */\n      tag_185\n      jumpi\n        /* \"#utility.yul\":2378:2379   */\n      0x00\n        /* \"#utility.yul\":2375:2376   */\n      dup1\n        /* \"#utility.yul\":2368:2380   */\n      revert\n        /* \"#utility.yul\":2319:2382   */\n    tag_185:\n        /* \"#utility.yul\":2266:2388   */\n      pop\n      jump\t// out\n        /* \"#utility.yul\":2394:2533   */\n    tag_131:\n        /* \"#utility.yul\":2440:2445   */\n      0x00\n        /* \"#utility.yul\":2478:2484   */\n      dup2\n        /* \"#utility.yul\":2465:2485   */\n      calldataload\n        /* \"#utility.yul\":2456:2485   */\n      swap1\n      pop\n        /* \"#utility.yul\":2494:2527   */\n      tag_187\n        /* \"#utility.yul\":2521:2526   */\n      dup2\n        /* \"#utility.yul\":2494:2527   */\n      tag_130\n      jump\t// in\n    tag_187:\n        /* \"#utility.yul\":2394:2533   */\n      swap3\n      swap2\n      pop\n      pop\n      jump\t// out\n        /* \"#utility.yul\":2539:3013   */\n    tag_20:\n        /* \"#utility.yul\":2607:2613   */\n      0x00\n        /* \"#utility.yul\":2615:2621   */\n      dup1\n        /* \"#utility.yul\":2664:2666   */\n      0x40\n        /* \"#utility.yul\":2652:2661   */\n      dup4\n        /* \"#utility.yul\":2643:2650   */\n      dup6\n        /* \"#utility.yul\":2639:2662   */\n      sub\n        /* \"#utility.yul\":2635:2667   */\n      slt\n        /* \"#utility.yul\":2632:2751   */\n      iszero\n      tag_189\n      jumpi\n        /* \"#utility.yul\":2670:2749   */\n      tag_190\n      tag_123\n      jump\t// in\n    tag_190:\n        /* \"#utility.yul\":2632:2751   */\n    tag_189:\n        /* \"#utility.yul\":2790:2791   */\n      0x00\n        /* \"#utility.yul\":2815:2868   */\n      tag_191\n        /* \"#utility.yul\":2860:2867   */\n      dup6\n        /* \"#utility.yul\":2851:2857   */\n      dup3\n        /* \"#utility.yul\":2840:2849   */\n      dup7\n        /* \"#utility.yul\":2836:2858   */\n      add\n        /* \"#utility.yul\":2815:2868   */\n      tag_128\n      jump\t// in\n    tag_191:\n        /* \"#utility.yul\":2805:2868   */\n      swap3\n      pop\n        /* \"#utility.yul\":2761:2878   */\n      pop\n        /* \"#utility.yul\":2917:2919   */\n      0x20\n        /* \"#utility.yul\":2943:2996   */\n      tag_192\n        /* \"#utility.yul\":2988:2995   */\n      dup6\n        /* \"#utility.yul\":2979:2985   */\n      dup3\n        /* \"#utility.yul\":2968:2977   */\n      dup7\n        /* \"#utility.yul\":2964:2986   */\n      add\n        /* \"#utility.yul\":2943:2996   */\n      tag_131\n      jump\t// in\n    tag_192:\n        /* \"#utility.yul\":2933:2996   */\n      swap2\n      pop\n        /* \"#utility.yul\":2888:3006   */\n      pop\n        /* \"#utility.yul\":2539:3013   */\n      swap3\n      pop\n      swap3\n      swap1\n      pop\n      jump\t// out\n        /* \"#utility.yul\":3019:3109   */\n    tag_132:\n        /* \"#utility.yul\":3053:3060   */\n      0x00\n        /* \"#utility.yul\":3096:3101   */\n      dup2\n        /* \"#utility.yul\":3089:3102   */\n      iszero\n        /* \"#utility.yul\":3082:3103   */\n      iszero\n        /* \"#utility.yul\":3071:3103   */\n      swap1\n      pop\n        /* \"#utility.yul\":3019:3109   */\n      swap2\n      swap1\n      pop\n      jump\t// out\n        /* \"#utility.yul\":3115:3224   */\n    tag_133:\n        /* \"#utility.yul\":3196:3217   */\n      tag_195\n        /* \"#utility.yul\":3211:3216   */\n      dup2\n        /* \"#utility.yul\":3196:3217   */\n      tag_132\n      jump\t// in\n    tag_195:\n        /* \"#utility.yul\":3191:3194   */\n      dup3\n        /* \"#utility.yul\":3184:3218   */\n      mstore\n        /* \"#utility.yul\":3115:3224   */\n      pop\n      pop\n      jump\t// out\n        /* \"#utility.yul\":3230:3440   */\n    tag_23:\n        /* \"#utility.yul\":3317:3321   */\n      0x00\n        /* \"#utility.yul\":3355:3357   */\n      0x20\n        /* \"#utility.yul\":3344:3353   */\n      dup3\n        /* \"#utility.yul\":3340:3358   */\n      add\n        /* \"#utility.yul\":3332:3358   */\n      swap1\n      pop\n        /* \"#utility.yul\":3368:3433   */\n      tag_197\n        /* \"#utility.yul\":3430:3431   */\n      0x00\n        /* \"#utility.yul\":3419:3428   */\n      dup4\n        /* \"#utility.yul\":3415:3432   */\n      add\n        /* \"#utility.yul\":3406:3412   */\n      dup5\n        /* \"#utility.yul\":3368:3433   */\n      tag_133\n      jump\t// in\n    tag_197:\n        /* \"#utility.yul\":3230:3440   */\n      swap3\n      swap2\n      pop\n      pop\n      jump\t// out\n        /* \"#utility.yul\":3446:3564   */\n    tag_134:\n        /* \"#utility.yul\":3533:3557   */\n      tag_199\n        /* \"#utility.yul\":3551:3556   */\n      dup2\n        /* \"#utility.yul\":3533:3557   */\n      tag_129\n      jump\t// in\n    tag_199:\n        /* \"#utility.yul\":3528:3531   */\n      dup3\n        /* \"#utility.yul\":3521:3558   */\n      mstore\n        /* \"#utility.yul\":3446:3564   */\n      pop\n      pop\n      jump\t// out\n        /* \"#utility.yul\":3570:3792   */\n    tag_27:\n        /* \"#utility.yul\":3663:3667   */\n      0x00\n        /* \"#utility.yul\":3701:3703   */\n      0x20\n        /* \"#utility.yul\":3690:3699   */\n      dup3\n        /* \"#utility.yul\":3686:3704   */\n      add\n        /* \"#utility.yul\":3678:3704   */\n      swap1\n      pop\n        /* \"#utility.yul\":3714:3785   */\n      tag_201\n        /* \"#utility.yul\":3782:3783   */\n      0x00\n        /* \"#utility.yul\":3771:3780   */\n      dup4\n        /* \"#utility.yul\":3767:3784   */\n      add\n        /* \"#utility.yul\":3758:3764   */\n      dup5\n        /* \"#utility.yul\":3714:3785   */\n      tag_134\n      jump\t// in\n    tag_201:\n        /* \"#utility.yul\":3570:3792   */\n      swap3\n      swap2\n      pop\n      pop\n      jump\t// out\n        /* \"#utility.yul\":3798:4417   */\n    tag_30:\n        /* \"#utility.yul\":3875:3881   */\n      0x00\n        /* \"#utility.yul\":3883:3889   */\n      dup1\n        /* \"#utility.yul\":3891:3897   */\n      0x00\n        /* \"#utility.yul\":3940:3942   */\n      0x60\n        /* \"#utility.yul\":3928:3937   */\n      dup5\n        /* \"#utility.yul\":3919:3926   */\n      dup7\n        /* \"#utility.yul\":3915:3938   */\n      sub\n        /* \"#utility.yul\":3911:3943   */\n      slt\n        /* \"#utility.yul\":3908:4027   */\n      iszero\n      tag_203\n      jumpi\n        /* \"#utility.yul\":3946:4025   */\n      tag_204\n      tag_123\n      jump\t// in\n    tag_204:\n        /* \"#utility.yul\":3908:4027   */\n    tag_203:\n        /* \"#utility.yul\":4066:4067   */\n      0x00\n        /* \"#utility.yul\":4091:4144   */\n      tag_205\n        /* \"#utility.yul\":4136:4143   */\n      dup7\n        /* \"#utility.yul\":4127:4133   */\n      dup3\n        /* \"#utility.yul\":4116:4125   */\n      dup8\n        /* \"#utility.yul\":4112:4134   */\n      add\n        /* \"#utility.yul\":4091:4144   */\n      tag_128\n      jump\t// in\n    tag_205:\n        /* \"#utility.yul\":4081:4144   */\n      swap4\n      pop\n        /* \"#utility.yul\":4037:4154   */\n      pop\n        /* \"#utility.yul\":4193:4195   */\n      0x20\n        /* \"#utility.yul\":4219:4272   */\n      tag_206\n        /* \"#utility.yul\":4264:4271   */\n      dup7\n        /* \"#utility.yul\":4255:4261   */\n      dup3\n        /* \"#utility.yul\":4244:4253   */\n      dup8\n        /* \"#utility.yul\":4240:4262   */\n      add\n        /* \"#utility.yul\":4219:4272   */\n      tag_128\n      jump\t// in\n    tag_206:\n        /* \"#utility.yul\":4209:4272   */\n      swap3\n      pop\n        /* \"#utility.yul\":4164:4282   */\n      pop\n        /* \"#utility.yul\":4321:4323   */\n      0x40\n        /* \"#utility.yul\":4347:4400   */\n      tag_207\n        /* \"#utility.yul\":4392:4399   */\n      dup7\n        /* \"#utility.yul\":4383:4389   */\n      dup3\n        /* \"#utility.yul\":4372:4381   */\n      dup8\n        /* \"#utility.yul\":4368:4390   */\n      add\n        /* \"#utility.yul\":4347:4400   */\n      tag_131\n      jump\t// in\n    tag_207:\n        /* \"#utility.yul\":4337:4400   */\n      swap2\n      pop\n        /* \"#utility.yul\":4292:4410   */\n      pop\n        /* \"#utility.yul\":3798:4417   */\n      swap3\n      pop\n      swap3\n      pop\n      swap3\n      jump\t// out\n        /* \"#utility.yul\":4423:4509   */\n    tag_135:\n        /* \"#utility.yul\":4458:4465   */\n      0x00\n        /* \"#utility.yul\":4498:4502   */\n      0xff\n        /* \"#utility.yul\":4491:4496   */\n      dup3\n        /* \"#utility.yul\":4487:4503   */\n      and\n        /* \"#utility.yul\":4476:4503   */\n      swap1\n      pop\n        /* \"#utility.yul\":4423:4509   */\n      swap2\n      swap1\n      pop\n      jump\t// out\n        /* \"#utility.yul\":4515:4627   */\n    tag_136:\n        /* \"#utility.yul\":4598:4620   */\n      tag_210\n        /* \"#utility.yul\":4614:4619   */\n      dup2\n        /* \"#utility.yul\":4598:4620   */\n      tag_135\n      jump\t// in\n    tag_210:\n        /* \"#utility.yul\":4593:4596   */\n      dup3\n        /* \"#utility.yul\":4586:4621   */\n      mstore\n        /* \"#utility.yul\":4515:4627   */\n      pop\n      pop\n      jump\t// out\n        /* \"#utility.yul\":4633:4847   */\n    tag_36:\n        /* \"#utility.yul\":4722:4726   */\n      0x00\n        /* \"#utility.yul\":4760:4762   */\n      0x20\n        /* \"#utility.yul\":4749:4758   */\n      dup3\n        /* \"#utility.yul\":4745:4763   */\n      add\n        /* \"#utility.yul\":4737:4763   */\n      swap1\n      pop\n        /* \"#utility.yul\":4773:4840   */\n      tag_212\n        /* \"#utility.yul\":4837:4838   */\n      0x00\n        /* \"#utility.yul\":4826:4835   */\n      dup4\n        /* \"#utility.yul\":4822:4839   */\n      add\n        /* \"#utility.yul\":4813:4819   */\n      dup5\n        /* \"#utility.yul\":4773:4840   */\n      tag_136\n      jump\t// in\n    tag_212:\n        /* \"#utility.yul\":4633:4847   */\n      swap3\n      swap2\n      pop\n      pop\n      jump\t// out\n        /* \"#utility.yul\":4853:5182   */\n    tag_39:\n        /* \"#utility.yul\":4912:4918   */\n      0x00\n        /* \"#utility.yul\":4961:4963   */\n      0x20\n        /* \"#utility.yul\":4949:4958   */\n      dup3\n        /* \"#utility.yul\":4940:4947   */\n      dup5\n        /* \"#utility.yul\":4936:4959   */\n      sub\n        /* \"#utility.yul\":4932:4964   */\n      slt\n        /* \"#utility.yul\":4929:5048   */\n      iszero\n      tag_214\n      jumpi\n        /* \"#utility.yul\":4967:5046   */\n      tag_215\n      tag_123\n      jump\t// in\n    tag_215:\n        /* \"#utility.yul\":4929:5048   */\n    tag_214:\n        /* \"#utility.yul\":5087:5088   */\n      0x00\n        /* \"#utility.yul\":5112:5165   */\n      tag_216\n        /* \"#utility.yul\":5157:5164   */\n      dup5\n        /* \"#utility.yul\":5148:5154   */\n      dup3\n        /* \"#utility.yul\":5137:5146   */\n      dup6\n        /* \"#utility.yul\":5133:5155   */\n      add\n        /* \"#utility.yul\":5112:5165   */\n      tag_128\n      jump\t// in\n    tag_216:\n        /* \"#utility.yul\":5102:5165   */\n      swap2\n      pop\n        /* \"#utility.yul\":5058:5175   */\n      pop\n        /* \"#utility.yul\":4853:5182   */\n      swap3\n      swap2\n      pop\n      pop\n      jump\t// out\n        /* \"#utility.yul\":5188:5305   */\n    tag_137:\n        /* \"#utility.yul\":5297:5298   */\n      0x00\n        /* \"#utility.yul\":5294:5295   */\n      dup1\n        /* \"#utility.yul\":5287:5299   */\n      revert\n        /* \"#utility.yul\":5311:5491   */\n    tag_138:\n        /* \"#utility.yul\":5359:5436   */\n      0x4e487b7100000000000000000000000000000000000000000000000000000000\n        /* \"#utility.yul\":5356:5357   */\n      0x00\n        /* \"#utility.yul\":5349:5437   */\n      mstore\n        /* \"#utility.yul\":5456:5460   */\n      0x41\n        /* \"#utility.yul\":5453:5454   */\n      0x04\n        /* \"#utility.yul\":5446:5461   */\n      mstore\n        /* \"#utility.yul\":5480:5484   */\n      0x24\n        /* \"#utility.yul\":5477:5478   */\n      0x00\n        /* \"#utility.yul\":5470:5485   */\n      revert\n        /* \"#utility.yul\":5497:5778   */\n    tag_139:\n        /* \"#utility.yul\":5580:5607   */\n      tag_220\n        /* \"#utility.yul\":5602:5606   */\n      dup3\n        /* \"#utility.yul\":5580:5607   */\n      tag_120\n      jump\t// in\n    tag_220:\n        /* \"#utility.yul\":5572:5578   */\n      dup2\n        /* \"#utility.yul\":5568:5608   */\n      add\n        /* \"#utility.yul\":5710:5716   */\n      dup2\n        /* \"#utility.yul\":5698:5708   */\n      dup2\n        /* \"#utility.yul\":5695:5717   */\n      lt\n        /* \"#utility.yul\":5674:5692   */\n      0xffffffffffffffff\n        /* \"#utility.yul\":5662:5672   */\n      dup3\n        /* \"#utility.yul\":5659:5693   */\n      gt\n        /* \"#utility.yul\":5656:5718   */\n      or\n        /* \"#utility.yul\":5653:5741   */\n      iszero\n      tag_221\n      jumpi\n        /* \"#utility.yul\":5721:5739   */\n      tag_222\n      tag_138\n      jump\t// in\n    tag_222:\n        /* \"#utility.yul\":5653:5741   */\n    tag_221:\n        /* \"#utility.yul\":5761:5771   */\n      dup1\n        /* \"#utility.yul\":5757:5759   */\n      0x40\n        /* \"#utility.yul\":5750:5772   */\n      mstore\n        /* \"#utility.yul\":5540:5778   */\n      pop\n        /* \"#utility.yul\":5497:5778   */\n      pop\n      pop\n      jump\t// out\n        /* \"#utility.yul\":5784:5913   */\n    tag_140:\n        /* \"#utility.yul\":5818:5824   */\n      0x00\n        /* \"#utility.yul\":5845:5865   */\n      tag_224\n      tag_122\n      jump\t// in\n    tag_224:\n        /* \"#utility.yul\":5835:5865   */\n      swap1\n      pop\n        /* \"#utility.yul\":5874:5907   */\n      tag_225\n        /* \"#utility.yul\":5902:5906   */\n      dup3\n        /* \"#utility.yul\":5894:5900   */\n      dup3\n        /* \"#utility.yul\":5874:5907   */\n      tag_139\n      jump\t// in\n    tag_225:\n        /* \"#utility.yul\":5784:5913   */\n      swap2\n      swap1\n      pop\n      jump\t// out\n        /* \"#utility.yul\":5919:6230   */\n    tag_141:\n        /* \"#utility.yul\":5996:6000   */\n      0x00\n        /* \"#utility.yul\":6086:6104   */\n      0xffffffffffffffff\n        /* \"#utility.yul\":6078:6084   */\n      dup3\n        /* \"#utility.yul\":6075:6105   */\n      gt\n        /* \"#utility.yul\":6072:6128   */\n      iszero\n      tag_227\n      jumpi\n        /* \"#utility.yul\":6108:6126   */\n      tag_228\n      tag_138\n      jump\t// in\n    tag_228:\n        /* \"#utility.yul\":6072:6128   */\n    tag_227:\n        /* \"#utility.yul\":6158:6162   */\n      0x20\n        /* \"#utility.yul\":6150:6156   */\n      dup3\n        /* \"#utility.yul\":6146:6163   */\n      mul\n        /* \"#utility.yul\":6138:6163   */\n      swap1\n      pop\n        /* \"#utility.yul\":6218:6222   */\n      0x20\n        /* \"#utility.yul\":6212:6216   */\n      dup2\n        /* \"#utility.yul\":6208:6223   */\n      add\n        /* \"#utility.yul\":6200:6223   */\n      swap1\n      pop\n        /* \"#utility.yul\":5919:6230   */\n      swap2\n      swap1\n      pop\n      jump\t// out\n        /* \"#utility.yul\":6236:6353   */\n    tag_142:\n        /* \"#utility.yul\":6345:6346   */\n      0x00\n        /* \"#utility.yul\":6342:6343   */\n      dup1\n        /* \"#utility.yul\":6335:6347   */\n      revert\n        /* \"#utility.yul\":6376:7086   */\n    tag_143:\n        /* \"#utility.yul\":6472:6477   */\n      0x00\n        /* \"#utility.yul\":6497:6578   */\n      tag_231\n        /* \"#utility.yul\":6513:6577   */\n      tag_232\n        /* \"#utility.yul\":6570:6576   */\n      dup5\n        /* \"#utility.yul\":6513:6577   */\n      tag_141\n      jump\t// in\n    tag_232:\n        /* \"#utility.yul\":6497:6578   */\n      tag_140\n      jump\t// in\n    tag_231:\n        /* \"#utility.yul\":6488:6578   */\n      swap1\n      pop\n        /* \"#utility.yul\":6598:6603   */\n      dup1\n        /* \"#utility.yul\":6627:6633   */\n      dup4\n        /* \"#utility.yul\":6620:6625   */\n      dup3\n        /* \"#utility.yul\":6613:6634   */\n      mstore\n        /* \"#utility.yul\":6661:6665   */\n      0x20\n        /* \"#utility.yul\":6654:6659   */\n      dup3\n        /* \"#utility.yul\":6650:6666   */\n      add\n        /* \"#utility.yul\":6643:6666   */\n      swap1\n      pop\n        /* \"#utility.yul\":6714:6718   */\n      0x20\n        /* \"#utility.yul\":6706:6712   */\n      dup5\n        /* \"#utility.yul\":6702:6719   */\n      mul\n        /* \"#utility.yul\":6694:6700   */\n      dup4\n        /* \"#utility.yul\":6690:6720   */\n      add\n        /* \"#utility.yul\":6743:6746   */\n      dup6\n        /* \"#utility.yul\":6735:6741   */\n      dup2\n        /* \"#utility.yul\":6732:6747   */\n      gt\n        /* \"#utility.yul\":6729:6851   */\n      iszero\n      tag_233\n      jumpi\n        /* \"#utility.yul\":6762:6841   */\n      tag_234\n      tag_142\n      jump\t// in\n    tag_234:\n        /* \"#utility.yul\":6729:6851   */\n    tag_233:\n        /* \"#utility.yul\":6877:6883   */\n      dup4\n        /* \"#utility.yul\":6860:7080   */\n    tag_235:\n        /* \"#utility.yul\":6894:6900   */\n      dup2\n        /* \"#utility.yul\":6889:6892   */\n      dup2\n        /* \"#utility.yul\":6886:6901   */\n      lt\n        /* \"#utility.yul\":6860:7080   */\n      iszero\n      tag_237\n      jumpi\n        /* \"#utility.yul\":6969:6972   */\n      dup1\n        /* \"#utility.yul\":6998:7035   */\n      tag_238\n        /* \"#utility.yul\":7031:7034   */\n      dup9\n        /* \"#utility.yul\":7019:7029   */\n      dup3\n        /* \"#utility.yul\":6998:7035   */\n      tag_128\n      jump\t// in\n    tag_238:\n        /* \"#utility.yul\":6993:6996   */\n      dup5\n        /* \"#utility.yul\":6986:7036   */\n      mstore\n        /* \"#utility.yul\":7065:7069   */\n      0x20\n        /* \"#utility.yul\":7060:7063   */\n      dup5\n        /* \"#utility.yul\":7056:7070   */\n      add\n        /* \"#utility.yul\":7049:7070   */\n      swap4\n      pop\n        /* \"#utility.yul\":6936:7080   */\n      pop\n        /* \"#utility.yul\":6920:6924   */\n      0x20\n        /* \"#utility.yul\":6915:6918   */\n      dup2\n        /* \"#utility.yul\":6911:6925   */\n      add\n        /* \"#utility.yul\":6904:6925   */\n      swap1\n      pop\n        /* \"#utility.yul\":6860:7080   */\n      jump(tag_235)\n    tag_237:\n        /* \"#utility.yul\":6864:6885   */\n      pop\n        /* \"#utility.yul\":6478:7086   */\n      pop\n      pop\n        /* \"#utility.yul\":6376:7086   */\n      swap4\n      swap3\n      pop\n      pop\n      pop\n      jump\t// out\n        /* \"#utility.yul\":7109:7479   */\n    tag_144:\n        /* \"#utility.yul\":7180:7185   */\n      0x00\n        /* \"#utility.yul\":7229:7232   */\n      dup3\n        /* \"#utility.yul\":7222:7226   */\n      0x1f\n        /* \"#utility.yul\":7214:7220   */\n      dup4\n        /* \"#utility.yul\":7210:7227   */\n      add\n        /* \"#utility.yul\":7206:7233   */\n      slt\n        /* \"#utility.yul\":7196:7318   */\n      tag_240\n      jumpi\n        /* \"#utility.yul\":7237:7316   */\n      tag_241\n      tag_137\n      jump\t// in\n    tag_241:\n        /* \"#utility.yul\":7196:7318   */\n    tag_240:\n        /* \"#utility.yul\":7354:7360   */\n      dup2\n        /* \"#utility.yul\":7341:7361   */\n      calldataload\n        /* \"#utility.yul\":7379:7473   */\n      tag_242\n        /* \"#utility.yul\":7469:7472   */\n      dup5\n        /* \"#utility.yul\":7461:7467   */\n      dup3\n        /* \"#utility.yul\":7454:7458   */\n      0x20\n        /* \"#utility.yul\":7446:7452   */\n      dup7\n        /* \"#utility.yul\":7442:7459   */\n      add\n        /* \"#utility.yul\":7379:7473   */\n      tag_143\n      jump\t// in\n    tag_242:\n        /* \"#utility.yul\":7370:7473   */\n      swap2\n      pop\n        /* \"#utility.yul\":7186:7479   */\n      pop\n        /* \"#utility.yul\":7109:7479   */\n      swap3\n      swap2\n      pop\n      pop\n      jump\t// out\n        /* \"#utility.yul\":7485:7796   */\n    tag_145:\n        /* \"#utility.yul\":7562:7566   */\n      0x00\n        /* \"#utility.yul\":7652:7670   */\n      0xffffffffffffffff\n        /* \"#utility.yul\":7644:7650   */\n      dup3\n        /* \"#utility.yul\":7641:7671   */\n      gt\n        /* \"#utility.yul\":7638:7694   */\n      iszero\n      tag_244\n      jumpi\n        /* \"#utility.yul\":7674:7692   */\n      tag_245\n      tag_138\n      jump\t// in\n    tag_245:\n        /* \"#utility.yul\":7638:7694   */\n    tag_244:\n        /* \"#utility.yul\":7724:7728   */\n      0x20\n        /* \"#utility.yul\":7716:7722   */\n      dup3\n        /* \"#utility.yul\":7712:7729   */\n      mul\n        /* \"#utility.yul\":7704:7729   */\n      swap1\n      pop\n        /* \"#utility.yul\":7784:7788   */\n      0x20\n        /* \"#utility.yul\":7778:7782   */\n      dup2\n        /* \"#utility.yul\":7774:7789   */\n      add\n        /* \"#utility.yul\":7766:7789   */\n      swap1\n      pop\n        /* \"#utility.yul\":7485:7796   */\n      swap2\n      swap1\n      pop\n      jump\t// out\n        /* \"#utility.yul\":7819:8529   */\n    tag_146:\n        /* \"#utility.yul\":7915:7920   */\n      0x00\n        /* \"#utility.yul\":7940:8021   */\n      tag_247\n        /* \"#utility.yul\":7956:8020   */\n      tag_248\n        /* \"#utility.yul\":8013:8019   */\n      dup5\n        /* \"#utility.yul\":7956:8020   */\n      tag_145\n      jump\t// in\n    tag_248:\n        /* \"#utility.yul\":7940:8021   */\n      tag_140\n      jump\t// in\n    tag_247:\n        /* \"#utility.yul\":7931:8021   */\n      swap1\n      pop\n        /* \"#utility.yul\":8041:8046   */\n      dup1\n        /* \"#utility.yul\":8070:8076   */\n      dup4\n        /* \"#utility.yul\":8063:8068   */\n      dup3\n        /* \"#utility.yul\":8056:8077   */\n      mstore\n        /* \"#utility.yul\":8104:8108   */\n      0x20\n        /* \"#utility.yul\":8097:8102   */\n      dup3\n        /* \"#utility.yul\":8093:8109   */\n      add\n        /* \"#utility.yul\":8086:8109   */\n      swap1\n      pop\n        /* \"#utility.yul\":8157:8161   */\n      0x20\n        /* \"#utility.yul\":8149:8155   */\n      dup5\n        /* \"#utility.yul\":8145:8162   */\n      mul\n        /* \"#utility.yul\":8137:8143   */\n      dup4\n        /* \"#utility.yul\":8133:8163   */\n      add\n        /* \"#utility.yul\":8186:8189   */\n      dup6\n        /* \"#utility.yul\":8178:8184   */\n      dup2\n        /* \"#utility.yul\":8175:8190   */\n      gt\n        /* \"#utility.yul\":8172:8294   */\n      iszero\n      tag_249\n      jumpi\n        /* \"#utility.yul\":8205:8284   */\n      tag_250\n      tag_142\n      jump\t// in\n    tag_250:\n        /* \"#utility.yul\":8172:8294   */\n    tag_249:\n        /* \"#utility.yul\":8320:8326   */\n      dup4\n        /* \"#utility.yul\":8303:8523   */\n    tag_251:\n        /* \"#utility.yul\":8337:8343   */\n      dup2\n        /* \"#utility.yul\":8332:8335   */\n      dup2\n        /* \"#utility.yul\":8329:8344   */\n      lt\n        /* \"#utility.yul\":8303:8523   */\n      iszero\n      tag_253\n      jumpi\n        /* \"#utility.yul\":8412:8415   */\n      dup1\n        /* \"#utility.yul\":8441:8478   */\n      tag_254\n        /* \"#utility.yul\":8474:8477   */\n      dup9\n        /* \"#utility.yul\":8462:8472   */\n      dup3\n        /* \"#utility.yul\":8441:8478   */\n      tag_131\n      jump\t// in\n    tag_254:\n        /* \"#utility.yul\":8436:8439   */\n      dup5\n        /* \"#utility.yul\":8429:8479   */\n      mstore\n        /* \"#utility.yul\":8508:8512   */\n      0x20\n        /* \"#utility.yul\":8503:8506   */\n      dup5\n        /* \"#utility.yul\":8499:8513   */\n      add\n        /* \"#utility.yul\":8492:8513   */\n      swap4\n      pop\n        /* \"#utility.yul\":8379:8523   */\n      pop\n        /* \"#utility.yul\":8363:8367   */\n      0x20\n        /* \"#utility.yul\":8358:8361   */\n      dup2\n        /* \"#utility.yul\":8354:8368   */\n      add\n        /* \"#utility.yul\":8347:8368   */\n      swap1\n      pop\n        /* \"#utility.yul\":8303:8523   */\n      jump(tag_251)\n    tag_253:\n        /* \"#utility.yul\":8307:8328   */\n      pop\n        /* \"#utility.yul\":7921:8529   */\n      pop\n      pop\n        /* \"#utility.yul\":7819:8529   */\n      swap4\n      swap3\n      pop\n      pop\n      pop\n      jump\t// out\n        /* \"#utility.yul\":8552:8922   */\n    tag_147:\n        /* \"#utility.yul\":8623:8628   */\n      0x00\n        /* \"#utility.yul\":8672:8675   */\n      dup3\n        /* \"#utility.yul\":8665:8669   */\n      0x1f\n        /* \"#utility.yul\":8657:8663   */\n      dup4\n        /* \"#utility.yul\":8653:8670   */\n      add\n        /* \"#utility.yul\":8649:8676   */\n      slt\n        /* \"#utility.yul\":8639:8761   */\n      tag_256\n      jumpi\n        /* \"#utility.yul\":8680:8759   */\n      tag_257\n      tag_137\n      jump\t// in\n    tag_257:\n        /* \"#utility.yul\":8639:8761   */\n    tag_256:\n        /* \"#utility.yul\":8797:8803   */\n      dup2\n        /* \"#utility.yul\":8784:8804   */\n      calldataload\n        /* \"#utility.yul\":8822:8916   */\n      tag_258\n        /* \"#utility.yul\":8912:8915   */\n      dup5\n        /* \"#utility.yul\":8904:8910   */\n      dup3\n        /* \"#utility.yul\":8897:8901   */\n      0x20\n        /* \"#utility.yul\":8889:8895   */\n      dup7\n        /* \"#utility.yul\":8885:8902   */\n      add\n        /* \"#utility.yul\":8822:8916   */\n      tag_146\n      jump\t// in\n    tag_258:\n        /* \"#utility.yul\":8813:8916   */\n      swap2\n      pop\n        /* \"#utility.yul\":8629:8922   */\n      pop\n        /* \"#utility.yul\":8552:8922   */\n      swap3\n      swap2\n      pop\n      pop\n      jump\t// out\n        /* \"#utility.yul\":8928:9822   */\n    tag_44:\n        /* \"#utility.yul\":9046:9052   */\n      0x00\n        /* \"#utility.yul\":9054:9060   */\n      dup1\n        /* \"#utility.yul\":9103:9105   */\n      0x40\n        /* \"#utility.yul\":9091:9100   */\n      dup4\n        /* \"#utility.yul\":9082:9089   */\n      dup6\n        /* \"#utility.yul\":9078:9101   */\n      sub\n        /* \"#utility.yul\":9074:9106   */\n      slt\n        /* \"#utility.yul\":9071:9190   */\n      iszero\n      tag_260\n      jumpi\n        /* \"#utility.yul\":9109:9188   */\n      tag_261\n      tag_123\n      jump\t// in\n    tag_261:\n        /* \"#utility.yul\":9071:9190   */\n    tag_260:\n        /* \"#utility.yul\":9257:9258   */\n      0x00\n        /* \"#utility.yul\":9246:9255   */\n      dup4\n        /* \"#utility.yul\":9242:9259   */\n      add\n        /* \"#utility.yul\":9229:9260   */\n      calldataload\n        /* \"#utility.yul\":9287:9305   */\n      0xffffffffffffffff\n        /* \"#utility.yul\":9279:9285   */\n      dup2\n        /* \"#utility.yul\":9276:9306   */\n      gt\n        /* \"#utility.yul\":9273:9390   */\n      iszero\n      tag_262\n      jumpi\n        /* \"#utility.yul\":9309:9388   */\n      tag_263\n      tag_124\n      jump\t// in\n    tag_263:\n        /* \"#utility.yul\":9273:9390   */\n    tag_262:\n        /* \"#utility.yul\":9414:9492   */\n      tag_264\n        /* \"#utility.yul\":9484:9491   */\n      dup6\n        /* \"#utility.yul\":9475:9481   */\n      dup3\n        /* \"#utility.yul\":9464:9473   */\n      dup7\n        /* \"#utility.yul\":9460:9482   */\n      add\n        /* \"#utility.yul\":9414:9492   */\n      tag_144\n      jump\t// in\n    tag_264:\n        /* \"#utility.yul\":9404:9492   */\n      swap3\n      pop\n        /* \"#utility.yul\":9200:9502   */\n      pop\n        /* \"#utility.yul\":9569:9571   */\n      0x20\n        /* \"#utility.yul\":9558:9567   */\n      dup4\n        /* \"#utility.yul\":9554:9572   */\n      add\n        /* \"#utility.yul\":9541:9573   */\n      calldataload\n        /* \"#utility.yul\":9600:9618   */\n      0xffffffffffffffff\n        /* \"#utility.yul\":9592:9598   */\n      dup2\n        /* \"#utility.yul\":9589:9619   */\n      gt\n        /* \"#utility.yul\":9586:9703   */\n      iszero\n      tag_265\n      jumpi\n        /* \"#utility.yul\":9622:9701   */\n      tag_266\n      tag_124\n      jump\t// in\n    tag_266:\n        /* \"#utility.yul\":9586:9703   */\n    tag_265:\n        /* \"#utility.yul\":9727:9805   */\n      tag_267\n        /* \"#utility.yul\":9797:9804   */\n      dup6\n        /* \"#utility.yul\":9788:9794   */\n      dup3\n        /* \"#utility.yul\":9777:9786   */\n      dup7\n        /* \"#utility.yul\":9773:9795   */\n      add\n        /* \"#utility.yul\":9727:9805   */\n      tag_147\n      jump\t// in\n    tag_267:\n        /* \"#utility.yul\":9717:9805   */\n      swap2\n      pop\n        /* \"#utility.yul\":9512:9815   */\n      pop\n        /* \"#utility.yul\":8928:9822   */\n      swap3\n      pop\n      swap3\n      swap1\n      pop\n      jump\t// out\n        /* \"#utility.yul\":9828:10302   */\n    tag_55:\n        /* \"#utility.yul\":9896:9902   */\n      0x00\n        /* \"#utility.yul\":9904:9910   */\n      dup1\n        /* \"#utility.yul\":9953:9955   */\n      0x40\n        /* \"#utility.yul\":9941:9950   */\n      dup4\n        /* \"#utility.yul\":9932:9939   */\n      dup6\n        /* \"#utility.yul\":9928:9951   */\n      sub\n        /* \"#utility.yul\":9924:9956   */\n      slt\n        /* \"#utility.yul\":9921:10040   */\n      iszero\n      tag_269\n      jumpi\n        /* \"#utility.yul\":9959:10038   */\n      tag_270\n      tag_123\n      jump\t// in\n    tag_270:\n        /* \"#utility.yul\":9921:10040   */\n    tag_269:\n        /* \"#utility.yul\":10079:10080   */\n      0x00\n        /* \"#utility.yul\":10104:10157   */\n      tag_271\n        /* \"#utility.yul\":10149:10156   */\n      dup6\n        /* \"#utility.yul\":10140:10146   */\n      dup3\n        /* \"#utility.yul\":10129:10138   */\n      dup7\n        /* \"#utility.yul\":10125:10147   */\n      add\n        /* \"#utility.yul\":10104:10157   */\n      tag_128\n      jump\t// in\n    tag_271:\n        /* \"#utility.yul\":10094:10157   */\n      swap3\n      pop\n        /* \"#utility.yul\":10050:10167   */\n      pop\n        /* \"#utility.yul\":10206:10208   */\n      0x20\n        /* \"#utility.yul\":10232:10285   */\n      tag_272\n        /* \"#utility.yul\":10277:10284   */\n      dup6\n        /* \"#utility.yul\":10268:10274   */\n      dup3\n        /* \"#utility.yul\":10257:10266   */\n      dup7\n        /* \"#utility.yul\":10253:10275   */\n      add\n        /* \"#utility.yul\":10232:10285   */\n      tag_128\n      jump\t// in\n    tag_272:\n        /* \"#utility.yul\":10222:10285   */\n      swap2\n      pop\n        /* \"#utility.yul\":10177:10295   */\n      pop\n        /* \"#utility.yul\":9828:10302   */\n      swap3\n      pop\n      swap3\n      swap1\n      pop\n      jump\t// out\n        /* \"#utility.yul\":10308:10488   */\n    tag_148:\n        /* \"#utility.yul\":10356:10433   */\n      0x4e487b7100000000000000000000000000000000000000000000000000000000\n        /* \"#utility.yul\":10353:10354   */\n      0x00\n        /* \"#utility.yul\":10346:10434   */\n      mstore\n        /* \"#utility.yul\":10453:10457   */\n      0x22\n        /* \"#utility.yul\":10450:10451   */\n      0x04\n        /* \"#utility.yul\":10443:10458   */\n      mstore\n        /* \"#utility.yul\":10477:10481   */\n      0x24\n        /* \"#utility.yul\":10474:10475   */\n      0x00\n        /* \"#utility.yul\":10467:10482   */\n      revert\n        /* \"#utility.yul\":10494:10814   */\n    tag_59:\n        /* \"#utility.yul\":10538:10544   */\n      0x00\n        /* \"#utility.yul\":10575:10576   */\n      0x02\n        /* \"#utility.yul\":10569:10573   */\n      dup3\n        /* \"#utility.yul\":10565:10577   */\n      div\n        /* \"#utility.yul\":10555:10577   */\n      swap1\n      pop\n        /* \"#utility.yul\":10622:10623   */\n      0x01\n        /* \"#utility.yul\":10616:10620   */\n      dup3\n        /* \"#utility.yul\":10612:10624   */\n      and\n        /* \"#utility.yul\":10643:10661   */\n      dup1\n        /* \"#utility.yul\":10633:10714   */\n      tag_275\n      jumpi\n        /* \"#utility.yul\":10699:10703   */\n      0x7f\n        /* \"#utility.yul\":10691:10697   */\n      dup3\n        /* \"#utility.yul\":10687:10704   */\n      and\n        /* \"#utility.yul\":10677:10704   */\n      swap2\n      pop\n        /* \"#utility.yul\":10633:10714   */\n    tag_275:\n        /* \"#utility.yul\":10761:10763   */\n      0x20\n        /* \"#utility.yul\":10753:10759   */\n      dup3\n        /* \"#utility.yul\":10750:10764   */\n      lt\n        /* \"#utility.yul\":10730:10748   */\n      dup2\n        /* \"#utility.yul\":10727:10765   */\n      sub\n        /* \"#utility.yul\":10724:10808   */\n      tag_276\n      jumpi\n        /* \"#utility.yul\":10780:10798   */\n      tag_277\n      tag_148\n      jump\t// in\n    tag_277:\n        /* \"#utility.yul\":10724:10808   */\n    tag_276:\n        /* \"#utility.yul\":10545:10814   */\n      pop\n        /* \"#utility.yul\":10494:10814   */\n      swap2\n      swap1\n      pop\n      jump\t// out\n        /* \"#utility.yul\":10820:10990   */\n    tag_149:\n        /* \"#utility.yul\":10960:10982   */\n      0x496e73756666696369656e742062616c616e6365000000000000000000000000\n        /* \"#utility.yul\":10956:10957   */\n      0x00\n        /* \"#utility.yul\":10948:10954   */\n      dup3\n        /* \"#utility.yul\":10944:10958   */\n      add\n        /* \"#utility.yul\":10937:10983   */\n      mstore\n        /* \"#utility.yul\":10820:10990   */\n      pop\n      jump\t// out\n        /* \"#utility.yul\":10996:11362   */\n    tag_150:\n        /* \"#utility.yul\":11138:11141   */\n      0x00\n        /* \"#utility.yul\":11159:11226   */\n      tag_280\n        /* \"#utility.yul\":11223:11225   */\n      0x14\n        /* \"#utility.yul\":11218:11221   */\n      dup4\n        /* \"#utility.yul\":11159:11226   */\n      tag_118\n      jump\t// in\n    tag_280:\n        /* \"#utility.yul\":11152:11226   */\n      swap2\n      pop\n        /* \"#utility.yul\":11235:11328   */\n      tag_281\n        /* \"#utility.yul\":11324:11327   */\n      dup3\n        /* \"#utility.yul\":11235:11328   */\n      tag_149\n      jump\t// in\n    tag_281:\n        /* \"#utility.yul\":11353:11355   */\n      0x20\n        /* \"#utility.yul\":11348:11351   */\n      dup3\n        /* \"#utility.yul\":11344:11356   */\n      add\n        /* \"#utility.yul\":11337:11356   */\n      swap1\n      pop\n        /* \"#utility.yul\":10996:11362   */\n      swap2\n      swap1\n      pop\n      jump\t// out\n        /* \"#utility.yul\":11368:11787   */\n    tag_69:\n        /* \"#utility.yul\":11534:11538   */\n      0x00\n        /* \"#utility.yul\":11572:11574   */\n      0x20\n        /* \"#utility.yul\":11561:11570   */\n      dup3\n        /* \"#utility.yul\":11557:11575   */\n      add\n        /* \"#utility.yul\":11549:11575   */\n      swap1\n      pop\n        /* \"#utility.yul\":11621:11630   */\n      dup2\n        /* \"#utility.yul\":11615:11619   */\n      dup2\n        /* \"#utility.yul\":11611:11631   */\n      sub\n        /* \"#utility.yul\":11607:11608   */\n      0x00\n        /* \"#utility.yul\":11596:11605   */\n      dup4\n        /* \"#utility.yul\":11592:11609   */\n      add\n        /* \"#utility.yul\":11585:11632   */\n      mstore\n        /* \"#utility.yul\":11649:11780   */\n      tag_283\n        /* \"#utility.yul\":11775:11779   */\n      dup2\n        /* \"#utility.yul\":11649:11780   */\n      tag_150\n      jump\t// in\n    tag_283:\n        /* \"#utility.yul\":11641:11780   */\n      swap1\n      pop\n        /* \"#utility.yul\":11368:11787   */\n      swap2\n      swap1\n      pop\n      jump\t// out\n        /* \"#utility.yul\":11793:11975   */\n    tag_151:\n        /* \"#utility.yul\":11933:11967   */\n      0x4e6f7420616c6c6f77656420746f207370656e64207468697320616d6f756e74\n        /* \"#utility.yul\":11929:11930   */\n      0x00\n        /* \"#utility.yul\":11921:11927   */\n      dup3\n        /* \"#utility.yul\":11917:11931   */\n      add\n        /* \"#utility.yul\":11910:11968   */\n      mstore\n        /* \"#utility.yul\":11793:11975   */\n      pop\n      jump\t// out\n        /* \"#utility.yul\":11981:12347   */\n    tag_152:\n        /* \"#utility.yul\":12123:12126   */\n      0x00\n        /* \"#utility.yul\":12144:12211   */\n      tag_286\n        /* \"#utility.yul\":12208:12210   */\n      0x20\n        /* \"#utility.yul\":12203:12206   */\n      dup4\n        /* \"#utility.yul\":12144:12211   */\n      tag_118\n      jump\t// in\n    tag_286:\n        /* \"#utility.yul\":12137:12211   */\n      swap2\n      pop\n        /* \"#utility.yul\":12220:12313   */\n      tag_287\n        /* \"#utility.yul\":12309:12312   */\n      dup3\n        /* \"#utility.yul\":12220:12313   */\n      tag_151\n      jump\t// in\n    tag_287:\n        /* \"#utility.yul\":12338:12340   */\n      0x20\n        /* \"#utility.yul\":12333:12336   */\n      dup3\n        /* \"#utility.yul\":12329:12341   */\n      add\n        /* \"#utility.yul\":12322:12341   */\n      swap1\n      pop\n        /* \"#utility.yul\":11981:12347   */\n      swap2\n      swap1\n      pop\n      jump\t// out\n        /* \"#utility.yul\":12353:12772   */\n    tag_72:\n        /* \"#utility.yul\":12519:12523   */\n      0x00\n        /* \"#utility.yul\":12557:12559   */\n      0x20\n        /* \"#utility.yul\":12546:12555   */\n      dup3\n        /* \"#utility.yul\":12542:12560   */\n      add\n        /* \"#utility.yul\":12534:12560   */\n      swap1\n      pop\n        /* \"#utility.yul\":12606:12615   */\n      dup2\n        /* \"#utility.yul\":12600:12604   */\n      dup2\n        /* \"#utility.yul\":12596:12616   */\n      sub\n        /* \"#utility.yul\":12592:12593   */\n      0x00\n        /* \"#utility.yul\":12581:12590   */\n      dup4\n        /* \"#utility.yul\":12577:12594   */\n      add\n        /* \"#utility.yul\":12570:12617   */\n      mstore\n        /* \"#utility.yul\":12634:12765   */\n      tag_289\n        /* \"#utility.yul\":12760:12764   */\n      dup2\n        /* \"#utility.yul\":12634:12765   */\n      tag_152\n      jump\t// in\n    tag_289:\n        /* \"#utility.yul\":12626:12765   */\n      swap1\n      pop\n        /* \"#utility.yul\":12353:12772   */\n      swap2\n      swap1\n      pop\n      jump\t// out\n        /* \"#utility.yul\":12778:12958   */\n    tag_153:\n        /* \"#utility.yul\":12826:12903   */\n      0x4e487b7100000000000000000000000000000000000000000000000000000000\n        /* \"#utility.yul\":12823:12824   */\n      0x00\n        /* \"#utility.yul\":12816:12904   */\n      mstore\n        /* \"#utility.yul\":12923:12927   */\n      0x11\n        /* \"#utility.yul\":12920:12921   */\n      0x04\n        /* \"#utility.yul\":12913:12928   */\n      mstore\n        /* \"#utility.yul\":12947:12951   */\n      0x24\n        /* \"#utility.yul\":12944:12945   */\n      0x00\n        /* \"#utility.yul\":12937:12952   */\n      revert\n        /* \"#utility.yul\":12964:13158   */\n    tag_74:\n        /* \"#utility.yul\":13004:13008   */\n      0x00\n        /* \"#utility.yul\":13024:13044   */\n      tag_292\n        /* \"#utility.yul\":13042:13043   */\n      dup3\n        /* \"#utility.yul\":13024:13044   */\n      tag_129\n      jump\t// in\n    tag_292:\n        /* \"#utility.yul\":13019:13044   */\n      swap2\n      pop\n        /* \"#utility.yul\":13058:13078   */\n      tag_293\n        /* \"#utility.yul\":13076:13077   */\n      dup4\n        /* \"#utility.yul\":13058:13078   */\n      tag_129\n      jump\t// in\n    tag_293:\n        /* \"#utility.yul\":13053:13078   */\n      swap3\n      pop\n        /* \"#utility.yul\":13102:13103   */\n      dup3\n        /* \"#utility.yul\":13099:13100   */\n      dup3\n        /* \"#utility.yul\":13095:13104   */\n      sub\n        /* \"#utility.yul\":13087:13104   */\n      swap1\n      pop\n        /* \"#utility.yul\":13126:13127   */\n      dup2\n        /* \"#utility.yul\":13120:13124   */\n      dup2\n        /* \"#utility.yul\":13117:13128   */\n      gt\n        /* \"#utility.yul\":13114:13151   */\n      iszero\n      tag_294\n      jumpi\n        /* \"#utility.yul\":13131:13149   */\n      tag_295\n      tag_153\n      jump\t// in\n    tag_295:\n        /* \"#utility.yul\":13114:13151   */\n    tag_294:\n        /* \"#utility.yul\":12964:13158   */\n      swap3\n      swap2\n      pop\n      pop\n      jump\t// out\n        /* \"#utility.yul\":13164:13355   */\n    tag_76:\n        /* \"#utility.yul\":13204:13207   */\n      0x00\n        /* \"#utility.yul\":13223:13243   */\n      tag_297\n        /* \"#utility.yul\":13241:13242   */\n      dup3\n        /* \"#utility.yul\":13223:13243   */\n      tag_129\n      jump\t// in\n    tag_297:\n        /* \"#utility.yul\":13218:13243   */\n      swap2\n      pop\n        /* \"#utility.yul\":13257:13277   */\n      tag_298\n        /* \"#utility.yul\":13275:13276   */\n      dup4\n        /* \"#utility.yul\":13257:13277   */\n      tag_129\n      jump\t// in\n    tag_298:\n        /* \"#utility.yul\":13252:13277   */\n      swap3\n      pop\n        /* \"#utility.yul\":13300:13301   */\n      dup3\n        /* \"#utility.yul\":13297:13298   */\n      dup3\n        /* \"#utility.yul\":13293:13302   */\n      add\n        /* \"#utility.yul\":13286:13302   */\n      swap1\n      pop\n        /* \"#utility.yul\":13321:13324   */\n      dup1\n        /* \"#utility.yul\":13318:13319   */\n      dup3\n        /* \"#utility.yul\":13315:13325   */\n      gt\n        /* \"#utility.yul\":13312:13348   */\n      iszero\n      tag_299\n      jumpi\n        /* \"#utility.yul\":13328:13346   */\n      tag_300\n      tag_153\n      jump\t// in\n    tag_300:\n        /* \"#utility.yul\":13312:13348   */\n    tag_299:\n        /* \"#utility.yul\":13164:13355   */\n      swap3\n      swap2\n      pop\n      pop\n      jump\t// out\n        /* \"#utility.yul\":13361:13532   */\n    tag_154:\n        /* \"#utility.yul\":13501:13524   */\n      0x496e76616c696420696e707574206c656e677468730000000000000000000000\n        /* \"#utility.yul\":13497:13498   */\n      0x00\n        /* \"#utility.yul\":13489:13495   */\n      dup3\n        /* \"#utility.yul\":13485:13499   */\n      add\n        /* \"#utility.yul\":13478:13525   */\n      mstore\n        /* \"#utility.yul\":13361:13532   */\n      pop\n      jump\t// out\n        /* \"#utility.yul\":13538:13904   */\n    tag_155:\n        /* \"#utility.yul\":13680:13683   */\n      0x00\n        /* \"#utility.yul\":13701:13768   */\n      tag_303\n        /* \"#utility.yul\":13765:13767   */\n      0x15\n        /* \"#utility.yul\":13760:13763   */\n      dup4\n        /* \"#utility.yul\":13701:13768   */\n      tag_118\n      jump\t// in\n    tag_303:\n        /* \"#utility.yul\":13694:13768   */\n      swap2\n      pop\n        /* \"#utility.yul\":13777:13870   */\n      tag_304\n        /* \"#utility.yul\":13866:13869   */\n      dup3\n        /* \"#utility.yul\":13777:13870   */\n      tag_154\n      jump\t// in\n    tag_304:\n        /* \"#utility.yul\":13895:13897   */\n      0x20\n        /* \"#utility.yul\":13890:13893   */\n      dup3\n        /* \"#utility.yul\":13886:13898   */\n      add\n        /* \"#utility.yul\":13879:13898   */\n      swap1\n      pop\n        /* \"#utility.yul\":13538:13904   */\n      swap2\n      swap1\n      pop\n      jump\t// out\n        /* \"#utility.yul\":13910:14329   */\n    tag_82:\n        /* \"#utility.yul\":14076:14080   */\n      0x00\n        /* \"#utility.yul\":14114:14116   */\n      0x20\n        /* \"#utility.yul\":14103:14112   */\n      dup3\n        /* \"#utility.yul\":14099:14117   */\n      add\n        /* \"#utility.yul\":14091:14117   */\n      swap1\n      pop\n        /* \"#utility.yul\":14163:14172   */\n      dup2\n        /* \"#utility.yul\":14157:14161   */\n      dup2\n        /* \"#utility.yul\":14153:14173   */\n      sub\n        /* \"#utility.yul\":14149:14150   */\n      0x00\n        /* \"#utility.yul\":14138:14147   */\n      dup4\n        /* \"#utility.yul\":14134:14151   */\n      add\n        /* \"#utility.yul\":14127:14174   */\n      mstore\n        /* \"#utility.yul\":14191:14322   */\n      tag_306\n        /* \"#utility.yul\":14317:14321   */\n      dup2\n        /* \"#utility.yul\":14191:14322   */\n      tag_155\n      jump\t// in\n    tag_306:\n        /* \"#utility.yul\":14183:14322   */\n      swap1\n      pop\n        /* \"#utility.yul\":13910:14329   */\n      swap2\n      swap1\n      pop\n      jump\t// out\n        /* \"#utility.yul\":14335:14515   */\n    tag_88:\n        /* \"#utility.yul\":14383:14460   */\n      0x4e487b7100000000000000000000000000000000000000000000000000000000\n        /* \"#utility.yul\":14380:14381   */\n      0x00\n        /* \"#utility.yul\":14373:14461   */\n      mstore\n        /* \"#utility.yul\":14480:14484   */\n      0x32\n        /* \"#utility.yul\":14477:14478   */\n      0x04\n        /* \"#utility.yul\":14470:14485   */\n      mstore\n        /* \"#utility.yul\":14504:14508   */\n      0x24\n        /* \"#utility.yul\":14501:14502   */\n      0x00\n        /* \"#utility.yul\":14494:14509   */\n      revert\n        /* \"#utility.yul\":14521:14754   */\n    tag_105:\n        /* \"#utility.yul\":14560:14563   */\n      0x00\n        /* \"#utility.yul\":14583:14607   */\n      tag_309\n        /* \"#utility.yul\":14601:14606   */\n      dup3\n        /* \"#utility.yul\":14583:14607   */\n      tag_129\n      jump\t// in\n    tag_309:\n        /* \"#utility.yul\":14574:14607   */\n      swap2\n      pop\n        /* \"#utility.yul\":14629:14695   */\n      0xffffffffffffffffffffffffffffffffffffffffffffffffffffffffffffffff\n        /* \"#utility.yul\":14622:14627   */\n      dup3\n        /* \"#utility.yul\":14619:14696   */\n      sub\n        /* \"#utility.yul\":14616:14719   */\n      tag_310\n      jumpi\n        /* \"#utility.yul\":14699:14717   */\n      tag_311\n      tag_153\n      jump\t// in\n    tag_311:\n        /* \"#utility.yul\":14616:14719   */\n    tag_310:\n        /* \"#utility.yul\":14746:14747   */\n      0x01\n        /* \"#utility.yul\":14739:14744   */\n      dup3\n        /* \"#utility.yul\":14735:14748   */\n      add\n        /* \"#utility.yul\":14728:14748   */\n      swap1\n      pop\n        /* \"#utility.yul\":14521:14754   */\n      swap2\n      swap1\n      pop\n      jump\t// out\n\n    auxdata: 0xa264697066735822122018bf9b1b0e873d02e1ca2787ce674dbfc94568cf65a6efffb4ffaef446718ea964736f6c63430008120033\n}\n",
				"bytecode": {
					"linkReferences": {},
					"object": "60806040523480156200001157600080fd5b5060405162001d1c38038062001d1c833981810160405281019062000037919062000306565b8360009081620000489190620005f7565b5082600190816200005a9190620005f7565b5081600260006101000a81548160ff021916908360ff160217905550600260009054906101000a900460ff1660ff16600a62000097919062000861565b81620000a49190620008b2565b600381905550600354600460003373ffffffffffffffffffffffffffffffffffffffff1673ffffffffffffffffffffffffffffffffffffffff1681526020019081526020016000208190555050505050620008fd565b6000604051905090565b600080fd5b600080fd5b600080fd5b600080fd5b6000601f19601f8301169050919050565b7f4e487b7100000000000000000000000000000000000000000000000000000000600052604160045260246000fd5b620001638262000118565b810181811067ffffffffffffffff8211171562000185576200018462000129565b5b80604052505050565b60006200019a620000fa565b9050620001a8828262000158565b919050565b600067ffffffffffffffff821115620001cb57620001ca62000129565b5b620001d68262000118565b9050602081019050919050565b60005b8381101562000203578082015181840152602081019050620001e6565b60008484015250505050565b6000620002266200022084620001ad565b6200018e565b90508281526020810184848401111562000245576200024462000113565b5b62000252848285620001e3565b509392505050565b600082601f8301126200027257620002716200010e565b5b8151620002848482602086016200020f565b91505092915050565b600060ff82169050919050565b620002a5816200028d565b8114620002b157600080fd5b50565b600081519050620002c5816200029a565b92915050565b6000819050919050565b620002e081620002cb565b8114620002ec57600080fd5b50565b6000815190506200030081620002d5565b92915050565b6000806000806080858703121562000323576200032262000104565b5b600085015167ffffffffffffffff81111562000344576200034362000109565b5b62000352878288016200025a565b945050602085015167ffffffffffffffff81111562000376576200037562000109565b5b62000384878288016200025a565b93505060406200039787828801620002b4565b9250506060620003aa87828801620002ef565b91505092959194509250565b600081519050919050565b7f4e487b7100000000000000000000000000000000000000000000000000000000600052602260045260246000fd5b600060028204905060018216806200040957607f821691505b6020821081036200041f576200041e620003c1565b5b50919050565b60008190508160005260206000209050919050565b60006020601f8301049050919050565b600082821b905092915050565b600060088302620004897fffffffffffffffffffffffffffffffffffffffffffffffffffffffffffffffff826200044a565b6200049586836200044a565b95508019841693508086168417925050509392505050565b6000819050919050565b6000620004d8620004d2620004cc84620002cb565b620004ad565b620002cb565b9050919050565b6000819050919050565b620004f483620004b7565b6200050c6200050382620004df565b84845462000457565b825550505050565b600090565b6200052362000514565b62000530818484620004e9565b505050565b5b8181101562000558576200054c60008262000519565b60018101905062000536565b5050565b601f821115620005a757620005718162000425565b6200057c846200043a565b810160208510156200058c578190505b620005a46200059b856200043a565b83018262000535565b50505b505050565b600082821c905092915050565b6000620005cc60001984600802620005ac565b1980831691505092915050565b6000620005e78383620005b9565b9150826002028217905092915050565b6200060282620003b6565b67ffffffffffffffff8111156200061e576200061d62000129565b5b6200062a8254620003f0565b620006378282856200055c565b600060209050601f8311600181146200066f57600084156200065a578287015190505b620006668582620005d9565b865550620006d6565b601f1984166200067f8662000425565b60005b82811015620006a95784890151825560018201915060208501945060208101905062000682565b86831015620006c95784890151620006c5601f891682620005b9565b8355505b6001600288020188555050505b505050505050565b7f4e487b7100000000000000000000000000000000000000000000000000000000600052601160045260246000fd5b60008160011c9050919050565b6000808291508390505b60018511156200076c57808604811115620007445762000743620006de565b5b6001851615620007545780820291505b808102905062000764856200070d565b945062000724565b94509492505050565b6000826200078757600190506200085a565b816200079757600090506200085a565b8160018114620007b05760028114620007bb57620007f1565b60019150506200085a565b60ff841115620007d057620007cf620006de565b5b8360020a915084821115620007ea57620007e9620006de565b5b506200085a565b5060208310610133831016604e8410600b84101617156200082b5782820a905083811115620008255762000824620006de565b5b6200085a565b6200083a84848460016200071a565b92509050818404811115620008545762000853620006de565b5b81810290505b9392505050565b60006200086e82620002cb565b91506200087b83620002cb565b9250620008aa7fffffffffffffffffffffffffffffffffffffffffffffffffffffffffffffffff848462000775565b905092915050565b6000620008bf82620002cb565b9150620008cc83620002cb565b9250828202620008dc81620002cb565b91508282048414831517620008f657620008f5620006de565b5b5092915050565b61140f806200090d6000396000f3fe608060405234801561001057600080fd5b506004361061009e5760003560e01c806370a082311161006657806370a082311461015d57806388d695b21461018d57806395d89b41146101a9578063a9059cbb146101c7578063dd62ed3e146101f75761009e565b806306fdde03146100a3578063095ea7b3146100c157806318160ddd146100f157806323b872dd1461010f578063313ce5671461013f575b600080fd5b6100ab610227565b6040516100b89190610c43565b60405180910390f35b6100db60048036038101906100d69190610d0d565b6102b5565b6040516100e89190610d68565b60405180910390f35b6100f96103a7565b6040516101069190610d92565b60405180910390f35b61012960048036038101906101249190610dad565b6103ad565b6040516101369190610d68565b60405180910390f35b61014761069f565b6040516101549190610e1c565b60405180910390f35b61017760048036038101906101729190610e37565b6106b2565b6040516101849190610d92565b60405180910390f35b6101a760048036038101906101a2919061106f565b6106ca565b005b6101b1610961565b6040516101be9190610c43565b60405180910390f35b6101e160048036038101906101dc9190610d0d565b6109ef565b6040516101ee9190610d68565b60405180910390f35b610211600480360381019061020c91906110e7565b610b8e565b60405161021e9190610d92565b60405180910390f35b6000805461023490611156565b80601f016020809104026020016040519081016040528092919081815260200182805461026090611156565b80156102ad5780601f10610282576101008083540402835291602001916102ad565b820191906000526020600020905b81548152906001019060200180831161029057829003601f168201915b505050505081565b600081600560003373ffffffffffffffffffffffffffffffffffffffff1673ffffffffffffffffffffffffffffffffffffffff16815260200190815260200160002060008573ffffffffffffffffffffffffffffffffffffffff1673ffffffffffffffffffffffffffffffffffffffff168152602001908152602001600020819055508273ffffffffffffffffffffffffffffffffffffffff163373ffffffffffffffffffffffffffffffffffffffff167f8c5be1e5ebec7d5bd14f71427d1e84f3dd0314c0f7b2291e5b200ac8c7c3b925846040516103959190610d92565b60405180910390a36001905092915050565b60035481565b600081600460008673ffffffffffffffffffffffffffffffffffffffff1673ffffffffffffffffffffffffffffffffffffffff168152602001908152602001600020541015610431576040517f08c379a0000000000000000000000000000000000000000000000000000000008152600401610428906111d3565b60405180910390fd5b81600560008673ffffffffffffffffffffffffffffffffffffffff1673ffffffffffffffffffffffffffffffffffffffff16815260200190815260200160002060003373ffffffffffffffffffffffffffffffffffffffff1673ffffffffffffffffffffffffffffffffffffffff1681526020019081526020016000205410156104f0576040517f08c379a00000000000000000000000000000000000000000000000000000000081526004016104e79061123f565b60405180910390fd5b81600460008673ffffffffffffffffffffffffffffffffffffffff1673ffffffffffffffffffffffffffffffffffffffff168152602001908152602001600020600082825461053f919061128e565b9250508190555081600460008573ffffffffffffffffffffffffffffffffffffffff1673ffffffffffffffffffffffffffffffffffffffff168152602001908152602001600020600082825461059591906112c2565b9250508190555081600560008673ffffffffffffffffffffffffffffffffffffffff1673ffffffffffffffffffffffffffffffffffffffff16815260200190815260200160002060003373ffffffffffffffffffffffffffffffffffffffff1673ffffffffffffffffffffffffffffffffffffffff1681526020019081526020016000206000828254610628919061128e565b925050819055508273ffffffffffffffffffffffffffffffffffffffff168473ffffffffffffffffffffffffffffffffffffffff167fddf252ad1be2c89b69c2b068fc378daa952ba7f163c4a11628f55a4df523b3ef8460405161068c9190610d92565b60405180910390a3600190509392505050565b600260009054906101000a900460ff1681565b60046020528060005260406000206000915090505481565b805182511461070e576040517f08c379a000000000000000000000000000000000000000000000000000000000815260040161070590611342565b60405180910390fd5b60005b825181101561095c5781818151811061072d5761072c611362565b5b6020026020010151600460003373ffffffffffffffffffffffffffffffffffffffff1673ffffffffffffffffffffffffffffffffffffffff1681526020019081526020016000205410156107b6576040517f08c379a00000000000000000000000000000000000000000000000000000000081526004016107ad906111d3565b60405180910390fd5b8181815181106107c9576107c8611362565b5b6020026020010151600460003373ffffffffffffffffffffffffffffffffffffffff1673ffffffffffffffffffffffffffffffffffffffff168152602001908152602001600020600082825461081f919061128e565b9250508190555081818151811061083957610838611362565b5b60200260200101516004600085848151811061085857610857611362565b5b602002602001015173ffffffffffffffffffffffffffffffffffffffff1673ffffffffffffffffffffffffffffffffffffffff16815260200190815260200160002060008282546108a991906112c2565b925050819055508281815181106108c3576108c2611362565b5b602002602001015173ffffffffffffffffffffffffffffffffffffffff163373ffffffffffffffffffffffffffffffffffffffff167fddf252ad1be2c89b69c2b068fc378daa952ba7f163c4a11628f55a4df523b3ef84848151811061092c5761092b611362565b5b60200260200101516040516109419190610d92565b60405180910390a3808061095490611391565b915050610711565b505050565b6001805461096e90611156565b80601f016020809104026020016040519081016040528092919081815260200182805461099a90611156565b80156109e75780601f106109bc576101008083540402835291602001916109e7565b820191906000526020600020905b8154815290600101906020018083116109ca57829003601f168201915b505050505081565b600081600460003373ffffffffffffffffffffffffffffffffffffffff1673ffffffffffffffffffffffffffffffffffffffff168152602001908152602001600020541015610a73576040517f08c379a0000000000000000000000000000000000000000000000000000000008152600401610a6a906111d3565b60405180910390fd5b81600460003373ffffffffffffffffffffffffffffffffffffffff1673ffffffffffffffffffffffffffffffffffffffff1681526020019081526020016000206000828254610ac2919061128e565b9250508190555081600460008573ffffffffffffffffffffffffffffffffffffffff1673ffffffffffffffffffffffffffffffffffffffff1681526020019081526020016000206000828254610b1891906112c2565b925050819055508273ffffffffffffffffffffffffffffffffffffffff163373ffffffffffffffffffffffffffffffffffffffff167fddf252ad1be2c89b69c2b068fc378daa952ba7f163c4a11628f55a4df523b3ef84604051610b7c9190610d92565b60405180910390a36001905092915050565b6005602052816000526040600020602052806000526040600020600091509150505481565b600081519050919050565b600082825260208201905092915050565b60005b83811015610bed578082015181840152602081019050610bd2565b60008484015250505050565b6000601f19601f8301169050919050565b6000610c1582610bb3565b610c1f8185610bbe565b9350610c2f818560208601610bcf565b610c3881610bf9565b840191505092915050565b60006020820190508181036000830152610c5d8184610c0a565b905092915050565b6000604051905090565b600080fd5b600080fd5b600073ffffffffffffffffffffffffffffffffffffffff82169050919050565b6000610ca482610c79565b9050919050565b610cb481610c99565b8114610cbf57600080fd5b50565b600081359050610cd181610cab565b92915050565b6000819050919050565b610cea81610cd7565b8114610cf557600080fd5b50565b600081359050610d0781610ce1565b92915050565b60008060408385031215610d2457610d23610c6f565b5b6000610d3285828601610cc2565b9250506020610d4385828601610cf8565b9150509250929050565b60008115159050919050565b610d6281610d4d565b82525050565b6000602082019050610d7d6000830184610d59565b92915050565b610d8c81610cd7565b82525050565b6000602082019050610da76000830184610d83565b92915050565b600080600060608486031215610dc657610dc5610c6f565b5b6000610dd486828701610cc2565b9350506020610de586828701610cc2565b9250506040610df686828701610cf8565b9150509250925092565b600060ff82169050919050565b610e1681610e00565b82525050565b6000602082019050610e316000830184610e0d565b92915050565b600060208284031215610e4d57610e4c610c6f565b5b6000610e5b84828501610cc2565b91505092915050565b600080fd5b7f4e487b7100000000000000000000000000000000000000000000000000000000600052604160045260246000fd5b610ea182610bf9565b810181811067ffffffffffffffff82111715610ec057610ebf610e69565b5b80604052505050565b6000610ed3610c65565b9050610edf8282610e98565b919050565b600067ffffffffffffffff821115610eff57610efe610e69565b5b602082029050602081019050919050565b600080fd5b6000610f28610f2384610ee4565b610ec9565b90508083825260208201905060208402830185811115610f4b57610f4a610f10565b5b835b81811015610f745780610f608882610cc2565b845260208401935050602081019050610f4d565b5050509392505050565b600082601f830112610f9357610f92610e64565b5b8135610fa3848260208601610f15565b91505092915050565b600067ffffffffffffffff821115610fc757610fc6610e69565b5b602082029050602081019050919050565b6000610feb610fe684610fac565b610ec9565b9050808382526020820190506020840283018581111561100e5761100d610f10565b5b835b8181101561103757806110238882610cf8565b845260208401935050602081019050611010565b5050509392505050565b600082601f83011261105657611055610e64565b5b8135611066848260208601610fd8565b91505092915050565b6000806040838503121561108657611085610c6f565b5b600083013567ffffffffffffffff8111156110a4576110a3610c74565b5b6110b085828601610f7e565b925050602083013567ffffffffffffffff8111156110d1576110d0610c74565b5b6110dd85828601611041565b9150509250929050565b600080604083850312156110fe576110fd610c6f565b5b600061110c85828601610cc2565b925050602061111d85828601610cc2565b9150509250929050565b7f4e487b7100000000000000000000000000000000000000000000000000000000600052602260045260246000fd5b6000600282049050600182168061116e57607f821691505b60208210810361118157611180611127565b5b50919050565b7f496e73756666696369656e742062616c616e6365000000000000000000000000600082015250565b60006111bd601483610bbe565b91506111c882611187565b602082019050919050565b600060208201905081810360008301526111ec816111b0565b9050919050565b7f4e6f7420616c6c6f77656420746f207370656e64207468697320616d6f756e74600082015250565b6000611229602083610bbe565b9150611234826111f3565b602082019050919050565b600060208201905081810360008301526112588161121c565b9050919050565b7f4e487b7100000000000000000000000000000000000000000000000000000000600052601160045260246000fd5b600061129982610cd7565b91506112a483610cd7565b92508282039050818111156112bc576112bb61125f565b5b92915050565b60006112cd82610cd7565b91506112d883610cd7565b92508282019050808211156112f0576112ef61125f565b5b92915050565b7f496e76616c696420696e707574206c656e677468730000000000000000000000600082015250565b600061132c601583610bbe565b9150611337826112f6565b602082019050919050565b6000602082019050818103600083015261135b8161131f565b9050919050565b7f4e487b7100000000000000000000000000000000000000000000000000000000600052603260045260246000fd5b600061139c82610cd7565b91507fffffffffffffffffffffffffffffffffffffffffffffffffffffffffffffffff82036113ce576113cd61125f565b5b60018201905091905056fea264697066735822122018bf9b1b0e873d02e1ca2787ce674dbfc94568cf65a6efffb4ffaef446718ea964736f6c63430008120033",
					"opcodes": "PUSH1 0x80 PUSH1 0x40 MSTORE CALLVALUE DUP1 ISZERO PUSH3 0x11 JUMPI PUSH1 0x0 DUP1 REVERT JUMPDEST POP PUSH1 0x40 MLOAD PUSH3 0x1D1C CODESIZE SUB DUP1 PUSH3 0x1D1C DUP4 CODECOPY DUP2 DUP2 ADD PUSH1 0x40 MSTORE DUP2 ADD SWAP1 PUSH3 0x37 SWAP2 SWAP1 PUSH3 0x306 JUMP JUMPDEST DUP4 PUSH1 0x0 SWAP1 DUP2 PUSH3 0x48 SWAP2 SWAP1 PUSH3 0x5F7 JUMP JUMPDEST POP DUP3 PUSH1 0x1 SWAP1 DUP2 PUSH3 0x5A SWAP2 SWAP1 PUSH3 0x5F7 JUMP JUMPDEST POP DUP2 PUSH1 0x2 PUSH1 0x0 PUSH2 0x100 EXP DUP2 SLOAD DUP2 PUSH1 0xFF MUL NOT AND SWAP1 DUP4 PUSH1 0xFF AND MUL OR SWAP1 SSTORE POP PUSH1 0x2 PUSH1 0x0 SWAP1 SLOAD SWAP1 PUSH2 0x100 EXP SWAP1 DIV PUSH1 0xFF AND PUSH1 0xFF AND PUSH1 0xA PUSH3 0x97 SWAP2 SWAP1 PUSH3 0x861 JUMP JUMPDEST DUP2 PUSH3 0xA4 SWAP2 SWAP1 PUSH3 0x8B2 JUMP JUMPDEST PUSH1 0x3 DUP2 SWAP1 SSTORE POP PUSH1 0x3 SLOAD PUSH1 0x4 PUSH1 0x0 CALLER PUSH20 0xFFFFFFFFFFFFFFFFFFFFFFFFFFFFFFFFFFFFFFFF AND PUSH20 0xFFFFFFFFFFFFFFFFFFFFFFFFFFFFFFFFFFFFFFFF AND DUP2 MSTORE PUSH1 0x20 ADD SWAP1 DUP2 MSTORE PUSH1 0x20 ADD PUSH1 0x0 KECCAK256 DUP2 SWAP1 SSTORE POP POP POP POP POP PUSH3 0x8FD JUMP JUMPDEST PUSH1 0x0 PUSH1 0x40 MLOAD SWAP1 POP SWAP1 JUMP JUMPDEST PUSH1 0x0 DUP1 REVERT JUMPDEST PUSH1 0x0 DUP1 REVERT JUMPDEST PUSH1 0x0 DUP1 REVERT JUMPDEST PUSH1 0x0 DUP1 REVERT JUMPDEST PUSH1 0x0 PUSH1 0x1F NOT PUSH1 0x1F DUP4 ADD AND SWAP1 POP SWAP2 SWAP1 POP JUMP JUMPDEST PUSH32 0x4E487B7100000000000000000000000000000000000000000000000000000000 PUSH1 0x0 MSTORE PUSH1 0x41 PUSH1 0x4 MSTORE PUSH1 0x24 PUSH1 0x0 REVERT JUMPDEST PUSH3 0x163 DUP3 PUSH3 0x118 JUMP JUMPDEST DUP2 ADD DUP2 DUP2 LT PUSH8 0xFFFFFFFFFFFFFFFF DUP3 GT OR ISZERO PUSH3 0x185 JUMPI PUSH3 0x184 PUSH3 0x129 JUMP JUMPDEST JUMPDEST DUP1 PUSH1 0x40 MSTORE POP POP POP JUMP JUMPDEST PUSH1 0x0 PUSH3 0x19A PUSH3 0xFA JUMP JUMPDEST SWAP1 POP PUSH3 0x1A8 DUP3 DUP3 PUSH3 0x158 JUMP JUMPDEST SWAP2 SWAP1 POP JUMP JUMPDEST PUSH1 0x0 PUSH8 0xFFFFFFFFFFFFFFFF DUP3 GT ISZERO PUSH3 0x1CB JUMPI PUSH3 0x1CA PUSH3 0x129 JUMP JUMPDEST JUMPDEST PUSH3 0x1D6 DUP3 PUSH3 0x118 JUMP JUMPDEST SWAP1 POP PUSH1 0x20 DUP2 ADD SWAP1 POP SWAP2 SWAP1 POP JUMP JUMPDEST PUSH1 0x0 JUMPDEST DUP4 DUP2 LT ISZERO PUSH3 0x203 JUMPI DUP1 DUP3 ADD MLOAD DUP2 DUP5 ADD MSTORE PUSH1 0x20 DUP2 ADD SWAP1 POP PUSH3 0x1E6 JUMP JUMPDEST PUSH1 0x0 DUP5 DUP5 ADD MSTORE POP POP POP POP JUMP JUMPDEST PUSH1 0x0 PUSH3 0x226 PUSH3 0x220 DUP5 PUSH3 0x1AD JUMP JUMPDEST PUSH3 0x18E JUMP JUMPDEST SWAP1 POP DUP3 DUP2 MSTORE PUSH1 0x20 DUP2 ADD DUP5 DUP5 DUP5 ADD GT ISZERO PUSH3 0x245 JUMPI PUSH3 0x244 PUSH3 0x113 JUMP JUMPDEST JUMPDEST PUSH3 0x252 DUP5 DUP3 DUP6 PUSH3 0x1E3 JUMP JUMPDEST POP SWAP4 SWAP3 POP POP POP JUMP JUMPDEST PUSH1 0x0 DUP3 PUSH1 0x1F DUP4 ADD SLT PUSH3 0x272 JUMPI PUSH3 0x271 PUSH3 0x10E JUMP JUMPDEST JUMPDEST DUP2 MLOAD PUSH3 0x284 DUP5 DUP3 PUSH1 0x20 DUP7 ADD PUSH3 0x20F JUMP JUMPDEST SWAP2 POP POP SWAP3 SWAP2 POP POP JUMP JUMPDEST PUSH1 0x0 PUSH1 0xFF DUP3 AND SWAP1 POP SWAP2 SWAP1 POP JUMP JUMPDEST PUSH3 0x2A5 DUP2 PUSH3 0x28D JUMP JUMPDEST DUP2 EQ PUSH3 0x2B1 JUMPI PUSH1 0x0 DUP1 REVERT JUMPDEST POP JUMP JUMPDEST PUSH1 0x0 DUP2 MLOAD SWAP1 POP PUSH3 0x2C5 DUP2 PUSH3 0x29A JUMP JUMPDEST SWAP3 SWAP2 POP POP JUMP JUMPDEST PUSH1 0x0 DUP2 SWAP1 POP SWAP2 SWAP1 POP JUMP JUMPDEST PUSH3 0x2E0 DUP2 PUSH3 0x2CB JUMP JUMPDEST DUP2 EQ PUSH3 0x2EC JUMPI PUSH1 0x0 DUP1 REVERT JUMPDEST POP JUMP JUMPDEST PUSH1 0x0 DUP2 MLOAD SWAP1 POP PUSH3 0x300 DUP2 PUSH3 0x2D5 JUMP JUMPDEST SWAP3 SWAP2 POP POP JUMP JUMPDEST PUSH1 0x0 DUP1 PUSH1 0x0 DUP1 PUSH1 0x80 DUP6 DUP8 SUB SLT ISZERO PUSH3 0x323 JUMPI PUSH3 0x322 PUSH3 0x104 JUMP JUMPDEST JUMPDEST PUSH1 0x0 DUP6 ADD MLOAD PUSH8 0xFFFFFFFFFFFFFFFF DUP2 GT ISZERO PUSH3 0x344 JUMPI PUSH3 0x343 PUSH3 0x109 JUMP JUMPDEST JUMPDEST PUSH3 0x352 DUP8 DUP3 DUP9 ADD PUSH3 0x25A JUMP JUMPDEST SWAP5 POP POP PUSH1 0x20 DUP6 ADD MLOAD PUSH8 0xFFFFFFFFFFFFFFFF DUP2 GT ISZERO PUSH3 0x376 JUMPI PUSH3 0x375 PUSH3 0x109 JUMP JUMPDEST JUMPDEST PUSH3 0x384 DUP8 DUP3 DUP9 ADD PUSH3 0x25A JUMP JUMPDEST SWAP4 POP POP PUSH1 0x40 PUSH3 0x397 DUP8 DUP3 DUP9 ADD PUSH3 0x2B4 JUMP JUMPDEST SWAP3 POP POP PUSH1 0x60 PUSH3 0x3AA DUP8 DUP3 DUP9 ADD PUSH3 0x2EF JUMP JUMPDEST SWAP2 POP POP SWAP3 SWAP6 SWAP2 SWAP5 POP SWAP3 POP JUMP JUMPDEST PUSH1 0x0 DUP2 MLOAD SWAP1 POP SWAP2 SWAP1 POP JUMP JUMPDEST PUSH32 0x4E487B7100000000000000000000000000000000000000000000000000000000 PUSH1 0x0 MSTORE PUSH1 0x22 PUSH1 0x4 MSTORE PUSH1 0x24 PUSH1 0x0 REVERT JUMPDEST PUSH1 0x0 PUSH1 0x2 DUP3 DIV SWAP1 POP PUSH1 0x1 DUP3 AND DUP1 PUSH3 0x409 JUMPI PUSH1 0x7F DUP3 AND SWAP2 POP JUMPDEST PUSH1 0x20 DUP3 LT DUP2 SUB PUSH3 0x41F JUMPI PUSH3 0x41E PUSH3 0x3C1 JUMP JUMPDEST JUMPDEST POP SWAP2 SWAP1 POP JUMP JUMPDEST PUSH1 0x0 DUP2 SWAP1 POP DUP2 PUSH1 0x0 MSTORE PUSH1 0x20 PUSH1 0x0 KECCAK256 SWAP1 POP SWAP2 SWAP1 POP JUMP JUMPDEST PUSH1 0x0 PUSH1 0x20 PUSH1 0x1F DUP4 ADD DIV SWAP1 POP SWAP2 SWAP1 POP JUMP JUMPDEST PUSH1 0x0 DUP3 DUP3 SHL SWAP1 POP SWAP3 SWAP2 POP POP JUMP JUMPDEST PUSH1 0x0 PUSH1 0x8 DUP4 MUL PUSH3 0x489 PUSH32 0xFFFFFFFFFFFFFFFFFFFFFFFFFFFFFFFFFFFFFFFFFFFFFFFFFFFFFFFFFFFFFFFF DUP3 PUSH3 0x44A JUMP JUMPDEST PUSH3 0x495 DUP7 DUP4 PUSH3 0x44A JUMP JUMPDEST SWAP6 POP DUP1 NOT DUP5 AND SWAP4 POP DUP1 DUP7 AND DUP5 OR SWAP3 POP POP POP SWAP4 SWAP3 POP POP POP JUMP JUMPDEST PUSH1 0x0 DUP2 SWAP1 POP SWAP2 SWAP1 POP JUMP JUMPDEST PUSH1 0x0 PUSH3 0x4D8 PUSH3 0x4D2 PUSH3 0x4CC DUP5 PUSH3 0x2CB JUMP JUMPDEST PUSH3 0x4AD JUMP JUMPDEST PUSH3 0x2CB JUMP JUMPDEST SWAP1 POP SWAP2 SWAP1 POP JUMP JUMPDEST PUSH1 0x0 DUP2 SWAP1 POP SWAP2 SWAP1 POP JUMP JUMPDEST PUSH3 0x4F4 DUP4 PUSH3 0x4B7 JUMP JUMPDEST PUSH3 0x50C PUSH3 0x503 DUP3 PUSH3 0x4DF JUMP JUMPDEST DUP5 DUP5 SLOAD PUSH3 0x457 JUMP JUMPDEST DUP3 SSTORE POP POP POP POP JUMP JUMPDEST PUSH1 0x0 SWAP1 JUMP JUMPDEST PUSH3 0x523 PUSH3 0x514 JUMP JUMPDEST PUSH3 0x530 DUP2 DUP5 DUP5 PUSH3 0x4E9 JUMP JUMPDEST POP POP POP JUMP JUMPDEST JUMPDEST DUP2 DUP2 LT ISZERO PUSH3 0x558 JUMPI PUSH3 0x54C PUSH1 0x0 DUP3 PUSH3 0x519 JUMP JUMPDEST PUSH1 0x1 DUP2 ADD SWAP1 POP PUSH3 0x536 JUMP JUMPDEST POP POP JUMP JUMPDEST PUSH1 0x1F DUP3 GT ISZERO PUSH3 0x5A7 JUMPI PUSH3 0x571 DUP2 PUSH3 0x425 JUMP JUMPDEST PUSH3 0x57C DUP5 PUSH3 0x43A JUMP JUMPDEST DUP2 ADD PUSH1 0x20 DUP6 LT ISZERO PUSH3 0x58C JUMPI DUP2 SWAP1 POP JUMPDEST PUSH3 0x5A4 PUSH3 0x59B DUP6 PUSH3 0x43A JUMP JUMPDEST DUP4 ADD DUP3 PUSH3 0x535 JUMP JUMPDEST POP POP JUMPDEST POP POP POP JUMP JUMPDEST PUSH1 0x0 DUP3 DUP3 SHR SWAP1 POP SWAP3 SWAP2 POP POP JUMP JUMPDEST PUSH1 0x0 PUSH3 0x5CC PUSH1 0x0 NOT DUP5 PUSH1 0x8 MUL PUSH3 0x5AC JUMP JUMPDEST NOT DUP1 DUP4 AND SWAP2 POP POP SWAP3 SWAP2 POP POP JUMP JUMPDEST PUSH1 0x0 PUSH3 0x5E7 DUP4 DUP4 PUSH3 0x5B9 JUMP JUMPDEST SWAP2 POP DUP3 PUSH1 0x2 MUL DUP3 OR SWAP1 POP SWAP3 SWAP2 POP POP JUMP JUMPDEST PUSH3 0x602 DUP3 PUSH3 0x3B6 JUMP JUMPDEST PUSH8 0xFFFFFFFFFFFFFFFF DUP2 GT ISZERO PUSH3 0x61E JUMPI PUSH3 0x61D PUSH3 0x129 JUMP JUMPDEST JUMPDEST PUSH3 0x62A DUP3 SLOAD PUSH3 0x3F0 JUMP JUMPDEST PUSH3 0x637 DUP3 DUP3 DUP6 PUSH3 0x55C JUMP JUMPDEST PUSH1 0x0 PUSH1 0x20 SWAP1 POP PUSH1 0x1F DUP4 GT PUSH1 0x1 DUP2 EQ PUSH3 0x66F JUMPI PUSH1 0x0 DUP5 ISZERO PUSH3 0x65A JUMPI DUP3 DUP8 ADD MLOAD SWAP1 POP JUMPDEST PUSH3 0x666 DUP6 DUP3 PUSH3 0x5D9 JUMP JUMPDEST DUP7 SSTORE POP PUSH3 0x6D6 JUMP JUMPDEST PUSH1 0x1F NOT DUP5 AND PUSH3 0x67F DUP7 PUSH3 0x425 JUMP JUMPDEST PUSH1 0x0 JUMPDEST DUP3 DUP2 LT ISZERO PUSH3 0x6A9 JUMPI DUP5 DUP10 ADD MLOAD DUP3 SSTORE PUSH1 0x1 DUP3 ADD SWAP2 POP PUSH1 0x20 DUP6 ADD SWAP5 POP PUSH1 0x20 DUP2 ADD SWAP1 POP PUSH3 0x682 JUMP JUMPDEST DUP7 DUP4 LT ISZERO PUSH3 0x6C9 JUMPI DUP5 DUP10 ADD MLOAD PUSH3 0x6C5 PUSH1 0x1F DUP10 AND DUP3 PUSH3 0x5B9 JUMP JUMPDEST DUP4 SSTORE POP JUMPDEST PUSH1 0x1 PUSH1 0x2 DUP9 MUL ADD DUP9 SSTORE POP POP POP JUMPDEST POP POP POP POP POP POP JUMP JUMPDEST PUSH32 0x4E487B7100000000000000000000000000000000000000000000000000000000 PUSH1 0x0 MSTORE PUSH1 0x11 PUSH1 0x4 MSTORE PUSH1 0x24 PUSH1 0x0 REVERT JUMPDEST PUSH1 0x0 DUP2 PUSH1 0x1 SHR SWAP1 POP SWAP2 SWAP1 POP JUMP JUMPDEST PUSH1 0x0 DUP1 DUP3 SWAP2 POP DUP4 SWAP1 POP JUMPDEST PUSH1 0x1 DUP6 GT ISZERO PUSH3 0x76C JUMPI DUP1 DUP7 DIV DUP2 GT ISZERO PUSH3 0x744 JUMPI PUSH3 0x743 PUSH3 0x6DE JUMP JUMPDEST JUMPDEST PUSH1 0x1 DUP6 AND ISZERO PUSH3 0x754 JUMPI DUP1 DUP3 MUL SWAP2 POP JUMPDEST DUP1 DUP2 MUL SWAP1 POP PUSH3 0x764 DUP6 PUSH3 0x70D JUMP JUMPDEST SWAP5 POP PUSH3 0x724 JUMP JUMPDEST SWAP5 POP SWAP5 SWAP3 POP POP POP JUMP JUMPDEST PUSH1 0x0 DUP3 PUSH3 0x787 JUMPI PUSH1 0x1 SWAP1 POP PUSH3 0x85A JUMP JUMPDEST DUP2 PUSH3 0x797 JUMPI PUSH1 0x0 SWAP1 POP PUSH3 0x85A JUMP JUMPDEST DUP2 PUSH1 0x1 DUP2 EQ PUSH3 0x7B0 JUMPI PUSH1 0x2 DUP2 EQ PUSH3 0x7BB JUMPI PUSH3 0x7F1 JUMP JUMPDEST PUSH1 0x1 SWAP2 POP POP PUSH3 0x85A JUMP JUMPDEST PUSH1 0xFF DUP5 GT ISZERO PUSH3 0x7D0 JUMPI PUSH3 0x7CF PUSH3 0x6DE JUMP JUMPDEST JUMPDEST DUP4 PUSH1 0x2 EXP SWAP2 POP DUP5 DUP3 GT ISZERO PUSH3 0x7EA JUMPI PUSH3 0x7E9 PUSH3 0x6DE JUMP JUMPDEST JUMPDEST POP PUSH3 0x85A JUMP JUMPDEST POP PUSH1 0x20 DUP4 LT PUSH2 0x133 DUP4 LT AND PUSH1 0x4E DUP5 LT PUSH1 0xB DUP5 LT AND OR ISZERO PUSH3 0x82B JUMPI DUP3 DUP3 EXP SWAP1 POP DUP4 DUP2 GT ISZERO PUSH3 0x825 JUMPI PUSH3 0x824 PUSH3 0x6DE JUMP JUMPDEST JUMPDEST PUSH3 0x85A JUMP JUMPDEST PUSH3 0x83A DUP5 DUP5 DUP5 PUSH1 0x1 PUSH3 0x71A JUMP JUMPDEST SWAP3 POP SWAP1 POP DUP2 DUP5 DIV DUP2 GT ISZERO PUSH3 0x854 JUMPI PUSH3 0x853 PUSH3 0x6DE JUMP JUMPDEST JUMPDEST DUP2 DUP2 MUL SWAP1 POP JUMPDEST SWAP4 SWAP3 POP POP POP JUMP JUMPDEST PUSH1 0x0 PUSH3 0x86E DUP3 PUSH3 0x2CB JUMP JUMPDEST SWAP2 POP PUSH3 0x87B DUP4 PUSH3 0x2CB JUMP JUMPDEST SWAP3 POP PUSH3 0x8AA PUSH32 0xFFFFFFFFFFFFFFFFFFFFFFFFFFFFFFFFFFFFFFFFFFFFFFFFFFFFFFFFFFFFFFFF DUP5 DUP5 PUSH3 0x775 JUMP JUMPDEST SWAP1 POP SWAP3 SWAP2 POP POP JUMP JUMPDEST PUSH1 0x0 PUSH3 0x8BF DUP3 PUSH3 0x2CB JUMP JUMPDEST SWAP2 POP PUSH3 0x8CC DUP4 PUSH3 0x2CB JUMP JUMPDEST SWAP3 POP DUP3 DUP3 MUL PUSH3 0x8DC DUP2 PUSH3 0x2CB JUMP JUMPDEST SWAP2 POP DUP3 DUP3 DIV DUP5 EQ DUP4 ISZERO OR PUSH3 0x8F6 JUMPI PUSH3 0x8F5 PUSH3 0x6DE JUMP JUMPDEST JUMPDEST POP SWAP3 SWAP2 POP POP JUMP JUMPDEST PUSH2 0x140F DUP1 PUSH3 0x90D PUSH1 0x0 CODECOPY PUSH1 0x0 RETURN INVALID PUSH1 0x80 PUSH1 0x40 MSTORE CALLVALUE DUP1 ISZERO PUSH2 0x10 JUMPI PUSH1 0x0 DUP1 REVERT JUMPDEST POP PUSH1 0x4 CALLDATASIZE LT PUSH2 0x9E JUMPI PUSH1 0x0 CALLDATALOAD PUSH1 0xE0 SHR DUP1 PUSH4 0x70A08231 GT PUSH2 0x66 JUMPI DUP1 PUSH4 0x70A08231 EQ PUSH2 0x15D JUMPI DUP1 PUSH4 0x88D695B2 EQ PUSH2 0x18D JUMPI DUP1 PUSH4 0x95D89B41 EQ PUSH2 0x1A9 JUMPI DUP1 PUSH4 0xA9059CBB EQ PUSH2 0x1C7 JUMPI DUP1 PUSH4 0xDD62ED3E EQ PUSH2 0x1F7 JUMPI PUSH2 0x9E JUMP JUMPDEST DUP1 PUSH4 0x6FDDE03 EQ PUSH2 0xA3 JUMPI DUP1 PUSH4 0x95EA7B3 EQ PUSH2 0xC1 JUMPI DUP1 PUSH4 0x18160DDD EQ PUSH2 0xF1 JUMPI DUP1 PUSH4 0x23B872DD EQ PUSH2 0x10F JUMPI DUP1 PUSH4 0x313CE567 EQ PUSH2 0x13F JUMPI JUMPDEST PUSH1 0x0 DUP1 REVERT JUMPDEST PUSH2 0xAB PUSH2 0x227 JUMP JUMPDEST PUSH1 0x40 MLOAD PUSH2 0xB8 SWAP2 SWAP1 PUSH2 0xC43 JUMP JUMPDEST PUSH1 0x40 MLOAD DUP1 SWAP2 SUB SWAP1 RETURN JUMPDEST PUSH2 0xDB PUSH1 0x4 DUP1 CALLDATASIZE SUB DUP2 ADD SWAP1 PUSH2 0xD6 SWAP2 SWAP1 PUSH2 0xD0D JUMP JUMPDEST PUSH2 0x2B5 JUMP JUMPDEST PUSH1 0x40 MLOAD PUSH2 0xE8 SWAP2 SWAP1 PUSH2 0xD68 JUMP JUMPDEST PUSH1 0x40 MLOAD DUP1 SWAP2 SUB SWAP1 RETURN JUMPDEST PUSH2 0xF9 PUSH2 0x3A7 JUMP JUMPDEST PUSH1 0x40 MLOAD PUSH2 0x106 SWAP2 SWAP1 PUSH2 0xD92 JUMP JUMPDEST PUSH1 0x40 MLOAD DUP1 SWAP2 SUB SWAP1 RETURN JUMPDEST PUSH2 0x129 PUSH1 0x4 DUP1 CALLDATASIZE SUB DUP2 ADD SWAP1 PUSH2 0x124 SWAP2 SWAP1 PUSH2 0xDAD JUMP JUMPDEST PUSH2 0x3AD JUMP JUMPDEST PUSH1 0x40 MLOAD PUSH2 0x136 SWAP2 SWAP1 PUSH2 0xD68 JUMP JUMPDEST PUSH1 0x40 MLOAD DUP1 SWAP2 SUB SWAP1 RETURN JUMPDEST PUSH2 0x147 PUSH2 0x69F JUMP JUMPDEST PUSH1 0x40 MLOAD PUSH2 0x154 SWAP2 SWAP1 PUSH2 0xE1C JUMP JUMPDEST PUSH1 0x40 MLOAD DUP1 SWAP2 SUB SWAP1 RETURN JUMPDEST PUSH2 0x177 PUSH1 0x4 DUP1 CALLDATASIZE SUB DUP2 ADD SWAP1 PUSH2 0x172 SWAP2 SWAP1 PUSH2 0xE37 JUMP JUMPDEST PUSH2 0x6B2 JUMP JUMPDEST PUSH1 0x40 MLOAD PUSH2 0x184 SWAP2 SWAP1 PUSH2 0xD92 JUMP JUMPDEST PUSH1 0x40 MLOAD DUP1 SWAP2 SUB SWAP1 RETURN JUMPDEST PUSH2 0x1A7 PUSH1 0x4 DUP1 CALLDATASIZE SUB DUP2 ADD SWAP1 PUSH2 0x1A2 SWAP2 SWAP1 PUSH2 0x106F JUMP JUMPDEST PUSH2 0x6CA JUMP JUMPDEST STOP JUMPDEST PUSH2 0x1B1 PUSH2 0x961 JUMP JUMPDEST PUSH1 0x40 MLOAD PUSH2 0x1BE SWAP2 SWAP1 PUSH2 0xC43 JUMP JUMPDEST PUSH1 0x40 MLOAD DUP1 SWAP2 SUB SWAP1 RETURN JUMPDEST PUSH2 0x1E1 PUSH1 0x4 DUP1 CALLDATASIZE SUB DUP2 ADD SWAP1 PUSH2 0x1DC SWAP2 SWAP1 PUSH2 0xD0D JUMP JUMPDEST PUSH2 0x9EF JUMP JUMPDEST PUSH1 0x40 MLOAD PUSH2 0x1EE SWAP2 SWAP1 PUSH2 0xD68 JUMP JUMPDEST PUSH1 0x40 MLOAD DUP1 SWAP2 SUB SWAP1 RETURN JUMPDEST PUSH2 0x211 PUSH1 0x4 DUP1 CALLDATASIZE SUB DUP2 ADD SWAP1 PUSH2 0x20C SWAP2 SWAP1 PUSH2 0x10E7 JUMP JUMPDEST PUSH2 0xB8E JUMP JUMPDEST PUSH1 0x40 MLOAD PUSH2 0x21E SWAP2 SWAP1 PUSH2 0xD92 JUMP JUMPDEST PUSH1 0x40 MLOAD DUP1 SWAP2 SUB SWAP1 RETURN JUMPDEST PUSH1 0x0 DUP1 SLOAD PUSH2 0x234 SWAP1 PUSH2 0x1156 JUMP JUMPDEST DUP1 PUSH1 0x1F ADD PUSH1 0x20 DUP1 SWAP2 DIV MUL PUSH1 0x20 ADD PUSH1 0x40 MLOAD SWAP1 DUP2 ADD PUSH1 0x40 MSTORE DUP1 SWAP3 SWAP2 SWAP1 DUP2 DUP2 MSTORE PUSH1 0x20 ADD DUP3 DUP1 SLOAD PUSH2 0x260 SWAP1 PUSH2 0x1156 JUMP JUMPDEST DUP1 ISZERO PUSH2 0x2AD JUMPI DUP1 PUSH1 0x1F LT PUSH2 0x282 JUMPI PUSH2 0x100 DUP1 DUP4 SLOAD DIV MUL DUP4 MSTORE SWAP2 PUSH1 0x20 ADD SWAP2 PUSH2 0x2AD JUMP JUMPDEST DUP3 ADD SWAP2 SWAP1 PUSH1 0x0 MSTORE PUSH1 0x20 PUSH1 0x0 KECCAK256 SWAP1 JUMPDEST DUP2 SLOAD DUP2 MSTORE SWAP1 PUSH1 0x1 ADD SWAP1 PUSH1 0x20 ADD DUP1 DUP4 GT PUSH2 0x290 JUMPI DUP3 SWAP1 SUB PUSH1 0x1F AND DUP3 ADD SWAP2 JUMPDEST POP POP POP POP POP DUP2 JUMP JUMPDEST PUSH1 0x0 DUP2 PUSH1 0x5 PUSH1 0x0 CALLER PUSH20 0xFFFFFFFFFFFFFFFFFFFFFFFFFFFFFFFFFFFFFFFF AND PUSH20 0xFFFFFFFFFFFFFFFFFFFFFFFFFFFFFFFFFFFFFFFF AND DUP2 MSTORE PUSH1 0x20 ADD SWAP1 DUP2 MSTORE PUSH1 0x20 ADD PUSH1 0x0 KECCAK256 PUSH1 0x0 DUP6 PUSH20 0xFFFFFFFFFFFFFFFFFFFFFFFFFFFFFFFFFFFFFFFF AND PUSH20 0xFFFFFFFFFFFFFFFFFFFFFFFFFFFFFFFFFFFFFFFF AND DUP2 MSTORE PUSH1 0x20 ADD SWAP1 DUP2 MSTORE PUSH1 0x20 ADD PUSH1 0x0 KECCAK256 DUP2 SWAP1 SSTORE POP DUP3 PUSH20 0xFFFFFFFFFFFFFFFFFFFFFFFFFFFFFFFFFFFFFFFF AND CALLER PUSH20 0xFFFFFFFFFFFFFFFFFFFFFFFFFFFFFFFFFFFFFFFF AND PUSH32 0x8C5BE1E5EBEC7D5BD14F71427D1E84F3DD0314C0F7B2291E5B200AC8C7C3B925 DUP5 PUSH1 0x40 MLOAD PUSH2 0x395 SWAP2 SWAP1 PUSH2 0xD92 JUMP JUMPDEST PUSH1 0x40 MLOAD DUP1 SWAP2 SUB SWAP1 LOG3 PUSH1 0x1 SWAP1 POP SWAP3 SWAP2 POP POP JUMP JUMPDEST PUSH1 0x3 SLOAD DUP2 JUMP JUMPDEST PUSH1 0x0 DUP2 PUSH1 0x4 PUSH1 0x0 DUP7 PUSH20 0xFFFFFFFFFFFFFFFFFFFFFFFFFFFFFFFFFFFFFFFF AND PUSH20 0xFFFFFFFFFFFFFFFFFFFFFFFFFFFFFFFFFFFFFFFF AND DUP2 MSTORE PUSH1 0x20 ADD SWAP1 DUP2 MSTORE PUSH1 0x20 ADD PUSH1 0x0 KECCAK256 SLOAD LT ISZERO PUSH2 0x431 JUMPI PUSH1 0x40 MLOAD PUSH32 0x8C379A000000000000000000000000000000000000000000000000000000000 DUP2 MSTORE PUSH1 0x4 ADD PUSH2 0x428 SWAP1 PUSH2 0x11D3 JUMP JUMPDEST PUSH1 0x40 MLOAD DUP1 SWAP2 SUB SWAP1 REVERT JUMPDEST DUP2 PUSH1 0x5 PUSH1 0x0 DUP7 PUSH20 0xFFFFFFFFFFFFFFFFFFFFFFFFFFFFFFFFFFFFFFFF AND PUSH20 0xFFFFFFFFFFFFFFFFFFFFFFFFFFFFFFFFFFFFFFFF AND DUP2 MSTORE PUSH1 0x20 ADD SWAP1 DUP2 MSTORE PUSH1 0x20 ADD PUSH1 0x0 KECCAK256 PUSH1 0x0 CALLER PUSH20 0xFFFFFFFFFFFFFFFFFFFFFFFFFFFFFFFFFFFFFFFF AND PUSH20 0xFFFFFFFFFFFFFFFFFFFFFFFFFFFFFFFFFFFFFFFF AND DUP2 MSTORE PUSH1 0x20 ADD SWAP1 DUP2 MSTORE PUSH1 0x20 ADD PUSH1 0x0 KECCAK256 SLOAD LT ISZERO PUSH2 0x4F0 JUMPI PUSH1 0x40 MLOAD PUSH32 0x8C379A000000000000000000000000000000000000000000000000000000000 DUP2 MSTORE PUSH1 0x4 ADD PUSH2 0x4E7 SWAP1 PUSH2 0x123F JUMP JUMPDEST PUSH1 0x40 MLOAD DUP1 SWAP2 SUB SWAP1 REVERT JUMPDEST DUP2 PUSH1 0x4 PUSH1 0x0 DUP7 PUSH20 0xFFFFFFFFFFFFFFFFFFFFFFFFFFFFFFFFFFFFFFFF AND PUSH20 0xFFFFFFFFFFFFFFFFFFFFFFFFFFFFFFFFFFFFFFFF AND DUP2 MSTORE PUSH1 0x20 ADD SWAP1 DUP2 MSTORE PUSH1 0x20 ADD PUSH1 0x0 KECCAK256 PUSH1 0x0 DUP3 DUP3 SLOAD PUSH2 0x53F SWAP2 SWAP1 PUSH2 0x128E JUMP JUMPDEST SWAP3 POP POP DUP2 SWAP1 SSTORE POP DUP2 PUSH1 0x4 PUSH1 0x0 DUP6 PUSH20 0xFFFFFFFFFFFFFFFFFFFFFFFFFFFFFFFFFFFFFFFF AND PUSH20 0xFFFFFFFFFFFFFFFFFFFFFFFFFFFFFFFFFFFFFFFF AND DUP2 MSTORE PUSH1 0x20 ADD SWAP1 DUP2 MSTORE PUSH1 0x20 ADD PUSH1 0x0 KECCAK256 PUSH1 0x0 DUP3 DUP3 SLOAD PUSH2 0x595 SWAP2 SWAP1 PUSH2 0x12C2 JUMP JUMPDEST SWAP3 POP POP DUP2 SWAP1 SSTORE POP DUP2 PUSH1 0x5 PUSH1 0x0 DUP7 PUSH20 0xFFFFFFFFFFFFFFFFFFFFFFFFFFFFFFFFFFFFFFFF AND PUSH20 0xFFFFFFFFFFFFFFFFFFFFFFFFFFFFFFFFFFFFFFFF AND DUP2 MSTORE PUSH1 0x20 ADD SWAP1 DUP2 MSTORE PUSH1 0x20 ADD PUSH1 0x0 KECCAK256 PUSH1 0x0 CALLER PUSH20 0xFFFFFFFFFFFFFFFFFFFFFFFFFFFFFFFFFFFFFFFF AND PUSH20 0xFFFFFFFFFFFFFFFFFFFFFFFFFFFFFFFFFFFFFFFF AND DUP2 MSTORE PUSH1 0x20 ADD SWAP1 DUP2 MSTORE PUSH1 0x20 ADD PUSH1 0x0 KECCAK256 PUSH1 0x0 DUP3 DUP3 SLOAD PUSH2 0x628 SWAP2 SWAP1 PUSH2 0x128E JUMP JUMPDEST SWAP3 POP POP DUP2 SWAP1 SSTORE POP DUP3 PUSH20 0xFFFFFFFFFFFFFFFFFFFFFFFFFFFFFFFFFFFFFFFF AND DUP5 PUSH20 0xFFFFFFFFFFFFFFFFFFFFFFFFFFFFFFFFFFFFFFFF AND PUSH32 0xDDF252AD1BE2C89B69C2B068FC378DAA952BA7F163C4A11628F55A4DF523B3EF DUP5 PUSH1 0x40 MLOAD PUSH2 0x68C SWAP2 SWAP1 PUSH2 0xD92 JUMP JUMPDEST PUSH1 0x40 MLOAD DUP1 SWAP2 SUB SWAP1 LOG3 PUSH1 0x1 SWAP1 POP SWAP4 SWAP3 POP POP POP JUMP JUMPDEST PUSH1 0x2 PUSH1 0x0 SWAP1 SLOAD SWAP1 PUSH2 0x100 EXP SWAP1 DIV PUSH1 0xFF AND DUP2 JUMP JUMPDEST PUSH1 0x4 PUSH1 0x20 MSTORE DUP1 PUSH1 0x0 MSTORE PUSH1 0x40 PUSH1 0x0 KECCAK256 PUSH1 0x0 SWAP2 POP SWAP1 POP SLOAD DUP2 JUMP JUMPDEST DUP1 MLOAD DUP3 MLOAD EQ PUSH2 0x70E JUMPI PUSH1 0x40 MLOAD PUSH32 0x8C379A000000000000000000000000000000000000000000000000000000000 DUP2 MSTORE PUSH1 0x4 ADD PUSH2 0x705 SWAP1 PUSH2 0x1342 JUMP JUMPDEST PUSH1 0x40 MLOAD DUP1 SWAP2 SUB SWAP1 REVERT JUMPDEST PUSH1 0x0 JUMPDEST DUP3 MLOAD DUP2 LT ISZERO PUSH2 0x95C JUMPI DUP2 DUP2 DUP2 MLOAD DUP2 LT PUSH2 0x72D JUMPI PUSH2 0x72C PUSH2 0x1362 JUMP JUMPDEST JUMPDEST PUSH1 0x20 MUL PUSH1 0x20 ADD ADD MLOAD PUSH1 0x4 PUSH1 0x0 CALLER PUSH20 0xFFFFFFFFFFFFFFFFFFFFFFFFFFFFFFFFFFFFFFFF AND PUSH20 0xFFFFFFFFFFFFFFFFFFFFFFFFFFFFFFFFFFFFFFFF AND DUP2 MSTORE PUSH1 0x20 ADD SWAP1 DUP2 MSTORE PUSH1 0x20 ADD PUSH1 0x0 KECCAK256 SLOAD LT ISZERO PUSH2 0x7B6 JUMPI PUSH1 0x40 MLOAD PUSH32 0x8C379A000000000000000000000000000000000000000000000000000000000 DUP2 MSTORE PUSH1 0x4 ADD PUSH2 0x7AD SWAP1 PUSH2 0x11D3 JUMP JUMPDEST PUSH1 0x40 MLOAD DUP1 SWAP2 SUB SWAP1 REVERT JUMPDEST DUP2 DUP2 DUP2 MLOAD DUP2 LT PUSH2 0x7C9 JUMPI PUSH2 0x7C8 PUSH2 0x1362 JUMP JUMPDEST JUMPDEST PUSH1 0x20 MUL PUSH1 0x20 ADD ADD MLOAD PUSH1 0x4 PUSH1 0x0 CALLER PUSH20 0xFFFFFFFFFFFFFFFFFFFFFFFFFFFFFFFFFFFFFFFF AND PUSH20 0xFFFFFFFFFFFFFFFFFFFFFFFFFFFFFFFFFFFFFFFF AND DUP2 MSTORE PUSH1 0x20 ADD SWAP1 DUP2 MSTORE PUSH1 0x20 ADD PUSH1 0x0 KECCAK256 PUSH1 0x0 DUP3 DUP3 SLOAD PUSH2 0x81F SWAP2 SWAP1 PUSH2 0x128E JUMP JUMPDEST SWAP3 POP POP DUP2 SWAP1 SSTORE POP DUP2 DUP2 DUP2 MLOAD DUP2 LT PUSH2 0x839 JUMPI PUSH2 0x838 PUSH2 0x1362 JUMP JUMPDEST JUMPDEST PUSH1 0x20 MUL PUSH1 0x20 ADD ADD MLOAD PUSH1 0x4 PUSH1 0x0 DUP6 DUP5 DUP2 MLOAD DUP2 LT PUSH2 0x858 JUMPI PUSH2 0x857 PUSH2 0x1362 JUMP JUMPDEST JUMPDEST PUSH1 0x20 MUL PUSH1 0x20 ADD ADD MLOAD PUSH20 0xFFFFFFFFFFFFFFFFFFFFFFFFFFFFFFFFFFFFFFFF AND PUSH20 0xFFFFFFFFFFFFFFFFFFFFFFFFFFFFFFFFFFFFFFFF AND DUP2 MSTORE PUSH1 0x20 ADD SWAP1 DUP2 MSTORE PUSH1 0x20 ADD PUSH1 0x0 KECCAK256 PUSH1 0x0 DUP3 DUP3 SLOAD PUSH2 0x8A9 SWAP2 SWAP1 PUSH2 0x12C2 JUMP JUMPDEST SWAP3 POP POP DUP2 SWAP1 SSTORE POP DUP3 DUP2 DUP2 MLOAD DUP2 LT PUSH2 0x8C3 JUMPI PUSH2 0x8C2 PUSH2 0x1362 JUMP JUMPDEST JUMPDEST PUSH1 0x20 MUL PUSH1 0x20 ADD ADD MLOAD PUSH20 0xFFFFFFFFFFFFFFFFFFFFFFFFFFFFFFFFFFFFFFFF AND CALLER PUSH20 0xFFFFFFFFFFFFFFFFFFFFFFFFFFFFFFFFFFFFFFFF AND PUSH32 0xDDF252AD1BE2C89B69C2B068FC378DAA952BA7F163C4A11628F55A4DF523B3EF DUP5 DUP5 DUP2 MLOAD DUP2 LT PUSH2 0x92C JUMPI PUSH2 0x92B PUSH2 0x1362 JUMP JUMPDEST JUMPDEST PUSH1 0x20 MUL PUSH1 0x20 ADD ADD MLOAD PUSH1 0x40 MLOAD PUSH2 0x941 SWAP2 SWAP1 PUSH2 0xD92 JUMP JUMPDEST PUSH1 0x40 MLOAD DUP1 SWAP2 SUB SWAP1 LOG3 DUP1 DUP1 PUSH2 0x954 SWAP1 PUSH2 0x1391 JUMP JUMPDEST SWAP2 POP POP PUSH2 0x711 JUMP JUMPDEST POP POP POP JUMP JUMPDEST PUSH1 0x1 DUP1 SLOAD PUSH2 0x96E SWAP1 PUSH2 0x1156 JUMP JUMPDEST DUP1 PUSH1 0x1F ADD PUSH1 0x20 DUP1 SWAP2 DIV MUL PUSH1 0x20 ADD PUSH1 0x40 MLOAD SWAP1 DUP2 ADD PUSH1 0x40 MSTORE DUP1 SWAP3 SWAP2 SWAP1 DUP2 DUP2 MSTORE PUSH1 0x20 ADD DUP3 DUP1 SLOAD PUSH2 0x99A SWAP1 PUSH2 0x1156 JUMP JUMPDEST DUP1 ISZERO PUSH2 0x9E7 JUMPI DUP1 PUSH1 0x1F LT PUSH2 0x9BC JUMPI PUSH2 0x100 DUP1 DUP4 SLOAD DIV MUL DUP4 MSTORE SWAP2 PUSH1 0x20 ADD SWAP2 PUSH2 0x9E7 JUMP JUMPDEST DUP3 ADD SWAP2 SWAP1 PUSH1 0x0 MSTORE PUSH1 0x20 PUSH1 0x0 KECCAK256 SWAP1 JUMPDEST DUP2 SLOAD DUP2 MSTORE SWAP1 PUSH1 0x1 ADD SWAP1 PUSH1 0x20 ADD DUP1 DUP4 GT PUSH2 0x9CA JUMPI DUP3 SWAP1 SUB PUSH1 0x1F AND DUP3 ADD SWAP2 JUMPDEST POP POP POP POP POP DUP2 JUMP JUMPDEST PUSH1 0x0 DUP2 PUSH1 0x4 PUSH1 0x0 CALLER PUSH20 0xFFFFFFFFFFFFFFFFFFFFFFFFFFFFFFFFFFFFFFFF AND PUSH20 0xFFFFFFFFFFFFFFFFFFFFFFFFFFFFFFFFFFFFFFFF AND DUP2 MSTORE PUSH1 0x20 ADD SWAP1 DUP2 MSTORE PUSH1 0x20 ADD PUSH1 0x0 KECCAK256 SLOAD LT ISZERO PUSH2 0xA73 JUMPI PUSH1 0x40 MLOAD PUSH32 0x8C379A000000000000000000000000000000000000000000000000000000000 DUP2 MSTORE PUSH1 0x4 ADD PUSH2 0xA6A SWAP1 PUSH2 0x11D3 JUMP JUMPDEST PUSH1 0x40 MLOAD DUP1 SWAP2 SUB SWAP1 REVERT JUMPDEST DUP2 PUSH1 0x4 PUSH1 0x0 CALLER PUSH20 0xFFFFFFFFFFFFFFFFFFFFFFFFFFFFFFFFFFFFFFFF AND PUSH20 0xFFFFFFFFFFFFFFFFFFFFFFFFFFFFFFFFFFFFFFFF AND DUP2 MSTORE PUSH1 0x20 ADD SWAP1 DUP2 MSTORE PUSH1 0x20 ADD PUSH1 0x0 KECCAK256 PUSH1 0x0 DUP3 DUP3 SLOAD PUSH2 0xAC2 SWAP2 SWAP1 PUSH2 0x128E JUMP JUMPDEST SWAP3 POP POP DUP2 SWAP1 SSTORE POP DUP2 PUSH1 0x4 PUSH1 0x0 DUP6 PUSH20 0xFFFFFFFFFFFFFFFFFFFFFFFFFFFFFFFFFFFFFFFF AND PUSH20 0xFFFFFFFFFFFFFFFFFFFFFFFFFFFFFFFFFFFFFFFF AND DUP2 MSTORE PUSH1 0x20 ADD SWAP1 DUP2 MSTORE PUSH1 0x20 ADD PUSH1 0x0 KECCAK256 PUSH1 0x0 DUP3 DUP3 SLOAD PUSH2 0xB18 SWAP2 SWAP1 PUSH2 0x12C2 JUMP JUMPDEST SWAP3 POP POP DUP2 SWAP1 SSTORE POP DUP3 PUSH20 0xFFFFFFFFFFFFFFFFFFFFFFFFFFFFFFFFFFFFFFFF AND CALLER PUSH20 0xFFFFFFFFFFFFFFFFFFFFFFFFFFFFFFFFFFFFFFFF AND PUSH32 0xDDF252AD1BE2C89B69C2B068FC378DAA952BA7F163C4A11628F55A4DF523B3EF DUP5 PUSH1 0x40 MLOAD PUSH2 0xB7C SWAP2 SWAP1 PUSH2 0xD92 JUMP JUMPDEST PUSH1 0x40 MLOAD DUP1 SWAP2 SUB SWAP1 LOG3 PUSH1 0x1 SWAP1 POP SWAP3 SWAP2 POP POP JUMP JUMPDEST PUSH1 0x5 PUSH1 0x20 MSTORE DUP2 PUSH1 0x0 MSTORE PUSH1 0x40 PUSH1 0x0 KECCAK256 PUSH1 0x20 MSTORE DUP1 PUSH1 0x0 MSTORE PUSH1 0x40 PUSH1 0x0 KECCAK256 PUSH1 0x0 SWAP2 POP SWAP2 POP POP SLOAD DUP2 JUMP JUMPDEST PUSH1 0x0 DUP2 MLOAD SWAP1 POP SWAP2 SWAP1 POP JUMP JUMPDEST PUSH1 0x0 DUP3 DUP3 MSTORE PUSH1 0x20 DUP3 ADD SWAP1 POP SWAP3 SWAP2 POP POP JUMP JUMPDEST PUSH1 0x0 JUMPDEST DUP4 DUP2 LT ISZERO PUSH2 0xBED JUMPI DUP1 DUP3 ADD MLOAD DUP2 DUP5 ADD MSTORE PUSH1 0x20 DUP2 ADD SWAP1 POP PUSH2 0xBD2 JUMP JUMPDEST PUSH1 0x0 DUP5 DUP5 ADD MSTORE POP POP POP POP JUMP JUMPDEST PUSH1 0x0 PUSH1 0x1F NOT PUSH1 0x1F DUP4 ADD AND SWAP1 POP SWAP2 SWAP1 POP JUMP JUMPDEST PUSH1 0x0 PUSH2 0xC15 DUP3 PUSH2 0xBB3 JUMP JUMPDEST PUSH2 0xC1F DUP2 DUP6 PUSH2 0xBBE JUMP JUMPDEST SWAP4 POP PUSH2 0xC2F DUP2 DUP6 PUSH1 0x20 DUP7 ADD PUSH2 0xBCF JUMP JUMPDEST PUSH2 0xC38 DUP2 PUSH2 0xBF9 JUMP JUMPDEST DUP5 ADD SWAP2 POP POP SWAP3 SWAP2 POP POP JUMP JUMPDEST PUSH1 0x0 PUSH1 0x20 DUP3 ADD SWAP1 POP DUP2 DUP2 SUB PUSH1 0x0 DUP4 ADD MSTORE PUSH2 0xC5D DUP2 DUP5 PUSH2 0xC0A JUMP JUMPDEST SWAP1 POP SWAP3 SWAP2 POP POP JUMP JUMPDEST PUSH1 0x0 PUSH1 0x40 MLOAD SWAP1 POP SWAP1 JUMP JUMPDEST PUSH1 0x0 DUP1 REVERT JUMPDEST PUSH1 0x0 DUP1 REVERT JUMPDEST PUSH1 0x0 PUSH20 0xFFFFFFFFFFFFFFFFFFFFFFFFFFFFFFFFFFFFFFFF DUP3 AND SWAP1 POP SWAP2 SWAP1 POP JUMP JUMPDEST PUSH1 0x0 PUSH2 0xCA4 DUP3 PUSH2 0xC79 JUMP JUMPDEST SWAP1 POP SWAP2 SWAP1 POP JUMP JUMPDEST PUSH2 0xCB4 DUP2 PUSH2 0xC99 JUMP JUMPDEST DUP2 EQ PUSH2 0xCBF JUMPI PUSH1 0x0 DUP1 REVERT JUMPDEST POP JUMP JUMPDEST PUSH1 0x0 DUP2 CALLDATALOAD SWAP1 POP PUSH2 0xCD1 DUP2 PUSH2 0xCAB JUMP JUMPDEST SWAP3 SWAP2 POP POP JUMP JUMPDEST PUSH1 0x0 DUP2 SWAP1 POP SWAP2 SWAP1 POP JUMP JUMPDEST PUSH2 0xCEA DUP2 PUSH2 0xCD7 JUMP JUMPDEST DUP2 EQ PUSH2 0xCF5 JUMPI PUSH1 0x0 DUP1 REVERT JUMPDEST POP JUMP JUMPDEST PUSH1 0x0 DUP2 CALLDATALOAD SWAP1 POP PUSH2 0xD07 DUP2 PUSH2 0xCE1 JUMP JUMPDEST SWAP3 SWAP2 POP POP JUMP JUMPDEST PUSH1 0x0 DUP1 PUSH1 0x40 DUP4 DUP6 SUB SLT ISZERO PUSH2 0xD24 JUMPI PUSH2 0xD23 PUSH2 0xC6F JUMP JUMPDEST JUMPDEST PUSH1 0x0 PUSH2 0xD32 DUP6 DUP3 DUP7 ADD PUSH2 0xCC2 JUMP JUMPDEST SWAP3 POP POP PUSH1 0x20 PUSH2 0xD43 DUP6 DUP3 DUP7 ADD PUSH2 0xCF8 JUMP JUMPDEST SWAP2 POP POP SWAP3 POP SWAP3 SWAP1 POP JUMP JUMPDEST PUSH1 0x0 DUP2 ISZERO ISZERO SWAP1 POP SWAP2 SWAP1 POP JUMP JUMPDEST PUSH2 0xD62 DUP2 PUSH2 0xD4D JUMP JUMPDEST DUP3 MSTORE POP POP JUMP JUMPDEST PUSH1 0x0 PUSH1 0x20 DUP3 ADD SWAP1 POP PUSH2 0xD7D PUSH1 0x0 DUP4 ADD DUP5 PUSH2 0xD59 JUMP JUMPDEST SWAP3 SWAP2 POP POP JUMP JUMPDEST PUSH2 0xD8C DUP2 PUSH2 0xCD7 JUMP JUMPDEST DUP3 MSTORE POP POP JUMP JUMPDEST PUSH1 0x0 PUSH1 0x20 DUP3 ADD SWAP1 POP PUSH2 0xDA7 PUSH1 0x0 DUP4 ADD DUP5 PUSH2 0xD83 JUMP JUMPDEST SWAP3 SWAP2 POP POP JUMP JUMPDEST PUSH1 0x0 DUP1 PUSH1 0x0 PUSH1 0x60 DUP5 DUP7 SUB SLT ISZERO PUSH2 0xDC6 JUMPI PUSH2 0xDC5 PUSH2 0xC6F JUMP JUMPDEST JUMPDEST PUSH1 0x0 PUSH2 0xDD4 DUP7 DUP3 DUP8 ADD PUSH2 0xCC2 JUMP JUMPDEST SWAP4 POP POP PUSH1 0x20 PUSH2 0xDE5 DUP7 DUP3 DUP8 ADD PUSH2 0xCC2 JUMP JUMPDEST SWAP3 POP POP PUSH1 0x40 PUSH2 0xDF6 DUP7 DUP3 DUP8 ADD PUSH2 0xCF8 JUMP JUMPDEST SWAP2 POP POP SWAP3 POP SWAP3 POP SWAP3 JUMP JUMPDEST PUSH1 0x0 PUSH1 0xFF DUP3 AND SWAP1 POP SWAP2 SWAP1 POP JUMP JUMPDEST PUSH2 0xE16 DUP2 PUSH2 0xE00 JUMP JUMPDEST DUP3 MSTORE POP POP JUMP JUMPDEST PUSH1 0x0 PUSH1 0x20 DUP3 ADD SWAP1 POP PUSH2 0xE31 PUSH1 0x0 DUP4 ADD DUP5 PUSH2 0xE0D JUMP JUMPDEST SWAP3 SWAP2 POP POP JUMP JUMPDEST PUSH1 0x0 PUSH1 0x20 DUP3 DUP5 SUB SLT ISZERO PUSH2 0xE4D JUMPI PUSH2 0xE4C PUSH2 0xC6F JUMP JUMPDEST JUMPDEST PUSH1 0x0 PUSH2 0xE5B DUP5 DUP3 DUP6 ADD PUSH2 0xCC2 JUMP JUMPDEST SWAP2 POP POP SWAP3 SWAP2 POP POP JUMP JUMPDEST PUSH1 0x0 DUP1 REVERT JUMPDEST PUSH32 0x4E487B7100000000000000000000000000000000000000000000000000000000 PUSH1 0x0 MSTORE PUSH1 0x41 PUSH1 0x4 MSTORE PUSH1 0x24 PUSH1 0x0 REVERT JUMPDEST PUSH2 0xEA1 DUP3 PUSH2 0xBF9 JUMP JUMPDEST DUP2 ADD DUP2 DUP2 LT PUSH8 0xFFFFFFFFFFFFFFFF DUP3 GT OR ISZERO PUSH2 0xEC0 JUMPI PUSH2 0xEBF PUSH2 0xE69 JUMP JUMPDEST JUMPDEST DUP1 PUSH1 0x40 MSTORE POP POP POP JUMP JUMPDEST PUSH1 0x0 PUSH2 0xED3 PUSH2 0xC65 JUMP JUMPDEST SWAP1 POP PUSH2 0xEDF DUP3 DUP3 PUSH2 0xE98 JUMP JUMPDEST SWAP2 SWAP1 POP JUMP JUMPDEST PUSH1 0x0 PUSH8 0xFFFFFFFFFFFFFFFF DUP3 GT ISZERO PUSH2 0xEFF JUMPI PUSH2 0xEFE PUSH2 0xE69 JUMP JUMPDEST JUMPDEST PUSH1 0x20 DUP3 MUL SWAP1 POP PUSH1 0x20 DUP2 ADD SWAP1 POP SWAP2 SWAP1 POP JUMP JUMPDEST PUSH1 0x0 DUP1 REVERT JUMPDEST PUSH1 0x0 PUSH2 0xF28 PUSH2 0xF23 DUP5 PUSH2 0xEE4 JUMP JUMPDEST PUSH2 0xEC9 JUMP JUMPDEST SWAP1 POP DUP1 DUP4 DUP3 MSTORE PUSH1 0x20 DUP3 ADD SWAP1 POP PUSH1 0x20 DUP5 MUL DUP4 ADD DUP6 DUP2 GT ISZERO PUSH2 0xF4B JUMPI PUSH2 0xF4A PUSH2 0xF10 JUMP JUMPDEST JUMPDEST DUP4 JUMPDEST DUP2 DUP2 LT ISZERO PUSH2 0xF74 JUMPI DUP1 PUSH2 0xF60 DUP9 DUP3 PUSH2 0xCC2 JUMP JUMPDEST DUP5 MSTORE PUSH1 0x20 DUP5 ADD SWAP4 POP POP PUSH1 0x20 DUP2 ADD SWAP1 POP PUSH2 0xF4D JUMP JUMPDEST POP POP POP SWAP4 SWAP3 POP POP POP JUMP JUMPDEST PUSH1 0x0 DUP3 PUSH1 0x1F DUP4 ADD SLT PUSH2 0xF93 JUMPI PUSH2 0xF92 PUSH2 0xE64 JUMP JUMPDEST JUMPDEST DUP2 CALLDATALOAD PUSH2 0xFA3 DUP5 DUP3 PUSH1 0x20 DUP7 ADD PUSH2 0xF15 JUMP JUMPDEST SWAP2 POP POP SWAP3 SWAP2 POP POP JUMP JUMPDEST PUSH1 0x0 PUSH8 0xFFFFFFFFFFFFFFFF DUP3 GT ISZERO PUSH2 0xFC7 JUMPI PUSH2 0xFC6 PUSH2 0xE69 JUMP JUMPDEST JUMPDEST PUSH1 0x20 DUP3 MUL SWAP1 POP PUSH1 0x20 DUP2 ADD SWAP1 POP SWAP2 SWAP1 POP JUMP JUMPDEST PUSH1 0x0 PUSH2 0xFEB PUSH2 0xFE6 DUP5 PUSH2 0xFAC JUMP JUMPDEST PUSH2 0xEC9 JUMP JUMPDEST SWAP1 POP DUP1 DUP4 DUP3 MSTORE PUSH1 0x20 DUP3 ADD SWAP1 POP PUSH1 0x20 DUP5 MUL DUP4 ADD DUP6 DUP2 GT ISZERO PUSH2 0x100E JUMPI PUSH2 0x100D PUSH2 0xF10 JUMP JUMPDEST JUMPDEST DUP4 JUMPDEST DUP2 DUP2 LT ISZERO PUSH2 0x1037 JUMPI DUP1 PUSH2 0x1023 DUP9 DUP3 PUSH2 0xCF8 JUMP JUMPDEST DUP5 MSTORE PUSH1 0x20 DUP5 ADD SWAP4 POP POP PUSH1 0x20 DUP2 ADD SWAP1 POP PUSH2 0x1010 JUMP JUMPDEST POP POP POP SWAP4 SWAP3 POP POP POP JUMP JUMPDEST PUSH1 0x0 DUP3 PUSH1 0x1F DUP4 ADD SLT PUSH2 0x1056 JUMPI PUSH2 0x1055 PUSH2 0xE64 JUMP JUMPDEST JUMPDEST DUP2 CALLDATALOAD PUSH2 0x1066 DUP5 DUP3 PUSH1 0x20 DUP7 ADD PUSH2 0xFD8 JUMP JUMPDEST SWAP2 POP POP SWAP3 SWAP2 POP POP JUMP JUMPDEST PUSH1 0x0 DUP1 PUSH1 0x40 DUP4 DUP6 SUB SLT ISZERO PUSH2 0x1086 JUMPI PUSH2 0x1085 PUSH2 0xC6F JUMP JUMPDEST JUMPDEST PUSH1 0x0 DUP4 ADD CALLDATALOAD PUSH8 0xFFFFFFFFFFFFFFFF DUP2 GT ISZERO PUSH2 0x10A4 JUMPI PUSH2 0x10A3 PUSH2 0xC74 JUMP JUMPDEST JUMPDEST PUSH2 0x10B0 DUP6 DUP3 DUP7 ADD PUSH2 0xF7E JUMP JUMPDEST SWAP3 POP POP PUSH1 0x20 DUP4 ADD CALLDATALOAD PUSH8 0xFFFFFFFFFFFFFFFF DUP2 GT ISZERO PUSH2 0x10D1 JUMPI PUSH2 0x10D0 PUSH2 0xC74 JUMP JUMPDEST JUMPDEST PUSH2 0x10DD DUP6 DUP3 DUP7 ADD PUSH2 0x1041 JUMP JUMPDEST SWAP2 POP POP SWAP3 POP SWAP3 SWAP1 POP JUMP JUMPDEST PUSH1 0x0 DUP1 PUSH1 0x40 DUP4 DUP6 SUB SLT ISZERO PUSH2 0x10FE JUMPI PUSH2 0x10FD PUSH2 0xC6F JUMP JUMPDEST JUMPDEST PUSH1 0x0 PUSH2 0x110C DUP6 DUP3 DUP7 ADD PUSH2 0xCC2 JUMP JUMPDEST SWAP3 POP POP PUSH1 0x20 PUSH2 0x111D DUP6 DUP3 DUP7 ADD PUSH2 0xCC2 JUMP JUMPDEST SWAP2 POP POP SWAP3 POP SWAP3 SWAP1 POP JUMP JUMPDEST PUSH32 0x4E487B7100000000000000000000000000000000000000000000000000000000 PUSH1 0x0 MSTORE PUSH1 0x22 PUSH1 0x4 MSTORE PUSH1 0x24 PUSH1 0x0 REVERT JUMPDEST PUSH1 0x0 PUSH1 0x2 DUP3 DIV SWAP1 POP PUSH1 0x1 DUP3 AND DUP1 PUSH2 0x116E JUMPI PUSH1 0x7F DUP3 AND SWAP2 POP JUMPDEST PUSH1 0x20 DUP3 LT DUP2 SUB PUSH2 0x1181 JUMPI PUSH2 0x1180 PUSH2 0x1127 JUMP JUMPDEST JUMPDEST POP SWAP2 SWAP1 POP JUMP JUMPDEST PUSH32 0x496E73756666696369656E742062616C616E6365000000000000000000000000 PUSH1 0x0 DUP3 ADD MSTORE POP JUMP JUMPDEST PUSH1 0x0 PUSH2 0x11BD PUSH1 0x14 DUP4 PUSH2 0xBBE JUMP JUMPDEST SWAP2 POP PUSH2 0x11C8 DUP3 PUSH2 0x1187 JUMP JUMPDEST PUSH1 0x20 DUP3 ADD SWAP1 POP SWAP2 SWAP1 POP JUMP JUMPDEST PUSH1 0x0 PUSH1 0x20 DUP3 ADD SWAP1 POP DUP2 DUP2 SUB PUSH1 0x0 DUP4 ADD MSTORE PUSH2 0x11EC DUP2 PUSH2 0x11B0 JUMP JUMPDEST SWAP1 POP SWAP2 SWAP1 POP JUMP JUMPDEST PUSH32 0x4E6F7420616C6C6F77656420746F207370656E64207468697320616D6F756E74 PUSH1 0x0 DUP3 ADD MSTORE POP JUMP JUMPDEST PUSH1 0x0 PUSH2 0x1229 PUSH1 0x20 DUP4 PUSH2 0xBBE JUMP JUMPDEST SWAP2 POP PUSH2 0x1234 DUP3 PUSH2 0x11F3 JUMP JUMPDEST PUSH1 0x20 DUP3 ADD SWAP1 POP SWAP2 SWAP1 POP JUMP JUMPDEST PUSH1 0x0 PUSH1 0x20 DUP3 ADD SWAP1 POP DUP2 DUP2 SUB PUSH1 0x0 DUP4 ADD MSTORE PUSH2 0x1258 DUP2 PUSH2 0x121C JUMP JUMPDEST SWAP1 POP SWAP2 SWAP1 POP JUMP JUMPDEST PUSH32 0x4E487B7100000000000000000000000000000000000000000000000000000000 PUSH1 0x0 MSTORE PUSH1 0x11 PUSH1 0x4 MSTORE PUSH1 0x24 PUSH1 0x0 REVERT JUMPDEST PUSH1 0x0 PUSH2 0x1299 DUP3 PUSH2 0xCD7 JUMP JUMPDEST SWAP2 POP PUSH2 0x12A4 DUP4 PUSH2 0xCD7 JUMP JUMPDEST SWAP3 POP DUP3 DUP3 SUB SWAP1 POP DUP2 DUP2 GT ISZERO PUSH2 0x12BC JUMPI PUSH2 0x12BB PUSH2 0x125F JUMP JUMPDEST JUMPDEST SWAP3 SWAP2 POP POP JUMP JUMPDEST PUSH1 0x0 PUSH2 0x12CD DUP3 PUSH2 0xCD7 JUMP JUMPDEST SWAP2 POP PUSH2 0x12D8 DUP4 PUSH2 0xCD7 JUMP JUMPDEST SWAP3 POP DUP3 DUP3 ADD SWAP1 POP DUP1 DUP3 GT ISZERO PUSH2 0x12F0 JUMPI PUSH2 0x12EF PUSH2 0x125F JUMP JUMPDEST JUMPDEST SWAP3 SWAP2 POP POP JUMP JUMPDEST PUSH32 0x496E76616C696420696E707574206C656E677468730000000000000000000000 PUSH1 0x0 DUP3 ADD MSTORE POP JUMP JUMPDEST PUSH1 0x0 PUSH2 0x132C PUSH1 0x15 DUP4 PUSH2 0xBBE JUMP JUMPDEST SWAP2 POP PUSH2 0x1337 DUP3 PUSH2 0x12F6 JUMP JUMPDEST PUSH1 0x20 DUP3 ADD SWAP1 POP SWAP2 SWAP1 POP JUMP JUMPDEST PUSH1 0x0 PUSH1 0x20 DUP3 ADD SWAP1 POP DUP2 DUP2 SUB PUSH1 0x0 DUP4 ADD MSTORE PUSH2 0x135B DUP2 PUSH2 0x131F JUMP JUMPDEST SWAP1 POP SWAP2 SWAP1 POP JUMP JUMPDEST PUSH32 0x4E487B7100000000000000000000000000000000000000000000000000000000 PUSH1 0x0 MSTORE PUSH1 0x32 PUSH1 0x4 MSTORE PUSH1 0x24 PUSH1 0x0 REVERT JUMPDEST PUSH1 0x0 PUSH2 0x139C DUP3 PUSH2 0xCD7 JUMP JUMPDEST SWAP2 POP PUSH32 0xFFFFFFFFFFFFFFFFFFFFFFFFFFFFFFFFFFFFFFFFFFFFFFFFFFFFFFFFFFFFFFFF DUP3 SUB PUSH2 0x13CE JUMPI PUSH2 0x13CD PUSH2 0x125F JUMP JUMPDEST JUMPDEST PUSH1 0x1 DUP3 ADD SWAP1 POP SWAP2 SWAP1 POP JUMP INVALID LOG2 PUSH5 0x6970667358 0x22 SLT KECCAK256 XOR 0xBF SWAP12 SHL 0xE DUP8 RETURNDATASIZE MUL 0xE1 0xCA 0x27 DUP8 0xCE PUSH8 0x4DBFC94568CF65A6 0xEF SELFDESTRUCT 0xB4 SELFDESTRUCT 0xAE DELEGATECALL CHAINID PUSH18 0x8EA964736F6C634300081200330000000000 "
				},
				"gasEstimates": {
					"creation": {
						"codeDepositCost": "1027000",
						"executionCost": "infinite",
						"totalCost": "infinite"
					},
					"external": {
						"allowance(address,address)": "infinite",
						"approve(address,uint256)": "infinite",
						"balanceOf(address)": "2814",
						"batchTransfer(address[],uint256[])": "infinite",
						"decimals()": "2560",
						"name()": "infinite",
						"symbol()": "infinite",
						"totalSupply()": "2474",
						"transfer(address,uint256)": "infinite",
						"transferFrom(address,address,uint256)": "infinite"
					}
				},
				"methodIdentifiers": {
					"allowance(address,address)": "dd62ed3e",
					"approve(address,uint256)": "095ea7b3",
					"balanceOf(address)": "70a08231",
					"batchTransfer(address[],uint256[])": "88d695b2",
					"decimals()": "313ce567",
					"name()": "06fdde03",
					"symbol()": "95d89b41",
					"totalSupply()": "18160ddd",
					"transfer(address,uint256)": "a9059cbb",
					"transferFrom(address,address,uint256)": "23b872dd"
				}
			},
			"storageLayout": {
				"storage": [
					{
						"astId": 3,
						"contract": "my_token.sol:MyToken",
						"label": "name",
						"offset": 0,
						"slot": "0",
						"type": "t_string_storage"
					},
					{
						"astId": 5,
						"contract": "my_token.sol:MyToken",
						"label": "symbol",
						"offset": 0,
						"slot": "1",
						"type": "t_string_storage"
					},
					{
						"astId": 7,
						"contract": "my_token.sol:MyToken",
						"label": "decimals",
						"offset": 0,
						"slot": "2",
						"type": "t_uint8"
					},
					{
						"astId": 9,
						"contract": "my_token.sol:MyToken",
						"label": "totalSupply",
						"offset": 0,
						"slot": "3",
						"type": "t_uint256"
					},
					{
						"astId": 13,
						"contract": "my_token.sol:MyToken",
						"label": "balanceOf",
						"offset": 0,
						"slot": "4",
						"type": "t_mapping(t_address,t_uint256)"
					},
					{
						"astId": 19,
						"contract": "my_token.sol:MyToken",
						"label": "allowance",
						"offset": 0,
						"slot": "5",
						"type": "t_mapping(t_address,t_mapping(t_address,t_uint256))"
					}
				],
				"types": {
					"t_address": {
						"encoding": "inplace",
						"label": "address",
						"numberOfBytes": "20"
					},
					"t_mapping(t_address,t_mapping(t_address,t_uint256))": {
						"encoding": "mapping",
						"key": "t_address",
						"label": "mapping(address => mapping(address => uint256))",
						"numberOfBytes": "32",
						"value": "t_mapping(t_address,t_uint256)"
					},
					"t_mapping(t_address,t_uint256)": {
						"encoding": "mapping",
						"key": "t_address",
						"label": "mapping(address => uint256)",
						"numberOfBytes": "32",
						"value": "t_uint256"
					},
					"t_string_storage": {
						"encoding": "bytes",
						"label": "string",
						"numberOfBytes": "32"
					},
					"t_uint256": {
						"encoding": "inplace",
						"label": "uint256",
						"numberOfBytes": "32"
					},
					"t_uint8": {
						"encoding": "inplace",
						"label": "uint8",
						"numberOfBytes": "1"
					}
				}
			},
			"userdoc": {
				"kind": "user",
				"methods": {},
				"version": 1
			}
		}
	}
}